:020000040800F2
:10000000F8120020C5010008913F0008553A000889
:100010003D3D0008DD310008CF4D00080000000024
:10002000000000000000000000000000494500083A
:10003000B532000800000000314400089147000874
:10004000DF010008DF010008DF010008DF01000810
:10005000DF010008DF010008DF010008DF01000800
:10006000DF010008DF010008DF010008DF010008F0
:10007000DF010008DF010008DF010008DF010008E0
:10008000DF010008DF010008DF010008DF010008D0
:10009000DF010008DF010008DF010008DF010008C0
:1000A000DF010008DF010008DF010008DF010008B0
:1000B000DF010008DF010008F5470008DF01000844
:1000C000DF010008DF010008DF010008DF01000890
:1000D000DF010008854B00080D4C0008DF01000817
:1000E000DF010008DF010008DF01000800F002F86E
:1000F00000F059F80AA090E8000C82448344AAF169
:100100000107DA4501D100F04EF8AFF2090EBAE866
:100110000F0013F0010F18BFFB1A43F0010318473B
:100120003487000054870000103A24BF78C878C193
:10013000FAD8520724BF30C830C144BF04680C60ED
:10014000704700000023002400250026103A28BF35
:1001500078C1FBD8520728BF30C148BF0B60704739
:10016000662907F0A586642900F0B280752900F0A1
:10017000AF80632900F08385732900F08885002013
:1001800070471FB501F06CF804000020002107F053
:100190004BF9401C60600020002107F02FF9E0605F
:1001A0001FBD10B510BD01F021FB1146FFF7E9FF9F
:1001B00006F072FA01F072FD03B4FFF7F2FF03BC20
:1001C00004F0C4FE0948804709480047FEE7FEE7FF
:1001D000FEE7FEE7FEE7FEE7FEE7FEE7FEE7FEE7F7
:1001E00004480549054A064B70470000954700083A
:1001F000ED000008F80C0020F8120020F80E002096
:10020000F80E0020704700000FB41CB5074B06AA7B
:100210007B4469460090059800F00FFD0020694678
:1002200000F01EFD1CBC5DF814FB00004D0A000030
:1002300070B5044685690068C10601D5302600E026
:100240002026C00707D070BDD4E901213046904771
:10025000206A401C20626D1EF6D570BD70B5044644
:1002600085690078C00707D170BDD4E9012120203D
:100270009047206A401C20626D1EF6D570BD70B597
:100280000C460546012A05D02878800600D5EA6983
:10029000002302E0012305E05B1C934202D2E05CF4
:1002A0000028F9D1A869E618C01AA861286A18447C
:1002B00028622846FFF7BCFF04E0D5E9012114F8C5
:1002C000010B9047B442F8D32846FFF7C7FF70BD33
:1002D0002DE9F0410646002410687529314616A51F
:1002E00010D0AFF30080002802DA404213A507E0E7
:1002F00031688A0701D512A502E0490704D511A586
:10030000012401E0AFF3008000210A2206F1240756
:1003100009E0B0FBF2FCB0FBF2F302FB1C00303052
:1003200078541846491C0028F3D123462A46304603
:10033000BDE8F04100F013BA000000002D000000FD
:100340002B000000200000002DE9F05F89460446E4
:100350004FF0000ADFF874B1FB44C0F820A020463B
:10036000E1688847002874D0252806D0D4E9012107
:100370009047206A401C2062F1E700265F46204635
:10038000E16888472028054607DB312D05D278191A
:1003900010F8200C08B10643F1E7B00701D526F0AC
:1003A0000406C4F81CA00027C4F818A02A2D09D000
:1003B000284604F0C4FD38B304EB8708303DC8F884
:1003C000185019E059F8041B204604EB870291618C
:1003D000E1688847012F054618D1E069002820DA36
:1003E00026F020061DE0D8F8180000EB800005EB91
:1003F00040003038C8F818002046E16888470546B4
:1004000004F09DFD0028EED1012F0AD02E2D08D139
:100410002046E16888477F1C0546022F46F02006EB
:10042000C4DBA069002803DA404246F00106A0615F
:10043000F00701D026F010066C2D0BD0682D09D0E6
:100440004C2D39D06A2D35D0742D35D07A2D33D03E
:1004500016E038E0E1682F4620468847B842054656
:1004600009D16C2F26D04FF48060E1680643204606
:100470008847054604E06C2F1AD04FF4807006437D
:100480000DB3A5F14100192802D8203546F40066C5
:100490004A462946204626604E46FFF761FE80B157
:1004A00001280BD0F61D26F0070000F1080956E7D9
:1004B0004020E4E78020D8E70020D6E706F10409D1
:1004C0004DE7284652E7206ABDE8F09FB48200005D
:1004D0000FB400B58DB010A9099000910B904FF0AA
:1004E000FF300A9000200C90064878440690064899
:1004F00078446A4607900F9909A800F04FFE0DB0A6
:100500005DF814FBCF0C0000E70C000040EA01038B
:1005100070B59B072ED14FF00136042A2AD308C8A4
:1005200010C99D1B9D43121F15EAC61517D0D8B2DE
:10053000E1B2401A50EA056110D198B2A1B2401A56
:1005400050EA05410AD123F07F4024F07F41401A50
:1005500050EA052102D1180EA0EB146070BDA34231
:10056000DBD018BA21BA884201D9012070BD4FF002
:10057000FF3070BD0AB9002070BD10F8013B11F8C2
:10058000014B63B1A3420AD1521E08D010F8013BBF
:1005900011F8014B1BB1A34201D1521EEDD1181B22
:1005A00070BD032A40F2308010F0030C00F015807B
:1005B00011F8013BBCF1020F624498BF11F801CB66
:1005C00000F8013B38BF11F8013BA2F1040298BFCB
:1005D00000F801CB38BF00F8013B11F0030300F035
:1005E0000D86083AC0F0088051F8043B083A51F8EB
:1005F00004CBA0E80810F5E7121D5CBF51F8043BDE
:1006000040F8043BAFF30080D20724BF11F8013B50
:1006100011F801CB48BF11F8012B24BF00F8013BB2
:1006200000F801CB48BF00F8012B70474FF00002E3
:100630000429C0F0128010F0030C00F01B80CCF1F4
:10064000040CBCF1020F18BF00F8012BA8BF20F862
:10065000022BA1EB0C0100F00DB85FEAC17C24BFB6
:1006600000F8012B00F8012B48BF00F8012B704760
:100670004FF0000200B5134694469646203922BF3B
:10068000A0E80C50A0E80C50B1F12001BFF4F7AF86
:10069000090728BFA0E80C5048BF0CC05DF804EB68
:1006A000890028BF40F8042B08BF704748BF20F8D6
:1006B000022B11F0804F18BF00F8012B704700008B
:1006C0004FF0013C50F8042B51F8043B9A4221D1E1
:1006D000A2EB0C03934313EACC1317D150F8042B6D
:1006E00051F8043B9A4215D1A2EB0C03934313EA51
:1006F000CC130BD150F8042B51F8043B9A4209D18A
:10070000A2EB0C03934313EACC13DBD04FF00000B1
:10071000704700BFD01A01BAB1FA81F101F0180197
:1007200022FA01F0CB40C1F12001DBB2C0B2C01A05
:100730002CFA01F3D11A914311EAC311E6D17047A3
:10074000704770477047704710B500F08DFD006826
:1007500010BD10B5044600F087FD046010BD2DE902
:10076000F0470D4699469246044600F12408016878
:10077000880604D5E06921F01001216000E0012025
:10078000A84201DD471B00E00027A1697A1902EBAE
:100790000900081AA0612078C00602D42046FFF79D
:1007A00047FD002608E0D4E901211AF80600904729
:1007B000206A401C761C20624E45F4DB2078C0067F
:1007C0000AD52046FFF734FD06E0D4E901213020A8
:1007D0009047206A401C2062381EA7F10107F4DC14
:1007E00007E0D4E9012118F805009047206A401C71
:1007F0002062281EA5F10105F3DC2046FFF72EFD3F
:100800002078000602D50220BDE8F0870120FBE732
:1008100070472DE9FF4F0C461E464FF0FF378BB057
:10082000D2E90001DDF860800A908A46C1F30A55DA
:1008300005B93D46002108464FF00000BAF1000F0F
:1008400000F4400005DA00EB80004FF4400101EABB
:1008500050004FEA9059B9F1010F00DDB9460A98EE
:1008600050EA4A000ED044F61050A5F2FF35454339
:100870002F14B8F1000F1ED07542291E1EDDC9F1DC
:1008800000021CE0B8F1010F4FF0000001D0302150
:1008900003E0F24305E02154401CB042FBDB30464C
:1008A0000022002121540B99C1F80880C1E90020E1
:1008B0000FB0BDE8F08FBD1B6D1CDEE74A4600DAC5
:1008C000694206A800F01CFF06AB93E8070003ABE3
:1008D00083E8070050460A9901F00AFA8DE80700FC
:1008E000A0F500501F3800900398002D0ADD42F259
:1008F0001F014A460844002303A90390684601F0FB
:10090000B5FC09E0A0F500504A461F38002303A9B2
:100910000390684601F0D4FC8DE807000004000C49
:1009200003D04FF0FF30410800E01046B8F1000F4F
:1009300003D00022009215461EE0751E05D400F07B
:1009400097FC303262556D1EF9D5B346012208433B
:1009500002D000227F1C04E02078302801D1002240
:100960007F1E002A099784D01DE0112D07DA00F0C0
:100970007FFC303262556D1C50EA0102F5D108430C
:1009800002D00098C8B10EE00021681E05E0235C8B
:10099000625C63542254401E491C8142F7DBAB4623
:1009A000A81B401E0990002004F80B000B98099A20
:1009B000C0F80880C0E9002B7AE711264FF0000844
:1009C00057E72DE9F04F88460446D21D22F0070173
:1009D00091B0D1E90001CDE90A0104F0FBF902462A
:1009E0000B98C00F01D02D2007E02068810701D5AA
:1009F0002B2002E0202101EAC000032A099001D047
:100A0000072A05DB03464146204600F07FFC0BE148
:100A10002078800601D5E06900E00620B8F1650F76
:100A2000814606D0B8F1660F18D0B8F1670F70D1C3
:100A300031E00020B9F1110F009001DB112301E03A
:100A400009F101030AAA01A90CA8FFF7E2FEDDE9FA
:100A50000C70002609F10105834647E001204B4652
:100A600000904FF000470AAA01A90CA8FFF7D1FE99
:100A7000DDE90DB00C995D46002610B909F10100C1
:100A80000D18B9EB050003D4C0F1FF3609F10105DB
:100A9000A5EB09002BE0B9F1010F01DA4FF00109D4
:100AA0000020B9F1110F0090484601DD112300E04C
:100AB00003460AAA01A90CA8FFF7ABFEDDE90C70FA
:100AC0004D4600268346207800070AD4AB4500DA5D
:100AD0005D4601A8012D04DD411911F8011C3029E2
:100AE00007D04F4502DA17F1040F04DA01208246DD
:100AF0000FE06D1EEEE7002F02DCED1B3E4403E02D
:100B0000781CA84200DD7D1CB81B00F1010A4FF0E3
:100B100000472078000703D4AA4501DB4FF0FF3AD5
:100B20000021B7F1004F0DF143088DF8431024D098
:100B300002202B23002F01DA7F422D230A21021EDF
:100B4000A0F1010000DC5FB197FBF1FC97FBF1F233
:100B500001FB1C7C17460CF1300C08F801CDEEE7C8
:100B6000A8F1010003702188090501D5452100E0A5
:100B70006521A0F1010800F8011C09980FA9A1EB5B
:100B80000807FF1D00B10120411901EBEA70A169BE
:100B90003844081A401EA0612078C00602D42046BE
:100BA000FFF746FB099828B1D4E901219047206A54
:100BB000401C20622078C00622D52046FFF738FB73
:100BC0001EE0002E04DBB34502DD01A8805D00E0DD
:100BD0003020D4E901219047206A401C2062761C15
:100BE000AAF101005FEA000A0AD100F039FBC068EF
:100BF0000168405CD4E901219047206A401C2062D2
:100C0000281EA5F10105DCDC07E0D4E9012118F874
:100C1000010B9047206A401C2062381EA7F1010793
:100C2000F3DC2046FFF71AFB032011B041E6000079
:100C300001694A1C02610878704700B58FB0CDE9A0
:100C400001310021059105497944CDE90310114690
:100C50006846FFF779FB0FB000BD0000E5FFFFFF1E
:100C60000A6802F8010B0A60704710B5436913B1B6
:100C7000AFF3008001E0FFF702FB012010BD127806
:100C800000F124010A7000224A700122EDE7116888
:100C90004FF0FF32E9E700002DE9FF4F06468BB029
:100CA0000878FF2806D0491C2D2805D000244FF0D5
:100CB000000908E000200CE00124F8E709EB8903B3
:100CC000491C00EB43090878FF28F7D114B1C9F19A
:100CD00000008146107800252C46AA4629462D287A
:100CE00001D02B2804D1521C2D2813D0002082467D
:100CF0008B461078FF280FD04FF0000C0A21521CB1
:100D0000A5FB017804FB018105FB0C11C5194BEB18
:100D10000104EEE70120EAE7002108464FF0000059
:100D2000BAF1000F02D000EB80004008C0F38157F9
:100D3000012F01DD4FF0FF370E9955EA040009EB52
:100D400001080BD04FF0020918F5FA7F16DA4FEAC6
:100D5000CA70002F706008DD012007E04FEACA70FA
:100D6000C6E900B00FB0BDE8F08F0020306000F0A1
:100D70007BFAC0F800901821084616E0B8F5FA7F13
:100D800018DD002F02DAF748784401E0F64878448D
:100D9000D0E90010C6E9001040EACA70706000F0A7
:100DA00063FAC0F80090142108460FB0BDE8F04F78
:100DB00007F07BB8002108464FF00000B8F10001B1
:100DC000099002DAC7F1000200E03A4601DAC8F100
:100DD000000106A800F094FC06AB93E8070003AB03
:100DE00083E8070044F23E005BEA040100905846A5
:100DF00004D144F21E012C465D460091210C0904E9
:100E0000014306D10099240444EA15442D04103905
:100E1000009104F07F41014306D10099240244EA85
:100E200015642D020839009104F07041014306D188
:100E30000099240144EA15742D01091F009104F062
:100E40004041014306D10099A40044EA9574AD00E5
:100E5000891E009104F00041084304D100986D19E7
:100E60006441401E00904FF001033A466846B8F1D5
:100E7000000FCDE9014503A902DD01F036FA01E0DA
:100E800001F009FABAF1000F04460D4601D084F0D2
:100E90000044002108464FF00000099940F2FF7716
:100EA000484010F00C0F07D124F00040284303D035
:100EB000C4F30A50B84212D100F0D6F9C0F800903D
:100EC000C4F30A50B8420AD1A8487844D0E90010C7
:100ED000C6E9001004F000410843706042E7C6E92B
:100EE00000543FE72DE9FF4F1F464FF0000A4FF037
:100EF000FF38454691B0D7E90146CDF83CA000F057
:100F0000AFF9C0680168405C1090B96912986D1C17
:100F10008847396A814688470028F6D1B9F1FF3FF2
:100F20000AD0002E24F4D06411DDB9F12B0F08D0C3
:100F3000B9F12D0F0BD102E0404615B013E744F490
:100F40008064B96912986D1C8847761E81466005D9
:100F500004A901D52D2000E02B20002E01F1010B6A
:100F60000DF130088DF810003FDDB9F1690F08D0A0
:100F7000B9F1490F05D0B9F16E0F02D0B9F14E0F9A
:100F80001CD13B4601A8009580E85002DDE9121211
:100F90006FF0020007F018F8C11CCED10EE0B9695D
:100FA00012986D1C884781461398761E44F400748D
:100FB00005600F98401C002E0F9016DDB9F1300F20
:100FC000EDD0B9F1780F02D0B9F1580F0DD10F98CB
:100FD00001280AD13B46CDE90054DDE91212001F79
:100FE000029606F0EFFFC11CA7D1109989453ED1AA
:100FF00044F0800406E01399681CAAF1010A44F445
:1010000000740860B9696D1C1298761E88473028F4
:101010008146F0D02BE01099894505D1200603D4F4
:10102000761E44F0800418E0484603F088FF08B3B9
:10103000761E0DF123018B4544F4007408D2A9F10A
:1010400030000BF8010B200607D5AAF1010003E0E0
:10105000200602D40AF101008246A00502D51399A8
:10106000681C0860B96912986D1C88478146002E7B
:10107000D1DC53E0002E51DDB9F1650F02D0B9F19A
:10108000450F4BD1A00549D5B9696D1C1298761E44
:1010900024F440748847002E81460CDD2B2804D0B0
:1010A000B9F12D0F07D144F48074B96912986D1C01
:1010B0008847761E8146E00501D52D2100E02B21D1
:1010C00008F8011BCDF8008021E0761E0DF13901F2
:1010D000884544F400740CD2A9F1300010F0FF00F0
:1010E00088F8000002D10099884509D908F1010863
:1010F00006E0E00501D51E4801E042F20F7082468D
:10110000B96912986D1C8847814613980560002EB6
:1011100004DD484603F013FF0028D6D1F969129880
:101120008847FF2053468BF8000088F80000002015
:101130000A900B9004AA0CA90AA8FFF7ADFDA00520
:1011400002D46FF00100F8E614F0240F12D0E0078B
:101150001CD13868DDE90A12031D3B600068C0E954
:10116000001213E0F07A0000E27A0000A679000095
:10117000F1D8FFFF0AA9684603F070FEE00705D129
:101180003868009A011D3960006802602846D4E67C
:10119000026811441378016018467047D160054910
:1011A0007944516104497944116200211161114669
:1011B00000F0ECB8EDFFFFFF51010000426842B1C2
:1011C000016811F8013B23B1521EC0E90012184614
:1011D00070470121C160881E704742685AB1C368D8
:1011E000016843B983688B4205D0491E521CC0E98F
:1011F0000012002070474FF0FF30704710B5203AC2
:10120000C0F00B80B1E81850203AA0E81850B1E8BF
:101210001850A0E81850BFF4F5AF5FEA027C24BF75
:10122000B1E81850A0E8185044BF18C918C0BDE86C
:1012300010405FEA827C24BF51F8043B40F8043B35
:1012400008BF7047D20728BF31F8023B48BF11F8EA
:10125000012B28BF20F8023B48BF00F8012B704744
:1012600000487047B80C002000487047980C0020D8
:1012700030B5B0F10A024FEA900E71F100034EEA68
:10128000817EB0EB0E0061EB91014FEA101E4EEA39
:10129000017E10EB0E0041EB11114FEA102E4EEAC9
:1012A000016E10EB0E0041EB11214FEA104E4EEA99
:1012B000014E10EB0E0041EB1141401841F10001CD
:1012C0004FEAD00040EA41704FEAD10110EB8005AF
:1012D0004FEA810444EA907444EB01046D1944EB35
:1012E0000404521BA3414FF0000348BF0A3200D54B
:1012F00030BD401C41F1000130BD10B5044600F086
:101300009BFA0068005D00F0010010BD2DE9F0417E
:101310001F46044603260168072A01F4006004DB27
:1013200008B116A505E016A503E008B115A500E073
:1013300015A521F010002060A069C01EA0610FB1AA
:10134000401EA0612046FEF773FF4FB1D4E9012192
:1013500038469047206A401C2062C01C206206E08C
:10136000206AFAE7D4E9012115F8010B9047761EAF
:10137000F8D22046FEF772FFBDE8F0814E414E00E4
:101380006E616E00494E4600696E66002DE9F34FAE
:101390004FF0000A0C4656468DB001200C9001F12A
:1013A0000C000B9062690B9801219047051E2DD00F
:1013B000252D2CD0216A8847C0B162690B98012184
:1013C0009047216A88470028F7D16269411E0B982F
:1013D000904700E0761CA1690D988847216A8847EC
:1013E0000028F7D1E1690D988847DBE7A1690D98DE
:1013F0008847A842074601D1761CD3E7E1690D98DA
:1014000088477F1C02D1BAF1000F6FD06BE162698F
:101410000B9800273D46394690472A2804D1626937
:101420000B98012190470125DFF8D08262690B9863
:1014300001219047A0F130010A290AD24745E5DC95
:1014400007EB870100EB4107303FDFD445F0100583
:10145000ECE7E90601D46FF000476C280AD04C286D
:1014600014D0682815D06A280DD074281CD07A288A
:101470001AD01DE062690B98012190476C2802D0B8
:1014800045F0040514E045F002050DE045F02005A7
:101490000AE062690B9801219047682802D045F064
:1014A000080505E045F4006562690B980121904745
:1014B000C4E9015765283DD019DC58287AD00CDCE6
:1014C000452837D004DC252826D041289ED131E09C
:1014D00046282FD0472899D12CE05B2877D0612867
:1014E00028D063287CD0642823D15AE0F6E06F2806
:1014F00048D008DC66281DD067281BD0692821D079
:101500006E2816D127E0702845D0732868D075283A
:1015100047D078280DD14DE0A1690D98884725283E
:1015200005463FF469AFE1690D9888476D1C3FF4AB
:101530006AAFD8E00D9923466A466FF0010006F0C5
:101540003FFDC5E045F0400023464FF000026060DB
:10155000A80736D43EE0E8077FF447AF2068011DB6
:1015600021600068290501D506701BE7290701D510
:10157000068017E7A90703D5F117C0E9006111E755
:1015800006600FE745F0400023464FF00802606018
:10159000A80716D41EE040F60E0125EA010060609F
:1015A00016E045F0400023464FF00A026060A807AD
:1015B00007D40FE045F040006060A80708D5234637
:1015C00010220D996FF00100AFF3008080E007E07A
:1015D000102223460D996FF00100AFF3008077E0F1
:1015E0004FF0000963284F46C8464B46CB4602D011
:1015F0005B2806D038E0E80601D40120A06001276E
:1016000032E06269D4F80CB00B98012190475E2853
:1016100007D14FF0010949466269D4F80CB00B9824
:101620009047216939B900210A4603AB43F82120CC
:10163000491C0829FADBD8B3216949B308F101082C
:1016400062690B98012190475D28F4D1B9F1000F30
:1016500009D0002003A951F82020D24341F82020CE
:10166000401C0828F7DB03AB2069002820794FEAEB
:1016700040701ED05B462246CDF80080CDE9019730
:101680000D9900286FF0010020DAAFF300801FE011
:10169000C11703AA00EBD1614B1121F01F0102EB2E
:1016A0008302411A13680120884003431360C7E78F
:1016B00019E00D99224600286FF00100009702DA28
:1016C000AFF3008004E0AFF3008001E0AFF30080EF
:1016D00000280ADA401C06D10C9820B14FF0FF30E8
:1016E0000FB0BDE8F08F5046FAE7E90701D10AF1E3
:1016F000010A064400200C9054E60000CCCCCC0C2F
:101700002DE9F047814616468AB0354878440DC821
:101710008DE80D0032487844801C03AC0DC884E885
:101720000D0041F69B300844372190FBF1F290FB0D
:10173000F1F5A5F1800501FB12041B3C02D56442C2
:10174000012000E00020DFF898A080460027FA443E
:10175000AAF1BE0A0EE0E0070AD03246684607EB5F
:10176000470101230AEB810100F0AAFD8DE8070083
:1017700064107F1C002CEED1194F7F44AE3F19E05E
:10178000E80715D007EB04100DF1180A90E80E00D9
:101790008AE80E00C068F04201D1981908903246DC
:1017A000012306A903A800F08BFD03AB83E8070023
:1017B0006D10641C002DE3D14FF0010332466946E1
:1017C000B8F1000F03A802D000F050FD01E000F0D6
:1017D00077FDC9E90001C9F808200AB0BDE8F08723
:1017E000906F000000487047980C00207546FFF786
:1017F000F9FFAE4605006946534620F007008546CE
:1018000018B020B5FEF7ECFCBDE820404FF0000614
:101810004FF000074FF000084FF0000B21F00701D8
:10182000AC46ACE8C009ACE8C009ACE8C009ACE81B
:10183000C0098D467047000010B5FFF711FD001D6F
:1018400010BD00BFE55B00002DE9FF4F1F464FF0C4
:101850003C0987B04FF00042DDE9141001F10108A6
:10186000DDF858A002EA405003900020059083461E
:10187000054604460490B969461E08988847AAF1AF
:10188000010A0290BAF1000F3BDD02982E2815D014
:10189000102100F01FFA00282EDB4FF0010B0599F4
:1018A000014317D0B9F1000F0BDB4A46C11700F016
:1018B000FEF905430C43A9F1040905E00120049059
:1018C0000BE008B145F0010501200590049820B90E
:1018D000361D02E0049800B1361FB969089808F176
:1018E00001088847BBF1000FAAF1010A0290C9D094
:1018F0000999C1F80080C5E70298702808D05028DF
:1019000006D0F96908988847BBF1000F14D04FE062
:10191000002002900120BBF1000F049009D0B969AA
:10192000089808F101088847AAF10109B9F1000FE8
:1019300007DCF969089888476FF001000BB0BDE833
:10194000F08F2B2804D02D280CD14FF0FF300490BD
:10195000B969089808F101088847A9F10109B9F1A6
:10196000000FE6DD411CE4D00A2100F0B3F90028A5
:10197000DFDB029908F1010801EB810100EB410076
:101980000290B969089888470A2100F0A3F9099ADA
:10199000A9F10109B9F1000FC2F8008001DD0028AA
:1019A000E7DAF969089888470499029800FB01660C
:1019B00055EA040004D004F04041090002D006E0DA
:1019C000039898E0A40044EA9574AD00B61E04F0B4
:1019D0000041080002D16D196441761E159810F07F
:1019E000240F03D04FF00B095C4803E04FF02809A7
:1019F0006FF07D008246564507DAAAEB060189445E
:101A0000B9F1410F01DD4FF0410901200021A9F199
:101A1000010200F04CF9024628400B4621400843E1
:101A200001D0012100E00021501E029143F1FF315D
:101A300028402140084301D0012000E00020029905
:101A4000834651EA0B014FD0002108464FF00000B9
:101A5000039900F4400039B100EB80004FF44001DD
:101A600000EBD07001EA60008015012802DD4FF024
:101A7000FF3000E013D0401C36D0029860B3BBF1B9
:101A8000000F0CD14A460120002100F010F9284037
:101A90002140084301D0012000E00020E0B10120F6
:101AA0004A46002100F003F9034640190A46614105
:101AB0002D1A8C4111D3B9F1400F09DD159810F0A2
:101AC000240F02D0AAF1340603E0AAF1170600E0C1
:101AD000761C00254FF0004406E05B1E42F1FF3209
:101AE00020EA030521EA0204CAF10100B04206DA45
:101AF0001B49039808430190002000900EE0039AD0
:101B0000C4F3D321E80A0A43164940EA44500A4381
:101B10003146CDE90002684603F006FA159810F048
:101B2000240F0BD01598C00715D13868DDE90012D5
:101B3000031D3B600068C0E900120CE002A8694682
:101B400003F08CF91598C00705D13868029A011D79
:101B50003960006802604046F0E6000002FCFFFFCA
:101B60000000F07F0000F03F2DE9FF4F92461D4638
:101B700085B04FF00041DDE9124BDDE914727F1EA4
:101B800001EA4B50414940F0FF4940EA0108002179
:101B900022F020004928049102D04E2828D04CE0A1
:101BA0003BA0012607C88DE80700A9690698641CB8
:101BB00088477F1E014606D41DF8060018B121F0A3
:101BC000200181420BD0E96906988847032E34D062
:101BD000082E32D06FF0010009B0BDE8F08F761CFE
:101BE000032E01D0082EE0D1601CCAF80000DCE70B
:101BF000A9690698641C88477F1E2AD420F020001B
:101C0000412826D1A9690698641C88477F1E20D4E4
:101C100020F020004E281CD1A9690698641C884732
:101C20007F1E48F4002849F48009CAF8004001D416
:101C3000282806D0E969069888475FEACB7012D059
:101C400022E0A9690698641C88477F1E01D40028F9
:101C500003DAE96906988847BCE72928F1D1641CB2
:101C6000CAF80040E9E71BF0240F07D02868049960
:101C7000031D2B600068C0E9001805E02868021DFC
:101C80002A600068C0F800902046A5E70000F07FB9
:101C9000494E46494E4954590000000010B50446CB
:101CA000AFF300802046BDE81040FEF785BAB2F1E0
:101CB00020030AD5C2F1200301FA02F120FA03F34E
:101CC00000FA02F041EA0301704700FA03F14FF015
:101CD000000070473A2800D2303820F02002412A14
:101CE00001D3A2F13700884201D34FF0FF30704793
:101CF0005FEA400C08BF91F0000F4FEA8C234FEAD7
:101D0000C12243EA51514FEA1C5018BF00F5F04080
:101D10004FEA300018BF41F000415FEA6C5C00F010
:101D20002980BCF1FF3F08BF40F080407047130C92
:101D300006BF12044FF0100C4FF0000C130E04BF3E
:101D400012020CF1080C130F04BF12010CF1040C69
:101D5000930F04BF92000CF1020CD30F04BF52008A
:101D60000CF1010C11464FF00002A0F11F00A0EB96
:101D70000C00704711F0004F08BF704731F0004170
:101D80003FF4D5AF0B0C06BF09044FF0100C4FF019
:101D9000000C0B0E04BF09020CF1080C0B0F04BF62
:101DA00009010CF1040C8B0F04BF89000CF1020C2B
:101DB000CB0F04BF49000CF1010CCCF12003A0EBC8
:101DC0000C0022FA03F302FA0CF241EA030100F1DB
:101DD0000100704720F07F4C80EA030023F07F472A
:101DE000ACEB070303F57C5300F0004003F1FF0365
:101DF0002DE980494FEA154B09B44FEA144325EA0F
:101E00000B4E24EA03480FF2042606EB1327490879
:101E10003E785FEA320203FB0667C7F5000707FB5F
:101E200006F64FEA54374FEAD64606F1020607FB9C
:101E3000066CCCF1005C4FEA1C472CEA074C07FB10
:101E400006F40CFB06F504EB15464FEA961634BF74
:101E500000204FF000404FEAD13706FB07FC4FEA65
:101E60001C4C0CFB0BF7D21B03FB0CF761EB0701BF
:101E70000CFB0EF7B0EB074072EB17420CFB08F7B8
:101E800034BFA2EB0742B2EB074261EB17414FEAC6
:101E90000C444FEA910706FB07FC4FEA1C4C0CFB75
:101EA0000BF7B0EBC74072EB573203FB0CF734BFB4
:101EB000A2EBC742B2EBC74261EB57310CFB0EF706
:101EC000B0EBC70072EB57720CFB08F734BFA2EB04
:101ED000C702B2EBC70261EB5771039F4FEA816102
:101EE00041EA921104EBCC044FEAD1374FEA826207
:101EF00006FB07FC42EA90124FEA80604FEA1C4C56
:101F00000CFB0BF7D21B03FB0CF761EB07010CFB7F
:101F10000EF7B0EB074072EB17420CFB08F734BF2B
:101F2000A2EB0742B2EB074261EB17414FEA8C5537
:101F30004FEA910704EB9C2406FB07FC4FEA1C4C7C
:101F40000CFB0BF7B0EBC74072EB573203FB0CF7FF
:101F500034BFA2EBC742B2EBC74261EB57310CFB77
:101F60000EF7B0EBC70072EB57720CFB08F734BFEB
:101F7000A2EBC702B2EBC70261EB577115EB4C2520
:101F80004FEA816141EA92114FEA82624FEAD1370A
:101F900042EA901206FB07FC44F100044FEA80601D
:101FA0004FEA1C4C0CFB0BF7D21B03FB0CF761EB4D
:101FB00007010CFB0EF7B0EB074072EB17420CFB6E
:101FC00008F734BFA2EB0742B2EB074261EB1741BF
:101FD00015EB1C154FEA813141EA92414FEA8232FA
:101FE00042EA90424FEA80304FEA0C7644F1000416
:101FF00048EA03434EEA0B484FF0000EB2EB080CE0
:1020000071EB030724BF624639464EEB0E0E4FF0CC
:10201000000B0018524149414BEB0B0BB2EB080C83
:1020200071EB03077BF1000B24BF624639464EEB90
:102030000E0E4FF0000B0018524149414BEB0B0BB9
:10204000B2EB080C71EB03077BF1000B24BF624677
:1020500039464EEB0E0E51EA020718BF46F0010654
:1020600016EB0E7655F1000254F1000103D5BDE8E0
:102070008901BDE80088BDE88901BDE80048B619BE
:10208000524141EB0101A3F10103704780807F7E43
:102090007D7C7B7A797877767675747372717170DE
:1020A0006F6E6E6D6C6C6B6A6A6968686766666590
:1020B0006464636362616160605F5F5E5E5D5D5C1E
:1020C0005C5B5B5A5A59595858575756565555558F
:1020D0005454535352525251515050504F4F4F4EEF
:1020E0004E4D4D4D4C4C4C4B4B4B4A4A4A4949493D
:1020F000484848474747474646464545454444447F
:1021000044434343434242424241414146EA064638
:10211000A3F570534FEA164646EA42564FEAD222DA
:1021200042EA415210B54FEAD121A3F1010300F078
:102130002FF820F0004000F1020C00F0004701EB06
:1021400000501146BCF5006F40EA070000D210BDF8
:10215000BAF1000F0AD01CB503B44FF004004FF0E1
:1021600004014FF000000FBCBDE810404FF000012B
:10217000BBF1010FB9BF04484FF0FF310348002104
:1021800040EA070010BD00BFFFFFEF7F0000F07FB7
:10219000002B9C4630D477002BD01CB54FEA370774
:1021A00003B44FF010004FF01001BAF1000F06D049
:1021B000BCF1000FDCBF40F0080040F008014FF018
:1021C00000000FBCBDE810400BF1010BBBF1010F8B
:1021D00008BF5FEA170722BF12F1010211F10101E6
:1021E0004FF0004143F1000300F0004043EA0000DB
:1021F0007047F9D35708D0E746EA064613F1400F77
:102200004FEA16461FDD13F1200FDFBF16430A46C3
:10221000002120335B42BED0C3F1200746EA0646C8
:1022200002FA07F74FEA164646EA0706C3F1200707
:1022300022FA03F201FA07F721FA03F14FF0000343
:1022400042EA0702A7E746EA020646EA06464FEADE
:10225000164646EA0106BCBF46EA0646360C4FF073
:1022600000034FF000024FF0000194E72DE9804C8D
:102270009A46934670B491E8380007C831EA400C9A
:1022800048BF34EA430C03D5FFF7A4FDFFF780FFF6
:10229000F0BCBDE8008C2DE9804C9A46934670B4A2
:1022A00091E8380007C831EA400C48BF34EA430CD3
:1022B00003D5FFF78FFDFFF729FFF0BCBDE8008CC9
:1022C0002DE9804C9A46934670B491E8380007C8CF
:1022D00010F0804F08BF13F0804F03D100F01AF8C0
:1022E000FFF756FFF0BCBDE8008C2DE9804C9A4604
:1022F000934670B491E8380007C810F0804F08BFCB
:1023000013F0804F03D100F005F8FFF7FFFEF0BC9B
:10231000BDE8008C20F07F4780EA030023F07F4C6B
:1023200007EB0C03A3F57C5300F00040A3F1FE0380
:1023300092F0000F00F0B38095F0000F00F077806E
:102340002DE901494FEA11404FEA144621EA0048BD
:1023500000FB06FC24EA064708FB06F607FB08F824
:1023600000FB07F718EB06484CEB164C4FEA124BF4
:1023700018EB07484FEA15464CEB174022EA0B4E84
:102380000BFB06FC25EA06470EFB06F607FB0EFED6
:102390000BFB07F71EEB064E4CEB164C4FF00006FE
:1023A0001EEB074E4CEB174B18EB0B0840F10000EF
:1023B00018EB0E0B58EB000840F100008F1A4FF09D
:1023C00000013CBFC943661B14BFB5EB040C0021E0
:1023D0003CBFC943F61B4FEA17444EEA8E0E27EA6C
:1023E00004454FEA1C4704FB07622CEA074C05FB37
:1023F00007F70CFB05F604FB0CFC16EB074642EB5B
:10240000174216EB0C4642EB1C421BEB060658EB40
:102410000202414146EA9E0601D5BDE80189B6198E
:10242000524141EB0101A3F10103BDE801894FEAEB
:1024300014454FEA114724EA054621EA074C05FBFB
:1024400007F406FB07F70CFB06F105FB0CFC11EB90
:10245000074144EB17444FEA124711EB0C4144EBA0
:102460001C4422EA074C05FB07F206FB07F70CFBAE
:1024700006F605FB0CFC16EB074642EB174216EB83
:102480000C4642EB1C456A1854F1000148BF7047E6
:10249000B619524141EB0101A3F10103704795F0D8
:1024A000000F37D04FEA11424FEA144721EA0246A3
:1024B00024EA074C02FB07F106FB07F70CFB06F4C6
:1024C00002FB0CFC14EB074441EB17414FEA1547A4
:1024D00014EB0C4441EB1C4125EA074C02FB07F5C9
:1024E00006FB07F70CFB06F602FB0CFC16EB074697
:1024F00045EB174516EB0C4645EB1C42121951F102
:10250000000148BF7047B619524141EB0101A3F1E8
:10251000010370474FEA14454FEA114724EA054684
:1025200021EA074C05FB07F106FB07F70CFB06F257
:102530004FF0000605FB0CFC12EB074241EB174184
:1025400012EB0C4251EB1C4148BF7047921841EB13
:102550000101A3F10103704708B500220092044A6B
:102560000092009A02440092009A116008BD000097
:10257000006C004010B592B0012044490870012160
:102580000D2001F067FF0121414801F009FA4FF4E5
:102590004050ADF8440014208DF8470003208DF81A
:1025A000460011A93B4801F06FF94FF48040ADF8A7
:1025B000440010208DF8470011A9364801F064F955
:1025C0004FF40040ADF8440048208DF8470011A9B1
:1025D000314801F059F94FF480412E4801F033FAA7
:1025E0004FF480512B4801F02EFA4FF40051294846
:1025F00001F029FA29480021016081802848016002
:102600004FF4C0712748FEF711F8002026490860F2
:10261000264908602649087026490870264908702E
:10262000264908702649088026490880402101A8CB
:10263000FEF71EF800240BE02349085D01AB4FF4C0
:102640007A72002102F05EFE00B103E0601CC4B2A9
:10265000042CF1DB00BF18480078852810D0002436
:102660000BE01949085D01AB4FF47A72012102F0C9
:1026700049FE00B103E0601CC4B2042CF1DB00BFD2
:1026800000200249087012B010BD00003600002082
:1026900000023000000C0140000801402200002030
:1026A00028000020800100202C00002030000020A5
:1026B00034000020350000202100002020000020F0
:1026C000380000203A0000200C8000082DE9FC4171
:1026D00004460027002514B1002084F83D00474837
:1026E0000078D0B946480078A0B9464800884FF62F
:1026F000FF71884204D243480088401C4149088049
:1027000040480088C82805D300203E49088020465C
:1027100003F018FA0020BDE8FC8100261EE069469F
:1027200001A800F03DF900B91AE001279DF8040066
:1027300035490870BDF80000344908809DF8040050
:10274000032803D09DF80400042805D1BDF800102B
:10275000204603F00DF80543701CC6B2032EDED3ED
:1027600000BF35B100202749088029490880012091
:10277000D1E794F83C00E0B1DFB925480088401C5F
:10278000234908800846008819280DD300200880B6
:102790001A4908701F49087001201F490870204617
:1027A00003F0D0F90020B6E7002016490880012088
:1027B000B1E713480078D8B9124800884FF6FF7186
:1027C000884204D20F480088401C0E4908800D48FA
:1027D000008828280CD300200A490880074908707F
:1027E0000C49087001200C490870204603F0AAF932
:1027F0000DB101208FE700208DE70000340000209C
:10280000360000203800002045000020480000204D
:102810003A000020210000203500002000B9704758
:1028200006490968064A116000218161C16101629F
:1028300080F83E1080F83D1000BFF0E73000002027
:102840002C0000202DE9F05F0446894614B194F86D
:102850003C0008B9BDE8F09F4A4801684A48006852
:1028600005F0AEFA824603F08FFA804694F83E00F7
:1028700000287CD00021484605F0DEF977D240469A
:10288000E16905F09DFA054604E04049284605F057
:1028900097FA05463E49284605F0CEF9F5D304E0FF
:1028A0003A49284604F04AFF05463A49284605F0C9
:1028B000C3F8F5D34946284604F0B4FF074600BFE5
:1028C00025F000408246344905F0B6F907D300BF31
:1028D00027F0004082462E4905F0AEF92CD2494639
:1028E0002B4805F0DDF806460021304605F0A4F837
:1028F00000D8294E2849304605F09EF900D2264ED0
:102900003146284605F098F900D2354686F0004A4F
:102910002946504605F090F901D286F00045294637
:10292000E06904F00BFF824603F02EFA8046494628
:10293000284604F077FF07461549384605F07CF92C
:1029400000D2134F1349384605F076F800D2114FE4
:102950003846216A05F034FA8346104905F0A0F89C
:102960008246216A04F0EAFE206205E0FFE70020CB
:102970002062012084F83E00C4F81880C4F81C804E
:1029800000BF67E72C000020300000200000B443A7
:1029900000003443000034C300003442295C0F3E81
:1029A0002DE9F041E2B006460F464FF400413148B0
:1029B00001F03EF818B1002062B0BDE8F0812E4869
:1029C0000068401C2C49086000202C4908702C48E5
:1029D00000210160042102F0E1FF20B90120274914
:1029E00008700020E8E7264800782549497840EA41
:1029F0000128C8F30E08B8F1040F04D202201F49C1
:102A000008700020D8E7A8F1040084B214B1B4F52E
:102A1000C07F04D90320194908700020CCE7201D8D
:102A200081B201A802F0BAFF20B90420134908704E
:102A30000020C1E74FF4C0711248FDF7F7FD0025F3
:102A400006E001A9281D085C0E494855681C85B29E
:102A5000A542F6DB0020094908700B480068401CBD
:102A60000949086016B106488078307007B13C808B
:102A70000120A1E7000801403C00002044000020A4
:102A800028000020800100204000002008B501211E
:102A9000082001F0DFFC2020ADF8000048208DF870
:102AA000030002208DF802006946044800F0ECFEA5
:102AB0000020034908700349087008BD000C01405C
:102AC000600000206C000020024908780021014AC3
:102AD000117070476C00002010B504462248007841
:102AE00030B101280DD002281DD0032839D131E0A2
:102AF00003F06CFD20B11D48046001201A490870E4
:102B00002FE003F063FD18B900201749087009E0B1
:102B100016480068201A142804D3154804600220BF
:102B2000114908701DE003F051FD30B90120114931
:102B3000087000200C4908700BE00D480068201A4E
:102B4000B0F57A7F05D302200A49087003200649B0
:102B5000087006E003F03AFD10B900200249087041
:102B600000BF00BF10BD0000600000206800002012
:102B7000640000206C00002010B501F0C9FA01F0DB
:102B80004BFA00200549087005A20121084601F012
:102B900063FB002000F00CF810BD00007400002062
:102BA00053797374656D205265616479000000008B
:102BB00010B586B004460D48007828B10C4800686E
:102BC000A04201D106B010BD22460AA101A8FDF71E
:102BD0001BFB01AA0121042001F03EFB0448046014
:102BE00001200249087000BFECE7000074000020DB
:102BF000700000204558503A2530346C7520202054
:102C000020202020200000002DE9F04F87B004464E
:102C10000D461646994624B1012C08D0022C12D13B
:102C20000BE027A20121084601F016FB11E027A2C4
:102C30000121084601F010FB0BE027A20121084604
:102C400001F00AFB05E027A20121084601F004FB80
:102C500000BF00BF012D01D125A000E025A0024644
:102C60000A21012001F0F8FA304604F03BFD074646
:102C70003A460B4620A102A8FDF7C6FA02AA012196
:102C8000022001F0E9FA109804F02CFD074688466E
:102C9000484604F027FD824652460B4619A102A879
:102CA000CDE90078FDF7B0FA02AA0121032001F076
:102CB000D3FA1198FFF77CFF07B0BDE8F08F000052
:102CC00053544F5020202020000000005354524104
:102CD0004947485400000000545241434B494E4775
:102CE000000000003F3F3F20202020200000000087
:102CF0005400000053000000593A252B372E31664E
:102D0000000000004C3A252B352E306620523A2523
:102D10002B352E306600000000B587B0012104205D
:102D200001F098FB0121480401F084FB03208DF899
:102D30001A000420ADF8180018208DF81B0006A911
:102D4000284800F0A1FD0820ADF8180048208DF8B3
:102D50001B0006A9234800F097FD4FF4E1300290D4
:102D60000020ADF814000C20ADF812000020ADF8E2
:102D70001000ADF80E00ADF80C0002A91A4801F0E1
:102D8000B1FF012240F22551174801F086FF0022D1
:102D900040F22771144801F080FF4FF4A06001F069
:102DA00031F926208DF8040001208DF807008DF8F8
:102DB00005008DF8060001A801F0ECF801210A4891
:102DC00001F028FF002009490880094908800949C5
:102DD000087009490870094908700949087007B066
:102DE00000BD0000000801400044004058000020E1
:102DF0005A0000205C0000205D0000205F000020E1
:102E00005E0000202DE9F04FD7B004468946924677
:102E10009B4639A02490012C02D139A0249003E0D4
:102E2000022C01D139A02490669804F05BFC054681
:102E30000E46659804F056FC07468846649804F0F0
:102E400051FCCDE92201639804F04CFCCDE920014E
:102E5000629804F047FCCDE91E01619804F042FC41
:102E6000CDE91C01609804F03DFCCDE91A015846FB
:102E700004F038FCCDE91801504604F033FCCDE9EC
:102E80001601679804F02EFCCDE91078CDE91256B2
:102E9000CDE91401DDE92201CDE90E01DDE92001D2
:102EA000CDE90C01DDE91E01CDE90A01DDE91C01D6
:102EB000CDE90801DDE91A01CDE90601DDE91801D6
:102EC000CDE90401DDE91601CDE90201DDE91401D6
:102ED000CDE90001B9F1010F01D10FA000E008A078
:102EE00003460F4925A8249AFDF78EF925A800F07E
:102EF00019F857B0BDE8F08F53544F500000000050
:102F00005354524149474854000000005452414331
:102F10004B494E4700000000545241434B00000013
:102F20001C87000810B5044604B910BD03E014F86E
:102F3000010B04F0AFF920780028F8D100BFF4E7C6
:102F40002DE9F04FC5B00446894692469B465698F7
:102F500004F0C8FB05460E46509804F0C3FB074634
:102F600088464F9804F0BEFBCDE90E56CDE910011E
:102F7000539B529A54995598CDE90923CDE90B10EA
:102F80005198CDE906780890DDE91001CDE90401FA
:102F90004E98534622460649CDE9009B029012A85E
:102FA000FDF732F912A8FFF7BDFF45B0BDE8F08F7D
:102FB000B88600082DE9F04FADF50D7D05460E46AB
:102FC00091469A46DDF88CB2A29C3EA08B902D20B3
:102FD0008A90012C02D13CA08B9012E0022C02D1ED
:102FE0003AA08B900DE0032C02D139A08B9008E021
:102FF000042C02D137A08B9003E0052C01D136A020
:103000008B90BBF1010F02D14C208A9004E0BBF100
:10301000020F01D152208A90A49804F063FB074666
:103020008846A09804F05EFBCDE924019E9804F048
:1030300059FBCDE92201989804F054FBCDE9200119
:10304000979804F04FFBCDE91E01A69BA59AA7997E
:10305000A898CDE91878CDE91A23CDE91C108B9AF0
:10306000A1998A98CDE914121690DDE92401CDE9E1
:1030700012019F981090DDE92201CDE90E019B9B82
:103080009A9A9C999D98CDE90923CDE90B109998BE
:103090000890DDE92001CDE90601DDE91E01CDE959
:1030A000040196984B462A460C49CDE9006A0290E5
:1030B00026A8FDF7A9F826A8FFF734FF0DF50D7D2A
:1030C000BDE8F08F54524B0041574E0041544E0022
:1030D0004152430043535200523930009087000858
:1030E0002DE9F04105460E4605B116B90020BDE8B0
:1030F000F08103F0B7FE00BFEFF31080074672B611
:103100001248007818B907B962B60020EFE71048F6
:103110000078B04202DB701E0D490870002404E004
:103120000C48005D2855601CC4B2094800788442F0
:10313000F6DB002006490978685404490870044900
:10314000087007B962B60120D1E700005F000020D7
:103150005E000020700B002010B540F225511B4886
:1031600001F071FD38B1194801F028FEC4B22046C3
:1031700003F028FE00BF0821144801F057FD10B1EC
:10318000124801F01BFE40F22771104801F05BFD70
:10319000D0B10F4800880F49098888420ED00E48E8
:1031A0000B490988445C0A48008804F09FF80849E4
:1031B00008802146054801F006FE05E0002240F2A5
:1031C0002771024801F069FD10BD00000044004075
:1031D0005A0000205800002030030020032002F095
:1031E000F3FE000010B5324BB3F90E30002B03DBB9
:1031F0002F4BB3F90E3003E02D4BDB895B421BB242
:103200001A4602EB82039B00782493FBF4F1284BCF
:103210001B8A5B1A18B2782801DA782004E0B0F52E
:10322000D27F01DD4FF4D270214BDB8903441BB206
:103230001F4C63822346DB89C31A1BB2A382234639
:10324000B3F91230B3F5167F03DD4FF416736382C2
:1032500010E0174BB3F91230002B03DC0023144CA1
:10326000638207E0124BB3F91230502B02DA50237D
:103270000F4C63820E4BB3F91430B3F5167F04DDA7
:103280004FF416730A4CA38210E0094BB3F91430C3
:10329000002B03DC0023064CA38207E0044BB3F9A8
:1032A0001430502B02DA5023014CA38210BD0000D1
:1032B00000030020704700B5034603E04FF47A7026
:1032C00000F005F8181EA3F10103F7D100BD00EBD3
:1032D000C001C9004FF0E022516100219161052138
:1032E000116100BF4FF0E021096901F4803100292C
:1032F000F8D004214FF0E0221161704770B5044608
:103300000D4624B10021284604F096FB00D870BD7C
:103310002946144804F0C4FB0646216DA06D04F054
:103320008BFB0CD23146A06D04F008FAA065216D2C
:10333000A06D04F081FC13D2206DA06510E0216D1A
:10334000A06D04F079FC0BD23146A06D04F038FD7D
:10335000A065216DA06D04F06FFB01D2206DA0650A
:1033600000BFD4E70000A0412DE9FE4F04460E4601
:10337000154624B10021284604F05EFB02D8002047
:10338000BDE8FE8F666529462046FFF7B7FF314648
:10339000A06D04F015FD8246A16EA06D04F080FBC7
:1033A00083462B4632465146204600F0B1FF02903C
:1033B0005846029904F0C2F980461749404604F085
:1033C0003BFC01D2DFF850804FF07E51404604F0C4
:1033D00033FB13D24FF07E585146206804F060FB57
:1033E00059460190404604F0EBFC0090019904F02E
:1033F000E7FC8146A16904F0E3FCE0604FF07C51FA
:10340000404604F09BF9814604F0CEFA07B2A4F8D6
:1034100070703846B4E70000000016442DE9FF4FF5
:1034200089B004469046DDF85C9024B100214846FE
:1034300004F002FB02D80DB0BDE8F08FC4F8648040
:103440004A4620460A99FFF78FFF8246D4E91701C2
:1034500004F074F90746414604F0B2FC054603F057
:10346000ADFF06463146A06A04F01AFB0790206BB8
:1034700080F000400290169904F012FB8346E06A47
:1034800006900021304604F0D7FB01D8304601E019
:1034900086F0004002904FF07F51029804F0CCFB80
:1034A00004D24E49069804F0FBFA0690BAF1000FD8
:1034B00001DB514601E0CAF10001084604F090FA30
:1034C00005900021059804F0B7FB06D24449059801
:1034D00004F0B2FA01D2424800E005980490414954
:1034E000049804F0DDFA05463F49284604F0A4FAA2
:1034F00000D23D4D2846A16C04F09EFB00D2A56C85
:103500003146069804F0CCFA4946019004F0C8FA16
:103510000290616B04F012F9074685F000402A46DC
:1035200001460290384602F077FC0746676385F053
:10353000004039460290079804F000F9594600907F
:1035400004F0FCF82A460190029902F065FC039011
:10355000039860640021039804F06EFB09D84FF0D3
:103560007C51039804F0EAF8029004F01DFA00B2CE
:1035700008E04FF07C51039804F022FC029004F024
:1035800013FA00B20890194A1949584602F044FC4F
:1035900002900021029804F04FFB09D84FF07C51B3
:1035A000029804F0CBF8019004F0FEF900B208E0B4
:1035B0004FF07C51029804F003FC019004F0F4F900
:1035C00000B2A4F874000798A067E767C4F880B059
:1035D0000898A4F8720000BF2DE700009A99993E60
:1035E0000000A042CDCCCC3E0000A04000004843EB
:1035F000000048C310B5044604B910BD0F4844F894
:10360000500F002060600E48A0600020E0600D4870
:10361000206100206061A083E08320846084A08416
:10362000A062E06220636063A0630748A061503C31
:10363000204600F00BF800BFDFE70000000020414B
:10364000333313419A99193E33330B4138B504464D
:1036500004B938BD0B4820650B4800230B4A4FF0D6
:103660007F510090204600F0B5FE0948094B0A4AF8
:103670000A49009004F1280000F0ACFE0848A0665A
:1036800000BFE6E70000204100001644CDCCCC3D51
:1036900000004843CDCC4C408FC2753D0000C04077
:1036A00033330B4138B5044604B938BD07482065AB
:1036B00007480023074A4FF07F510090204600F052
:1036C00089FE0548A06600BFEFE7000000008C43BC
:1036D00000001644CDCCCC3D33330B4100B502463F
:1036E00002B900BD104600F092FE02F1280000F081
:1036F0008EFE002042F8540F0748506000201083CF
:1037000050839083D083108450629062D0621063A3
:10371000543A00BFE5E70000333313411FB50121E0
:10372000032000F087FE0121042000F093FE4820D2
:103730008DF80F0003208DF80E00C320ADF80C00AB
:1037400003A9294800F0A0F80020ADF80600ADF864
:1037500002004FF6FF70ADF804000020ADF8000045
:103760008DF8080069464FF0804001F05DF90023B4
:103770001A4603214FF0804001F06AF84FF0804074
:10378000008B40F60F71084040F0C00040F440400C
:103790004FF0804108836946144801F045F9002341
:1037A0001A460321114801F053F8104818300088D8
:1037B00040F60F71084040F0C00040F440400B4913
:1037C000183108800121880701F027F801210748F6
:1037D00001F023F800214FF0804001F023F900218F
:1037E000024801F01FF91FBD00080140000400401D
:1037F00010B500214FF0804001F014F9002102487B
:1038000001F010F910BD00000004004070B504463E
:1038100004B970BD4FF0804001F03BF806B20021C2
:103820004FF0804001F0FEF8164801F032F805B282
:103830000021144801F0F6F8704206B200BFA681DC
:10384000E581002020766076304601F081FB40F66D
:103850002821884202DD002601202076284601F03A
:1038600077FB40F62821884202DD002501206076A2
:10387000268165812068304420606068284460604B
:1038800000BFC6E7000400402DE9F04102460025D4
:103890000026002000230024002791F803C00CF02C
:1038A0000F0591F803C00CF0100CBCF1000F03D011
:1038B00091F802C04CEA050591F800C0BCF1000F78
:1038C00031D0146800202BE04FF0010C0CFA00F30B
:1038D000B1F800C00CEA03069E4220D183004FF0ED
:1038E0000F0C0CFA03F7BC4305FA03FC4CEA040482
:1038F00091F803C0BCF1280F06D14FF0010C0CFA6F
:1039000000FCC2F814C00AE091F803C0BCF1480FF3
:1039100005D14FF0010C0CFA00FCC2F810C0401C9D
:103920000828D1D31460B1F800C0BCF1FF0F34DD1A
:10393000546800202EE000F1080C4FF0010808FA4E
:103940000CF3B1F800C00CEA03069E4221D18300BB
:103950004FF00F0C0CFA03F7BC4305FA03FC4CEADA
:10396000040491F803C0BCF1280F05D100F1080C44
:1039700008FA0CF8C2F8148091F803C0BCF1480FA3
:1039800007D100F1080C4FF0010808FA0CF8C2F852
:103990001080401C0828CED35460BDE8F0810000A0
:1039A000F0B50A46002300240021002500F000465F
:1039B000B6F1004F02D11D4EF16901E01B4E716856
:1039C000C0F3034583B200F44016B6F5401F08D19A
:1039D00021F07061154E766826F07066134F7E6098
:1039E00012E000F48016B6F5801F06D1032606FA11
:1039F00005F4A14341F0706106E0460D360103FA7B
:103A000006F6B14341F0706122B1460D360103FA6A
:103A100006F6314300F00046B6F1004F02D1034EE6
:103A2000F16101E0014E7160F0BD00000000014055
:103A30000246002093680B400BB1012000E00020FB
:103A4000704741617047016170470AB1016100E050
:103A500041617047012002F0B7FA000008B501216A
:103A60001C2000F0F7FC48208DF8030003208DF89F
:103A700002004FF4E050ADF8000069460948FFF736
:103A800003FF40F61820ADF8000069460648FFF72E
:103A9000FBFE4FF40050ADF8000069460348FFF705
:103AA000F3FE08BD00080140000C01400010014079
:103AB0002DE9F05F05460024A0460DB9BDE8F09F52
:103AC0004FF48061344802F0D6FD08B144F001049F
:103AD0004FF40061304802F0CEFD08B144F002041A
:103AE0004FF480512C4802F0C6FD08B144F00404A4
:103AF00008212A4802F0BFFD08B144F00804102153
:103B0000264802F0B8FD08B144F010044FF40071EB
:103B1000224802F0B0FD08B144F020044FF40061E7
:103B20001E4802F0A8FD08B144F040044FF40051D3
:103B30001B4802F0A0FD08B144F08004204602F0CA
:103B40008BFD07462C706F701FB90020A87068604D
:103B5000B4E70120A870002609E00120B040204011
:103B600018B1104830F916008044701CC6B2082EF7
:103B7000F3DB384603F04CFF83460B4903F090FF1C
:103B80008146404603F02CFF8246494603F04AFE38
:103B9000686000BF92E7000000080140000C01408F
:103BA00000100140FC7F00080000C8420148B0F945
:103BB000100070470003002010B530210648FCF7C4
:103BC00057FD0648044988610548C861DC20088221
:103BD00000F046F810BD0000000300203333B33E70
:103BE0006666E63E03480078022801D1012070474E
:103BF0000020FCE700030020782800DA7820B0F5E8
:103C0000D27F01DD4FF4D270014908827047000075
:103C10000003002070B505460C460021284604F03C
:103C20000BF801D2044885610021204604F004F815
:103C300001D80148C46170BD0003002010B50446DE
:103C400002F07AFF012005490870002048700CB18D
:103C5000204600E004200149C87110BD0003002087
:103C600010B500200C490870487081F8210081F8D7
:103C7000220081F8200081F8230081F82400886266
:103C800081F82C0081F82D0081F82E0081F82F009A
:103C900003F02EFA10BD00000003002070B50446AA
:103CA0000D4615480078012802D0022820D105E0F1
:103CB000012011494870022008701AE000200E49C6
:103CC00081F8200081F8230081F82400886281F8BF
:103CD0002D0081F82E0081F82F0000F0ABFC064883
:103CE000407810B9FFF7BCFF03E000F02FFF00E0C1
:103CF00000BF00BF70BD00000003002010B50C48DD
:103D00000068401C0A4908600A480078401C0949BC
:103D10000870084600780A2804DB0020087001209B
:103D20000549087002480068FEF7D6FE10BD000085
:103D300084000020B400002088000020022002F04F
:103D400043F9000010B501210148FFF77AFE10BDCC
:103D5000000C014010B501210148FFF774FE10BDB1
:103D6000000C01400148B0F9000070471A00002023
:103D70000148B0F9000070471C00002000B589B070
:103D800001210C2000F066FB0121C80200F062FB5B
:103D900010208DF8230003208DF822000120ADF8BB
:103DA000200008A93348FFF76FFD01213148FFF7D4
:103DB00048FE3020ADF8200008A92F48FFF764FD29
:103DC00030212D48FFF73DFE0220ADF8200008A964
:103DD0002848FFF759FD02212648FFF732FE4FF42D
:103DE0008060ADF8200008A92248FFF74DFD4FF490
:103DF00080612048FFF725FE18208DF82300400140
:103E0000ADF8200008A91C48FFF73EFD0020ADF8E2
:103E10001A00ADF8160040F2E730ADF81800472060
:103E2000ADF8140000208DF81C0005A9134800F01F
:103E3000FBFD01A800F0E8FD6020ADF804000020C3
:103E4000ADF80C000120ADF806000020ADF80A0026
:103E500001A90A4800F03AFD01A9084800F082FDD6
:103E60000121064800F0E5FC0121044800F0D5FCE2
:103E700009B000BD000C014000080140002C0140C9
:103E80002DE9F04106460F46304601F069F88046BC
:103E900008EB070004B2A8EB070005B2002E06DD10
:103EA000002C00DA0024002D09DA002507E0002E9E
:103EB00005DA002C00DD0024002D00DD0025B4F51E
:103EC000167F01DD4FF4167414F5167F00DA0B4CE3
:103ED000B5F5167F01DD4FF4167515F5167F00DA7E
:103EE000064D0748048007480580204602F052FC32
:103EF000284602F079FCBDE8F0810000A8FDFFFF34
:103F00001A0000201C00002070B505460C46B5F5CF
:103F1000167F01DD4FF4167515F5167F00DA0A4D90
:103F2000B4F5167F01DD4FF4167414F5167F00DA30
:103F3000054C0648058006480480284602F02AFC05
:103F4000204602F051FC70BDA8FDFFFF1A000020C2
:103F50001C00002010B530210A48FFF772FD022135
:103F60000948FFF76EFD4FF480610748FFF769FDD0
:103F70000021064800F052FD0021044800F050FDE9
:103F800010BD000000080140000C0140002C014061
:103F90007047000070B5002100230F22C47804B3DD
:103FA000154C246804F4E064C4F5E064210AC1F10E
:103FB0000403CA40447804FA03F18478144021438E
:103FC00009010E4C0678A155047804F01F05012460
:103FD000AC4005786D11AD0005F1E025C5F8004154
:103FE00009E0047804F01F050124AC40044D067874
:103FF000761145F8264070BD0CED00E000E400E0CD
:1040000080E100E002490143024A1160704700006C
:104010000000FA050CED00E070B500240EE0002170
:10402000204600F0C0F8002504E0002000F060F910
:10403000681CC5B2802DF8DB601CC4B2082CEEDB16
:1040400070BD000008B50121082000F003FA10201F
:104050008DF8030003208DF802008020ADF80000E9
:1040600069460948FFF710FC4FF48070ADF8000076
:1040700069460548FFF708FC012000F00BF9012014
:1040800000F016F908BD0000000C014070B50446B0
:10409000002511E0C4F3C01000F00AF902F0CCFBD7
:1040A000012000F0F7F802F0C7FB002000F0F2F862
:1040B0006006040E681CC5B2082DEBDB012000F081
:1040C000E9F802F0B9FB002000F0E4F870BD10B58B
:1040D000012000F0EDF8012000F0DCF802F0ACFB6C
:1040E000002000F0E5F802F0A7FB002000F0D2F875
:1040F00010BD10B5002000F0DBF8012000F0CAF878
:1041000002F09AFB012000F0D3F802F095FB10BDFD
:1041100010B5FFF797FFAE2000F0DAF8D52000F0D9
:10412000D7F8802000F0D4F8A82000F0D1F83F2084
:1041300000F0CEF8D32000F0CBF8002000F0C8F853
:10414000402000F0C5F8A12000F0C2F8C82000F01F
:10415000BFF8DA2000F0BCF8122000F0B9F8812096
:1041600000F0B6F8CF2000F0B3F8D92000F0B0F896
:10417000F12000F0ADF8DB2000F0AAF8302000F0CC
:10418000A7F8A42000F0A4F8A62000F0A1F88D2044
:1041900000F09EF8142000F09BF8AF2000F098F893
:1041A000FFF73AFF10BD70B505460C4645F0B0006C
:1041B00000F08EF8102141EA141000F089F804F0A4
:1041C0000F0000F085F870BD2DE9F04704460D465C
:1041D00016463746202F01DB7E2F00DD2027A7F172
:1041E000200000F0FF086A1ED206110E621E520661
:1041F000100EFFF7D8FF4FF000090AE0154901EB58
:10420000081111F8090000F073F809F1010000F03D
:10421000FF09B9F1080FF1DB6A1ED206110E621E0A
:10422000012303EB4202D0B2FFF7BDFF4FF00009BC
:104230000BE0084901EB081209F10801505C00F09D
:1042400057F809F1010000F0FF09B9F1080FF0DBA0
:10425000BDE8F087208000082DE9F04107460E46B2
:10426000154600240DB9BDE8F0810CE02A5D301937
:10427000C1B23846FFF7A8FF601CC4B23019C0B203
:10428000102800DD02E0285D0028EFD100BF00BF4C
:10429000E9E7000010B504460CB1012000E0002061
:1042A000024680210148FFF7D0FB10BD000C014001
:1042B00010B504460CB1012000E0002002464FF486
:1042C00080710248FFF7C1FB10BD0000000C0140E7
:1042D00010B50446FFF7FBFE7820FFF7D7FE00205D
:1042E000FFF7D4FE2046FFF7D1FEFFF702FF10BD17
:1042F00010B50446FFF7EBFE7820FFF7C7FE40201D
:10430000FFF7C4FE2046FFF7C1FEFFF7F2FE10BD27
:104310002DE9FC5F0446894615461E4624B100215E
:10432000304603F089FB02D80020BDE8FC9F4946D7
:10433000206803F0B5FB01904946606803F0B0FBCC
:104340008346314603F0ACFB8246E16803F0F6F9A0
:10435000E060606A80F0004A02465146E06801F081
:104360005BFDE0602846616903F02AFD0090A068CB
:1043700080F0004B5846009903F092FB824631468C
:1043800003F050FA074665613846A16903F018FD4D
:1043900083460F4903F084FB8246A16903F0CEF9FE
:1043A000A061E168019803F0C9F98246A16903F0B0
:1043B000C5F98046206A80F0004A024651464046D0
:1043C00001F02AFD8046C4F81C804046ADE700009D
:1043D0009A99193E2DE9F0410446884615461E4635
:1043E000069F0CB9BDE8F081C4F800806560A66046
:1043F0000020E06020616061A061E06127624FF011
:104400007C51384603F04CFB606200BFEAE700B91C
:1044100070470021C160016141618161C16100BFDC
:10442000F6E70000014908627047000000000E42F4
:104430007047000029B1064AD2690243044BDA6191
:1044400004E0034AD2698243014BDA6170470000FD
:104450000010024029B1064A92690243044B9A6156
:1044600004E0034A92698243014B9A61704700005D
:104470000010024030B500210022002400232D4D01
:104480006D6805F00C0121B1042905D0082923D15C
:1044900005E0294D056022E0274D05601FE0254D10
:1044A0006D6805F47012234D6D6805F480340225A3
:1044B00005EB92421CB9214D554305600BE01D4DA3
:1044C0006D6805F400351DB11C4D5543056002E0D3
:1044D000194D5543056002E0174D056000BF00BF50
:1044E000144D6D6805F0F0010909154D6B5C056808
:1044F000DD4045600F4D6D6805F4E061090A104D1F
:104500006B5C4568DD4085600A4D6D6805F460515F
:10451000C90A0B4D6B5C4568DD40C560054D6D6893
:1045200005F44041890B074D6B5CC568B5FBF3F59D
:10453000056130BD0010024000127A0000093D0004
:104540000000002010000020704710B500F002F8B5
:1045500010BD00000CB500200190009033480068A9
:1045600040F480303149086000BF3048006800F4F2
:10457000003000900198401C0190009818B90198F3
:10458000B0F5A06FF1D12948006800F4003010B1F7
:104590000120009001E0002000900098012843D104
:1045A0002348006840F01000214908600846006870
:1045B00020F0030008600846006840F00200086030
:1045C0001A484068194948600846406848600846EB
:1045D000406840F4806048600846406820F47C10E1
:1045E00048600846406840F4E810486008460068A3
:1045F00040F08070086000BF0C48006800F0007058
:104600000028F9D00948406820F0030007494860B5
:104610000846406840F00200486000BF0348406818
:1046200000F00C000828F9D10CBD00000010024079
:104630000020024010B555488079401C53498871CC
:1046400008468079322801DB3220887102F0D6F9E1
:104650004E48007910B100204C4988724B480079CF
:1046600000F0220018B1494800794849487147488C
:1046700000790C2841D008DC09287DD2DFE800F061
:104680001283558345834D833500202849D004DCAF
:10469000102836D0182876D12BE0302839D03E2883
:1046A00071D146E03948407900F0200028B1DC2281
:1046B000B421012001F00CFC16E03448407900F0F0
:1046C000020028B1B422DC21022001F001FC0BE041
:1046D0002E48807A401C2D4988720846807A3228FC
:1046E00002DB0020887248704EE000202749887065
:1046F0004AE0FF202549887046E001202349887060
:1047000042E0FE20214988703EE002201F49887067
:104710003AE0FC201D49887036E004201B4988706F
:1047200032E0F920194988702EE007201749887077
:104730002AE01648407A012802D0022820D109E058
:104740001248007A401C1149087202204872002069
:10475000887116E00D488079322810DB00200B4963
:1047600088710846007A401C08720846007AC979A8
:10477000884204DB002000E005E00449487000E0C6
:1047800000BF00BF00E000BF00BF10BD000300205D
:104790007047000010B51348006840F0010011494F
:1047A000086008464068104908400E4948600846BD
:1047B00000680E4908400B4908600846006820F46C
:1047C000802008600846406820F4FE0048604FF4EE
:1047D0001F008860FFF7B9FE4FF0006004490860D1
:1047E00010BD0000001002400000FFF8FFFFF6FEC1
:1047F00008ED00E010B50121054800F04DF828B1A2
:104800000121034800F006F8FFF778FA10BD000018
:1048100000080040CA430282704721B1028842F07A
:104820000102028004E002884FF6FE731A40028003
:10483000704731B1B0F8442042F40042A0F844205F
:1048400005E0B0F84420C2F30E02A0F844207047FF
:10485000F0B50C4615461E460021002200230189B2
:10486000028B038C4FF6F877394021434FF6FC4713
:104870003A4040F201173A434FF6DD773B404FF69E
:10488000FF7707EA06172F433B4301810283038426
:10489000F0BD0146888C704730B5024600200023E9
:1048A0000024158A05EA0103958905EA010413B17C
:1048B0000CB1012000E0002030BD1AB183890B4308
:1048C000838102E083898B438381704770B5002424
:1048D00000220023058C4FF6FE7635400584028CBD
:1048E0008388048B4FF68F752C40B51E2C400D88A5
:1048F0002C43751E2A400D892A434D882A43144DA6
:10490000A8420BD0134DA84208D0134DA84205D0A1
:10491000124DA84202D0124DA84213D14FF6F7759E
:104920002A404D892A434FF6FB752A408D882A4339
:104930004FF6FF652B404FF6FF552B408D892B43DB
:10494000CD892B4383800483CD888586028470BD06
:10495000002C01400034014000400140004401406F
:104960000048014070B5002400220023058C4FF65A
:10497000EF7635400584028C8388048B48F6FF75FA
:104980002C404FF6FF452C400D884FF6FF7606EA87
:1049900005252C434FF6DF752A400D8906EA0515DB
:1049A0002A434D8806EA05152A43154DA84202D030
:1049B000144DA8421DD14FF67F752A404D894FF600
:1049C000FF7606EA05152A434FF6BF752A408D8803
:1049D00006EA05152A434FF6FF352B404FF2FF75C7
:1049E0002B408D8906EA85052B43CD8906EA85058E
:1049F0002B4383800483CD880587028470BD00002B
:104A0000002C014000340140002101804180818060
:104A1000C180018141818181C18170478186704758
:104A20000187704781847047002202881D4B98429D
:104A30000ED01D4B98420BD0B0F1804F08D01B4BCD
:104A4000984205D01A4B984202D01A4B984204D192
:104A50004FF68F731A404B881A43174B984207D072
:104A6000164B984204D04FF6FF431A40CB881A43A6
:104A700002808B8883850B8803850A4B98420BD074
:104A8000094B984208D00E4B984205D00D4B9842E6
:104A900002D00D4B984201D10B7A03860123838209
:104AA00070470000002C0140003401400004004029
:104AB00000080040000C00400010004000140040BE
:104AC0000040014000440140004801401FB5012161
:104AD0000420FFF7AFFC0020ADF80A00ADF8060097
:104AE00040F2E730ADF808004720ADF804000020A0
:104AF0008DF80C0001A91348FFF796FF012211461B
:104B00001048FFF7DAFE01210E48FFF783FE4FF44D
:104B1000A060FFF777FA1E208DF8000001208DF8C5
:104B2000030002208DF8010000208DF80200684685
:104B3000FFF730FA00200449086001210148FFF71F
:104B40006CFE1FBD000800408400002010B506491F
:104B5000B1F90C0001F07EFE0349C881FEF742FB6B
:104B600000F004F810BD00000003002010B5044A56
:104B7000B2F91410B2F9120002F0AAFA10BD000046
:104B80000003002010B540F225511D4800F05BF8ED
:104B900010B31B4800F012F9C4B21A48008800F4A0
:104BA0000040C8B91748008800F4804060B10A2C62
:104BB00003D000201349088020E01248008840F408
:104BC00000401049088019E00D2C06D10D480088DE
:104BD00040F480400B49088010E00A480088C0F388
:104BE0000D0009490C5407480088401C05490880FD
:104BF00008460088C72801DD0020088010BD00009D
:104C00000038014018000020B800002010B5FEF761
:104C1000A3FA10BD21B1828942F40052828104E0DE
:104C200082894DF6FF731A40828170470246002048
:104C3000B1F5007F00D100BF13880B400BB10120FC
:104C400000E00020704770B50246002400230025D4
:104C5000002040F66A16B14200D100BFC1F34215F0
:104C600001F01F03012606FA03F3012D02D19689F4
:104C7000334006E0022D02D1168A334001E0968AC5
:104C800033400C12012606FA04F41688344013B19E
:104C90000CB1012000E0002070BDF0B503460024F7
:104CA00000260025002040F66A17B94200D100BF57
:104CB0001846C1F3421401F01F06012707FA06F552
:104CC000012C01D10C3004E0022C01D1103000E0A5
:104CD00014301AB107682F43076002E00768AF433A
:104CE0000760F0BD2DE9F04786B005460E4600246A
:104CF000A24600BFA1460027B08900B100BF2F46E1
:104D00002C8A4CF6FF700440F08804432C82AC8956
:104D10004EF6F3100440B088318908437189084386
:104D20000443AC81AC8A4FF6FF400440B089044391
:104D3000AC8201A8FFF79EFB1F48874202D1DDF835
:104D400010A001E0DDF80CA0A88900F4004040B1FB
:104D50000AEBCA0000EB0A1031684900B0FBF1F819
:104D600007E00AEBCA0000EB0A1031688900B0FBCB
:104D7000F1F86420B8FBF0F004012009642101FB84
:104D80001089A88900F4004040B1322000EBC9002E
:104D9000B0FBF1F000F00700044308E0322000EB24
:104DA00009106421B0FBF1F000F00F0004432C81E6
:104DB00006B0BDE8F0870000003801400146888851
:104DC000C0F308007047C1F30802828070470420D6
:104DD00001F0FAF8490050EAC12018BF04204A0D3A
:104DE00018BF40F0010040F2FF72B2EB515F08BF04
:104DF00040F00200012808BF05207047410008026A
:104E000018BF04200A0E18BF40F001004FF07F4287
:104E100032EA010108BF40F00200012808BF052066
:104E2000704740F2013200204FF0E04103F074B8C7
:104E3000024A0020110703F06FB8000001FDFFFFD8
:104E4000012103F097B802F079BC0021084602F076
:104E5000E9BC6FF05E01080703F08CB810B504469A
:104E6000D1E9000100F002F8206010BDF8B5044659
:104E70000D466A4601F0D2F800987E300090002876
:104E80001EDC002213462046294602F029FB17D0DB
:104E9000002140F608004FF0000006462046294653
:104EA00002F0D8FA044640F6080006EA00014FF086
:104EB000000034F0004004BF0220FBF74AFC29E068
:104EC0000098FF2828DB002108464FF0000000F47E
:104ED0004006002213462046294602F0CDFB8CBF37
:104EE000002501250220FBF734FC4FF0FF4446B1BA
:104EF000002D0CBF4FF400004FF48000B04218BFEB
:104F0000084C042108464FF00000002D04BF84F037
:104F10000040F8BD2046F8BD20462946BDE8F840CF
:104F200002F098BAFFFF7F7F10B504460A46D4E925
:104F30000003194601F056FBC4E9000110BD3038EA
:104F40000A2801D2012070470020704700BF704737
:104F50000146002902DA484200B270470846FCE7E1
:104F60000146002903DD502901DA5020704700294D
:104F700005DA11F1500F02DD6FF04F00F6E7084639
:104F8000F4E700002DE9F04104464FF00E4000EB3D
:104F90004400B0F1506F204655D84FF0FC41B1EBC2
:104FA000440F1CD224F000404FF07E5102F075FEF9
:104FB0004FF0FF3102F0DEFF054602F061F814F019
:104FC000004F1DBF2F4F304E80F000402F4F08BFC5
:104FD0002F4E4FF0404102F063FD044605E00027EC
:104FE0003E46014602F05CFD05462A49284602F08D
:104FF00057FD294902F0A2FB294602F051FD27493D
:1050000002F09CFB294602F04BFD254902F096FB7D
:10501000294602F045FD234902F090FB80462946CF
:10502000204602F03DFD414602F03AFD054631467C
:10503000204602F083FB294602F080FB3946BDE89A
:10504000F04102F07BBB4FF0E441B1EB440F08D9D3
:10505000FFF7D4FE042808BFFFF7FBFE2046BDE89B
:10506000F0814FF07F41B1EB440F03D2BDE8F04136
:10507000FFF7E6BE0120FBF76CFBBDE8F041FFF750
:10508000E4BE00000000C9BF22AAFDB90000C93F6C
:1050900022AAFD3924FE1C3DC78AD83C1E67383D34
:1050A0001B93993DAFAA2A3E2DE9F0474FF0684285
:1050B00002EB40030C460546B3F1654F3CBF02EBE3
:1050C0004102B2F1654F7CD2C0F3C753C1F3C7525E
:1050D0009A1A1B2A06DD10F0004F14BF7648774855
:1050E000BDE8F08712F11A0F17DA11F0004F06D061
:1050F00010F0004F0CBF72487248BDE8F08721469F
:10510000284602F08FFB0446FFF778FE042808BF0C
:10511000FFF79FFE2046BDE8F0874200B2EB410F4B
:1051200025D910F0004F19BF674F684E684F694E80
:10513000224685F0004415460A4680F0004110469C
:105140000A1A5200B2F1807F40D248406249DFF82B
:105150008CA110F0004F18D04FF03F48384602F0B5
:105160002FFE07465146304602F02AFE17E011F0A6
:10517000004F04BF00263746E2D010F0004F19BFA1
:10518000574F584E584F594EDAE74FF07C58384633
:1051900002F0D4FA07465146304602F0CFFA0646EE
:1051A0004146284602F07CFC214602F0C7FA8246BE
:1051B0002146404602F074FC294602F06EFD51463D
:1051C00000E037E002F02EFB044604E021462846CA
:1051D00002F028FB0446014602F062FC8046444986
:1051E00002F05EFC434902F0A9FA414602F058FC85
:1051F000414902F0A3FA414602F052FC3F4902F055
:105200009DFA414602F04CFC3D4902F097FA0546F2
:105210004146204602F044FC294602F041FC31465A
:1052200002F08CFA214602F089FA3946BDE8F047CF
:1052300002F084BA4FF07F42B2EB400F28BFB2EBCE
:10524000410F03D2BDE8F047FFF7FDBD40EA01037F
:105250005B0008BF44F0FF410AD0B2EB400F08BF2B
:10526000B2EB410F06D125F0804024F08041054685
:105270000C4629E7B2EB400F12BF5FEA410245F04E
:10528000FF4004F000413FF41FAF4A0092EA4003A0
:105290003FF51AAF002AACBF4FF09F464FF03E5685
:1052A000314602F0FDFB05463146204602F0F8FB90
:1052B00004462846214607E7DB0FC9BFDB0FC93F7D
:1052C000DB0F4940DB0F49C00000C9BF22AAFDB96E
:1052D0000000C93F22AAFD390060ED3EC30ACE3767
:1052E000000049C022AA7DBA0000494022AA7D3AA6
:1052F0002DAD65BD8FB8D53D0FB511BE61C84C3E13
:10530000A8AAAABE2DE9F04104460D4616461F463E
:105310002E48047001202E4908702E48002101609B
:10532000818000202C4908702C4908702DB100F0B4
:10533000BDF85020FDF7BFFF02E0FA20FDF7BBFFEC
:10534000304600F0F0FC20B9002020490870BDE88C
:10535000F0810321B42000F0F8FC18B900201B49AB
:105360000870F4E703201A49087000F04DFB042090
:105370001749087044F62061082000F065F818B954
:10538000002012490870E2E744F62061022000F094
:105390005BF801201049087005200D49087040F2A3
:1053A000DC51384600F0A8FC38B900200A490870E2
:1053B0000A49087005490870C9E78520074908703F
:1053C0000620034908700120C1E7000020000020EA
:1053D00035000020220000203400002021000020A1
:1053E00070B506460D4614462946304602F024FBA9
:1053F00001D2284670BD2146304602F01DFC01D284
:105400002046F7E73046F5E710B5002415E000F038
:1054100011F90C4909784906080E00F0B3F800F0BC
:105420004BF918B900F026F9012010BD00F022F95F
:105430000120FDF740FF601CC4B2032CE7D300201D
:10544000F3E700002000002030B585B005460C468B
:1054500014216846FBF70CF9FD208DF800008DF84B
:105460000150E0B28DF80500200A8DF80600200CEE
:105470008DF80700200E8DF80800112269460220E1
:1054800000F020FB05B030BD7CB50446002509E0E6
:10549000694601A8FDF784FA10B90220FDF70BFF59
:1054A000681CC5B2A542F3DB7CBD000010B54FF40B
:1054B00080410748FEF7C5FA0A20FDF7FCFE4FF4CD
:1054C00080410348FEF7BFFA5020FDF7F4FE10BDFF
:1054D000000C0140002002E000BF411CC8B2FF28C0
:1054E000FADB704770B5002400F0CAFA002523E00B
:1054F0004FF480511548FEF7A4FAFFF7EBFF4FF485
:1055000080511248FEF79FFA00F01AF930B94FF4B3
:1055100080510E48FEF795FA204670BD6006040ED5
:105520004FF400510948FEF783FA08B144F0010432
:10553000FFF7D0FF681CC5B2082DD9DB4FF48051AE
:105540000248FEF77EFA2046E7E70000000C014023
:1055500010B500F0A5FA4FF400510948FEF771FAB2
:105560004FF480510648FEF76EFA00F0E9F8FFF7B5
:10557000B1FF4FF480510248FEF763FA10BD0000FE
:10558000000C014070B5044600F08AFA4FF48051D7
:105590001A48FEF756FAFFF79DFF00252AE004F0AF
:1055A000800028B14FF400511448FEF74CFA04E093
:1055B0004FF400511148FEF744FA6006040EFFF75D
:1055C00089FF4FF480510D48FEF73DFA00F0B8F81E
:1055D00028B94FF480510948FEF733FA70BDFFF740
:1055E00079FF4FF480510548FEF72BFAFFF772FF61
:1055F000681CC5B2082DD2DB00BFEFE7000C0140EC
:1056000010B500F04DFA4FF400510948FEF71BFAAF
:105610004FF480510648FEF716FA00F091F8FFF7B4
:1056200059FF4FF480510248FEF70BFA10BD0000FD
:10563000000C014010B500F033FA4FF400510C4853
:10564000FEF701FA4FF480510948FEF7FCF900F02B
:1056500077F8FFF73FFF4FF400510548FEF7F1F9E7
:10566000FFF738FF4FF480510148FEF7EAF910BD0B
:10567000000C014010B500F013FA4FF480510D48B2
:10568000FEF7DFF94FF400510A48FEF7DAF9FFF7A9
:1056900021FF4FF480510748FEF7D5F900F050F88C
:1056A000FFF718FF4FF400510248FEF7CCF9FFF75F
:1056B00011FF10BD000C014010B5002400F0E0F90E
:1056C0004FF400511D48FEF7BEF94FF480511B48BE
:1056D000FEF7B9F900F034F840B94FF4805117489B
:1056E000FEF7AFF900F0DCF9012010BDFFF7F2FE84
:1056F00010E0601C80B20446B0F5966F08DB4FF4F2
:1057000080510E48FEF79DF900F0CAF90120ECE740
:10571000FFF7E0FE4FF400510848FEF789F9002832
:10572000E7D14FF480510548FEF78BF9FFF7D2FE21
:1057300000F0B6F9FFF7CEFE0020D6E7000C0140DE
:1057400010B5002409E0601C80B20446B0F5166F65
:1057500001DB002010BDFFF7BDFE4FF48051034870
:10576000FEF766F90028EED00120F3E7000C0140B7
:105770002DE9F04705460E464FF00008092E02D2EB
:105780000020BDE8F08778480078FB2801D0002091
:10579000F7E70524E1E07448075D74480770012FBE
:1057A00027D104F10A00B04223D86F4A211D5018B6
:1057B00000F022F98146082100F0DCF828606A4AEE
:1057C000A11D501800F018F98146082100F0D2F808
:1057D0006860654A04F10801501800F00DF981462F
:1057E000082100F0C7F8A860B84604F10A0084B2A6
:1057F000B3E0022F34D104F10A00B04230D85A4A43
:10580000211D501800F0F8F88246092100F0B2F886
:105810008146574902F044F9E860534AA11D5018E7
:1058200000F0EAF88246092100F0A4F881465049C8
:1058300002F036F928614C4A04F10801501800F0D2
:10584000DBF88246092100F095F88146484902F0CC
:1058500027F968614FF0010804F10A0084B27CE086
:10586000082F3BD104F10C00B04237D83E4A211D2D
:10587000501800F0C1F881460E2100F07BF8286333
:10588000394AA11D501800F0B7F881460E2100F0EA
:1058900071F86863344A04F10801501800F0ACF85C
:1058A00081460E2100F066F8A8632F4A04F10A0130
:1058B000501800F0A1F881460E2100F05BF8E86274
:1058C000012085F83C0085F83D00284600F052F99B
:1058D0004FF0010804F10C0084B23EE0052F3BD1EB
:1058E00004F10E00B04237D81F4A211D501800F0B5
:1058F00083F881460E2100F03DF828631A4AA11D65
:10590000501800F079F881460E2100F033F86863F2
:10591000154A04F10801501800F06EF881460E2176
:1059200000F028F8A863104A04F10A01501800F0AA
:1059300063F881460E2100F01DF8E862012085F829
:105940003C0085F83D00284600F014F94FF00108AE
:1059500004F10E0084B200E003E0201DB0427FF6A7
:105960001AAF00BF40460CE780010020460000202F
:10597000E12E65422DE9F04105460C46012101FA70
:1059800004F002F045F80646284602F029F80746DA
:10599000314601F047FFBDE8F081000070B50646D2
:1059A0000D460DB9002070BDFFF744FE114909787E
:1059B000012202EB4101C8B2FFF7E4FDFFF77CFED4
:1059C00018B1FFF757FE0020EDE700240CE0FFF7C9
:1059D00089FD3055601CA84202D2FFF7B9FD01E0F5
:1059E000FFF70EFE601C84B2AC42F0DBFFF742FE14
:1059F0000120D8E720000020014608784A7840EAD4
:105A0000022000B2704700003EB5F9208DF8080072
:105A100000208DF809000820FFF736FD1420FDF75F
:105A20004AFC022202A9104600F04CF808B90020F6
:105A30003EBD00241AE0694601A8FCF7B1FF80B121
:105A40009DF8040002280CD1BDF80000022808D3FC
:105A500009480078F82804D18520084908700120F9
:105A6000E6E70120FDF727FC601C84B2B4F5FA6F6D
:105A7000E1D30020DCE700008001002021000020AD
:105A800008B54FF40050ADF8000048208DF8030031
:105A900069460248FDF7F8FE08BD0000000C014011
:105AA00008B54FF40050ADF8000014208DF8030045
:105AB00003208DF8020069460148FDF7E5FE08BDA8
:105AC000000C01402DE9F047E0B0044689469046BD
:105AD00008F10406B6F5C07F03D9002060B0BDE828
