:020000040800F2
:10000000C00400200101000835190008F914000897
:10001000ED180008E10D000839320008000000006A
:10002000000000000000000000000000E51F0008C4
:100030003110000800000000951E00083D24000853
:100040001B0100081B0100081B0100081B01000820
:100050001B0100081B0100081B0100081B01000810
:100060001B0100081B0100081B0100081B01000800
:100070001B0100081B0100081B0100081B010008F0
:100080001B0100081B010008F90700081B010008FC
:100090001B0100081B0100081B0100081B010008D0
:1000A0001B0100081B0100081B0100081B010008C0
:1000B0006D270008752700081B0100081B010008B8
:1000C0001B0100081B0100081B0100081B010008A0
:1000D0001B010008712D00081B0100081B0100080E
:1000E0001B0100081B0100081B010008DFF80CD0F1
:1000F00000F060FB004800472D390008C0040020D4
:100100000648804706480047FEE7FEE7FEE7FEE7B1
:10011000FEE7FEE7FEE7FEE7FEE7FEE7CD24000888
:10012000ED000008F0B480EA0102D40F4200B2EB07
:10013000410F02D20246084611464A0042D0C30D82
:10014000DDB2C1F3C752AD1A202D35DAC1F3160165
:1001500041F4000204B15242C5F1200602FA06F150
:100160002A411044B3EBD05F23D0C4B1012DA0EBE2
:10017000C35009DCF0BC4FF0004202EAC352DBB2CC
:1001800000F5000000F08ABA400000F1807000EB3A
:10019000C350A0F1807040EAD170490009E04908DD
:1001A00041EAC071A0EBC35000F50000400800EB2D
:1001B000C350F0BC00F069BA6142012202EB410178
:1001C000001BF6E7F0BC704781F00041AAE780F021
:1001D0000040A7E780EA010210B502F000434000AA
:1001E00022D04A001FD0010E01EB1261C0F356006D
:1001F000C2F3560240F4000042F40002A0FB0220C9
:1002000000047F39140400D0401C50EA124001D48D
:100210004000491EC2B20C0604EBD010401C40083E
:10022000802A02D003E0002010BD20F00100002948
:1002300000DA0020184310BD30B480EA010202F059
:10024000004530F0004221F0004013D090B1C30DC2
:10025000D40DC2F31601C0F31600E41A41F40001F4
:1002600040F400027D34914201D3641C00E0490057
:10027000002C02DA30BC002070474FF4000000234D
:10028000914201D3891A034340084FEA4101F7D153
:1002900051B1914202D14FF0004105E002D24FF03E
:1002A000010101E06FF0010103EBC450284430BCB0
:1002B00000F0EBB92DE9FE4F804681EA0300C00F44
:1002C0000C46009021F0004123F00045B8EB0200FD
:1002D000A94105D24046214690461C460B4602469F
:1002E00023F00040104347D0270DC7F30A00C3F3A3
:1002F0000A510290401A019040286BDAC3F31300B0
:1003000040F4801B0098924620B10023D2EB030AF0
:1003100063EB0B0B01985946C0F14002504600F0C8
:1003200093F906460D4650465946019A00F09BF94E
:1003300010EB08006141002487EA115284EAE77358
:100340001A4340D0009A62B3019A012A4FEA075239
:1003500015DC001B61EB02014FF0004202EA07527C
:10036000CDE90042001C41F5801132462B4600F0D9
:10037000D2F903B0BDE8F08F40462146F9E7001BF3
:1003800061EB0201001C41F5801300185B4120184D
:10039000A2F5001747EB030140EAD570B6196D418D
:1003A00011E06D084FEA360645EAC0754FEA07527C
:1003B000001B61EB0201001C41F5801149084FEA66
:1003C00030000019514132462B4603B0BDE8F04FD2
:1003D00000F092B90098012240000023D0EB020205
:1003E00063EBE073009821464FEAE074B8EB00003D
:1003F00061EB0401E9E783F000435BE781F0004132
:1004000058E72DE9FE4F81EA030404F0004421F08F
:10041000004100944FF0000B23F0004350EA010428
:100420005ED052EA03045BD0C3F30A54C1F30A5509
:100430002C44A4F2F3340194A0FB0254C1F3130141
:1004400041F48011C3F3130343F4801301FB02440E
:1004500000FB034E840A970A44EA815447EA835713
:10046000A4FB076802958D0A05FB07854FEA932CCC
:1004700004FB0C542705029D4FEA065847EA16373D
:10048000B5EB08056EEB070C870E920E47EA811755
:1004900042EA8312A7FB0201B6EB0B0164EB0004F6
:1004A0002B0D43EA0C335E1844EB1C50DA465146E0
:1004B000E7FB0201C5F313044FEA0B3343EA14537D
:1004C0004FEA0432019C43EA0603A4F10C040294AF
:1004D000009CCDE900B400F01EF903B0BDE8F08F38
:1004E00000200146F9E7C10F80EAE0700844CA071E
:1004F0009623002100F0D2B896230022114600F086
:10050000CDB800F0004220F00040C10DC0F316004D
:1005100040F400007F2901DA00207047962903DCAF
:10052000C1F19601C84001E096398840002AF4D014
:100530004042704720F00040C10DC0F3160040F467
:1005400000007F2901DA00207047962903DCC1F101
:100550009601C840704796398840704700F00042C5
:1005600030F000400AD0C10D01F56071C0F31600F3
:1005700042EA0151C208400711437047002001467A
:100580007047000030B5041E71F1000404DB4FF029
:100590000044404264EB0101141E73F1000405DBCA
:1005A0001C464FF00043524263EB04038B4208BFEA
:1005B000824230BD30B5041E71F1000404DB4FF0FF
:1005C0000044404264EB0101141E73F1000405DB9A
:1005D0001C464FF00043524263EB0403994208BFAC
:1005E000904230BD01F0004330B421F0004150EAA8
:1005F000010206D00A0DA2F56072C1F31301002AB0
:1006000002DC30BC00207047440F44EAC104C10042
:10061000E01830BC00EBC25000F037B830B50B46E4
:10062000014600202022012409E021FA02F59D4222
:1006300005D303FA02F5491B04FA02F52844151EF6
:10064000A2F10102F1DC30BD202A04DB203A00FADD
:1006500002F1002070479140C2F1200320FA03F319
:10066000194390407047202A06DBCB17203A41FA05
:1006700002F043EAE07306E041FA02F3D040C2F12F
:10068000200291400843194670470029A8BF7047CF
:10069000401C490008BF20F00100704710B4B0FAB8
:1006A00080FC00FA0CF050EA010404BF10BC704753
:1006B00049B1CCF1200421FA04F411FA0CF118BF6D
:1006C000012121430843A3EB0C01CB1D4FEA00613C
:1006D0004FEA102042BF002010BC704700EBC3500F
:1006E00010440029A4BF10BC7047401C490008BF3B
:1006F00020F0010010BC704710B5141E73F1000407
:1007000008DA401C41F1000192185B411A4301D103
:1007100020F0010010BD2DE9F04D92469B4611B12D
:10072000B1FA81F202E0B0FA80F220329046FFF78F
:100730008BFF04460F4640EA0A0041EA0B0153468C
:100740005A46084313D0114653EA010019D0C8F1A4
:100750004002504600F040F805460E4650465946C5
:100760004246FFF771FF084305D0012004E0204610
:100770003946BDE8F08D0020054346EAE0762C437B
:1007800037430A986305E40AA0EB08000022FD0A3B
:1007900044EA47540A3002D500200146E9E7010542
:1007A00010196941DDE9084500196941BDE8F04DBE
:1007B000A2E70000064C074D06E0E06840F00103A8
:1007C00094E8070098471034AC42F6D3FFF792FC48
:1007D000284E0008484E0008202A04DB203A21FA5F
:1007E00002F00021704721FA02F3D040C2F120024A
:1007F000914008431946704710B54FF408710948F5
:1008000000F032F8012806D1064800F029F8064920
:100810000880012088704FF40871024800F006F843
:1008200010BD0000002801405800002000220A12DC
:10083000D3430360704721B1826842F001028260B5
:1008400003E0826822F001028260704701460020C6
:100850008A6802F004020AB1012000E0002070471B
:100860000146C86C80B2704770B502460020002374
:1008700000240B125568CEB205EA060415681D4027
:1008800015B10CB1012000E0002070BD0146002030
:100890008A6802F008020AB1012000E000207047D7
:1008A00010B50023CBB21AB144681C43446002E087
:1008B00044689C43446010BD30B5024600200023CC
:1008C00050680F4C20400D790C6844EA0524204301
:1008D000506090680B4C2040D1E902542C434D7974
:1008E00044EA450420439060D06A20F470000C7CF8
:1008F000641EE4B2234340EA0350D06230BD0000DE
:10090000FFFEF0FFFDF7F1FF08B512208DF80000A3
:1009100002208DF8010001208DF802008DF80300FF
:10092000684601F027F808BDF0B504460D460020E2
:100930000021092D11DDE068A5F10A0606EB460746
:10094000072606FA07F18843A5F10A0606EB4606D4
:1009500003FA06F10843E0600CE0206905EB450767
:10096000072606FA07F1884305EB450603FA06F168
:1009700008432061072A0FDA606B561E06EB8607D4
:100980001F2606FA07F18843561E06EB860605FA6F
:1009900006F10843606322E00D2A0FDA206BD61FB0
:1009A00006EB86071F2606FA07F18843D61F06EBDB
:1009B000860605FA06F10843206310E0E06AA2F11A
:1009C0000D0606EB86071F2606FA07F18843A2F1FB
:1009D0000D0606EB860605FA06F10843E062F0BD57
:1009E000816841F008018160704721B1826842F45A
:1009F000A002826003E0826822F4A0028260704755
:100A0000816841F0040181607047000008B5012150
:100A1000042001F06DFA0220ADF8000000208DF8EE
:100A200003006946014800F085FC08BD000801404C
:100A300010B5FFF7EBFF00F003F8FFF765FF10BDFF
:100A400000B585B00121880201F052FA0020009023
:100A50008DF804008DF805004FF46020029000200E
:100A6000039001208DF8100069461548FFF724FF18
:100A70004FF4404001F020FA0723012211461048AC
:100A8000FFF752FF01224FF408710D48FFF708FFEE
:100A900001210B48FFF7CFFE0948FFF7A1FF00BF78
:100AA0000748FFF7F3FE0028FAD10548FFF7A8FF33
:100AB00000BF0348FFF7CAFE0028FAD105B000BD09
:100AC0000028014010B502F0D9FD02F0F7FD02F058
:100AD00017FE02F09FFD0020034948704FF4967006
:100AE00001F088FC10BD00005000002010B500206F
:100AF0000249487001F0BCF910BD00005000002010
:100B000010B5002008490872012008700020887183
:100B10000120C871002008710820C87041010348F5
:100B200000F0E5FC10BD000043000020000801407B
:100B30002DE9F04F85B04FF000090020049002230A
:100B40006FA20021482001F031F802236DA200219C
:100B5000702001F02BF86C48807801287ED10020AD
:100B6000694988704868FFF7F9FC05460E466649F2
:100B70000888FFF7C1FC4FF08B410090FFF75CFB4A
:100B80000190FFF7EBFC0746604A614BFFF739FC29
:100B90002A463346CDE90201FFF78CFB8246FFF778
:100BA00021FD5C4908605C48008830B9084600684F
:100BB0005A4908600120584908805648016857483A
:100BC0000068FFF701FB0746FFF7C8FC0546544ADB
:100BD000544BFFF7EFFC07D853480088012101EB85
:100BE00040005149088006E04F480088FE2101EA94
:100BF00040004D49088000240BE04B48008820410C
:100C000000F0010018B109F101001FFA80F9601C21
:100C100084B20F2CF1DDB9F10F0F0DDB3F480068F6
:100C2000FFF79CFC07463E4A3E4BFFF7E4FB0546B8
:100C3000FFF7D8FC394908603C4938480068FFF79D
:100C4000C9FA07463A49FFF7BFFA0646FFF772FCB2
:100C500085B205EBD5704010049000E048E035A166
:100C60003548049A02F00CFB0223334A0021582035
:100C700000F09CFF29480068FFF770FC05464FF024
:100C800066322E4BFFF77EFC06D202232CA20021F7
:100C9000782000F08BFF2BE020480068FFF75EFC17
:100CA00005464FF06632254BFFF784FC10D81B48F1
:100CB0000068FFF753FC0546144A224BFFF762FC1D
:100CC00006D8022320A20021782000F06FFF0FE059
:100CD00012480068FFF742FC05460C4A194BFFF723
:100CE00069FC05D2022319A20021782000F05EFFE2
:100CF00001211748FFF779FE05B0BDE8F08F00002D
:100D0000563A00002500000058000020CDCCCCCC85
:100D1000CCCC21406400002068000020600000204E
:100D20007B14AE47E17A843F6A0000200000C8428D
:100D30000000204425336400A700002066661A40A6
:100D40004C000000CCCC20404100000048000000D6
:100D50000028014008B50121042001F0C9F8202035
:100D6000ADF8000010208DF8030003208DF802007C
:100D70006946044800F0DEFA2021024800F0B7FB83
:100D800008BD00000008014010B52021054800F012
:100D9000B0FB502001F02EFB2021024800F0A7FB01
:100DA00010BD00000008014008B50121042001F039
:100DB0009FF84FF48070ADF8000010208DF803000C
:100DC00003208DF802006946044800F0B3FA4FF49E
:100DD0008071024800F08BFB08BD00000008014054
:100DE00002A002F03DFA00BFFEE700000D0A20421B
:100DF00075734661756C742048616E646C65722011
:100E00000D0A000010B55F48007810286FD2DFE8A7
:100E100000F0080F203142B6B6B6B6B6536F8AB6A8
:100E2000B6A5022358A21946102000F0BFFEA7E085
:100E30000A220221102000F08FFE0B220221202026
:100E400000F08AFE022354A21946302000F0AEFEC4
:100E500096E00C220221102000F07EFE0D220221DD
:100E6000202000F079FE02234BA21946302000F02A
:100E70009DFE85E00E220221102000F06DFE0F2263
:100E80000221202000F068FE022343A219463020F0
:100E900000F08CFE74E010220221104600F05CFE8F
:100EA0000F220221202000F057FE02233AA2194609
:100EB000302000F07BFE63E014220221102000F0BD
:100EC0004BFE15220221202000F046FE18220221AE
:100ED000302000F041FE19220221402000F03CFEAB
:100EE00002232BA21946502000F060FE48E046E0A5
:100EF00014220221102000F02FFE152202212020B2
:100F000000F02AFE16220221302000F025FE1722D2
:100F10000221402000F020FE02231DA2194650208D
:100F200000F044FE2CE014220221102000F014FEF8
:100F300015220221202000F00FFE21220221302064
:100F400000F00AFE22220221402000F005FE0223CA
:100F50000FA21946502000F029FE11E012220221B2
:100F6000102000F0F9FD13220221202000F0F4FDF2
:100F7000022309A21946302000F018FE00E000BF4D
:100F800000BF10BD2E0000202A2A2A2A2A20202055
:100F90002020202020200000202020202020202091
:100FA0002020000010B5022302A21946002000F004
:100FB000FDFD10BD533A00001C48C0881B498988BC
:100FC000084400B2194908800846C0888988401A38
:100FD00000B2164948800846B0F9000009898842E5
:100FE00004DD1248008900B2104908800F48B0F9AA
:100FF0000000B0F5487F02DA00200C4908800B4859
:10100000B0F9020009494989884204DD074840894E
:1010100000B2064948800548B0F90200B0F5487FA3
:1010200002DA002001494880704700006C0000206F
:1010300002A002F015F900BFFEE700000D0A202013
:1010400044656275674D6F6E2048616E646C6572B1
:10105000200D0A002DE9F04F85B005460E46A02769
:1010600041F294184FF00009A81B44B216480068DA
:10107000204415490860154991F90010611A01FBD7
:1010800008F0FFF730FA04900F480068FFF72BFADA
:1010900049460090FFF79EF8029007FB04F0FFF727
:1010A00022FA01900299FFF73DF803900499FFF7A7
:1010B00039F88346FFF725FA0FFA80FA03480470DF
:1010C000504605B0BDE8F08F780000207C0000207D
:1010D00010B500F03EF800F001F810BD00B587B083
:1010E0000121084600F0F4FE4720ADF810004FF64D
:1010F000FE70ADF814000020ADF81600ADF8120037
:101100008DF8180004A94FF0804001F09BFD0C20E1
:10111000ADF804000020ADF806000120ADF808008D
:101120000020ADF80A00ADF80C0001A94FF0804096
:1011300001F088FB1021880601F05DFB01221021DF
:10114000880601F0D5FB0121880701F05AFB07B0A2
:1011500000BD08B51C208DF8000002208DF80100AC
:1011600000208DF8020001208DF80300684600F091
:1011700001FC08BD10B500F041F800F001F810BD09
:1011800000B587B00121022000F0A2FE4720ADF893
:10119000100044F61F60ADF814000020ADF81600F2
:1011A000ADF812008DF8180004A9134801F04AFDAB
:1011B0006020ADF800000120ADF802000020ADF87D
:1011C000080069460C4801F09DFB08210A4801F01F
:1011D000E5FB0121084801F0F3FA0121064801F07E
:1011E0000AFB01221146044801F082FB012102485A
:1011F00001F007FB07B000BD0004004008B51D204A
:101200008DF8000001208DF8010000208DF802000B
:1012100001208DF80300684600F0ACFB08BD00001B
:1012200008B50121082000F063FE4020ADF8000061
:1012300018208DF8030003208DF80200694613483A
:1012400000F078F80121082000F052FE8020ADF86F
:10125000000069460D4800F06DF80121082000F0FB
:1012600047FE4FF48070ADF800006946074800F073
:1012700061F80121082000F03BFE4FF40070ADF84A
:1012800000006946014800F055F808BD000C014017
:1012900010B500F001F810BD00B587B001210420A1
:1012A00000F016FE0020ADF8100041F61F40ADF82A
:1012B00014000020ADF81600ADF812008DF81800EB
:1012C00004A91B4801F0BEFC6020ADF8000000201E
:1012D000ADF802000220ADF808006946144801F09C
:1012E00011FB0821124801F059FB6946104801F032
:1012F0005FFB08210E4801F0ADFB69460C4801F088
:10130000B7FB08210A4801F003FC6946084801F0D0
:1013100009FC0821064801F050FC0121044801F0B5
:101320004FFA0121024801F06CFA07B000BD00003D
:10133000000800402DE9F04102460025002600206B
:1013400000230024002791F803C00CF00F0591F84A
:1013500003C00CF0100CBCF1000F03D091F802C0D8
:101360004CEA050591F800C0BCF1000F31D01468BB
:1013700000202BE04FF0010C0CFA00F3B1F800C094
:101380000CEA03069E4220D183004FF00F0C0CFAAA
:1013900003F7BC4305FA03FC4CEA040491F803C0CC
:1013A000BCF1280F06D14FF0010C0CFA00FCC2F87A
:1013B00014C00AE091F803C0BCF1480F05D14FF00A
:1013C000010C0CFA00FCC2F810C0401C0828D1D354
:1013D0001460B1F800C0BCF1FF0F34DD5468002088
:1013E0002EE000F1080C4FF0010808FA0CF3B1F8F8
:1013F00000C00CEA03069E4221D183004FF00F0C7F
:101400000CFA03F7BC4305FA03FC4CEA040491F818
:1014100003C0BCF1280F05D100F1080C08FA0CF844
:10142000C2F8148091F803C0BCF1480F07D100F155
:10143000080C4FF0010808FA0CF8C2F81080401CA4
:101440000828CED35460BDE8F0810000F0B50A460C
:10145000002300240021002500F00046B6F1004FD3
:1014600002D11D4EF16901E01B4E7168C0F30345C6
:1014700083B200F44016B6F5401F08D121F0706128
:10148000154E766826F07066134F7E6012E000F409
:101490008016B6F5801F06D1032606FA05F4A1438F
:1014A00041F0706106E0460D360103FA06F6B143DD
:1014B00041F0706122B1460D360103FA06F6314360
:1014C00000F00046B6F1004F02D1034EF16101E099
:1014D000014E7160F0BD0000000001400246002096
:1014E00093680B400BB1012000E000207047416180
:1014F000704701617047000002A001F0B1FE00BF1B
:10150000FEE700000D0A20486172644661756C7444
:101510002048616E646C6572200D0A0010B50120D0
:1015200000F075FF10BD000008B50121082000F093
:10153000DFFC4FF44060ADF8000010208DF8030090
:1015400003208DF8020069460448FFF7F3FE4FF4CC
:1015500040610248FFF7CDFF08BD0000000C0140CC
:1015600070B504461248006820F4704010490860C5
:101570000846006840F44050086000200D490860AB
:10158000002512E0E0090B49091D08606006040E01
:1015900001200949C1F8A801FFF7C0FF0020054953
:1015A0000860FFF7BBFF681CC5B2082DEADB70BD01
:1015B000040C0140A88121420080214210B50E4850
:1015C000006820F470400C4908600846006840F448
:1015D000405008600120094908600949C1F8A80184
:1015E000FFF79CFF002005490860FFF797FF0020E8
:1015F0000349C1F8A80110BD040C0140AC8121428F
:101600000080214210B50E48006820F470400C495B
:1016100008600846006840F440500860002009490E
:1016200008600949C1F8AC01FFF778FF01200549BE
:1016300008600549C1F8AC01FFF770FF10BD00005C
:10164000040C0140A88121420080214210B50024F1
:101650001448006820F47040124908600846006889
:1016600040F40040086001200F490860FFF756FF72
:1016700001200E49C1F8A801FFF750FF07E0601CE8
:10168000C4B2C82C03DDFFF7BDFF012010BD064822
:10169000803800680028F2D10349091F086000BFA4
:1016A000F4E70000040C0140AC812142008021429B
:1016B00010B50121084600F01BFC01210148FFF78D
:1016C000C5FE10BD0002300008B50121042000F065
:1016D0000FFC4FF48050ADF8000004208DF803009B
:1016E00069461848FFF726FE0121042000F000FC9F
:1016F0004FF40040ADF8000004208DF80300694667
:101700001048FFF717FE0121102000F0F1FB4FF405
:101710008040ADF8000004208DF8030069460A48B7
:10172000FFF708FE0121102000F0E2FB4FF400401B
:10173000ADF8000004208DF8030069460248FFF769
:10174000F9FD08BD000801400010014010B500245B
:101750003D480078401C3C4908704FF480513B489C
:10176000FFF7BCFE10B944F0010401E024F00104CD
:101770004FF400413548FFF7B1FE10B944F00204C0
:1017800001E024F002044FF480413148FFF7A6FE47
:1017900010B944F0040401E024F004044FF40041C3
:1017A0002B48FFF79BFE10B944F0080401E024F039
:1017B000080425480078012801D1264804702248F1
:1017C0000078022808D100201F49087021480078BD
:1017D000214908701F4804701F4800781D49097886
:1017E00088422FD11B48007860B31A48007801283E
:1017F00006D002280CD0042812D0082820D117E0E7
:10180000FFF7C2FA00F060F80F201449088018E0D2
:10181000FFF7BAFA00F058F80B2000F021F810E0BA
:10182000FFF7B2FA00F050F80A2000F019F808E0CB
:10183000FFF7AAFA00F048F80C2000F011F800E0D9
:1018400000BF00BF10BD00004200002000080140A2
:101850000010014041000020400000202E00002028
:1018600010B504460948007818B1084800780F28D8
:1018700004D144F460600549088005E002F070F985
:1018800040F60F600149088010BD00002E000020C6
:1018900008B50121102000F02BFB4FF40050ADF8EB
:1018A000000010208DF8030002208DF80200694628
:1018B0000448FFF73FFD4FF400510248FFF719FEBF
:1018C00008BD00000010014010B54FF4005106485B
:1018D000FFF70DFE502000F08DFD4FF4005102483F
:1018E000FFF707FE10BD00000010014002A001F04C
:1018F000B7FC00BFFEE700000D0A20204D656D4DCE
:10190000616E6167652048616E646C6572200D0AC6
:101910000000000010B5FFF783FC10210148FFF71D
:10192000E6FD10BD000C014010B5FFF7F3FFFFF717
:10193000AFFC10BD02A001F093FC00BFFEE7000069
:101940000D0A20204E4D492048616E646C6572205E
:101950000D0A000008B525208DF8000000208DF844
:1019600001008DF8020001208DF80300684600F0A8
:1019700001F808BD70B5002100230F22C47804B31C
:10198000154C246804F4E064C4F5E064210AC1F154
:101990000403CA40447804FA03F1847814402143D4
:1019A00009010E4C0678A155047804F01F050124A6
:1019B000AC4005786D11AD0005F1E025C5F800419A
:1019C00009E0047804F01F050124AC40044D0678BA
:1019D000761145F8264070BD0CED00E000E400E013
:1019E00080E100E002490143024A116070470000B3
:1019F0000000FA050CED00E010B5002000F001F841
:101A000010BD70B50646002415E004F1B001C8B25F
:101A100000F042F9002000F03FF9102000F03CF9FE
:101A2000002504E0304600F03FF9681CC5B2802D67
:101A3000F8DB601CC4B2082CE7DB70BD10B5642075
:101A400000F0D8FCAE2000F027F9202000F024F9A7
:101A5000022000F021F9002000F01EF9102000F013
:101A60001BF9B02000F018F9402000F015F9A12072
:101A700000F012F9C82000F00FF9DA2000F00CF99C
:101A8000122000F009F9812000F006F9DF2000F0B3
:101A900003F9A62000F000F9A82000F0FDF83F208F
:101AA00000F0FAF8A42000F0F7F8D32000F0F4F8E2
:101AB000002000F0F1F8D52000F0EEF8802000F0D2
:101AC000EBF8D92000F0E8F8F22000F0E5F8DB2090
:101AD00000F0E2F8202000F0DFF88D2000F0DCF8C4
:101AE000142000F0D9F8AF2000F0D6F810BD70B582
:101AF00006460C461546FFF761FD3046FFF730FD00
:101B0000FFF7A4FD18B1FFF77DFD012070BD204651
:101B1000FFF726FDFFF79AFD2846FFF721FDFFF7A7
:101B200095FD18B1FFF76EFD0220EFE7FFF76AFDA4
:101B30000020EBE770B504460D4605F1B001C8B2D0
:101B400000F0AAF8102141EA141000F0A5F804F002
:101B50000F0000F0A1F870BD2DE9F04180460E465F
:101B6000174600247D0131464046FFF7E3FF00BFE2
:101B700006E00D49485D00F097F86D1C601CC4B28A
:101B8000102CF6DB701CC1B24046FFF7D3FF0024D7
:101B900006E00549485D00F087F86D1C601CC4B282
:101BA000102CF6DBBDE8F081303F00082DE9F0474E
:101BB0000646894617469A464FF00008002400253D
:101BC000BAF1010F03D0BAF1020F5ED125E020E097
:101BD000785D203800F0FF087A2E04DD002609F138
:101BE000010000F0FF0949463046FFF7A3FF00243B
:101BF00009E008EB4801264A02EB4101085D00F0CC
:101C000053F8601CC4B2062CF3DBB01DC6B2681CCE
:101C1000C5B2785D0028DBD137E032E0785D20384E
:101C200000F0FF08782E04DD002609F1010000F025
:101C3000FF0949463046FFF77DFF002407E004EB2B
:101C40000811144A505C00F02FF8601CC4B2082C34
:101C5000F5DB09F10100C1B23046FFF76BFF00244C
:101C600008E004EB081108310A4A505C00F01CF847
:101C7000601CC4B2082CF4DB06F10800C6B2681C74
:101C8000C5B2785D0028C9D100BF00BFBDE8F087AC
:101C9000104600083848000810B5044622460021C6
:101CA0007820FFF724FF10BD10B5044622464021DE
:101CB0007820FFF71CFF10BD10B56848007810B100
:101CC000012852D128E065484188654800F082FF2C
:101CD00062484088B0F5F56F0AD06048408840F20D
:101CE000DC51884204D05D484088B0F5826F04D151
:101CF00001F00CFA01205B49087058484088B0F5A3
:101D00007A7F05DD5548408814385449488002E000
:101D100001205249087029E050484188504800F09D
:101D200059FF4E484088B0F5F56F0AD04B484088BF
:101D300040F2DC51884204D048484088B0F5826FB8
:101D400004D101F0E3F90120464908704348408876
:101D5000B0F5FA6F05DA4148408814303F494880B1
:101D600002E000203D49087000E000BF00BF3D4890
:101D70000078012804D13B484078401C394948701C
:101D800039480078012803D036484078032863DBBF
:101D9000002034494870087001F06CF92F484088E1
:101DA000B0F5C86F18DC2D484088B0F5AF6F13DB75
:101DB0002C4840882B4988800846808800280BDD05
:101DC00008468088142807DC2848407840F0B10095
:101DD0002649487001F0C4FE20484088B0F5FA6FEB
:101DE00019DC1E48408840F26C71884213DB1D48A4
:101DF00040881C49C8800846C08800280BDD08467A
:101E0000C088142807DC1948407840F0B200174910
:101E1000487001F0A5FE1148408840F24C418842CC
:101E200018DC0E484088B0F57A7F13DB0D484088F7
:101E30000C4908810846008900280BDD0846008906
:101E4000142807DC0948407840F0B400074948707E
:101E500001F086FE01F0D2F810BD00007E000020E7
:101E600000040040880000203C00002050000020BA
:101E700010B500200549087040F2DC504880002071
:101E800003494870087000F075FA10BD7E0000200C
:101E90008800002002A001F0E3F900BFFEE7000087
:101EA0000D0A202050656E6453562048616E646CA4
:101EB0006572200D0A00000001460020034A5068A8
:101EC00020F440400843506070470000001002407A
:101ED00029B1064AD2690243044BDA6104E0034A9D
:101EE000D2698243014BDA61704700000010024062
:101EF00029B1064A92690243044B9A6104E0034AFD
:101F000092698243014B9A617047000000100240C1
:101F100030B500210022002400232D4D6D6805F00E
:101F20000C0121B1042905D0082923D105E0294D50
:101F3000056022E0274D05601FE0254D6D6805F422
:101F40007012234D6D6805F48034022505EB924232
:101F50001CB9214D554305600BE01D4D6D6805F41E
:101F600000351DB11C4D5543056002E0194D554328
:101F7000056002E0174D056000BF00BF144D6D689D
:101F800005F0F0010909154D6B5C0568DD40456001
:101F90000F4D6D6805F4E061090A104D6B5C4568F2
:101FA000DD4085600A4D6D6805F46051C90A0B4D2E
:101FB0006B5C4568DD40C560054D6D6805F44041CA
:101FC000890B074D6B5CC568B5FBF3F5056130BD4A
:101FD0000010024000127A0000093D0014000020A9
:101FE0002400002002A001F03BF900BFFEE7000042
:101FF0000D0A2020535643202048616E646C6572A0
:10200000200D0A0010B500F001F810BD0CB500203D
:10201000019000903348006840F4803031490860F6
:1020200000BF3048006800F4003000900198401C68
:102030000190009818B90198B0F5A06FF1D1294826
:10204000006800F4003010B10120009001E0002091
:1020500000900098012843D12348006840F0100008
:10206000214908600846006820F00300086008461F
:10207000006840F0020008601A484068194948604A
:102080000846406848600846406840F48060486000
:102090000846406820F47C1048600846406840F4D8
:1020A000E81048600846006840F08070086000BF93
:1020B0000C48006800F000700028F9D0094840681A
:1020C00020F00300074948600846406840F00200DD
:1020D000486000BF0348406800F00C000828F9D1B0
:1020E0000CBD0000001002400020024010B5044664
:1020F000E043C4B286480079401C8549087108460F
:102100000079322801DB3220087101F0DFFD8048C0
:10211000807810B100207F4908707D48807800F0F9
:10212000220018B17A4880787949C8707848807858
:10213000182855D00DDC132872D2DFE800F023E513
:102140006DE55DE565E54DE57DE555E592E559E52E
:102150007F002C2866D00CDC202859D004DC1A28FB
:102160006BD01E285CD17DE024285CD02828F9D1D2
:1021700057E0302844D0382869D03C2868D03E2821
:10218000F0D178E06248C07800F0200040B14FF410
:1021900016634FF4FA620121084601F069FB1AE068
:1021A0005B48C07800F0020040B14FF4FA634FF48E
:1021B00016620121022001F05BFB0CE0554800781B
:1021C000401C5449087008460078A02803D100201C
:1021D00008704F49087298E000204D49487094E01B
:1021E000FF204B49487090E00120494948708CE03D
:1021F000FE204749487088E002204549487084E045
:10220000FC204349487080E00420414948707CE04C
:10221000F9203F49487078E007203D49487074E054
:1022200072E000BF00BF4FF416634FF4FA62002162
:10223000012001F01DFB68E000BF00BF4FF4FA630E
:102240004FF416620021022001F012FB5DE000BF96
:102250004FF416634FF4FA620021012001F008FBED
:1022600053E000BF4FF4FA634FF4166200210220DE
:1022700001F0FEFA49E02648C079012802D0022880
:102280003FD109E022488079401C21498871022011
:10229000C8710020087135E01D48007932282FDB15
:1022A00000201B49087108468079401C88711A4833
:1022B000C078897A884207DB1748C0781449897A40
:1022C000401A1349487207E01348C0783C3010495F
:1022D000897A401A0E4948720D4880790C4949792B
:1022E000884205DA0A48407A0949C97A884202DBFD
:1022F0000020074908720648417A08A000F0B0FFA4
:1023000000E000BF00BF00E000BF00BF10BD000044
:10231000430000204F00002028000020200D0A204C
:10232000547261636B2074696D6573203D20256470
:102330002073200D0A00000008B501210420FFF7DA
:10234000D7FD4020ADF8000018208DF803000320D1
:102350008DF8020069460248FEF7ECFF08BD000058
:102360000008014010B5FFF7E7FFFEF703FF00F09C
:1023700017F810BD10B540F2DC51024800F02AFCFD
:1023800010BD00000004004010B540F2DC510348CD
:1023900000F020FC642000F02DF810BD0004004087
:1023A00010B540F2DC51044800F014FC4FF4967074
:1023B00000F020F810BD00000004004010B540F609
:1023C000C411044800F006FC4FF4967000F012F8B7
:1023D00010BD00000004004010B54FF4FA7104482D
:1023E00000F0F8FB4FF4967000F004F810BD000008
:1023F0000004004001B506E00098401E00904FF434
:102400007A7000F004F800980028F5D108BD01B5F5
:1024100000204FF0E0218861084600690AE000983A
:10242000401E009000BF4FF0E020006900F48030B3
:102430000028F8D000980028F1D108BD4FF0E02026
:10244000006920F002004FF0E021086170470000B1
:1024500030B51A4800681A4AB0FBF2F1B1F1807F3A
:1024600001D301201DE021F07F40401E4FF0E0220B
:10247000506150170F22002807DA13071D0E114B69
:1024800000F00F04241F1D5503E013071C0E0E4B14
:102490001C5400BF00204FF0E02290610720106123
:1024A000002008B100BFFEE74FF0E020006920F0F7
:1024B00002004FF0E021086130BD00000000002064
:1024C00040420F0018ED00E000E400E010B51348B2
:1024D000006840F001001149086008464068104952
:1024E00008400E494860084600680E4908400B49FC
:1024F00008600846006820F48020086008464068AC
:1025000020F4FE0048604FF41F008860FFF77AFD5A
:102510004FF000600449086010BD00000010024048
:102520000000FFF8FFFFF6FE08ED00E0F0B50C46F6
:10253000154600220021068C4FF6FE773E400684A9
:10254000028B018C4FF60C7632407E1C06EA031695
:102550002E433243104EB0420ED0104EB0420BD03C
:10256000B0F1804F08D00E4EB04205D00D4EB042B3
:1025700002D00D4EB04206D14FF6FD76314044F008
:102580000106314305E04FF6F576314044F001068F
:10259000314302830184F0BD002C0140003401402E
:1025A0000004004000080040000C0040F0B50C465C
:1025B0001546002200210026078C4FF6EF7C07EA23
:1025C0000C070784028B018C4FF6FF7707EA04168D
:1025D00040F6FF473A404FF6FF7707EA03373A43A2
:1025E0004FF6FF7707EA05273A43114FB8420ED05E
:1025F000104FB8420BD0B0F1804F08D00E4FB84208
:1026000005D00E4FB84202D00D4FB84206D14FF65A
:10261000DF77394046F01007394305E04FF65F7722
:10262000394044F01007394302830184F0BD0000B3
:10263000002C01400034014000040040000800402C
:10264000000C0040F0B50C46154600220021002683
:10265000078C4FF6FF6C07EA0C070784828B018C0E
:102660004FF6FF7707EA04264FF60C773A404FF60D
:10267000FF7707EA03172F433A43114FB8420ED0B2
:10268000104FB8420BD0B0F1804F08D00E4FB84277
:1026900005D00E4FB84202D00D4FB84206D14FF6CA
:1026A000FF57394046F48077394305E04FF2FF5732
:1026B000394044F48077394382830184F0BD0000BF
:1026C000002C01400034014000040040000800409C
:1026D000000C0040F0B50C461546002200210026F3
:1026E000078C4EF6FF7C07EA0C070784828B018C6F
:1026F0004FF6FF7707EA043640F6FF473A404FF6B9
:10270000FF7707EA05273A434FF6FF7707EA0337D3
:102710003A43114FB8420ED0104FB8420BD0B0F12F
:10272000804F08D00E4FB84205D00E4FB84202D0AD
:102730000D4FB84206D14DF6FF77394046F4805729
:10274000394305E047F6FF57394044F48057394391
:1027500082830184F0BD0000002C01400034014060
:102760000004004000080040000C004010B500F0DC
:102770002BFD10BD10B501210D4800F052F8B0B18D
:1027800001200C49087001F077FBFEF7DFFF0A48D3
:10279000007A012807D10948007820B90120FFF705
:1027A000A5FC00F0C1FA0121014800F027F810BD96
:1027B00000040040280000204300002050000020BA
:1027C00021B1028842F08002028004E002884FF6C4
:1027D0007F731A400280704730B5002301248C407B
:1027E000A3B2048C9C430484048C02FA01F5ADB2BC
:1027F0002C43048430BDCA4302827047CA4302821C
:10280000704721B1028842F00102028004E0028890
:102810004FF6FE731A40028070470146B1F840003F
:10282000704730B50246002000230024158A05EACF
:102830000103958905EA010413B10CB1012000E000
:10284000002030BD70B505460C46244885420ED0A8
:10285000234885420BD0B5F1804F08D021488542EE
:1028600005D02148854202D02048854200D100E0B1
:1028700000BF208850B92389A28861882846FFF7C5
:1028800055FEE188284600F0B0F925E020880428AC
:102890000AD12389A28861882846FFF787FEE1884C
:1028A000284600F0ABF917E0208808280AD12389D0
:1028B000A28861882846FFF7C5FEE188284600F017
:1028C000AAF909E02389A28861882846FFF702FF58
:1028D000E188284600F0A8F970BD0000002C0140F6
:1028E000003401400004004000080040000C00409B
:1028F0001AB183890B43838102E083898B438381EF
:102900007047000070B5002400220023058C4FF6AC
:10291000FE7635400584028C8388048B4FF68F75D4
:102920002C40B51E2C400D882C43751E2A400D8965
:102930002A434D882A43144DA8420BD0134DA84278
:1029400008D0134DA84205D0124DA84202D0124D16
:10295000A84213D14FF6F7752A404D892A434FF606
:10296000FB752A408D882A434FF6FF652B404FF6B2
:10297000FF552B408D892B43CD892B4383800483C6
:10298000CD888586028470BD002C01400034014052
:102990000040014000440140004801400A46002137
:1029A000018B4FF6F7731940114301837047000004
:1029B00070B5002400220023058C4FF6EF763540D9
:1029C0000584028C8388048B48F6FF752C404FF6F3
:1029D000FF452C400D884FF6FF7606EA05252C436F
:1029E0004FF6DF752A400D8906EA05152A434D8802
:1029F00006EA05152A43154DA84202D0144DA842F7
:102A00001DD14FF67F752A404D894FF6FF7606EAB5
:102A100005152A434FF6BF752A408D8806EA05152D
:102A20002A434FF6FF352B404FF2FF752B408D891F
:102A300006EA85052B43CD8906EA85052B4383806D
:102A40000483CD880587028470BD0000002C0140FE
:102A5000003401400A460021018B4FF2FF731940F8
:102A60004FF6FF7303EA0223194301837047000006
:102A700070B5002400220023058C4FF6FF66354018
:102A80000584028C8388848B4FF68F752C404FF61B
:102A9000FC752C400D882C434FF6FF552A400D89BC
:102AA0004FF6FF7606EA05252A434D8806EA0525F6
:102AB0002A43154DA84202D0144DA8421DD14FF211
:102AC000FF752A404D894FF6FF7606EA05252A4311
:102AD0004FF6FF352A408D8806EA05252A434EF633
:102AE000FF752B404DF6FF752B408D8906EA0515C5
:102AF0002B43CD8906EA05152B4383808483CD883B
:102B00008587028470BD0000002C01400034014024
:102B10000A460021818B4FF6F773194011438183D8
:102B20007047000070B5002200230024058C4EF68B
:102B3000FF7635400584038C8488828B48F6FF75C8
:102B40002A404FF6FF452A400D884FF6FF7606EAE9
:102B500005252A434DF6FF752B400D8906EA0535FC
:102B60002B434D8806EA05352B430B4DA84202D076
:102B70000A4DA84208D14BF6FF752C408D894FF6BF
:102B8000FF7606EA85152C4384808283CD88A0F8E1
:102B90004050038470BD0000002C0140003401400F
:102BA0000A460021018C4DF6FF7319404FF6FF7362
:102BB00003EA02331943018470470A460021818BDE
:102BC0004FF2FF7319404FF6FF7303EA02231943D4
:102BD000818370478186704701877047818770477E
:102BE000A0F84010704781847047028B4FF6F37352
:102BF0001A400283028B0A4302837047028B4FF212
:102C0000FF331A400283028B4FF6FF7303EA01235E
:102C10001A4302837047828B4FF6F3731A40828304
:102C2000828B0A4382837047828B4FF2FF331A40B4
:102C30008283828B4FF6FF7303EA01231A43828358
:102C400070470000002202881D4B98420ED01D4B99
:102C500098420BD0B0F1804F08D01B4B984205D062
:102C60001A4B984202D01A4B984204D14FF68F73F8
:102C70001A404B881A43174B984207D0164B98427C
:102C800004D04FF6FF431A40CB881A4302808B884A
:102C900083850B8803850A4B98420BD0094B9842D9
:102CA00008D00E4B984205D00D4B984202D00D4BE8
:102CB000984201D10B7A038601238382704700007A
:102CC000002C014000340140000400400008004096
:102CD000000C004000100040001400400040014083
:102CE000004401400048014008B501210C20FFF7D5
:102CF000FFF847F22000ADF8000004208DF8030033
:102D000069460748FEF716FB1020ADF800000420C6
:102D10008DF8030069460348FEF70CFB08BD000070
:102D2000000C01400008014010B5064991F901006E
:102D30000021FEF78FF904498880FEF73DF900F085
:102D40000BF810BD430000206C00002010B5FFF709
:102D5000CBFFFEF729F810BD10B5044A528891B296
:102D6000024A128890B200F02DFE10BD6C000020C7
:102D700010B540F225510C4800F07BF898B10A4894
:102D800000F032F90949097A084A50541046007A8D
:102D9000401C114608720846007A022803DB002016
:102DA00008720120887210BD003801409200002096
:102DB00021B1828942F40052828104E082894DF679
:102DC000FF731A408281704700B585B0012104204D
:102DD000FFF78EF801218803FFF78AF84FF400709F
:102DE000ADF8100018208DF8130003208DF81200A4
:102DF00004A91748FEF79EFA4FF48060ADF8100062
:102E000004208DF8130004A91148FEF793FA4FF43B
:102E1000E13000900020ADF80400ADF80600ADF8F8
:102E20000800ADF80C000C20ADF80A00694609480E
:102E300000F06EF8FEF78EFD012240F225510548A4
:102E400000F041F801210348FFF7B2FF05B000BDD3
:102E5000000801400038014002460020B1F5007F23
:102E600000D100BF13880B400BB1012000E000200F
:102E7000704770B50246002400230025002040F66C
:102E80006A16B14200D100BFC1F3421501F01F0321
:102E9000012606FA03F3012D02D19689334006E09C
:102EA000022D02D1168A334001E0968A33400C127B
:102EB000012606FA04F41688344013B10CB101203F
:102EC00000E0002070BDF0B5034600240026002578
:102ED000002040F66A17B94200D100BF1846C1F37E
:102EE000421401F01F06012707FA06F5012C01D153
:102EF0000C3004E0022C01D1103000E014301AB183
:102F000007682F43076002E00768AF430760F0BD22
:102F10002DE9F04786B005460E460024A24600BFC4
:102F2000A1460027B08900B100BF2F462C8A4CF67D
:102F3000FF700440F08804432C82AC894EF6F310F5
:102F40000440B08831890843718908430443AC8147
:102F5000AC8A4FF6FF400440B0890443AC8201A81C
:102F6000FEF7D6FF1F48874202D1DDF810A001E02E
:102F7000DDF80CA0A88900F4004040B10AEBCA00BB
:102F800000EB0A1031684900B0FBF1F807E00AEBEA
:102F9000CA0000EB0A1031688900B0FBF1F8642028
:102FA000B8FBF0F004012009642101FB1089A88915
:102FB00000F4004040B1322000EBC900B0FBF1F05A
:102FC00000F00700044308E0322000EB0910642100
:102FD000B0FBF1F000F00F0004432C8106B0BDE817
:102FE000F08700000038014001468888C0F30800DF
:102FF0007047C1F3080282807047000010B50E4888
:103000004088B0F5D77F10DC0B48408800280CDDE5
:103010000948428809A10B4800F032F90223094A05
:1030200000211020FEF7C2FD05E0022306A20021C8
:103030001020FEF7BBFD10BD880000202530346451
:10304000000000009D0000202D4F4C2D00000000CE
:1030500008B501210420FEF74BFF0820ADF8000061
:1030600004208DF8030069460148FEF763F908BDA6
:103070000008014000210D48007801280ED10B48BE
:103080004088411C01EB01104FF47A72B0FBF2F062
:10309000074A50800020054A107003E040F6AD302A
:1030A000034A508002484088704700003C000020DE
:1030B0008800002010B500F04DF8FFF7C9FFFEF7BB
:1030C00007F810BD10B5FFF7D5FF0E4840880D4931
:1030D0008880FFF793FF0B48808800280CDD0948A3
:1030E0008088232808DC0848407840F0B100064971
:1030F000487000F035FD02E00020034948700248A6
:10310000407810BD880000205000002010B54FF41A
:1031100000410A48FEF7EBF90120FFF76BF94FF485
:1031200000410648FEF7E5F91420FFF770F94FF467
:1031300000410248FEF7DBF910BD0000000C014021
:1031400010B5FFF7E3FF1920FFF754F9FFF792FFDF
:1031500010BD000008B501210820FEF7C9FE4FF49C
:103160000040ADF8000010208DF8030003208DF81A
:10317000020069460448FEF7DDF84FF400410248BA
:10318000FEF7B5F908BD0000000C014010B50223A0
:103190000AA200210846FEF709FD022308A2002129
:1031A0003020FEF703FD074800780A2805D00548BF
:1031B00000780C2801D0FFF785FF10BD443A0000CD
:1031C000636D20002E00002010B510218806FFF747
:1031D00028FB70B31748407898B901218807FFF79A
:1031E00010FB00214FF08040FFF7FDFC002011494B
:1031F000488002214807FFF7D3FC01200D494870A1
:1032000013E04FF08040FFF708FB0A494880002197
:103210004FF08040FFF7C4FC0020064948700120B1
:10322000087000218007FFF7ECFA10218806FFF7ED
:10323000E5FA10BD3C00002002A000F011F800BF2C
:10324000FEE700000D0A2055736167654661756CE5
:10325000742048616E646C6572200D0A00000000E5
:103260000FB4054B10B503A9044A029800F02CF8DE
:1032700010BC5DF814FB0000093900088400002030
:103280000FB4084B10B504A902AA039800F01CF86B
:10329000044602A9002000F0B8F9204610BC5DF8F1
:1032A00014FB00000B36000802E008C8121F08C11A
:1032B000002AFAD170477047002001E001C1121FB7
:1032C000002AFBD1704700002DE9FF4F8BB08846E4
:1032D0000546002606E025280BD0DDE90D129047B3
:1032E0006D1C761C28780028F5D10FB03046BDE85B
:1032F000F08F0024A146A2460122AE4900E004431B
:1033000015F8013F203B02FA03F00842F7D1287874
:103310002A2810D06FF02F022878A0F13001092957
:1033200015D809EB890102EB410144F0020400EBDE
:1033300001096D1CF0E758F8041B5FEA010903D589
:1033400044F40054C9F1000944F002046D1C2878CB
:103350002E2817D115F8010F44F004042A280ED0A6
:103360006FF02F022878A0F1300109290AD80AEB62
:103370008A0102EB410100EB010A6D1CF2E758F8EB
:1033800004AB6D1C28786C280FD006DC4C2817D0B5
:1033900068280DD06A2814D104E0742810D07A2847
:1033A0000FD10DE044F400140AE044F4801401E06D
:1033B00044F440146978814202D104F580146D1CF4
:1033C0006D1C2878692865D006DC00288DD063281C
:1033D00027D0642806D15DE06E2808D073282AD053
:1033E000752877D0DDE90D129047761CE0E0C4F334
:1033F0000250022809D003280DD0D8F80010042864
:103400000DD00E6008F10408D2E0D8F80010F217D1
:10341000C1E90062F6E7D8F800100E80F2E70E70FE
:10342000F0E718F8041B8DF8001000208DF801005B
:10343000EB46012003E058F804BB4FF0FF30610772
:103440004FF0000701D40AE07F1C57450DDA874290
:10345000FADB1BF807100029F6D106E07F1C874233
:10346000FCDB1BF807100029F8D1DDE90D23A9EBDF
:1034700007008146214600F0B1F83044C61904E047
:10348000DDE90D121BF8010B90477F1EF8D2214693
:10349000484688E058F8040BC4F302514FF00A0B79
:1034A000032900D100B2042900D140B2002802DA79
:1034B00040422D2102E0210505D52B218DF8241055
:1034C000012104E006E0E10710D02021F6E708AF73
:1034D000089113E058F8040BC4F302514FF00A0BA3
:1034E000032900D180B2042900D1C0B20021EEE747
:1034F0005946FDF793F8303107F8011D0028F7D140
:10350000ADEB070000F1200B600702D524F48034F6
:1035100001E04FF0010ADA4502DDAAEB0B0000E002
:103520000020824600EB0B0108980144A9EB010042
:103530000A90E00306D4DDE90D2321460A9800F045
:103540004DF806444FF0000908E009A911F80900F8
:10355000DDE90D12904709F10109761C08998945AA
:10356000F3DBE0030CD5DDE90D2321460A9800F0DA
:1035700035F8064404E0DDE90D1230209047761C52
:10358000BAF10001AAF1010AF5DC05E0DDE90D124E
:1035900017F8010B9047761CBBF10001ABF1010B52
:1035A000F4DC0A982146DDE90D2300F005F8064415
:1035B0006D1C97E6092801002DE9F041044600251D
:1035C0001E461746880404D405E039462020B0473B
:1035D0006D1C641EF9D52846BDE8F0812DE9F04147
:1035E000044600251E469046C80301D5302700E05A
:1035F0002027880404D505E041463846B0476D1CB5
:10360000641EF9D52846BDE8F0810A68531C0B609A
:103610001070704710B5174880881649C9888842CD
:103620000ADB1448808813490989884204DB124A5E
:103630009188508800F0C6F90E48C0880D498988E5
:10364000884207DB0B48C0880A490989884201DBA8
:1036500000F0A2FB0748008906498988884207DBF9
:10366000044800890349C988884201DB00F0A8FBAF
:1036700010BD0000880000202E00002010B5FEF7CD
:103680008FFEFFF75DFD0B4840880A498880FFF7F1
:10369000B5FC0848808800280BDD06488088232870
:1036A00007DC0548407840F0B1000349487000F05D
:1036B00057FA10BD880000205000002010B5FEF71A
:1036C0007DFEFFF73DFD0C4840880B49C880FFF7A1
:1036D00095FC0948C08800280BDD0748C0881E28D3
:1036E00007DC0648407840F0B2000449487000F01A
:1036F00037FAFEF749FE10BD880000205000002078
:1037000010B5FEF769FEFFF71BFD0C4840880B491A
:103710000881FFF773FC0948008900280BDD074882
:1037200000891E2807DC0648407840F0B4000449B0
:10373000487000F015FAFEF727FE10BD8800002043
:103740005000002010B5FEF7B7FA0E48407890B14F
:1037500000F006FA1E20FEF74DFE0B4A1189D088B4
:1037600000F01EF94FF4FA70FEF744FE00F0F8F98D
:10377000FDF7A8F904E0044A9188508800F022F986
:1037800010BD0000500000202E00002070B504463F
:103790000D46FFF7D5FCFFF731FC11484088A842E1
:1037A00005DD104A9188508800F00CF917E00C48AC
:1037B0004088A84206DC0A484088A04202DB00F0AC
:1037C000CFF90CE006484088002808DD044840880E
:1037D000A04204DA034A1189D08800F0E1F870BDF4
:1037E000880000202E00002010B51C480078012819
:1037F00002D002282FD10DE04FF480711848FDF758
:1038000078FE012015490872022008701548C0781A
:10381000887221E000F062F81048007AD0B900F018
:103820009FF920210E48FDF764FE4FF400510E4829
:10383000FDF75DFE4FF49670FEF7DCFD2021084891
:10384000FDF755FE4FF400510748FDF752FE0F20DB
:103850000649088000E000BF00BF10BD4300002003
:103860000008014028000020001001402E00002028
:103870002DE9F04104460D4616461F460020164924
:10388000087200F06DF90520FEF7B4FD022C04D19A
:103890003946304600F0AAF905E0012C03D139463B
:1038A000304600F07FF913E000F010FA0A48807803
:1038B00000F03E0060B100F053F915B10820064950
:1038C000C8700520FEF796FD01200349087200E04C
:1038D000EAE700BFBDE8F0814300002010B50948C9
:1038E0004078B1280AD100F03BF90648007840B989
:1038F000012004490870FDF747FA02E00020014961
:10390000087010BD5000002070B504460D46E1B2AD
:103910000548FFF76EFB00BF80210348FFF79CFAC4
:103920000028F9D0204670BD003801404FF4A06057
:10393000FEF758F8FEF78CFDFDF7BAFEFDF7F4FF31
:10394000FDF7C2FEFDF7A4FFFDF704FAFFF73CFA0E
:10395000FDF7EAFDFEF772F8FEF74EF8FDF768F89E
:1039600001210D48FDF741F8FFF7F0F9FFF7A2FB41
:10397000FEF7F8FCFDF708FA0CE00848007848B1BB
:1039800000200649087000F0A5FA00F041F9062071
:1039900000F02AFAF1E7000000280140280000208A
:1039A00070B504460D462146022000F01DF8294658
:1039B000022000F077F810210148FDF79AFD70BD54
:1039C000000C014070B504460D462146012000F070
:1039D0000BF82946012000F065F810210148FDF799
:1039E00088FD70BD000C014070B504460D4634B131
:1039F000012C19D0022C2AD0032C4ED13AE041F6EA
:103A00002A412748FFF7EAF8012208212448FEF757
:103A1000E3FE41F62A412248FFF7E2F801220C2199
:103A20001F48FEF7D9FE39E000211D48FFF7D6F800
:103A3000012208211A48FEF7CFFE29461848FFF751
:103A4000CFF801220C211648FEF7C6FE26E02946D3
:103A50001348FFF7C3F8012208211148FEF7BCFE06
:103A600000210F48FFF7BCF801220C210C48FEF79B
:103A7000B3FE13E000210A48FFF7B0F80122082145
:103A80000748FEF7A9FE00210548FFF7A9F8012223
:103A90000C210348FEF7A0FE00E000BF00BF70BD90
:103AA0000008004070B504460D4634B1012C19D011
:103AB000022C2AD0032C4ED13AE041F62A41274865
:103AC000FFF78AF8012204212448FEF785FE41F61B
:103AD0002A412248FFF77EF8012200211F48FEF705
:103AE0007BFE39E000211D48FFF776F80122042112
:103AF0001A48FEF771FE29461848FFF76BF80122B5
:103B000000211648FEF768FE26E029461348FFF715
:103B100063F8012204211148FEF75EFE00210F48E0
:103B2000FFF758F8012200210C48FEF755FE13E07C
:103B300000210A48FFF750F8012204210748FEF748
:103B40004BFE00210548FFF745F8012200210348FC
:103B5000FEF742FE00E000BF00BF70BD000800405D
:103B600010B510210548FDF7C2FC00210846FFF7FB
:103B70003BFF00210846FFF795FF10BD000C0140F8
:103B800010B5044621460220FFF72EFF21460120F2
:103B9000FFF788FF10210248FDF7ABFC10BD0000C5
:103BA000000C014070B504460D4621460220FFF787
:103BB0001BFF29460120FFF775FF10210148FDF783
:103BC00098FC70BD000C014010B504462146012050
:103BD000FFF70AFF21460220FFF764FF1021024889
:103BE000FDF787FC10BD0000000C014070B50446D5
:103BF0000D4621460120FFF7F7FE29460220FFF778
:103C000051FF10210148FDF774FC70BD000C01400C
:103C100010B52B4800882B490988884207D000201E
:103C200000F016F9264800882649088002E0322074
:103C300000F00EF92248007810283ED2DFE800F0AC
:103C400008090F151A3D3D3D3D3D1F22252A3036FE
:103C500034E01B4A91885088FFF7B4FE2EE0184AE2
:103C60001189D088FFF79CFE28E015494889FFF7A5
:103C700087FF23E012494889FFF7A6FF1EE0FFF700
:103C800061FD1BE0FFF7B0FD18E00F210A20FFF7F0
:103C90007DFD13E04FF480710B48FDF72AFC0DE029
:103CA0004FF480710848FDF722FC07E0FFF758FF4A
:103CB000FCF71CFFFCF724FF00E000BF00BF10BDB5
:103CC0002E0000203A0000200008014010B54FF4FB
:103CD00080512E48FDF702FC30B12D48807840F02D
:103CE00008002B49887005E02948807820F00800FA
:103CF000274988704FF400512448FDF7EFFB30B19D
:103D00002348807840F010002149887005E0204861
:103D1000807820F010001E4988704FF480411B48C5
:103D2000FDF7DCFB30B11A48807840F020001849DC
:103D3000887005E01648807820F0200014498870CB
:103D400020211248FDF7CAFB30B11148807840F0BD
:103D500004000F49887005E00D48807820F00400C9
:103D60000B49887010210B48FDF7B8FB30B10848AB
:103D7000807840F002000649887005E004488078A9
:103D800020F002000249887010BD0000000C0140C4
:103D9000430000200008014010B5FFF7E1FE1E209F
:103DA000FEF728FB4FF4E160FFF7EAFE4FF41170D5
:103DB000FEF720FBFFF7D4FE1E20FEF71BFB10BD15
:103DC00010B5FFF7CDFE1E20FEF714FB4FF4E160A7
:103DD000FFF7FAFE4FF41170FEF70CFBFFF7C0FE81
:103DE0001E20FEF707FB10BD10B5044616480078EC
:103DF000A04202DB0020144908701348007806280E
:103E00001AD2DFE800F0030E111215160F480078E1
:103E10000A2805D00D4800780C2801D0FFF776F964
:103E20000BE0FCF785FE08E007E0FDF7BBF804E0D7
:103E300003E0FFF7ABF900E000BF00BF02480078E5
:103E4000401C0149087010BD530000202E000020C6
:103E500010B5044607480078401C0649087008461B
:103E60000078A04204DBFCF7CDFF00200149087078
:103E700010BD00005500002015480079401C144971
:103E8000087108460079322805DB002008710846D1
:103E9000C078401CC8700E48C0783C2806DB002063
:103EA0000B49C87008468078401C887008488078A4
:103EB0003C280CDB00200649887008464078401CEE
:103EC000487008464078182801DB00204870704789
:103ED0002800002010B51448807A012823D1002042
:103EE000114988720846007800F00F000A280BD0AC
:103EF0000846007800F00F000B2805D0084600782F
:103F000000F00F000C280CD10748407806490978CA
:103F100040EA012005490880FCF736FFFDF7D4FC94
:103F200001E0FDF7D1FC10BD920000202E00002022
:103F300000024262524A464242425262C2020000BB
:103F4000404044444444447F44444444444040004A
:103F5000404454D4555654FC545655D4544440000F
:103F60000202FA4A4B4A4A4B4A4A4B4AFA020200B8
:103F70000000F888888888FF88888888F800000012
:103F800000001F080808087F888888889F80F00044
:103F900080828282828282E2A2928A8682808000ED
:103FA000000000000040807F0000000000000000D2
:103FB0002424A4FEA3220022CC0000FF0000000065
:103FC000080601FF00010404040404FF02020200C9
:103FD000101010FF109008888888FF8888880800D3
:103FE0000444827F01808040432C10284681800059
:103FF00020202020202020FF202020202020200002
:1040000080804020100C0300030C102040808000B2
:1040100040301196909091969090981413503000E3
:10402000040404040444847E060504040404040017
:1040300000101010101011161090503010000000D9
:104040000040201010284442414040404040400081
:10405000404042CC0008E9AAB8A8A8AAE908000094
:104060000040201F20405F4A4A4A4A4A5F404000C1
:104070000808E8292E28E80808C80C0BE8080800FA
:104080000000FF0949897F00000F40807F00000089
:10409000404042CC00808888FF8888FF8888800064
:1040A0000040201F2040504C4340405F40404000B3
:1040B000000000FC24242424222222232220200089
:1040C0004020180700FE424242424242FE000000E9
:1040D000404042CC0000FF4949C949497F80000067
:1040E0000040201F20405F48444041424558400066
:1040F0000808080888780F08080808080808080051
:1041000020104846414141417F41414141404000EA
:10411000C8B88FE88888404848E85F484848400069
:10412000081808FF040400020B1222D20A0600003D
:1041300008080808C8380F08080808080808080010
:1041400008040201FF41414141414141FF0000009B
:1041500000000C12120C0000000000000000000023
:10416000000000000000000000000000000000004F
:104170008060F807000474545556545474040000C9
:104180000000FF0003010545857D050505010300CD
:10419000000000F0000000FF4040404040000000F0
:1041A0004040407F4040407F4040404040404000D1
:1041B000000000F8888C8A89888888F80000000050
:1041C000000000FF44444444444444FF0000000015
:1041D0004044C4444444401010FF101010F000004C
:1041E000103C131014B840300E014080403F0000D6
:1041F0001088C43300FE12D252527F5151D11000A8
:104200000100FF40300F00FF4A4A4A4A4AFF0000BF
:10421000404042CC0008C808F8090EF80848880059
:104220000040201F205148464148504F4040410027
:104230004042CC00807E22223E005465C664540079
:1042400040201F22415F49495F4042425F42420095
:1042500000FE0222DA0610D2565A535A56D21000E5
:1042600000FF0810080710171515FD151517100089
:10427000404042CC00084888080808FF08080800A9
:104280000040201F204040414048504F40404000E7
:10429000008040300F0808E8080808482818000087
:1042A0008080402010080601060810204080800011
:1042B0000000FE0282828282FA8282828282020070
:1042C00080601F40404040407F4040445840400094
:1042D00004442414047C0506047C041424440400CF
:1042E00000001D15151515151555955730000000C2
:1042F000101010FF1010F00000F8080808F8000077
:104300008040300F40807F00007F2020207F000011
:1043100000020CC000F80848484808FF08098A0055
:1043200002027F80403F001E925E20173846F10057
:10433000404042CC0004F49494FF9494F4040000B0
:104340000040201F20484442415F41424448400011
:10435000003E22E2223E00FE92929292FE00000077
:10436000203F201F111100FF40230C142241400068
:1043700000FE225A8608104424F42C2724E404006A
:1043800000FF040887413F4080BF8595A59F8000BE
:10439000060909E6F80C040202020202041E0000EB
:1043A000000000071F302040404040402010000027
:1043B00000FE0222DA0620D808090E088828180014
:1043C00000FF08100807003F4444424140780000C5
:1043D00000F808FF08F8003EAA6A3E2AAA3E00003C
:1043E0002063211F11394829098DFB09082C580029
:1043F000008060F807001CE0010600E01E000000DD
:10440000010000FF00804020130C1320408080003A
:10441000080889EA1888000404FC040404FC00006D
:10442000020100FF0186402018074080403F000045
:104430001010F01F10F00040E05847405060C000DE
:104440004022150816210000FE42424242FE0000B2
:10445000008060F807000000FF4020100804000002
:10446000010000FF000402013F404040404078004E
:104470000040301E101010FF10101010100000002F
:1044800081814121110D0301030D11214181810021
:1044900000FE02FA02FE4020D8171010F0101000A3
:1044A0008047300F10678040211608162140800099
:1044B0004042CC0000445454547F5454544440006F
:1044C00000007F201000FF15151555957F00000096
:1044D000101010FF109000FE8282FE8282FE00000B
:1044E0000444827F0100003F404040404041700052
:1044F000000000E0000000FF0000002040800000FD
:10450000080403000040807F0000000000010E004E
:104510000008884828180FE808080808080800005C
:1045200008080909090909FF090909090908080012
:104530000808F94A48C84820D8171010F010100091
:1045400040300F20403F8040211608162140800057
:1045500000020212620202FE020242320202000065
:1045600001010101010101FF01010101010101003E
:104570002424A4FEA32208949293929A96F0000019
:10458000080601FF00836004648CB484C4176000D3
:104590000202F292929292FE92929292F2020200A1
:1045A0000404FF0404040407040444847F04040096
:1045B00000020C80608040300FC8080828180000F6
:1045C00002027E018040201806010618204080006B
:1045D000000000000000FF4040404040400000005C
:1045E0004040404040407F404040404040404000CC
:1045F0000000F888888888FF88888888F80000008C
:1046000000001F080808087F888888889F80F000BD
:104610000000000000000000002F00000000070064
:10462000070000147F147F1400242A7F2A120062DE
:10463000640813230036495522500000050300008A
:1046400000001C224100000041221C000014083E12
:1046500008140008083E0808000000A060000008D8
:10466000080808080000606000000020100804022C
:10467000003E5149453E0000427F400000426151EA
:104680004946002141454B31001814127F10002784
:1046900045454539003C4A49493000017109050347
:1046A00000364949493600064949291E0000363678
:1046B00000000000563600000008142241000014DB
:1046C00014141414000041221408000201510906B8
:1046D00000324959513E007C1211127C007F494939
:1046E0004936003E41414122007F4141221C007F6A
:1046F00049494941007F09090901003E4149497A78
:10470000007F0808087F0000417F410000204041F1
:104710003F01007F08142241007F40404040007F5D
:10472000020C027F007F0408107F003E4141413EA1
:10473000007F09090906003E4151215E007F0919E9
:1047400029460046494949310001017F0101003FE6
:104750004040403F001F2040201F003F4038403F66
:1047600000631408146300070870080700615149CA
:10477000454300007F41410000552A552A5500005D
:1047800041417F00000402010204004040404040DB
:10479000000001020400002054545478007F484473
:1047A000443800384444442000384444487F0038AA
:1047B0005454541800087E0901020018A4A4A47CD3
:1047C000007F080404780000447D4000004080849D
:1047D0007D00007F102844000000417F4000007CE5
:1047E00004180478007C08040478003844444438F1
:1047F00000FC242424180018242418FC007C08043D
:10480000040800485454542000043F444020003C15
:104810004040207C001C2040201C003C4030403C9C
:10482000004428102844001CA0A0A07C004464542C
:104830004C44141414141414000000000000000070
:104840000000000000000000000000F80000000070
:10485000000000333000000000100C06100C0600B1
:10486000000000000000000040C07840C078400018
:10487000043F04043F040400007088FC083000007A
:10488000001820FF211E0000F008F000E0180000D2
:1048900000211C031E211E0000F00888700000008B
:1048A0001E2123241927211010160E0000000000DD
:1048B0000000000000000000000000E018040200FA
:1048C000000000071820400000020418E00000006B
:1048D0000040201807000000404080F08040400069
:1048E0000202010F01020200000000F000000000BF
:1048F0000101011F01010100000000000000000093
:1049000080B0700000000000000000000000000007
:104910000001010101010101000000000000000090
:10492000003030000000000000000000806018042B
:10493000006018060100000000E010080810E00008
:10494000000F102020100F00001010F800000000D1
:104950000020203F20200000007008080888700018
:104960000030282422213000003008888848300098
:104970000018202020110E000000C02010F80000B8
:1049800000070424243F240000F808888808080051
:104990000019212020110E0000E010888818000066
:1049A000000F112020110E0000380808C838080038
:1049B0000000003F000000000070880808887000B8
:1049C000001C222121221C0000E010080810E00039
:1049D0000000312222110F00000000C0C0000000C2
:1049E00000000030300000000000008000000000E7
:1049F00000008060000000000000804020100800DF
:104A000000010204081020004040404040404000A7
:104A10000404040404040400000810204080000082
:104A20000020100804020100007048080808F00087
:104A30000000003036010000C030C828E810E00057
:104A40000718272423140B000000C038E0000000E2
:104A5000203C23020227382008F88888887000004C
:104A6000203F202020110E00C03008080808380020
:104A7000071820202010080008F808080810E00097
:104A8000203F202020100F0008F88888E808100038
:104A9000203F20202320180008F88888E80810000C
:104AA000203F200003000000C03008080838000044
:104AB00007182020221E020008F808000008F80845
:104AC000203F210101213F20000808F808080000CC
:104AD0000020203F2020000000000808F8080800FF
:104AE000C08080807F00000008F888C02818080077
:104AF000203F20012638200008F8080000000000B0
:104B0000203F20202020300008F8F800F8F80800A6
:104B1000203F003F003F200008F830C00008F808A0
:104B2000203F200007183F00E01008080810E000B0
:104B30000F10202020100F0008F808080808F000C7
:104B4000203F210101010000E01008080810E000EA
:104B50000F18242438504F0008F88888888870007F
:104B6000203F2000030C302000708808080838001F
:104B70000038202121221C00180808F80808180015
:104B80000000203F2000000008F808000008F80896
:104B9000001F202020201F000878880000C8380847
:104BA000000007380E010000F80800F80008F800BF
:104BB000033C0700073C0300081868808068180859
:104BC00020302C03032C30200838C800C8380800D7
:104BD0000000203F2000000010080808C838080026
:104BE0002038262120201800000000FE02020200CA
:104BF0000000007F40404000000C30C0000000007A
:104C0000000000010638C00000020202FE000000A1
:104C1000004040407F000000000004020202040047
:104C20000000000000000000000000000000000084
:104C3000808080808080808000020204000000006C
:104C40000000000000000000000080808080000064
:104C50000019242222223F2008F800808000000052
:104C6000003F112020110E00000000808080000015
:104C7000000E112020201100000000808088F80024
:104C8000000E112020103F20000080808080000056
:104C9000001F222222221300008080F088888818BA
:104CA0000020203F202000000000808080808000C5
:104CB000006B94949493600008F80080808000005A
:104CC000203F210000203F20008098980000000035
:104CD0000020203F20200000000000809898000065
:104CE00000C08080807F000008F800008080800085
:104CF000203F24022D302000000808F800000000AA
:104D00000020203F20200000808080808080800064
:104D1000203F20003F20003F8080008080800000F6
:104D2000203F210000203F20000080808080000084
:104D3000001F202020201F008080008080000000B5
:104D400080FFA12020110E000000008080808000E4
:104D5000000E112020A0FF808080800080808000D5
:104D600020203F2120000100000080808080800002
:104D70000033242424241900008080E08080000077
:104D80000000001F202000008080000000808000C4
:104D9000001F202020103F20808080000080808025
:104DA00000010E30080601008080008000808080B5
:104DB0000F300C030C300F000080800080808000DA
:104DC0000020312E0E312000808080000080808005
:104DD00080818E70180601000080808080808000B5
:104DE0000021302C2221300000000000807C0202D3
:104DF00000000000003F404000000000FF000000F5
:104E000000000000FF0000000002027C80000000A3
:104E10000040403F000000000006010102020404BF
:104E20000000000000000000484E000800000020C4
:104E300088000000A8320008D04E0008880000203A
:104E400038040000B832000800A24A040000000044
:104E5000000000000102030406070809000000002A
:104E600001020304010203040607080902040608FC
:104E7000000000000000000040064006400640061A
:104E8000080700FF0000000000000001000800000B
:104E900004000100000013000000000000000000FA
:104EA0000000000000000000000000000000000002
:104EB00000000000000000000000B80BC819C8196D
:104EC0000000000000000000DC0500000000000001
:04000005080000ED02
:00000001FF
