:020000040800F2
:100000006004002001010008990A0008B1070008F7
:10001000ED090008850300084116000800000000F3
:10002000000000000000000000000000750C000847
:1000300021040008000000003D0B00082D0F0008FF
:100040001B0100081B0100081B0100081B01000820
:100050001B0100081B0100081B0100081B01000810
:100060001B0100081B0100081B0100081B01000800
:100070001B0100081B0100081B0100081B010008F0
:100080001B0100081B0100081B0100081B010008E0
:100090001B0100081B0100081B0100081B010008D0
:1000A0001B0100081B0100081B0100081B010008C0
:1000B0001B0100081D1000081B0100081B0100089F
:1000C0001B0100081B0100081B0100081B010008A0
:1000D0001B0100081B0100081B0100081B01000890
:1000E0001B0100081B0100081B010008DFF80CD0F1
:1000F00000F0FCF800480047A91700086004002041
:100100000648804706480047FEE7FEE7FEE7FEE7B1
:10011000FEE7FEE7FEE7FEE7FEE7FEE7BD0F0008AD
:10012000ED000008F0B480EA0102D40F4200B2EB07
:10013000410F02D20246084611464A0042D0C30D82
:10014000DDB2C1F3C752AD1A202D35DAC1F3160165
:1001500041F4000204B15242C5F1200602FA06F150
:100160002A411044B3EBD05F23D0C4B1012DA0EBE2
:10017000C35009DCF0BC4FF0004202EAC352DBB2CC
:1001800000F5000000F083B8400000F1807000EB43
:10019000C350A0F1807040EAD170490009E04908DD
:1001A00041EAC071A0EBC35000F50000400800EB2D
:1001B000C350F0BC00F062B86142012202EB410181
:1001C000001BF6E7F0BC704781F00041AAE780F021
:1001D0000040A7E780EA010210B502F000434000AA
:1001E00022D04A001FD0010E01EB1261C0F356006D
:1001F000C2F3560240F4000042F40002A0FB0220C9
:1002000000047F39140400D0401C50EA124001D48D
:100210004000491EC2B20C0604EBD010401C40083E
:10022000802A02D003E0002010BD20F00100002948
:1002300000DA0020184310BDC10F80EAE0700844C6
:10024000CA079623002100F022B800F0004220F0F7
:100250000040C10DC0F3160040F400007F2901DA10
:1002600000207047962903DCC1F19601C84001E0E7
:1002700096398840002AF4D0404270470029A8BF30
:100280007047401C490008BF20F00100704710B4BF
:10029000B0FA80FC00FA0CF050EA010404BF10BC74
:1002A000704749B1CCF1200421FA04F411FA0CF1A1
:1002B00018BF012121430843A3EB0C01CB1D4FEADA
:1002C00000614FEA102042BF002010BC704700EBD5
:1002D000C35010440029A4BF10BC7047401C490003
:1002E00008BF20F0010010BC70470000064C074D0D
:1002F00006E0E06840F0010394E8070098471034F6
:10030000AC42F6D3FFF7F6FEA01B0008C01B0008A6
:100310000020064908720120087000208871012021
:10032000C871002008710820C87070473C00002088
:1003300008B50121042000F023FC2020ADF80000C6
:1003400010208DF8030003208DF802006946044850
:1003500000F04CF92021024800F025FA08BD000009
:100360000008014010B52021054800F01EFA502079
:1003700000F0B8FD2021024800F015FA10BD000081
:100380000008014002A001F06FF900BFFEE7000085
:100390000D0A204275734661756C742048616E6465
:1003A0006C6572200D0A00001C48C0881B498988B2
:1003B000084400B2194908800846C0888988401A54
:1003C00000B2164948800846B0F900000989884201
:1003D00004DD1248008900B2104908800F48B0F9C6
:1003E0000000B0F5487F02DA00200C4908800B4875
:1003F000B0F9020009494989884204DD074840896B
:1004000000B2064948800548B0F90200B0F5487FBF
:1004100002DA0020014948807047000048000020AF
:1004200002A001F021F900BFFEE700000D0A202024
:1004300044656275674D6F6E2048616E646C6572CD
:10044000200D0A002DE9F04F85B005460E46A02785
:1004500041F294184FF00009A81B44B216480068F6
:10046000204415490860154991F90010611A01FBF3
:1004700008F0FFF7E1FE04900F480068FFF7DCFE8C
:1004800049460090FFF7A6FE029007FB04F0FFF735
:10049000D3FE01900299FFF745FE03900499FFF700
:1004A00041FE8346FFF7D1FE0FFA80FA034804703D
:1004B000504605B0BDE8F08F5400002058000020E1
:1004C00010B500F02FF800F001F810BD0EB50121B5
:1004D000022000F045FB4720ADF8000044F61F6005
:1004E000ADF804000020ADF80600ADF802008DF86C
:1004F000080069460A4800F04FFF0121084800F053
:100500009FFD0121064800F0B6FD01221146044876
:1005100000F0D4FD0121024800F0B3FD0EBD000043
:100520000004004008B51D208DF8000001208DF862
:10053000010000208DF8020001208DF803006846BC
:1005400000F0BAFA08BD10B500F002F810BD0000C6
:1005500000B587B00121042000F002FB0020ADF8B7
:10056000100041F61F40ADF814000020ADF8160051
:10057000ADF812008DF8180004A91B4800F00CFF1C
:100580006020ADF800000020ADF802000220ADF8B8
:1005900008006946144800F09BFD0821124800F04D
:1005A000E3FD6946104800F0E9FD08210E4800F01F
:1005B00037FE69460C4800F041FE08210A4800F069
:1005C0008DFE6946084800F093FE0821064800F0B9
:1005D000CDFE0121044800F033FD0121024800F066
:1005E00050FD07B000BD0000000800402DE9F041BB
:1005F000024600250026002000230024002791F851
:1006000003C00CF00F0591F803C00CF0100CBCF106
:10061000000F03D091F802C04CEA050591F800C024
:10062000BCF1000F31D0146800202BE04FF0010C1A
:100630000CFA00F3B1F800C00CEA03069E4220D188
:1006400083004FF00F0C0CFA03F7BC4305FA03FCD0
:100650004CEA040491F803C0BCF1280F06D14FF016
:10066000010C0CFA00FCC2F814C00AE091F803C0B7
:10067000BCF1480F05D14FF0010C0CFA00FCC2F898
:1006800010C0401C0828D1D31460B1F800C0BCF1E0
:10069000FF0F34DD546800202EE000F1080C4FF00D
:1006A000010808FA0CF3B1F800C00CEA03069E42F8
:1006B00021D183004FF00F0C0CFA03F7BC4305FA6D
:1006C00003FC4CEA040491F803C0BCF1280F05D1E7
:1006D00000F1080C08FA0CF8C2F8148091F803C075
:1006E000BCF1480F07D100F1080C4FF0010808FADF
:1006F0000CF8C2F81080401C0828CED35460BDE826
:10070000F0810000F0B50A460023002400210025F6
:1007100000F00046B6F1004F02D11D4EF16901E034
:100720001B4E7168C0F3034583B200F44016B6F562
:10073000401F08D121F07061154E766826F0706672
:10074000134F7E6012E000F48016B6F5801F06D1CC
:10075000032606FA05F4A14341F0706106E0460D58
:10076000360103FA06F6B14341F0706122B1460D3D
:10077000360103FA06F6314300F00046B6F1004FA9
:1007800002D1034EF16101E0014E7160F0BD000045
:10079000000001400246002093680B400BB101208D
:1007A00000E0002070474161704701617047000020
:1007B00002A000F059FF00BFFEE700000D0A20482C
:1007C0006172644661756C742048616E646C657218
:1007D000200D0A0010B50121084600F0D1F90121D1
:1007E0000148FFF78FFF10BD0002300008B501215E
:1007F000042000F0C5F94FF48050ADF8000004204B
:100800008DF8030069461848FFF7F0FE0121042027
:1008100000F0B6F94FF40040ADF8000004208DF868
:10082000030069461048FFF7E1FE0121102000F0A7
:10083000A7F94FF48040ADF8000004208DF80300C4
:1008400069460A48FFF7D2FE0121102000F098F90E
:100850004FF40040ADF8000004208DF80300694615
:100860000248FFF7C3FE08BD000801400010014028
:1008700010B500244FF480513448FFF78BFF10B9B6
:1008800044F0010401E024F001044FF400412F483A
:10089000FFF780FF10B944F0020401E024F00204E5
:1008A0004FF480412A48FFF775FF10B944F0040463
:1008B00001E024F004044FF400412548FFF76AFFEB
:1008C00010B944F0080401E024F00804214800783D
:1008D000214908701F480470084600781D490978AE
:1008E000884232D11B48007878B31A480078012832
:1008F00006D002280DD0042813D0082823D119E0EF
:10090000FFF730FD00F060F840F6FF601349088003
:100910001AE0FFF727FD00F057F80B2000F020F851
:1009200012E0FFF71FFD00F04FF840F6FF600B49A3
:10093000088009E0FFF716FD00F046F840F6FF607A
:100940000649088000E000BF00BF10BD000801405C
:10095000001001403B0000203A0000202E00002043
:1009600010B504460948007818B108480078FF28F7
:1009700004D144F460600549088005E001F01AF8EC
:1009800040F6FF600149088010BD00002E000020E5
:1009900008B50121102000F0F3F84FF40050ADF835
:1009A000000010208DF8030002208DF80200694637
:1009B0000448FFF71BFE4FF400510248FFF7F5FE15
:1009C00008BD00000010014010B54FF4005106486A
:1009D000FFF7E9FE502000F085FA4FF4005102487D
:1009E000FFF7E3FE10BD00000010014002A000F080
:1009F0003BFE00BFFEE700000D0A20204D656D4D57
:100A0000616E6167652048616E646C6572200D0AD5
:100A10000000000008B50121082000F0B1F84020D6
:100A2000ADF8000018208DF8030003208DF80200B7
:100A300069461548FFF7DAFD0121082000F0A0F80B
:100A40008020ADF8000069460F48FFF7CFFD012177
:100A5000082000F095F84FF48070ADF8000069466A
:100A60000948FFF7C3FD0121082000F089F84FF481
:100A70000070ADF8000069460348FFF7B7FD10218C
:100A80000148FFF790FE08BD000C014010B5FFF7CC
:100A9000C1FFFFF758FD10BD02A000F0E5FD00BF4B
:100AA000FEE700000D0A20204E4D492048616E648B
:100AB0006C6572200D0A000070B5002100230F2222
:100AC000C47804B3154C246804F4E064C4F5E0640D
:100AD000210AC1F10403CA40447804FA03F184787E
:100AE0001440214309010E4C0678A155047804F006
:100AF0001F050124AC4005786D11AD0005F1E0251E
:100B0000C5F8004109E0047804F01F050124AC4059
:100B1000044D0678761145F8264070BD0CED00E0D6
:100B200000E400E080E100E002490143024A116074
:100B3000704700000000FA050CED00E002A000F094
:100B400093FD00BFFEE700000D0A202050656E6493
:100B500053562048616E646C6572200D0A000000D7
:100B600029B1064AD2690243044BDA6104E0034A20
:100B7000D2698243014BDA617047000000100240E5
:100B800029B1064A92690243044B9A6104E0034A80
:100B900092698243014B9A61704700000010024045
:100BA00030B500210022002400232D4D6D6805F092
:100BB0000C0121B1042905D0082923D105E0294DD4
:100BC000056022E0274D05601FE0254D6D6805F4A6
:100BD0007012234D6D6805F48034022505EB9242B6
:100BE0001CB9214D554305600BE01D4D6D6805F4A2
:100BF00000351DB11C4D5543056002E0194D5543AC
:100C0000056002E0174D056000BF00BF144D6D6820
:100C100005F0F0010909154D6B5C0568DD40456084
:100C20000F4D6D6805F4E061090A104D6B5C456875
:100C3000DD4085600A4D6D6805F46051C90A0B4DB1
:100C40006B5C4568DD40C560054D6D6805F440414D
:100C5000890B074D6B5CC568B5FBF3F5056130BDCD
:100C60000010024000127A0000093D00140000202C
:100C70002400002002A000F0F7FC00BFFEE7000007
:100C80000D0A2020535643202048616E646C657223
:100C9000200D0A0010B500F001F810BD0CB50020C1
:100CA000019000903348006840F48030314908607A
:100CB00000BF3048006800F4003000900198401CEC
:100CC0000190009818B90198B0F5A06FF1D12948AA
:100CD000006800F4003010B10120009001E0002015
:100CE00000900098012843D12348006840F010008C
:100CF000214908600846006820F0030008600846A3
:100D0000006840F0020008601A48406819494860CD
:100D10000846406848600846406840F48060486083
:100D20000846406820F47C1048600846406840F45B
:100D3000E81048600846006840F08070086000BF16
:100D40000C48006800F000700028F9D0094840689D
:100D500020F00300074948600846406840F0020060
:100D6000486000BF0348406800F00C000828F9D133
:100D70000CBD0000001002400020024010B5574892
:100D80000079401C5549087108460079322801DB7A
:100D90003220087100F09EFE5048807810B100208B
:100DA0004F4908704D48807800F0220018B14B4838
:100DB00080784A49C870494880780C2846D008DCB9
:100DC000092870D2DFE800F012875A874A875287D5
:100DD0003A0020284ED004DC10283BD018287AD1C5
:100DE00030E030283ED03E2875D14BE03B48C078FB
:100DF00000F0200038B14FF416624FF4FA61012080
:100E000000F096FC19E03548C07800F0020038B1D7
:100E10004FF4FA624FF41661022000F089FC0CE0F6
:100E20002F480078401C2E49087008460078322868
:100E300003D100200870294908724DE0002027499D
:100E4000487049E0FF202549487045E001202349CA
:100E5000487041E0FE20214948703DE002201F49D2
:100E6000487039E0FC201D49487035E004201B49DA
:100E7000487031E0F920194948702DE007201749E2
:100E8000487029E01548C079012802D002281FD1F6
:100E90000AE012488079401C104988710220C8710C
:100EA0000020087115E016E00C48007932280EDBAE
:100EB00000200A49087108468079401C887108465C
:100EC00080794979884202DB00200449087200E0F9
:100ED00000BF00BF00E000BF00BF10BD3C0000200D
:100EE0004500002001B506E00098401E00904FF438
:100EF0007A7000F004F800980028F5D108BD01B51B
:100F000000204FF0E0218861084600690AE000985F
:100F1000401E009000BF4FF0E020006900F48030D8
:100F20000028F8D000980028F1D108BD4FF0E0204B
:100F3000006920F002004FF0E021086170470000D6
:100F400030B51A4800681A4AB0FBF2F1B1F1807F5F
:100F500001D301201DE021F07F40401E4FF0E02230
:100F6000506150170F22002807DA13071D0E114B8E
:100F700000F00F04241F1D5503E013071C0E0E4B39
:100F80001C5400BF00204FF0E02290610720106148
:100F9000002008B100BFFEE74FF0E020006920F01C
:100FA00002004FF0E021086130BD00000000002089
:100FB00040420F0018ED00E000E400E010B51348D7
:100FC000006840F001001149086008464068104977
:100FD00008400E494860084600680E4908400B4921
:100FE00008600846006820F48020086008464068D1
:100FF00020F4FE0048604FF41F008860FFF74AFEAF
:101000004FF000600449086010BD0000001002406D
:101010000000FFF8FFFFF6FE08ED00E010B501212B
:10102000054800F03AF830B1012004490870012168
:10103000014800F023F810BD000400402800002003
:1010400021B1028842F08002028004E002884FF65B
:101050007F731A400280704730B5002301248C4012
:10106000A3B2048C9C430484048C02FA01F5ADB253
:101070002C43048430BDCA4302827047CA430282B3
:10108000704721B1028842F00102028004E0028828
:101090004FF6FE731A400280704730B502460020BA
:1010A00000230024158A05EA0103958905EA010455
:1010B00013B10CB1012000E0002030BD1AB18389CA
:1010C0000B43838102E083898B4383817047000057
:1010D00070B5002400220023058C4FF6FE763540C3
:1010E0000584028C8388048B4FF68F752C40B51EC7
:1010F0002C400D882C43751E2A400D892A434D88AB
:101100002A43144DA8420BD0134DA84208D0134DCA
:10111000A84205D0124DA84202D0124DA84213D1C8
:101120004FF6F7752A404D892A434FF6FB752A4042
:101130008D882A434FF6FF652B404FF6FF552B4015
:101140008D892B43CD892B4383800483CD8885866D
:10115000028470BD002C0140003401400040014079
:1011600000440140004801400A460021018B4FF62F
:10117000F7731940114301837047000070B50024D4
:1011800000220023058C4FF6EF7635400584028C53
:101190008388048B48F6FF752C404FF6FF452C40A2
:1011A0000D884FF6FF7606EA05252C434FF6DF75CE
:1011B0002A400D8906EA05152A434D8806EA0515D9
:1011C0002A43154DA84202D0144DA8421DD14FF616
:1011D0007F752A404D894FF6FF7606EA05152A43AA
:1011E0004FF6BF752A408D8806EA05152A434FF64B
:1011F000FF352B404FF2FF752B408D8906EA8505A0
:101200002B43CD8906EA85052B4383800483CD8853
:101210000587028470BD0000002C014000340140AD
:101220000A460021018B4FF2FF7319404FF6FF73FE
:1012300003EA0223194301837047000070B50024BC
:1012400000220023058C4FF6FF6635400584028C92
:101250008388848B4FF68F752C404FF6FC752C409D
:101260000D882C434FF6FF552A400D894FF6FF7627
:1012700006EA05252A434D8806EA05252A43154D29
:10128000A84202D0144DA8421DD14FF2FF752A404A
:101290004D894FF6FF7606EA05252A434FF6FF35BE
:1012A0002A408D8806EA05252A434EF6FF752B4015
:1012B0004DF6FF752B408D8906EA05152B43CD8928
:1012C00006EA05152B4383808483CD8885870284B5
:1012D00070BD0000002C0140003401400A4600218E
:1012E000818B4FF6F77319401143818370470000DB
:1012F00070B5002200230024058C4EF6FF763540A1
:101300000584038C8488828B48F6FF752A404FF64B
:10131000FF452A400D884FF6FF7606EA05252A4349
:101320004DF6FF752B400D8906EA05352B434D8898
:1013300006EA05352B430B4DA84202D00A4DA842C0
:1013400008D14BF6FF752C408D894FF6FF7606EAE3
:1013500085152C4384808283CD88A0F84050038477
:1013600070BD0000002C0140003401400A460021FD
:10137000818B4FF2FF7319404FF6FF7303EA02238C
:101380001943818370478186704701877047818741
:101390007047A0F840107047002202881D4B984209
:1013A0000ED01D4B98420BD0B0F1804F08D01B4B94
:1013B000984205D01A4B984202D01A4B984204D159
:1013C0004FF68F731A404B881A43174B984207D039
:1013D000164B984204D04FF6FF431A40CB881A436D
:1013E00002808B8883850B8803850A4B98420BD03B
:1013F000094B984208D00E4B984205D00D4B9842AD
:1014000002D00D4B984201D10B7A038601238382CF
:1014100070470000002C01400034014000040040EF
:1014200000080040000C0040001000400014004084
:1014300000400140004401400048014008B501213E
:101440000C20FFF79DFB47F22000ADF800000420C0
:101450008DF8030069460748FFF7C8F81020ADF87B
:10146000000004208DF8030069460348FFF7BEF82A
:1014700008BD0000000C01400008014010B50649FD
:1014800091F901000021FEF7DDFF04498880FEF795
:101490008BFF00F009F810BD3C0000204800002040
:1014A00010B5FFF7CBFF10BD10B5044A528891B2BA
:1014B000024A128890B200F0AFF910BD4800002037
:1014C00021B1828942F40052828104E082894DF682
:1014D000FF731A408281704700B585B00121042056
:1014E000FFF74EFB01218803FFF74AFB4FF4007022
:1014F000ADF8100018208DF8130003208DF81200AD
:1015000004A90E48FFF772F84FF4E1300090002074
:10151000ADF80400ADF80600ADF80800ADF80C0019
:101520000820ADF80A006946054800F019F80121C5
:101530000348FFF7C5FF05B000BD000000080140EB
:101540000038014002460020B1F5007F00D100BF05
:1015500013880B400BB1012000E000207047000011
:101560002DE9F04786B005460E460024A24600BF8E
:10157000A1460027B08900B100BF2F462C8A4CF647
:10158000FF700440F08804432C82AC894EF6F310BF
:101590000440B08831890843718908430443AC8111
:1015A000AC8A4FF6FF400440B0890443AC8201A8E6
:1015B000FFF7F6FA1F48874202D1DDF810A001E0DC
:1015C000DDF80CA0A88900F4004040B10AEBCA0085
:1015D00000EB0A1031684900B0FBF1F807E00AEBB4
:1015E000CA0000EB0A1031688900B0FBF1F86420F2
:1015F000B8FBF0F004012009642101FB1089A889DF
:1016000000F4004040B1322000EBC900B0FBF1F023
:1016100000F00700044308E0322000EB09106421C9
:10162000B0FBF1F000F00F0004432C8106B0BDE8E0
:10163000F087000000380140C1F308028280704743
:1016400002A000F011F800BFFEE700000D0A2055CF
:10165000736167654661756C742048616E646C6582
:1016600072200D0A00000000014A024900F013B880
:10167000851700085C00002002E008C8121F08C19E
:10168000002AFAD170477047002001E001C1121F03
:10169000002AFBD170472DE9F04116460F4604465B
:1016A000002503E03946B047641C6D1C20780028F3
:1016B000F8D12846BDE8F08110B519480078012816
:1016C00002D0022829D105E0012015490872022024
:1016D000087023E0FFF752FBFFF7D0FE1048007AB6
:1016E000D0B900F067F920210E48FFF75EF84FF4FB
:1016F00000510D48FFF757F84FF49670FFF7F2FBD3
:1017000020210848FFF74FF84FF400510648FFF733
:101710004CF8FF200549088000E000BF00BF10BD65
:101720003C00002000080140001001402E00002075
:1017300070B504460D46164600F03CF90520FFF74B
:10174000D1FB022C04D13146284600F079F905E09E
:10175000012C03D13146284600F04EF90CE000F090
:10176000B9F90748807800F03E0028B100F022F96E
:101770000520FFF7B7FB00E0F1E700BF70BD0000F8
:101780003C00002070B504460D46E1B20548FFF765
:1017900053FF00BF80210348FFF7D4FE0028F9D093
:1017A000204670BD003801404FF4A060FFF7BCF93F
:1017B000FFF7C6FBFFF70EF8FFF768F9FFF716F81B
:1017C000FFF7E6F8FEF7B4FDFFF786FEFFF768FEC9
:1017D000FEF776FEFEF7C6FD09E00548007830B159
:1017E000002003490870FFF743F800F03BF9F4E7E5
:1017F0002800002070B504460D462146022000F066
:101800001DF82946022000F077F810210148FEF764
:10181000CCFF70BD000C014070B504460D4621465A
:10182000012000F00BF82946012000F065F8102196
:101830000148FEF7BAFF70BD000C014070B50446C8
:101840000D4634B1012C19D0022C2AD0032C4ED1D4
:101850003AE041F62A412748FFF799FD0122082185
:101860002448FFF7F9FB41F62A412248FFF791FD92
:1018700001220C211F48FFF7EFFB39E000211D4832
:10188000FFF785FD012208211A48FFF7E5FB2946ED
:101890001848FFF77EFD01220C211648FFF7DCFBFC
:1018A00026E029461348FFF772FD0122082111485E
:1018B000FFF7D2FB00210F48FFF76BFD01220C213F
:1018C0000C48FFF7C9FB13E000210A48FFF75FFD52
:1018D000012208210748FFF7BFFB00210548FFF759
:1018E00058FD01220C210348FFF7B6FB00E000BFC2
:1018F00000BF70BD0008004070B504460D4634B10D
:10190000012C19D0022C2AD0032C4ED13AE041F6FA
:101910002A412748FFF739FD012204212448FFF717
:101920009BFB41F62A412248FFF72DFD01220021B1
:101930001F48FFF791FB39E000211D48FFF725FD07
:10194000012204211A48FFF787FB29461848FFF7B0
:101950001AFD012200211648FFF77EFB26E02946EA
:101960001348FFF712FD012204211148FFF774FB11
:1019700000210F48FFF707FD012200210C48FFF767
:101980006BFB13E000210A48FFF7FFFC0122042152
:101990000748FFF761FB00210548FFF7F4FC01222F
:1019A00000210348FFF758FB00E000BF00BF70BDF7
:1019B0000008004010B510210548FEF7F4FE002194
:1019C0000846FFF73BFF00210846FFF795FF10BDD3
:1019D000000C014010B5044621460220FFF72EFFFF
:1019E00021460120FFF788FF10210248FEF7DDFEA7
:1019F00010BD0000000C014070B504460D462146A4
:101A00000220FFF71BFF29460120FFF775FF102179
:101A10000148FEF7CAFE70BD000C014010B5044637
:101A200021460120FFF70AFF21460220FFF764FF4D
:101A300010210248FEF7B9FE10BD0000000C014065
:101A400070B504460D4621460120FFF7F7FE2946F2
:101A50000220FFF751FF10210148FEF7A6FE70BDDE
:101A6000000C014010B51A48007803281AD005DC94
:101A700058B101280AD0022826D10DE0042816D03A
:101A80000B2819D0FF281FD119E01EE0104A9188B9
:101A90005088FFF7C1FE18E00D4A1189D088FFF782
:101AA000A9FE12E00A494889FFF794FF0DE00849B2
:101AB0004889FFF7B3FF08E0FFF7FEFD05E0FFF7F9
:101AC00079FFFEF725FC00E000BF00BF10BD00005D
:101AD0002E00002010B54FF480512E48FEF75AFE1C
:101AE00030B12D48807840F008002B49887005E01F
:101AF0002948807820F00800274988704FF4005169
:101B00002448FEF747FE30B12348807840F01000AB
:101B10002149887005E02048807820F010001E4997
:101B200088704FF480411B48FEF734FE30B11A48EC
:101B3000807840F020001849887005E016488078C9
:101B400020F020001449887020211248FEF722FE60
:101B500030B11148807840F004000F49887005E0EA
:101B60000D48807820F004000B49887010210B4844
:101B7000FEF710FE30B10848807840F002000649B8
:101B8000887005E00448807820F0020002498870DF
:101B900010BD0000000C01403C0000200008014086
:101BA000C01B00080000002060000000781600083C
:101BB000201C0008600000200004000088160008B7
:101BC00000A24A040000000000000000010203041B
:101BD00006070809000000000102030401020304D3
:101BE00006070809020406080000000000000000C3
:101BF00040064006400640060807000001000800B5
:101C00000004000100000000000000000000B80B0C
:101C1000C819C81900000000000000000000000002
:04000005080000ED02
:00000001FF
