:020000040800F2
:10000000C0090020C50100081D440008953D0008F6
:1000100001420008B12200086754000800000000F7
:10002000000000000000000000000000454B000838
:100030008939000800000000194A00088D4D0008A9
:10004000DF010008DF010008DF010008DF01000810
:10005000DF010008DF010008DF010008DF01000800
:10006000DF010008DF010008DF010008DF010008F0
:10007000DF010008DF010008DF010008DF010008E0
:10008000DF010008DF010008DF010008DF010008D0
:10009000DF010008DF010008DF010008DF010008C0
:1000A000DF010008DF010008DF010008DF010008B0
:1000B000DF010008DF010008F14D0008DF01000842
:1000C000DF010008DF010008DF010008DF01000890
:1000D000DF01000841510008C9510008DF01000894
:1000E000DF010008DF010008DF01000800F002F86E
:1000F00000F059F80AA090E8000C82448344AAF169
:100100000107DA4501D100F04EF8AFF2090EBAE866
:100110000F0013F0010F18BFFB1A43F0010318473B
:10012000C8B20000E8B20000103A24BF78C878C115
:10013000FAD8520724BF30C830C144BF04680C60ED
:10014000704700000023002400250026103A28BF35
:1001500078C1FBD8520728BF30C148BF0B60704739
:10016000662909F02B86642900F0DC80752900F0EF
:10017000D980782900F01281732900F0A28500202F
:1001800070471FB500F0F4FD04000020002108F0C6
:1001900085FC401C60600020002108F069FCE060E4
:1001A0001FBD10B510BD00F00FFF1146FFF7E9FFAE
:1001B00007F03CF901F0B2F903B4FFF7F2FF03BC1A
:1001C00005F0E8FB0948804709480047FEE7FEE7DD
:1001D000FEE7FEE7FEE7FEE7FEE7FEE7FEE7FEE7F7
:1001E00004480549054A064B70470000914D000838
:1001F000ED000008C0030020C0090020C005002059
:10020000C0050020704710B54C1084EA530404D593
:100210004042C1F1000138BF491E1B4204D5524281
:10022000C3F1000338BF5B1E00F029FA14F0804FC1
:1002300004D04042C1F1000138BF491E14F0004F04
:1002400004D05242C3F1000338BF5B1E10BD000052
:100250000FB41CB50C0007AA009001D02044401E2A
:10026000074B7B4469460190069800F0F8FC002C8F
:1002700003D06946002000F005FD1CBC5DF814FBAE
:10028000290A000070B5044685690068C10601D5D9
:10029000302600E02026C00707D070BDD4E9012138
:1002A00030469047206A401C20626D1EF6D570BD16
:1002B00070B5044685690078C00707D170BDD4E9E0
:1002C000012120209047206A401C20626D1EF6D537
:1002D00070BD70B50C460546012A05D02878800609
:1002E00000D5EA69002302E0012305E05B1C93428C
:1002F00002D2E05C0028F9D1A869E618C01AA8610A
:10030000286A184428622846FFF7BCFF04E0D5E9B4
:10031000012114F8010B9047B442F8D32846FFF7A7
:10032000C7FF70BD2DE9F04106460024106875290D
:10033000314616A510D0AFF30080002802DA404203
:1003400013A507E031688A0701D512A502E0490725
:1003500004D511A5012401E0AFF3008000210A2299
:1003600006F1240709E0B0FBF2FCB0FBF2F302FB5C
:100370001C00303078541846491C0028F3D123461D
:100380002A463046BDE8F04100F0FBB9000000000D
:100390002D0000002B0000002000000070B5044676
:1003A0000D4621461068AFF300802188090502D56B
:1003B0000F4A7A4402E00E4A7A440E32002104F1D8
:1003C000240305E000F00F060009965D5E54491C09
:1003D0000028F7D120780023000704D5702D02D023
:1003E00009B1022311322046BDE8704000F0C9B9BE
:1003F0003CAD00002DE9F05F894604464FF0000A4D
:10040000DFF874B1FB44C0F820A02046E1688847BB
:10041000002874D0252806D0D4E901219047206A0D
:10042000401C2062F1E700265F462046E1688847CD
:100430002028054607DB312D05D2781910F8200C4D
:1004400008B10643F1E7B00701D526F00406C4F869
:100450001CA00027C4F818A02A2D09D0284605F0B2
:1004600092FA38B304EB8708303DC8F8185019E009
:1004700059F8041B204604EB87029161E168884724
:10048000012F054618D1E069002820DA26F0200661
:100490001DE0D8F8180000EB800005EB4000303874
:1004A000C8F818002046E1688847054605F06BFA51
:1004B0000028EED1012F0AD02E2D08D12046E16868
:1004C00088477F1C0546022F46F02006C4DBA06942
:1004D000002803DA404246F00106A061F00701D08F
:1004E00026F010066C2D0BD0682D09D04C2D39D07C
:1004F0006A2D35D0742D35D07A2D33D016E038E002
:10050000E1682F4620468847B842054609D16C2F3E
:1005100026D04FF48060E1680643204688470546B0
:1005200004E06C2F1AD04FF4807006430DB3A5F190
:100530004100192802D8203546F400664A4629466B
:10054000204626604E46FFF70BFE80B101280BD0F7
:10055000F61D26F0070000F1080956E74020E4E701
:100560008020D8E70020D6E706F104094DE72846A9
:1005700052E7206ABDE8F09F12AD000040EA010397
:1005800010B59B070FD1042A0DD310C808C9121F3C
:100590009C42F8D020BA19BA884201D9012010BD76
:1005A0004FF0FF3010BD1AB1D30703D0521C07E043
:1005B000002010BD10F8013B11F8014B1B1B07D1A7
:1005C00010F8013B11F8014B1B1B01D1921EF1D118
:1005D000184610BD02F0FF0343EA032242EA02423A
:1005E00000F002B84FF000020429C0F0128010F0B1
:1005F000030C00F01B80CCF1040CBCF1020F18BFFF
:1006000000F8012BA8BF20F8022BA1EB0C0100F091
:100610000DB85FEAC17C24BF00F8012B00F8012B64
:1006200048BF00F8012B70474FF0000200B5134699
:1006300094469646203922BFA0E80C50A0E80C5002
:10064000B1F12001BFF4F7AF090728BFA0E80C50B3
:1006500048BF0CC05DF804EB890028BF40F8042BAC
:1006600008BF704748BF20F8022B11F0804F18BF19
:1006700000F8012B7047704770477047704753EA86
:10068000020C00F069802DE9F04B4FF00006002BC2
:100690001FBFB3FA83F503FA05F424FA05F65E40AA
:1006A00012BF1643B2FA82F502FA05F4C5F120052D
:1006B0001EBF22FA05FC44EA0C04203556EA044C1D
:1006C0004FEA144418BF641C4FF000084FF00009B3
:1006D000904271EB030C39D3002919BFB1FA81F7AD
:1006E00001FA07F6B0FA80F700FA07F6C7F120071B
:1006F0001EBF20FA07FC46EA0C062037B6FBF4FCC6
:10070000A7EB0507103F07F01F0BCBF120060CFAF3
:100710000BFB2CFA06F644BFB3460026202FA4BFDD
:100720005E464FF0000B5BEA060C08BF4FF0010B72
:1007300019EB0B09ABFB027C48EB0608C01B06FB60
:1007400002CC0BFB03CC71EB0C01C1E70B4602465C
:1007500041464846BDE8F08B13B54FF000004FF01E
:100760000001AFF30080BDE81C40704710B500F0F9
:1007700003FB006810BD10B5044600F0FDFA0460EC
:1007800010BD2DE9F0470D4699469246044600F10A
:1007900024080168880604D5E06921F01001216071
:1007A00000E00120A84201DD471B00E00027A1690D
:1007B0007A1902EB0900081AA0612078C00602D459
:1007C0002046FFF75FFD002608E0D4E901211AF872
:1007D00006009047206A401C761C20624E45F4DBE0
:1007E0002078C0060AD52046FFF74CFD06E0D4E984
:1007F000012130209047206A401C2062381EA7F15A
:100800000107F4DC07E0D4E9012118F8050090475E
:10081000206A401C2062281EA5F10105F3DC204659
:10082000FFF746FD2078000602D50220BDE8F087DC
:100830000120FBE770472DE9FF4F0C461E464FF0A5
:10084000FF378BB0D2E90001DDF860800A908A465C
:10085000C1F30A5505B93D46002108464FF0000096
:10086000BAF1000F00F4400005DA00EB80004FF40D
:10087000400101EA50004FEA9059B9F1010F00DD43
:10088000B9460A9850EA4A000ED044F61050A5F234
:10089000FF3545432F14B8F1000F1ED07542291EB5
:1008A0001EDDC9F100021CE0B8F1010F4FF000009D
:1008B00001D0302103E0F24305E02154401CB04256
:1008C000FBDB30460022002121540B99C1F808803F
:1008D000C1E900200FB0BDE8F08FBD1B6D1CDEE745
:1008E0004A4600DA694206A800F0F8FA06AB93E837
:1008F000070003AB83E8070050460A9901F0A3F80C
:100900008DE80700A0F500501F3800900398002DD7
:100910000ADD42F21F014A460844002303A903905E
:10092000684601F04FFB09E0A0F500504A461F3829
:10093000002303A90390684601F06EFB8DE80700D1
:100940000004000C03D04FF0FF30410800E01046D7
:10095000B8F1000F03D00022009215461EE0751E6C
:1009600005D400F00DFA303262556D1EF9D5B3464C
:100970000122084302D000227F1C04E020783028A6
:1009800001D100227F1E002A099784D01DE0112D7D
:1009900007DA00F0F5F9303262556D1C50EA0102B9
:1009A000F5D1084302D00098C8B10EE00021681EBE
:1009B00005E0235C625C63542254401E491C814262
:1009C000F7DBAB46A81B401E0990002004F80B0083
:1009D0000B98099AC0F80880C0E9002B7AE7112625
:1009E0004FF0000857E72DE9F04F88460446D21D26
:1009F00022F0070191B0D1E90001CDE90A0104F02C
:100A0000CDFE02460B98C00F01D02D2007E02068D4
:100A1000810701D52B2002E0202101EAC000032A32
:100A2000099001D0072A05DB03464146204600F025
:100A3000F5F90BE12078800601D5E06900E0062099
:100A4000B8F1650F814606D0B8F1660F18D0B8F13D
:100A5000670F70D131E00020B9F1110F009001DB78
:100A6000112301E009F101030AAA01A90CA8FFF76B
:100A7000E2FEDDE90C70002609F10105834647E03E
:100A800001204B4600904FF000470AAA01A90CA88C
:100A9000FFF7D1FEDDE90DB00C995D46002610B9D7
:100AA00009F101000D18B9EB050003D4C0F1FF36C0
:100AB00009F10105A5EB09002BE0B9F1010F01DAFD
:100AC0004FF001090020B9F1110F0090484601DDF7
:100AD000112300E003460AAA01A90CA8FFF7ABFE08
:100AE000DDE90C704D4600268346207800070AD4C5
:100AF000AB4500DA5D4601A8012D04DD411911F86E
:100B0000011C302907D04F4502DA17F1040F04DA2F
:100B1000012082460FE06D1EEEE7002F02DCED1B88
:100B20003E4403E0781CA84200DD7D1CB81B00F1A8
:100B3000010A4FF000472078000703D4AA4501DBE3
:100B40004FF0FF3A0021B7F1004F0DF143088DF847
:100B5000431024D002202B23002F01DA7F422D23C3
:100B60000A21021EA0F1010000DC5FB197FBF1FC3D
:100B700097FBF1F201FB1C7C17460CF1300C08F8D6
:100B800001CDEEE7A8F1010003702188090501D528
:100B9000452100E06521A0F1010800F8011C099839
:100BA0000FA9A1EB0807FF1D00B10120411901EBBE
:100BB000EA70A1693844081A401EA0612078C00676
:100BC00002D42046FFF75EFB099828B1D4E9012141
:100BD0009047206A401C20622078C00622D520461B
:100BE000FFF750FB1EE0002E04DBB34502DD01A839
:100BF000805D00E03020D4E901219047206A401C4C
:100C00002062761CAAF101005FEA000A0AD100F016
:100C1000AFF8C0680168405CD4E901219047206AC0
:100C2000401C2062281EA5F10105DCDC07E0D4E9A8
:100C3000012118F8010B9047206A401C2062381EE1
:100C4000A7F10107F3DC2046FFF732FB032011B0C8
:100C500041E6000001694A1C02610878704700B54E
:100C60008FB0CDE901310021059105497944CDE9E5
:100C7000031011466846FFF7BDFB0FB000BD000032
:100C8000E5FFFFFF0A6802F8010B0A607047D1E92F
:100C900000239A4202D2531C0B601070704710B5AB
:100CA000436913B1AFF3008001E0FFF712FB0120AD
:100CB00010BD127800F124010A7000224A7001224E
:100CC000EDE711684FF0FF32E9E700000FB40023B1
:100CD00000B589B00CA900910B99CB60214B7B44E6
:100CE0000693214B7B44079304236FF00042CDE928
:100CF00001321E4A7A446B4608920246002009F0EF
:100D0000BFF809B05DF814FB70B506464FF0FF3030
:100D100015460C46324686B00091CDE90101694680
:100D20000020049004A8FFF7D1FF02460498211880
:100D300025B108B1084600E0204628600498002844
:100D40000DD0002A02DD0098884208D03246081BE8
:100D500069460094CDE9010404A8FFF7B7FF06B087
:100D600070BD0000BB010000D301000013010000B2
:100D7000004870477C030020004870475C03002057
:100D800030B5B0F10A024FEA900E71F100034EEA5D
:100D9000817EB0EB0E0061EB91014FEA101E4EEA2E
:100DA000017E10EB0E0041EB11114FEA102E4EEABE
:100DB000016E10EB0E0041EB11214FEA104E4EEA8E
:100DC000014E10EB0E0041EB1141401841F10001C2
:100DD0004FEAD00040EA41704FEAD10110EB8005A4
:100DE0004FEA810444EA907444EB01046D1944EB2A
:100DF0000404521BA3414FF0000348BF0A3200D540
:100E000030BD401C41F1000130BD10B5044600F07A
:100E100001F90068005D00F0010010BD2DE9F0410E
:100E20001F46044603260168072A01F4006004DB1C
:100E300008B116A505E016A503E008B115A500E068
:100E400015A521F010002060A069C01EA0610FB19F
:100E5000401EA0612046FFF715FA4FB1D4E90121E9
:100E600038469047206A401C2062C01C206206E081
:100E7000206AFAE7D4E9012115F8010B9047761EA4
:100E8000F8D22046FFF714FABDE8F0814E414E003B
:100E90006E616E00494E4600696E6600426842B15E
:100EA000016811F8013B23B1521EC0E90012184637
:100EB00070470121C160881E704742685AB1C368FB
:100EC000016843B983688B4205D0491E521CC0E9B2
:100ED0000012002070474FF0FF3070472DE9F047B7
:100EE000814616468AB0354878440DC88DE80D0015
:100EF00032487844801C03AC0DC884E80D0041F6EC
:100F00009B300844372190FBF1F290FBF1F5A5F1FD
:100F1000800501FB12041B3C02D56442012000E065
:100F20000020DFF898A080460027FA44AAF1BE0A04
:100F30000EE0E0070AD03246684607EB470101237E
:100F40000AEB810101F068F88DE8070064107F1C4E
:100F5000002CEED1194F7F44AE3F19E0E80715D0C1
:100F600007EB04100DF1180A90E80E008AE80E0055
:100F7000C068F04201D1981908903246012306A9B1
:100F800003A801F049F803AB83E807006D10641C67
:100F9000002DE3D14FF0010332466946B8F1000F4E
:100FA00003A802D001F00EF801E001F035F8C9E91C
:100FB0000001C9F808200AB0BDE8F087B0A300001E
:100FC000004870475C0300207546FFF7F9FFAE4606
:100FD00005006946534620F00700854618B020B545
:100FE000FFF7FEF8BDE820404FF000064FF0000785
:100FF0004FF000084FF0000B21F00701AC46ACE8C1
:10100000C009ACE8C009ACE8C009ACE8C0098D462D
:101010007047000010B5FFF7ABFE001D10BD00BF0C
:101020007D7A00002DE9FF4F06468BB00878FF2837
:1010300006D0491C2D2805D000244FF0000908E0F7
:1010400000200CE00124F8E709EB8903491C00EBC0
:1010500043090878FF28F7D114B1C9F1000081468F
:10106000107800252C46AA4629462D2801D02B2889
:1010700004D1521C2D2813D0002082468B461078B4
:10108000FF280FD04FF0000C0A21521CA5FB01785D
:1010900004FB018105FB0C11C5194BEB0104EEE7C4
:1010A0000120EAE7002108464FF00000BAF1000FE6
:1010B00002D000EB80004008C0F38157012F01DD12
:1010C0004FF0FF370E9955EA040009EB01080BD0E9
:1010D0004FF0020918F5FA7F16DA4FEACA70002FAE
:1010E000706008DD012007E04FEACA70C6E900B071
:1010F0000FB0BDE8F08F00203060FFF73DFEC0F874
:1011000000901821084616E0B8F5FA7F18DD002F88
:1011100002DAF748784401E0F6487844D0E9001054
:10112000C6E9001040EACA707060FFF725FEC0F8FB
:101130000090142108460FB0BDE8F04F08F03BBE08
:10114000002108464FF00000B8F10001099002DAD2
:10115000C7F1000200E03A4601DAC8F1000106A832
:10116000FFF7BCFE06AB93E8070003AB83E807007C
:1011700044F23E005BEA04010090584604D144F278
:101180001E012C465D460091210C0904014306D145
:101190000099240444EA15442D041039009104F008
:1011A0007F41014306D10099240244EA15642D02CF
:1011B0000839009104F07041014306D100992401DF
:1011C00044EA15742D01091F009104F040410143C8
:1011D00006D10099A40044EA9574AD00891E0091DF
:1011E00004F00041084304D100986D196441401E89
:1011F00000904FF001033A466846B8F1000FCDE980
:10120000014503A902DD00F01CFF01E000F0EFFE44
:10121000BAF1000F04460D4601D084F000440021CD
:1012200008464FF00000099940F2FF77484010F05F
:101230000C0F07D124F00040284303D0C4F30A5018
:10124000B84212D1FFF798FDC0F80090C4F30A50DD
:10125000B8420AD1A8487844D0E90010C6E9001085
:1012600004F000410843706042E7C6E900543FE7DC
:101270002DE9FF4F1F464FF0000A4FF0FF3845465B
:1012800091B0D7E90146CDF83CA0FFF771FDC068E9
:101290000168405C1090B96912986D1C8847396AE2
:1012A000814688470028F6D1B9F1FF3F0AD0002EC9
:1012B00024F4D06411DDB9F12B0F08D0B9F12D0F52
:1012C0000BD102E0404615B013E744F48064B969DD
:1012D00012986D1C8847761E8146600504A901D5C9
:1012E0002D2000E02B20002E01F1010B0DF1300824
:1012F0008DF810003FDDB9F1690F08D0B9F1490F41
:1013000005D0B9F16E0F02D0B9F14E0F1CD13B469A
:1013100001A8009580E85002DDE912126FF002008A
:1013200008F0B2FDC11CCED10EE0B96912986D1C57
:10133000884781461398761E44F4007405600F9820
:10134000401C002E0F9016DDB9F1300FEDD0B9F131
:10135000780F02D0B9F1580F0DD10F9801280AD19A
:101360003B46CDE90054DDE91212001F029608F059
:1013700089FDC11CA7D1109989453ED144F0800454
:1013800006E01399681CAAF1010A44F4007408608D
:10139000B9696D1C1298761E884730288146F0D0B6
:1013A0002BE01099894505D1200603D4761E44F020
:1013B000800418E0484604F0E6FA08B3761E0DF102
:1013C00023018B4544F4007408D2A9F130000BF8D6
:1013D000010B200607D5AAF1010003E0200602D484
:1013E0000AF101008246A00502D51399681C086025
:1013F000B96912986D1C88478146002ED1DC53E0F4
:10140000002E51DDB9F1650F02D0B9F1450F4BD176
:10141000A00549D5B9696D1C1298761E24F4407454
:101420008847002E81460CDD2B2804D0B9F12D0F02
:1014300007D144F48074B96912986D1C8847761EF0
:101440008146E00501D52D2100E02B2108F8011B84
:10145000CDF8008021E0761E0DF13901884544F475
:1014600000740CD2A9F1300010F0FF0088F80000E1
:1014700002D10099884509D908F1010806E0E00584
:1014800001D51E4801E042F20F708246B9691298F8
:101490006D1C8847814613980560002E04DD484680
:1014A00004F071FA0028D6D1F96912988847FF2014
:1014B00053468BF8000088F8000000200A900B903B
:1014C00004AA0CA90AA8FFF7ADFDA00502D46FF08D
:1014D0000100F8E614F0240F12D0E0071CD13868A0
:1014E000DDE90A12031D3B600068C0E9001213E049
:1014F000F8A20000EAA20000AEA10000F1D8FFFFB0
:101500000AA9684604F0CEF9E00705D13868009AC8
:10151000011D3960006802602846D4E610B5044613
:10152000AFF300802046BDE81040FEF745BE000046
:101530004FF0013C50F8042B51F8043B9A4221D162
:10154000A2EB0C03934313EACC1317D150F8042BEE
:1015500051F8043B9A4215D1A2EB0C03934313EAD2
:10156000CC130BD150F8042B51F8043B9A4209D10B
:10157000A2EB0C03934313EACC13DBD04FF0000033
:10158000704700BFD01A01BAB1FA81F101F0180119
:1015900022FA01F0CB40C1F12001DBB2C0B2C01A87
:1015A0002CFA01F3D11A914311EAC311E6D1704725
:1015B0002DE9FF4F1F464FF03C0987B04FF0004226
:1015C000DDE9141001F10108DDF858A002EA4050ED
:1015D0000390002005908346054604460490B969AF
:1015E000461E08988847AAF1010A0290BAF1000F36
:1015F0003BDD02982E2815D0102100F016FA0028A5
:101600002EDB4FF0010B0599014317D0B9F1000F04
:101610000BDB4A46C11700F0F5F905430C43A9F16D
:10162000040905E0012004900BE008B145F0010534
:1016300001200590049820B9361D02E0049800B1FD
:10164000361FB969089808F101088847BBF1000FF7
:10165000AAF1010A0290C9D00999C1F80080C5E732
:101660000298702808D0502806D0F9690898884751
:10167000BBF1000F14D04FE0002002900120BBF11D
:10168000000F049009D0B969089808F1010888474B
:10169000AAF10109B9F1000F07DCF9690898884738
:1016A0006FF001000BB0BDE8F08F2B2804D02D287F
:1016B0000CD14FF0FF300490B969089808F1010887
:1016C0008847A9F10109B9F1000FE6DD411CE4D01A
:1016D0000A2100F0AAF90028DFDB029908F10108CD
:1016E00001EB810100EB41000290B969089888473D
:1016F0000A2100F09AF9099AA9F10109B9F1000F3C
:10170000C2F8008001DD0028E7DAF9690898884707
:101710000499029800FB016655EA040004D004F025
:101720004041090002D006E0039898E0A40044EA92
:101730009574AD00B61E04F00041080002D16D1989
:101740006441761E159810F0240F03D04FF00B095A
:101750005C4803E04FF028096FF07D008246564553
:1017600007DAAAEB06018944B9F1410F01DD4FF018
:10177000410901200021A9F1010200F043F90246CC
:1017800028400B462140084301D0012100E0002100
:10179000501E029143F1FF3128402140084301D0FF
:1017A000012000E000200299834651EA0B014FD04E
:1017B000002108464FF00000039900F4400039B1C1
:1017C00000EB80004FF4400100EBD07001EA6000B4
:1017D0008015012802DD4FF0FF3000E013D0401CDF
:1017E00036D0029860B3BBF1000F0CD14A460120FD
:1017F000002100F007F928402140084301D00120D2
:1018000000E00020E0B101204A46002100F0FAF893
:10181000034640190A4661412D1A8C4111D3B9F192
:10182000400F09DD159810F0240F02D0AAF13406FC
:1018300003E0AAF1170600E0761C00254FF00044F3
:1018400006E05B1E42F1FF3220EA030521EA0204B2
:10185000CAF10100B04206DA1B490398084301901F
:10186000002000900EE0039AC4F3D321E80A0A4353
:10187000164940EA44500A433146CDE90002684621
:1018800004F076F8159810F0240F0BD01598C007C7
:1018900015D13868DDE90012031D3B600068C0E91E
:1018A00000120CE002A8694603F0FCFF1598C0077F
:1018B00005D13868029A011D39600068026040460F
:1018C000F0E6000002FCFFFF0000F07F0000F03FA8
:1018D0002DE9FF4F92461D4685B04FF00041DDE9EE
:1018E000124BDDE914727F1E01EA4B50414940F072
:1018F000FF4940EA0108002122F020004928049114
:1019000002D04E2828D04CE03BA0012607C88DE825
:101910000700A9690698641C88477F1E014606D403
:101920001DF8060018B121F0200181420BD0E969B1
:1019300006988847032E34D0082E32D06FF001006D
:1019400009B0BDE8F08F761C032E01D0082EE0D13F
:10195000601CCAF80000DCE7A9690698641C884787
:101960007F1E2AD420F02000412826D1A96906989C
:10197000641C88477F1E20D420F020004E281CD1F4
:10198000A9690698641C88477F1E48F4002849F41A
:101990008009CAF8004001D4282806D0E9690698D1
:1019A00088475FEACB7012D022E0A9690698641CD0
:1019B00088477F1E01D4002803DAE9690698884722
:1019C000BCE72928F1D1641CCAF80040E9E71BF004
:1019D000240F07D028680499031D2B600068C0E914
:1019E000001805E02868021D2A600068C0F8009011
:1019F0002046A5E70000F07F494E46494E4954591C
:101A000000000000B2F120030AD5C2F1200301FA60
:101A100002F120FA03F300FA02F041EA03017047F1
:101A200000FA03F14FF0000070473A2800D2303836
:101A300020F02002412A01D3A2F13700884201D3CD
:101A40004FF0FF3070475FEA400C08BF91F0000F85
:101A50004FEA8C234FEAC12243EA51514FEA1C500E
:101A600018BF00F5F0404FEA300018BF41F00041C8
:101A70005FEA6C5C00F02980BCF1FF3F08BF40F0DA
:101A800080407047130C06BF12044FF0100C4FF04B
:101A9000000C130E04BF12020CF1080C130F04BF4C
:101AA00012010CF1040C930F04BF92000CF1020C14
:101AB000D30F04BF52000CF1010C11464FF000028D
:101AC000A0F11F00A0EB0C00704711F0004F08BF01
:101AD000704731F000413FF4D5AF0B0C06BF09044D
:101AE0004FF0100C4FF0000C0B0E04BF09020CF16C
:101AF000080C0B0F04BF09010CF1040C8B0F04BF81
:101B000089000CF1020CCB0F04BF49000CF1010C51
:101B1000CCF12003A0EB0C0022FA03F302FA0CF242
:101B200041EA030100F10100704720F07F4C80EA98
:101B3000030023F07F47ACEB070303F57C5300F071
:101B4000004003F1FF032DE980494FEA154B09B42A
:101B50004FEA144325EA0B4E24EA03480FF2042609
:101B600006EB132749083E785FEA320203FB06675B
:101B7000C7F5000707FB06F64FEA54374FEAD6468B
:101B800006F1020607FB066CCCF1005C4FEA1C472D
:101B90002CEA074C07FB06F40CFB06F504EB154694
:101BA0004FEA961634BF00204FF000404FEAD1377D
:101BB00006FB07FC4FEA1C4C0CFB0BF7D21B03FB8C
:101BC0000CF761EB07010CFB0EF7B0EB074072EB73
:101BD00017420CFB08F734BFA2EB0742B2EB0742F7
:101BE00061EB17414FEA0C444FEA910706FB07FCF3
:101BF0004FEA1C4C0CFB0BF7B0EBC74072EB5732B3
:101C000003FB0CF734BFA2EBC742B2EBC74261EB58
:101C100057310CFB0EF7B0EBC70072EB57720CFBA1
:101C200008F734BFA2EBC702B2EBC70261EB5771F2
:101C3000039F4FEA816141EA921104EBCC044FEA21
:101C4000D1374FEA826206FB07FC42EA90124FEA64
:101C500080604FEA1C4C0CFB0BF7D21B03FB0CF70C
:101C600061EB07010CFB0EF7B0EB074072EB17427C
:101C70000CFB08F734BFA2EB0742B2EB074261EB63
:101C800017414FEA8C554FEA910704EB9C2406FB61
:101C900007FC4FEA1C4C0CFB0BF7B0EBC74072EB98
:101CA000573203FB0CF734BFA2EBC742B2EBC7427B
:101CB00061EB57310CFB0EF7B0EBC70072EB5772BC
:101CC0000CFB08F734BFA2EBC702B2EBC70261EB13
:101CD000577115EB4C254FEA816141EA92114FEAA9
:101CE00082624FEAD13742EA901206FB07FC44F1C8
:101CF00000044FEA80604FEA1C4C0CFB0BF7D21B30
:101D000003FB0CF761EB07010CFB0EF7B0EB074090
:101D100072EB17420CFB08F734BFA2EB0742B2EBA1
:101D2000074261EB174115EB1C154FEA813141EA7F
:101D300092414FEA823242EA90424FEA80304FEAC3
:101D40000C7644F1000448EA03434EEA0B484FF096
:101D5000000EB2EB080C71EB030724BF6246394654
:101D60004EEB0E0E4FF0000B0018524149414BEB69
:101D70000B0BB2EB080C71EB03077BF1000B24BFDC
:101D8000624639464EEB0E0E4FF0000B00185241E2
:101D900049414BEB0B0BB2EB080C71EB03077BF1EA
:101DA000000B24BF624639464EEB0E0E51EA020785
:101DB00018BF46F0010616EB0E7655F1000254F1FD
:101DC000000103D5BDE88901BDE80088BDE88901AF
:101DD000BDE80048B619524141EB0101A3F10103EE
:101DE000704780807F7E7D7C7B7A79787776767588
:101DF0007473727171706F6E6E6D6C6C6B6A6A6900
:101E00006868676666656464636362616160605F99
:101E10005F5E5E5D5D5C5C5B5B5A5A595958585712
:101E2000575656555555545453535252525151507A
:101E300050504F4F4F4E4E4D4D4D4C4C4C4B4B4BCD
:101E40004A4A4A4949494848484747474746464613
:101E5000454545444444444343434342424242414E
:101E60004141000046EA0646A3F570534FEA164684
:101E700046EA42564FEAD22242EA415210B54FEAB0
:101E8000D121A3F1010300F02FF820F0004000F170
:101E9000020C00F0004701EB00501146BCF5006F4A
:101EA00040EA070000D210BDBAF1000F0AD01CB5FD
:101EB00003B44FF004004FF004014FF000000FBCDA
:101EC000BDE810404FF00001BBF1010FB9BF04485D
:101ED0004FF0FF310348002140EA070010BD00BF6A
:101EE000FFFFEF7F0000F07F002B9C4630D477008F
:101EF0002BD01CB54FEA370703B44FF010004FF05A
:101F00001001BAF1000F06D0BCF1000FDCBF40F0A9
:101F1000080040F008014FF000000FBCBDE8104081
:101F20000BF1010BBBF1010F08BF5FEA170722BFDE
:101F300012F1010211F101014FF0004143F10003E0
:101F400000F0004043EA00007047F9D35708D0E79B
:101F500046EA064613F1400F4FEA16461FDD13F11D
:101F6000200FDFBF16430A46002120335B42BED05C
:101F7000C3F1200746EA064602FA07F74FEA16467B
:101F800046EA0706C3F1200722FA03F201FA07F72F
:101F900021FA03F14FF0000342EA0702A7E746EAFD
:101FA000020646EA06464FEA164646EA0106BCBF66
:101FB00046EA0646360C4FF000034FF000024FF0A1
:101FC000000194E72DE9804C9A46934670B491E85D
:101FD000380007C831EA400C48BF34EA430C03D547
:101FE000FFF7A3FDFFF780FFF0BCBDE8008C2DE9F3
:101FF000804C9A46934670B491E8380007C831EA9D
:10200000400C48BF34EA430C03D5FFF78EFDFFF7C1
:1020100029FFF0BCBDE8008C2DE9804C9A46934620
:1020200070B491E8380007C810F0804F08BF13F073
:10203000804F03D100F01AF8FFF756FFF0BCBDE85F
:10204000008C2DE9804C9A46934670B491E8380094
:1020500007C810F0804F08BF13F0804F03D100F085
:1020600005F8FFF7FFFEF0BCBDE8008C20F07F47CD
:1020700080EA030023F07F4C07EB0C03A3F57C53AD
:1020800000F00040A3F1FE0392F0000F00F0B380D7
:1020900095F0000F00F077802DE901494FEA1140DB
:1020A0004FEA144621EA004800FB06FC24EA0647F2
:1020B00008FB06F607FB08F800FB07F718EB0648D5
:1020C0004CEB164C4FEA124B18EB07484FEA1546FB
:1020D0004CEB174022EA0B4E0BFB06FC25EA0647A9
:1020E0000EFB06F607FB0EFE0BFB07F71EEB064E7C
:1020F0004CEB164C4FF000061EEB074E4CEB174B0B
:1021000018EB0B0840F1000018EB0E0B58EB000821
:1021100040F100008F1A4FF000013CBFC943661B1D
:1021200014BFB5EB040C00213CBFC943F61B4FEABA
:1021300017444EEA8E0E27EA04454FEA1C4704FB7B
:1021400007622CEA074C05FB07F70CFB05F604FBBE
:102150000CFC16EB074642EB174216EB0C4642EB23
:102160001C421BEB060658EB0202414146EA9E0662
:1021700001D5BDE80189B619524141EB0101A3F136
:102180000103BDE801894FEA14454FEA114724EAEB
:10219000054621EA074C05FB07F406FB07F70CFB95
:1021A00006F105FB0CFC11EB074144EB17444FEA29
:1021B000124711EB0C4144EB1C4422EA074C05FB8F
:1021C00007F206FB07F70CFB06F605FB0CFC16EB0B
:1021D000074642EB174216EB0C4642EB1C456A18C9
:1021E00054F1000148BF7047B619524141EB01015B
:1021F000A3F10103704795F0000F37D04FEA114269
:102200004FEA144721EA024624EA074C02FB07F191
:1022100006FB07F70CFB06F402FB0CFC14EB07446F
:1022200041EB17414FEA154714EB0C4441EB1C41BD
:1022300025EA074C02FB07F506FB07F70CFB06F641
:1022400002FB0CFC16EB074645EB174516EB0C465C
:1022500045EB1C42121951F1000148BF7047B619F5
:10226000524141EB0101A3F1010370474FEA1445CC
:102270004FEA114724EA054621EA074C05FB07F11E
:1022800006FB07F70CFB06F24FF0000605FB0CFC03
:1022900012EB074241EB174112EB0C4251EB1C4190
:1022A00048BF7047921841EB0101A3F10103704749
:1022B00000BFFEE703468B4201DA084670479342AF
:1022C00001DD1046FAE71846F8E700002DE9FC4169
:1022D00004460D462746002602E00020B855761C2D
:1022E000B6F5E07FF9D339480090394B394A3A497D
:1022F000019004F1340002F067FB384838490023AC
:102300004FF07C52CDE90010364904F5A07002F080
:102310005BFB3248324900234FF07C52CDE900107C
:10232000304904F5B67002F04FFB1DB1012084F86E
:10233000B80102E0002084F8B80101F05FFD01F06F
:102340009BFB01F06FFF03F091F80022264904F592
:10235000A07002F05DFB0022234904F5B67002F084
:1023600057FB00224FF07C5104F5A07002F042FBB5
:1023700000224FF07C5104F5B67002F03BFBB5B97A
:102380001AA20121084602F03CFA05F001FB804642
:10239000B8F1000F05D118A20121084602F031FA68
:1023A00004E018A20121084602F02BFA00BF01F058
:1023B00029FF002084F8B001012084F8AA01002040
:1023C00084F8AB01C4F8AC01BDE8FC8100004842D0
:1023D0008FC2753E0AD7A33CCDCCCC3F0000C8428B
:1023E00000007A4400002F449A99993E444D5020B1
:1023F000696E69742E2E2E00444D50204F4B2020C4
:1024000020202000444D5020455252202020200002
:102410002DE9F04F87B0044694F8B00110B907B029
:10242000BDE8F08F0A2104F1200001F093FB204663
:1024300001F002FA94F8B801012804D1B4F99C81A2
:10244000B4F99C9155E0B4F99C51D4F8BC710021C9
:10245000384607F0FFFA01D287F000474FF0020B31
:10246000022002904FF0000AC649384607F0F2FBFE
:1024700002D202254FF0010AD4F8A06100213046B3
:1024800007F0E8FA01D286F00046B4F99C0103286F
:1024900009DD4FF07C51304607F010F9019007F04C
:1024A00071FA281A05B2BAF1000F02D1022D00DA32
:1024B00002254FF08041D4F8A00107F0FFFA019007
:1024C00007F060FA06B201216A1E10B2002800DA95
:1024D0000020864201DD064604E04242964201DACF
:1024E000424216B2A81B0FFA80F8A8190FFA80F919
:1024F00000BFB8F1000F01DA4FF00008B9F1000F8A
:1025000001DA4FF00009208DA8EB000000B2069020
:10251000608DA9EB000000B20590B4F9280007F027
:102520006DFA0546404607F069FA0646069807F038
:1025300065FA07463346944A394604F5A07000957B
:1025400002F0FFF90490B4F92A0007F057FA0546A3
:10255000484607F053FA0646059807F04FFA074633
:102560003346894A394604F5B670009502F0E9F918
:102570000390049807F006FA06B2039807F002FAEF
:1025800007B294F8B801012811D08049D4F8A0010D
:10259000096807F093FA834607F0F4F90FFA80FA16
:1025A000A6EB0A0006B207EB0A0007B200BF4FF421
:1025B000AC71085907F0E6F90FFA80FA4FF4C271CE
:1025C000085907F0DFF90FFA80FBBAF1000F03DAC0
:1025D000CAF100000FFA80FABBF1000F03DACBF169
:1025E00000000FFA80FB564501DD564606E0CAF1B1
:1025F0000000864202DACAF1000006B25F4501DD42
:102600005F4606E0CBF10000874202DACBF1000022
:1026100007B294F8B801012838D0002E00DA00265D
:10262000002F00DA0027B8F1000F07DD5848B0F995
:102630000000864202DA5648B0F90060B9F1000F96
:1026400007DD5348B0F90000874202DA5048B0F97C
:102650000070B4F99C01002818DD4E490988D4F8AF
:10266000B401884212D24C49B1F90000002801DAC5
:10267000414208B2642800DD6420002805DD86425E
:1026800000DA0646874200DA074600BFB4F8A40124
:10269000301A00B20290B4F8A601381A00B20190C4
:1026A0003E48B0F90050002D01DA684205B2012D14
:1026B00000DA01250298A84201DD029506E0694290
:1026C0000298884202DA684200B202900198A84259
:1026D00001DD019506E069420198884202DA68420C
:1026E00000B2019004F5D27421880298084400B227
:1026F000208061880198084400B260802088A18809
:10270000084407B26088A188401A0FFA80FA207D39
:10271000A4F5D274012807D0002F00DA0027BAF1FF
:10272000000F01DA4FF0000A4FF4AC71085907F0BE
:1027300029F905B24FF4C271085907F023F906B21E
:10274000002D01DA684205B2002E01DA704206B2AD
:10275000AF4201DD2F4604E06842874201DA684259
:1027600007B2B24501DDB24605E07042824502DAA9
:1027700070420FFA80FA5146384601F0CFFD00BF93
:102780004DE60000000070410AD7233C34000020D1
:102790003E0000204A000020480000203C000020AD
:1027A00010B50446A069C4F8980104F1340002F0A1
:1027B0001DF910BD2DE9F047044694F8B00108B9A1
:1027C000BDE8F08794F8B80100B1F9E7A169D4F841
:1027D000980101F0A7FBC4F8BC01D4F8BC7100213A
:1027E000384607F037F901D287F0004757480168AB
:1027F000384607F02FF91FD20020D4F8A01107F0B7
:1028000065FA8146524806683146484607F022FA82
:1028100001D2B14608E086F0004A4946504607F02A
:1028200019FA01D286F000494946D4F8A00106F011
:1028300045FFC4F8A001C3E7D4F8BC814FF07E5136
:10284000404607F03BF980464249E069096807F0D5
:1028500035F90646414607F02EFA8046B4F99C0148
:1028600007F0CCF805460021284607F0F3F801D21E
:1028700085F000454FF07C51284607F01FF90546CA
:102880004FF07E51284607F0E5F801D24FF07E5513
:102890003149284607F0DEF900D22F4D294640463F
:1028A00007F0D8F901D2A84608E085F00046414675
:1028B000304607F0CFF901D285F000484046D4F801
:1028C000A01107F003FA81462449384607F0F6F8CC
:1028D00082461F480168504606F0F0FE06464FF05B
:1028E0008041304607F0B6F901D24FF080463146BC
:1028F000484607F0AFF901D2B14608E086F0004A39
:102900004946504607F0A6F901D286F000494946EB
:10291000D4F8A00106F0D2FEC4F8A0012946D4F8EC
:10292000A00107F097F902D2C4F8A0510BE085F09E
:10293000004A5046D4F8A01107F08CF903D285F074
:102940000040C4F8A00100BF3AE7000038000020B2
:102950002C0000203000002000002041CDCC4C3D58
:102960002DE9F04104460D46605D3D2802D000206F
:10297000BDE8F081691C601803F06EFB064606F0A6
:10298000A3F8F5E72DE9F04FEFB00446202167A842
:1029900002F0BAFE6690669810B96FB0BDE8F08F8D
:1029A00067ABFEA2402156A8FDF752FC56A802F0E4
:1029B0009DFE9DF89C01232803D0FCA002F096FE0A
:1029C000EBE79DF89D0153287ED19DF89E01542888
:1029D000FAD19DF89F014128F6D19DF8A001542815
:1029E0007FD19DF8A10100287BD1A06906F0CAFF24
:1029F0000546F449D4F8BC0107F060F8074606F034
:102A0000C1FF0646EF49D4F8A00107F057F8074682
:102A100006F0B8FF8146EC49E06907F04FF8074639
:102A200006F0B0FF8246D4F8980106F0ABFF83466B
:102A3000B4F928001D90B4F92A001C90B4F92810AC
:102A4000B4F92A00081A1B9000F0E4FF1A9000F075
:102A5000E9FF1990D4F8AC0106F004FE0746884659
:102A6000606906F08FFF1890D8480268D84803685C
:102A700094F8AB1194F8AA01CDE9127814AF0BC702
:102A80001792B4F9A801DDE91A321999CDE90D239D
:102A9000CDE90F10B4F9A621B4F9A431DDE91C0188
:102AA000CDE90932CDE90B10B4F90A101898CDE937
:102AB000059ACDE90710B4F99C01CDE903B6CDE93B
:102AC000010594F8B00100E00BE00090C14AE0215C
:102AD0001EA8D4F8B431FDF7BBFB1EA802F006FE19
:102AE0005BE79DF89D01522818D19DF89E0155285D
:102AF00014D19DF89F014E2810D19DF8A00168B90E
:102B000094F8B801012802D02046FFF749FE20467C
:102B100000F057FDB0A002F0E9FD3EE79DF89D01F1
:102B2000532815D19DF89E01542811D19DF89F017D
:102B30004F280DD19DF8A001502809D19DF8A10181
:102B400030B9204600F08EFDA6A002F0CFFD24E7AC
:102B50009DF89D0153282BD19DF89E01502827D127
:102B60009DF89F01442823D19DF8A0013D281FD145
:102B7000002601270DF2A11528782D2801D1771EF6
:102B80006D1C06E02878303806EB860100EB410624
:102B90006D1C2878302802DB28783928F2DD7E4346
:102BA00031B2204600F00AFD91A002F09FFDF4E64C
:102BB0009DF89D0148281ED19DF89E0150281AD1EC
:102BC0009DF89F013D2816D1032167A8FFF7C8FE95
:102BD00005460021284606F03DFF00D20025874922
:102BE000284607F037F800D2844D8548056085A057
:102BF00002F07CFDD1E69DF89D0148281ED19DF88C
:102C00009E0144281AD19DF89F013D2816D1032129
:102C100067A8FFF7A5FE05460021284606F01AFF23
:102C200000D200257949284607F014F800D2774DE4
:102C30007748056077A002F059FDAEE69DF89D014A
:102C400048281ED19DF89E0153281AD19DF89F0156
:102C50003D2816D1032167A8FFF782FE0546002113
:102C6000284606F0F7FE00D200256C49284606F0FB
:102C7000F1FF00D2694D6A4805606AA002F036FD96
:102C80008BE69DF89D0144281ED19DF89E014228A7
:102C90001AD19DF89F013D2816D1032167A8FFF79F
:102CA0005FFE05460021284606F0D4FE00D200252E
:102CB0005A49284606F0CEFF00D2584D5B480560C1
:102CC0005BA002F013FD68E69DF89D01532834D106
:102CD0009DF89E014B2830D19DF89F0150282CD1A2
:102CE0009DF8A0013D2828D1042167A8FFF738FEF0
:102CF00005460021284606F0ADFE00D200254E49CB
:102D0000284606F0A7FF00D24B4D4FF4A47003599C
:102D1000001F0259294604F5A07001F06FFE4FF420
:102D2000BA700359001F0259294604F5B67001F024
:102D300065FE42A002F0DAFC2FE69DF89D015328C3
:102D40002AD19DF89E014B2826D19DF89F01492844
:102D500022D19DF8A0013D281ED1042167A8FFF7CC
:102D6000FFFD05460021284606F074FE00D200252E
:102D70003549284606F06EFF00D2334D4FF4A4705B
:102D800003592A4604F5A070D4F8401101F036FE2C
:102D90004FF4BA70035959E063E00000434D445FBB
:102DA00052583A205B25735D0D0A0000434D445F85
:102DB0004552523A204E6F20232070726566697822
:102DC0000D0A0000000020410000C8422800002039
:102DD000240000204CB300084F4B2052554E0D0AE2
:102DE000000000004F4B2053544F500D0A000000CC
:102DF0004F4B205350440D0A000000000000A0413A
:102E0000340000204F4B2048500D0A000AD7233CC5
:102E1000300000204F4B2048440D0A000000A04025
:102E20002C0000204F4B2048530D0A003800002092
:102E30004F4B2044420D0A000000FA444F4B2053F0
:102E40004B500D0A00000000000048422A4604F5DD
:102E5000B670D4F86C1101F0D1FDF8A002F046FC78
:102E60009BE59DF89D01532834D19DF89E014B2888
:102E700030D19DF89F0144282CD19DF8A0013D2818
:102E800028D1042167A8FFF76BFD054600212846DD
:102E900006F0E0FD00D20025EB49284606F0DAFEF8
:102EA00000D2E94D4FF4A27002592B4604F5A070F0
:102EB000D4F8401101F0A2FD4FF4B87002592B462E
:102EC00004F5B670D4F86C1101F098FDDFA002F0A3
:102ED0000DFC62E59DF89D01532825D19DF89E01CA
:102EE0004F2821D19DF89F013D281DD1032167A8BE
:102EF000FFF736FD064606F045FD0546002D00DAD3
:102F00000025642D00DD6425284606F077FD4FF48A
:102F1000AC710851284606F071FD4FF4C27108519A
:102F2000CDA002F0E3FB38E59DF89D01522824D1A5
:102F30009DF89E01412820D19DF89F014D281CD16C
:102F40009DF8A001502818D19DF8A1013D2814D169
:102F5000052167A8FFF704FD064606F013FD0546A8
:102F6000012D00DA0125142D00DD142528B2BC49FD
:102F70000880BCA002F0BAFB0FE59DF89D014D282A
:102F800020D19DF89E0149281CD19DF89F014E2813
:102F900018D19DF8A0013D2814D1042167A8FFF79E
:102FA000DFFC064606F0EEFC0546002D00DA0025A3
:102FB000642D00DD642528B2AD490880ADA002F083
:102FC00095FBEAE49DF89D0146283AD19DF89E01C3
:102FD000462836D19DF89F013D2832D1032167A8AC
:102FE000FFF7BEFC05460021284606F033FD00D25F
:102FF0000025A349284606F02DFE00D2A04D002151
:10300000284606F027FE01D2012000E000200646F7
:103010003246294604F5A07001F0ECFC0021284658
:1030200006F018FE01D2012000E0002006463246DC
:10303000294604F5B67001F0DDFC92A002F056FBC3
:10304000ABE49DF89D0145283ED19DF89E014D2899
:103050003AD19DF89F01462836D19DF8A0013D2820
:1030600032D1042167A8FFF77BFC054600212846E2
:1030700006F0F0FC00D200258149284606F0EAFD62
:1030800000D27F4D0021284606F0E4FD01D2012048
:1030900000E0002006463246294604F5A07001F003
:1030A000B7FC0021284606F0D5FD01D2012000E042
:1030B000002006463246294604F5B67001F0A8FC09
:1030C00072A002F013FB68E49DF89D01432817D11C
:1030D0009DF89E01412813D19DF89F014C280FD1E6
:1030E0009DF8A00160B9204600F0BCFA94F8B80140
:1030F00010B92046FFF754FB67A002F0F7FA4CE442
:103100009DF89D01542840D19DF89E0152283CD144
:103110009DF89F01492838D19DF8A0014D2834D150
:103120009DF8A1013D2830D1012700260DF5D1756C
:1031300028782D2801D1771E6D1C06E028783038BC
:1031400006EB860100EB41066D1C2878302802DB77
:1031500028783928F2DD7E43142E01DD142604E0A0
:1031600016F1140F01DA6FF0130630B2A4F8A801BB
:10317000B4F9A80106F042FCC4F8AC01012084F8BF
:10318000AB0148A002F0B2FA07E49DF89D01412886
:1031900027D19DF89E01542823D19DF89F013D28F9
:1031A0001FD1002668AD06E02878303806EB86018E
:1031B00000EB41066D1C2878302802DB287839287E
:1031C000F2DD0EB1012000E0002084F8AA0194F89D
:1031D000AA0110B1002084F8AB0135A002F086FAF4
:1031E0007EE49DF89D01522827D19DF89E0141283B
:1031F00023D19DF89F0157281FD19DF8A0013D289C
:103200001BD1002501270DF2A11630782D2801D100
:103210006F1E761C06E03078303805EB850100EB38
:103220004105761C3078302802DB30783928F2DD11
:103230007D43642D40DD642543E067E04F4B205320
:103240004B490D0A00000000000048434F4B20533B
:103250004B440D0A000000004F4B20534F0D0A0055
:103260003C0000204F4B2052414D500D0A00000001
:103270003E0000204F4B204D494E0D0A000000003B
:103280000000A0404F4B2046460D0A004F4B204502
:103290004D460D0A000000004F4B2043414C0D0AE3
:1032A000000000004F4B205452494D0D0A00000011
:1032B0004F4B2041540D0A0015F1640F01DA6FF0F5
:1032C000630565B90020524908705249088001F031
:1032D0008BF800F0BBFB50A002F008FA1DE40120BF
:1032E0004B49087028B24B490880D4F8B40100F566
:1032F000FA604C49086000F0A9FB00F08BFF012048
:1033000084F8B00148A002F0F1F906E49DF89D01AF
:103310004B281CD19DF89E01502818D19DF89F0183
:103320003D2814D1032167A8FFF71AFB064606F0D3
:1033300029FB0546002D00DA0025642D00DD6425FB
:1033400028B23C4908803CA002F0D0F92FE49DF857
:103350009D014B281DD19DF89E014D2819D19DF846
:103360009F013D2815D1032167A8FFF7F9FA06460A
:1033700006F008FB0546002D00DA0025B5F5FA6FCA
:1033800001DD4FF4FA652E490D802EA002F0AEF952
:103390000DE49DF89D01422834D19DF89E014928F5
:1033A00030D19DF89F014E282CD19DF8A0013D28D9
:1033B00028D100260DF2A11506E02878303806EB5A
:1033C000860100EB41066D1C2878302802DB287846
:1033D0003928F2DD0EB1012000E000201B49087001
:1033E0000846007808B10A2000E014201849088037
:1033F0001649097809B117A100E019A1084602F0A1
:1034000075F91AE419A002F071F900BF15E4000083
:1034100040000020420000204F4B20524157300D09
:103420000A000000440000204F4B205241570D0A73
:1034300000000000480000204F4B204B500D0A00B8
:103440004A0000204F4B204B4D0D0A004C0000203D
:103450004E0000204F4B2042494E310D0A00000023
:103460004F4B2042494E300D0A0000004552520D8C
:103470000A0000002DE9F04FD7B004464948007813
:10348000A8B1D4F8BC011B90B4F92820B4F92A10D3
:10349000501A06F0B3FA1A90D4F8A0011990DDE999
:1034A00019211B9802F0CEF857B0BDE8F08FA06943
:1034B00006F068FA05463C49D4F8BC0106F0FEFA6D
:1034C0001B9006F05FFA06463749D4F8A00106F0D3
:1034D000F5FA1B9006F056FA07463449E06906F003
:1034E000EDFA1B9006F04EFA8046D4F8980106F0EB
:1034F00049FA8146B4F928A0B4F92AB0B4F92810E1
:10350000B4F92A000A1A1E9200F084FA1D9000F005
:1035100089FA1C90D4F8AC0106F0A4F8CDE91A01A0
:10352000606906F02FFA1990214802682148036863
:1035300094F8AB1194F8AA01CDE91632CDE9140143
:10354000DDE91A01CDE91201B4F9A831DDE91D2147
:103550001C98CDE90F03CDE90D12B4F9A601B4F919
:10356000A411CDE90BABCDE90910B4F90A101998F3
:10357000CDE90578CDE90710B4F99C01CDE90396B2
:10358000CDE9010594F8B00100900B4AE0211FA895
:10359000D4F8B431FCF75CFE1FA802F0A7F800BF16
:1035A00082E700004C000020000020410000C842DB
:1035B0002800002024000020B4B20008A0F89C11CC
:1035C00070472DE9F04104460020C4F8B40100F032
:1035D0003DFA94F8B80101280ED104F5A07001F06D
:1035E00005FA04F5B67001F001FA00F013FE0120AF
:1035F00084F8B001BDE8F0812046FFF7D1F804F56A
:10360000A07001F0F3F904F5B67001F0EFF994F849
:10361000AA0100B394F8AB01E8B9D4F8AC61002179
:10362000304606F017FB05D84FF07C51304606F0C7
:1036300045F804E04FF07C51304606F047FB074662
:1036400006F0A0F905B2142251422846FEF732FED8
:10365000A4F8A80100BF00F0DDFD012084F8B0014E
:1036600000BFC7E710B5044600F0BEFE00F0CAFD7B
:1036700000F0ECF90020C4F8A001C4F8BC01A4F8E3
:10368000A401A4F8A60104F5A07001F0AFF904F5B7
:10369000B67001F0ABF9002084F8B00110BD000055
:1036A000FEB50446D4F8B401401CC4F8B40194F843
:1036B000B801012848D053480088401C80B25149C5
:1036C0000880142840DB00200880029001900090C0
:1036D0006A4601A902A804F049F8054675BBA66927
:1036E00049480068401C484908600098A06131467C
:1036F000A06906F0EBFA074604E04449384606F0B4
:10370000E5FA07464249384606F0A4FAF5D304E044
:103710003E49384605F0D2FF07463E49384606F096
:1037200099F9F5D33C49384606F036F8E06194F84B
:10373000B00110B12046FFF73DF804E037480068BB
:10374000401C3649086000BF35480088401C80B2E4
:10375000334908800A2840DB002008800A2104F150
:10376000200000F0F7F994F8B00158B32D48007824
:1037700020B32D49D4F8B401096888420CD3002045
:10378000284908702949088000F02EFE0020A4F87E
:10379000A401A4F8A60120E02448B0F90000A4F890
:1037A000A4012248B0F90000A4F8A6011F48B0F90E
:1037B0000010B0F9000000F0B1FD0EE02046FEF769
:1037C00027FE0AE000F010FE0020C4F8A001C4F8B3
:1037D000BC01A4F8A401A4F8A60115480088401C67
:1037E00080B21349088013490988884205DB00200C
:1037F0000F4908802046FFF73DFE2046FFF7C2F83C
:10380000FEBD000050000020240000200000B44352
:1038100000003443000034C30AD7A33C2800002032
:103820005200002040000020440000204200002000
:10383000540000204E0000202DE9F047044694F883
:10384000B00108B9BDE8F08794F8B80100B1F9E714
:1038500094F8AA0100B9F5E794F8AB0100B1F1E7DB
:10386000D4F8B401B0F5FA7F00D2EBE7B4F99C01CB
:10387000002800DCE6E7D4F8A0510021284606F035
:10388000E9F801D285F000453949284606F0E2F909
:1038900000D2D7E7E5690021284606F0DBF801D21F
:1038A00085F000453349284606F0D4F900D2C9E72F
:1038B000D4F8BC51DFF8C0A00021284606F0CAF9B0
:1038C00001D8284601E085F0004007464FF07E51C0
:1038D000384606F0BFF800D8B4E72849284606F075
:1038E000B9F901D2254D05E02549284606F0B2F880
:1038F00000D2234D2049284606F0E0F80646D4F8C9
:10390000AC1105F0DBFEC4F8AC011A49D4F8AC01E7
:1039100006F0A0F903D21748C4F8AC0108E0194931
:10392000D4F8AC0106F096F802D21648C4F8AC01FF
:10393000D4F8AC810021404606F08CF905D84FF050
:103940007C51404605F0BAFE04E04FF07C51404601
:1039500006F0BCF9814606F015F806B21422514271
:103960003046FEF7A7FCA4F8A80100BF6AE70000F4
:103970009A99993E0000A0410AD7233C000070416B
:10398000000070C10000A0C1704700B5034603E00D
:103990004FF47A7000F005F8181EA3F10103F7D177
:1039A00000BD00EBC001C9004FF0E02251610021D1
:1039B00091610521116100BF4FF0E021096901F417
:1039C00080310029F8D004214FF0E02211617047C6
:1039D0002DE9F04105460C4614B90020BDE8F08100
:1039E000204606F023F880464146084805F0D4FEFC
:1039F0000646284606F002F88046054905F0CCFE4A
:103A00000746314606F05AF8E8E7000000606A47CA
:103A10000000304210B54FF0804001F03CFA00B297
:103A200010BD000010B5024801F035FA00B210BD1B
:103A30000004004070B50446204601F02CFA05B29F
:103A40000021204601F0F0FA284670BD10B5002193
:103A50004FF0804001F0E8FA0021044801F0E4FA58
:103A60000020034908800349088010BD000400407D
:103A70001A0000201C0000201FB50121084600F09C
:103A8000CDFF0121022000F0C9FF0121042000F038
:103A9000D5FF48208DF80F0003208DF80E00C320BD
:103AA000ADF80C0003A9294800F08EF80020ADF80D
:103AB0000600ADF802004FF6FF70ADF804000020DC
:103AC000ADF800008DF8080069464FF0804001F025
:103AD000ADFA00231A4603214FF0804001F0BAF9F5
:103AE0004FF08040008B40F60F71084040F0A0007E
:103AF00040F420404FF0804108836946144801F0AB
:103B000095FA00231A460321114801F0A3F9104841
:103B10001830008840F60F71084040F0A00040F4D3
:103B200020400B49183108800121880701F077F9FE
:103B30000121074801F073F900214FF0804001F0A6
:103B400073FA0021024801F06FFA1FBD000801401E
:103B5000000400402DE9F04104460F464FF080403C
:103B6000FFF768FF05461548FFF764FF0646684201
:103B700005B2704206B225816681B4F9081020684A
:103B800008442060B4F90A10606808446060B4F921
:103B900008003946FFF71CFFE060B4F90A00394617
:103BA000FFF716FF2061FFF735FF05490880FFF793
:103BB00039FF04490880BDE8F0810000000400409E
:103BC0001A0000201C0000202DE9F04102460025CB
:103BD0000026002000230024002791F803C00CF0E9
:103BE0000F0591F803C00CF0100CBCF1000F03D0CE
:103BF00091F802C04CEA050591F800C0BCF1000F35
:103C000031D0146800202BE04FF0010C0CFA00F3C7
:103C1000B1F800C00CEA03069E4220D183004FF0A9
:103C20000F0C0CFA03F7BC4305FA03FC4CEA04043E
:103C300091F803C0BCF1280F06D14FF0010C0CFA2B
:103C400000FCC2F814C00AE091F803C0BCF1480FB0
:103C500005D14FF0010C0CFA00FCC2F810C0401C5A
:103C60000828D1D31460B1F800C0BCF1FF0F34DDD7
:103C7000546800202EE000F1080C4FF0010808FA0B
:103C80000CF3B1F800C00CEA03069E4221D1830078
:103C90004FF00F0C0CFA03F7BC4305FA03FC4CEA97
:103CA000040491F803C0BCF1280F05D100F1080C01
:103CB00008FA0CF8C2F8148091F803C0BCF1480F60
:103CC00007D100F1080C4FF0010808FA0CF8C2F80F
:103CD0001080401C0828CED35460BDE8F08100005D
:103CE000F0B50A46002300240021002500F000461C
:103CF000B6F1004F02D11D4EF16901E01B4E716813
:103D0000C0F3034583B200F44016B6F5401F08D156
:103D100021F07061154E766826F07066134F7E6054
:103D200012E000F48016B6F5801F06D1032606FACD
:103D300005F4A14341F0706106E0460D360103FA37
:103D400006F6B14341F0706122B1460D360103FA27
:103D500006F6314300F00046B6F1004F02D1034EA3
:103D6000F16101E0014E7160F0BD00000000014012
:103D70000246002093680B400BB1012000E00020B8
:103D8000704741617047016170470AB1016100E00D
:103D90004161704700BFFEE770B500250024202177
:103DA0001548FFF7E5FF28BB1420FFF7EEFD2021A3
:103DB0001148FFF7DDFFE8B903E00A20FFF7E5FD52
:103DC0000A3420210C48FFF7D3FF18B940F24C40C9
:103DD0008442F2D3B4F57A7F01D3022500E00125B5
:103DE00000BF20210448FFF7C3FF0028F9D01420AA
:103DF000FFF7CBFD284670BD000C014008B501213E
:103E0000082000F01BFE48208DF803002020ADF8AC
:103E1000000003208DF8020069460248FFF7D4FE37
:103E200008BD0000000C01402DE9F041064688461F
:103E300015461F4605B117B90120BDE8F08100F015
:103E40004BF97106080E00F0FFF800F083F918B185
:103E500000F060F90120F0E7404600F0F5F800F0CE
:103E600079F918B100F056F90120E6E700F034F9CD
:103E7000012101EB4601C8B200F0E6F800F06AF952
:103E800018B100F047F90120D7E700240DE000F059
:103E900097F83855681EC0B2A04202D000F0BCF8B6
:103EA00001E000F001F9601CC4B2AC42EFDB00F0AD
:103EB00031F90020C1E72DE9F04107468846154653
:103EC0001E4605B116B90120BDE8F08100F004F9E5
:103ED0007906080E00F0B8F800F03CF918B100F0CF
:103EE00019F90120F0E7404600F0AEF800F032F991
:103EF00018B100F00FF90120E6E700240BE0305D77
:103F000000F0A2F800F026F918B100F003F9012042
:103F1000DAE7601CC4B2AC42F1DB00F0FBF8002031
:103F2000D2E7000070B504460D462946204605F04C
:103F3000CDFE064604E00B49304605F0C7FE0646B6
:103F40000949304605F086FEF5D304E005493046C0
:103F500005F0B4FB06460549304605F07BFDF5D378
:103F6000304670BD0000B44300003443000034C349
:103F700008B50121082000F061FD4FF44050ADF874
:103F8000000014208DF8030003208DF8020069461C
:103F90000648FFF719FE4FF480510448FFF7F3FE7F
:103FA0004FF400510148FFF7EEFE08BD000C014040
:103FB000002002E000BF411CC8B22828FADB70478D
:103FC00070B5002400F0FAF8002519E04FF4805194
:103FD0001048FFF7D6FEFFF7EBFF4FF480510D4876
:103FE000FFF7D1FE6006040E4FF400510948FFF7B9
:103FF000BFFE08B144F00104FFF7DAFF681CC5B248
:10400000082DE3DB4FF480510248FFF7BAFE20464B
:1040100070BD0000000C014010B500F0DFF84FF457
:1040200000510848FFF7ADFE4FF480510548FFF7F7
:10403000AAFEFFF7BDFF4FF480510248FFF7A1FE33
:1040400010BD0000000C014070B5044600F0C6F839
:104050004FF480511348FFF794FE00251FE004F051
:10406000800028B14FF400510E48FFF78CFE04E0A9
:104070004FF400510B48FFF784FE6006040EFFF773
:1040800097FF4FF480510748FFF77DFEFFF790FF41
:104090004FF480510348FFF774FE681CC5B2082D29
:1040A000DDDB70BD000C014010B500F097F84FF457
:1040B00000510848FFF767FE4FF480510548FFF7AD
:1040C00062FEFFF775FF4FF480510248FFF759FE7B
:1040D00010BD0000000C014010B500F07FF84FF457
:1040E00000510B48FFF74FFE4FF480510848FFF78F
:1040F0004AFEFFF75DFF4FF400510548FFF741FE10
:10410000FFF756FF4FF480510148FFF73AFE10BD0C
:10411000000C014010B500F061F84FF480510C48DC
:10412000FFF72FFE4FF400510948FFF72AFEFFF773
:104130003FFF4FF480510648FFF725FEFFF738FF99
:104140004FF400510248FFF71EFEFFF731FF10BD8C
:10415000000C014010B5002400F030F84FF400517D
:104160001548FFF710FE4FF480511348FFF70BFE80
:10417000FFF71EFF10E0601C80B20446B0F5C87F58
:1041800008DB4FF480510C48FFF7FBFD00F026F8E8
:10419000012010BDFFF70CFF4FF400510648FFF758
:1041A000E7FD0028E7D14FF480510348FFF7E9FD10
:1041B00000F014F80020ECE7000C014008B54FF4C3
:1041C0000050ADF8000048208DF803006946024811
:1041D000FFF7FAFC08BD0000000C014008B54FF4E1
:1041E0000050ADF8000014208DF8030003208DF876
:1041F000020069460148FFF7E7FC08BD000C0140DA
:1042000000BFFEE710B501210148FFF7BAFD10BD60
:10421000000C014010B501210148FFF7B4FD10BDAD
:10422000000C014000B589B00121042000F006FC1B
:104230000121082000F002FC0121C80200F0FEFB71
:1042400010208DF8230003208DF822000120ADF806
:10425000200008A92E48FFF7B7FC01212C48FFF7E2
:1042600090FD3020ADF8200008A92A48FFF7ACFCEB
:1042700030212848FFF785FD40F20240ADF82000CC
:1042800008A92348FFF7A0FC40F202412048FFF7AD
:1042900078FD18208DF823004001ADF8200008A912
:1042A0001C48FFF791FC0020ADF81A00ADF816008D
:1042B0006320ADF8180040F2CF20ADF814000020C4
:1042C0008DF81C0005A9144800F0B0FE01A800F00C
:1042D0009DFE6020ADF804000020ADF80C00012028
:1042E000ADF806000020ADF80A0001A90A4800F068
:1042F000EFFD01A9084800F037FE0121064800F053
:104300009AFD0121044800F08AFD09B000BD0000BB
:10431000000C014000080140002C014070B505462A
:104320000C46002D04DB0021284600F013F804E0C1
:104330000121684200B200F00DF8002C04DB0021DE
:10434000204600F02BF804E00121604200B200F0AA
:1043500025F870BD70B504460D46642C00DD64245C
:10436000002C00DA002445B910210A48FFF70BFDA4
:1043700020210848FFF705FD07E010210548FFF759
:1043800000FD20210348FFF7FEFCA1B2024800F027
:1043900047FE70BD00080140002C014070B5044686
:1043A0000D46642C00DD6424002C00DA00244DB995
:1043B00002210B48FFF7E7FC4FF480610848FFF744
:1043C000E0FC08E002210648FFF7DBFC4FF48061C7
:1043D0000348FFF7D8FCA1B2024800F023FE70BDED
:1043E000000C0140002C014010B530210848FFF7B7
:1043F000C8FC40F202410748FFF7C3FC0021064811
:1044000000F00EFE0021044800F00CFE10BD00007C
:1044100000080140000C0140002C014070470000E2
:1044200070B5002100230F22C47804B3154C246812
:1044300004F4E064C4F5E064210AC1F10403CA4055
:10444000447804FA03F184781440214309010E4CA6
:104450000678A155047804F01F050124AC400578C6
:104460006D11AD0005F1E025C5F8004109E00478C3
:1044700004F01F050124AC40044D0678761145F880
:10448000264070BD0CED00E000E400E080E100E0BB
:1044900002490143024A1160704700000000FA051A
:1044A0000CED00E070B500240EE00021204600F085
:1044B00008F9002504E0002000F0C7F9681CC5B227
:1044C000802DF8DB601CC4B2082CEEDB70BD000050
:1044D00008B50121082000F0B1FA10208DF8030082
:1044E00003208DF802008020ADF8000069460D48D9
:1044F000FFF76AFB4FF48070ADF800006946094889
:10450000FFF762FB4FF4C0710648FFF73CFC012245
:1045100080210448FFF739FC012211020148FFF70E
:1045200034FC08BD000C014070B50546002424E0B1
:1045300080202041284008B1012000E000200246F0
:104540004FF480711648FFF720FC002001E0411C69
:10455000C8B20A28FBDB012280211148FFF715FCB5
:10456000002001E0411CC8B20A28FBDB00228021A8
:104570000B48FFF70AFC601CC4B2082CD8DB0122F0
:1045800080210748FFF701FC002001E0411CC8B270
:104590000A28FBDB002280210148FFF7F6FB70BDF3
:1045A000000C014010B5012211020A48FFF7EDFB93
:1045B000012280210748FFF7E8FB00224FF48071B9
:1045C0000448FFF7E2FB002280210248FFF7DDFBF1
:1045D00010BD0000000C014010B500224FF48071A6
:1045E0000648FFF7D2FB012280210448FFF7CDFBEC
:1045F000012211020148FFF7C8FB10BD000C014069
:1046000070B5002406E0002500E06D1CB5F57A7F4A
:10461000FBD3641CB4F57A7FF5D3FFF759FFAE20C6
:1046200000F003F9D52000F000F9802000F0FDF83B
:10463000A82000F0FAF83F2000F0F7F8D32000F0AF
:10464000F4F8002000F0F1F8402000F0EEF8A1208E
:1046500000F0EBF8C82000F0E8F8DA2000F0E5F808
:10466000122000F0E2F8812000F0DFF8CF2000F007
:10467000DCF8D92000F0D9F8F12000F0D6F8DB20E2
:1046800000F0D3F8302000F0D0F8A42000F0CDF8EE
:10469000A62000F0CAF88D2000F0C7F8142000F022
:1046A000C4F8AF2000F0C1F8FFF7FCFE70BD10B5F4
:1046B0000246012000E050430B1EA1F10101FAD196
:1046C00010BD70B505460C4645F0B00000F0ADF8E1
:1046D000102141EA141000F0A8F804F00F0000F0D7
:1046E000A4F870BD2DE9F04105460E461746721E2E
:1046F000D206110E6A1E5206100EFFF7E2FF0024CA
:1047000009E0A7F12001134A02EB0111085D00F056
:104710009CF8601CC4B2082CF3DB721ED206110E8A
:104720006A1E012303EB4202D0B2FFF7CAFF002446
:104730000BE0A7F12001074A02EB011204F1080186
:10474000505C00F082F8601CC4B2082CF1DBBDE8BC
:10475000F0810000BC9E00082DE9F04780460E461F
:1047600017461D46002415E0281B411E0A20FFF7AE
:104770009EFFB7FBF0F00A21B0FBF1F201FB120043
:1047800000F130093019C1B24A464046FFF7AAFF8E
:10479000601CC4B2AC42E7DBBDE8F0872DE9F0470E
:1047A0008146884615461E46002D06DB2B224146D3
:1047B0004846FFF797FF2F4605E02D224146484621
:1047C000FFF790FF6F42002417E0301B411E0A20C4
:1047D000FFF76DFFB7FBF0F00A21B0FBF1F201FB30
:1047E000120000F1300A08EB0400401CC1B252462E
:1047F0004846FFF777FF601CC4B2B442E5DBBDE872
:10480000F0872DE9F04107460E461546002407E0E3
:104810002A5D3019C1B23846FFF764FF601CC4B28C
:10482000285D0028F4D1BDE8F08110B50446FFF7FB
:10483000B9FE7820FFF778FE0020FFF775FE2046CE
:10484000FFF772FEFFF7C8FE10BD10B50446FFF774
:10485000A9FE7820FFF768FE4020FFF765FE20469E
:10486000FFF762FEFFF7B8FE10BD2DE9F84F0446D2
:104870000D4616462946206805F020F9009031467D
:10488000284605F01BF98146E16804F017FFE06057
:104890006169E06805F0DEF902D26069E0600BE072
:1048A000606980F000494846E16805F0D3F903D219
:1048B000606980F00040E060E168606805F0FEF843
:1048C00082464FF000080021304605F0C3F90CD2B3
:1048D0002846216905F0FAF98346A16805F0EEF84B
:1048E0008146314604F058FF8046256151460098C4
:1048F00004F0E4FE8146414604F0E0FE07463846F7
:10490000A16905F0A7F901D2A7690AE0A06980F0C2
:1049100000493946484605F09DF902D2A06980F069
:1049200000473846BDE8F88F70B504460D4694F848
:10493000200008B9002070BD2846E16905F0BEF8E6
:10494000F9E72DE9FC5F04460F4690461D46DDF869
:104950003090424639462046FFF787FF8346294676
:104960002046FFF7E1FF01904946204600F01FF87E
:1049700000905846019904F0A1FE8246009904F087
:104980009DFE06463046A16905F064F901D2A6698C
:104990000AE0A06980F0004A3146504605F05AF915
:1049A00002D2A06980F000463046BDE8FC9F70B599
:1049B00004460D4694F8280008B9002070BD28462A
:1049C000616A05F07BF8F9E770B5DDE9044501603F
:1049D000426083600026C660066144618561C661ED
:1049E00080F82060466280F8286070BD0021C160B8
:1049F00001617047C16180F82020704730B50446DE
:104A00000D4625606260A3602046FFF7EFFF30BDD2
:104A1000416280F8282070477047000029B1064A9B
:104A2000D2690243044BDA6104E0034AD26982434B
:104A3000014BDA61704700000010024029B1064ABC
:104A400092690243044B9A6104E0034A92698243EB
:104A5000014B9A6170470000001002400348406A11
:104A600040F0807001494862704700000010024029
:104A700030B500210022002400232D4D6D6805F083
:104A80000C0121B1042905D0082923D105E0294DC5
:104A9000056022E0274D05601FE0254D6D6805F497
:104AA0007012234D6D6805F48034022505EB9242A7
:104AB0001CB9214D554305600BE01D4D6D6805F493
:104AC00000351DB11C4D5543056002E0194D55439D
:104AD000056002E0174D056000BF00BF144D6D6812
:104AE00005F0F0010909154D6B5C0568DD40456076
:104AF0000F4D6D6805F4E061090A104D6B5C456867
:104B0000DD4085600A4D6D6805F46051C90A0B4DA2
:104B10006B5C4568DD40C560054D6D6805F440413E
:104B2000890B074D6B5CC568B5FBF3F5056130BDBE
:104B30000010024000127A0000093D000000002031
:104B400010000020704710B500F002F810BD000002
:104B50000CB50020019000903348006840F480308C
:104B60003149086000BF3048006800F40030009010
:104B70000198401C0190009818B90198B0F5A06FF9
:104B8000F1D12948006800F4003010B101200090F4
:104B900001E0002000900098012843D123480068DC
:104BA00040F01000214908600846006820F003002A
:104BB00008600846006840F0020008601A48406833
:104BC000194948600846406848600846406840F413
:104BD000806048600846406820F47C1048600846C1
:104BE000406840F4E81048600846006840F0807073
:104BF000086000BF0C48006800F000700028F9D081
:104C00000948406820F003000749486008464068AA
:104C100040F00200486000BF0348406800F00C000C
:104C20000828F9D10CBD000000100240002002400D
:104C300010B504462046FEF7B4FE10BD08B50121AC
:104C40000820FFF7FBFE01210846FFF7F7FE0121D0
:104C50001348FFF745F84FF48040ADF800001020EE
:104C60008DF8030003208DF8020069460D48FEF719
:104C7000ABFF4FF40040ADF8000048208DF8030072
:104C800069460848FEF7A0FF4FF480410548FFF74A
:104C90007AF80020044908700449087008BD000033
:104CA00000023000000C0140580000205900002094
:104CB00070B504464FF480411348FFF762F80820AE
:104CC000FFF7B6FF002513E004F0010028B14FF410
:104CD00080410D48FFF757F804E04FF480410A483F
:104CE000FFF74FF864100820FFF7A2FF681CC5B259
:104CF000082DE9DB4FF480410348FFF744F8082012
:104D0000FFF796FF70BD0000000C014017B581B0A1
:104D10001DA00068009001AC2078FFF7C9FF607803
:104D2000FFF7C6FFA078FFF7C3FFE078FFF7C0FFEB
:104D300002AC2078FFF7BCFF6078FFF7B9FFA078DE
:104D4000FFF7B6FFE078FFF7B3FF03AC2078FFF77B
:104D5000AFFF6078FFF7ACFFA078FFF7A9FFE0781E
:104D6000FFF7A6FF9DF80000FFF7A2FF9DF80100E6
:104D7000FFF79EFF9DF80200FFF79AFF9DF80300E2
:104D8000FFF796FF1FBD00000000807F7047000006
:104D900010B51348006840F001001149086008464A
:104DA0004068104908400E494860084600680E49AE
:104DB00008400B4908600846006820F4802008601D
:104DC0000846406820F4FE0048604FF41F008860E9
:104DD000FFF7B9FE4FF000600449086010BD000005
:104DE000001002400000FFF8FFFFF6FE08ED00E0B3
:104DF00010B50121064800F051F840B101210448E6
:104E000000F00AF803480068401C0249086010BD21
:104E100000080040A0000020CA430282704721B170
:104E2000028842F00102028004E002884FF6FE731D
:104E30001A400280704731B1B0F8442042F4004279
:104E4000A0F8442005E0B0F84420C2F30E02A0F818
:104E500044207047F0B50C4615461E46002100223E
:104E600000230189028B038C4FF6F87739402143E8
:104E70004FF6FC473A4040F201173A434FF6DD77D0
:104E80003B404FF6FF7707EA06172F433B4301816C
:104E900002830384F0BD0146888C704730B502461A
:104EA000002000230024158A05EA0103958905EAFC
:104EB000010413B10CB1012000E0002030BD1AB193
:104EC00083890B43838102E083898B43838170470D
:104ED00070B5002400220023058C4FF6FE76354085
:104EE0000584028C8388048B4FF68F752C40B51E89
:104EF0002C400D882C43751E2A400D892A434D886D
:104F00002A43144DA8420BD0134DA84208D0134D8C
:104F1000A84205D0124DA84202D0124DA84213D18A
:104F20004FF6F7752A404D892A434FF6FB752A4004
:104F30008D882A434FF6FF652B404FF6FF552B40D7
:104F40008D892B43CD892B4383800483CD8885862F
:104F5000028470BD002C014000340140004001403B
:104F6000004401400048014070B5002400220023A5
:104F7000058C4FF6EF7635400584028C8388048BD0
:104F800048F6FF752C404FF6FF452C400D884FF634
:104F9000FF7606EA05252C434FF6DF752A400D897A
:104FA00006EA05152A434D8806EA05152A43154DDC
:104FB000A84202D0144DA8421DD14FF67F752A4059
:104FC0004D894FF6FF7606EA05152A434FF6BF7561
:104FD0002A408D8806EA05152A434FF6FF352B40F7
:104FE0004FF2FF752B408D8906EA85052B43CD894D
:104FF00006EA85052B4383800483CD8805870284D8
:1050000070BD0000002C01400034014000210180EF
:1050100041808180C180018141818181C18170474E
:10502000818670470187704781847047002202881B
:105030001D4B98420ED01D4B98420BD0B0F1804FC3
:1050400008D01B4B984205D01A4B984202D01A4BFD
:10505000984204D14FF68F731A404B881A43174B6E
:10506000984207D0164B984204D04FF6FF431A409F
:10507000CB881A4302808B8883850B8803850A4B73
:1050800098420BD0094B984208D00E4B984205D05D
:105090000D4B984202D00D4B984201D10B7A0386FA
:1050A0000123838270470000002C0140003401403E
:1050B0000004004000080040000C004000100040C8
:1050C00000140040004001400044014000480140FD
:1050D0001FB501210420FFF7A1FC0020ADF80A0054
:1050E000ADF8060040F2E730ADF808004720ADF813
:1050F000040000208DF80C0001A91048FFF796FF6E
:10510000012211460D48FFF7DAFE4FF4A060FFF7C9
:10511000BFF91E208DF8000001208DF80300022049
:105120008DF8010000208DF802006846FFF778F93D
:1051300001210248FFF773FE1FBD00000008004078
:1051400010B540F225511D4800F0C9F810B31B48B6
:1051500000F080F9C4B21A48008800F40040C8B9D1
:105160001748008800F4804060B10A2C03D000206A
:105170001349088020E01248008840F4004010499C
:10518000088019E00D2C06D10D48008840F48040BD
:105190000B49088010E00A480088C0F30D00094957
:1051A0000C5407480088401C0549088008460088C0
:1051B000C72801DD0020088010BD00000038014034
:1051C00018000020A400002010B540F225513348FB
:1051D00000F085F8002860D0304800F03BF9C4B2F8
:1051E0002F48007820B1012813D0022853D141E084
:1051F000232C0DD100202B49087008460178007837
:10520000401C284A10702848445401202449087042
:1052100041E0212C0FD123480078202807DA2148CB
:1052200001780078401C1F4A10701F484454022027
:105230001B4908701DE0232C0BD100201949087070
:10524000084601780078401C164A107016484454ED
:105250000FE014480078202808DA12480178007816
:10526000401C104A10701048445402E000200C49C1
:10527000087010E0232C0DD100200A490870084660
:1052800001780078401C074A1070074844540120F8
:105290000349087000BF00BF00BF10BD00440040BC
:1052A0001F0000201E0000206C01002021B1828917
:1052B00042F40052828104E082894DF6FF731A4065
:1052C0008281704702460020B1F5007F00D100BF07
:1052D00013880B400BB1012000E00020704770B52F
:1052E0000246002400230025002040F66A16B14241
:1052F00000D100BFC1F3421501F01F03012606FAD9
:1053000003F3012D02D19689334006E0022D02D12C
:10531000168A334001E0968A33400C12012606FAC1
:1053200004F41688344013B10CB1012000E00020D1
:1053300070BDF0B50346002400260025002040F68D
:105340006A17B94200D100BF1846C1F3421401F0F8
:105350001F06012707FA06F5012C01D10C3004E0E5
:10536000022C01D1103000E014301AB107682F432D
:10537000076002E00768AF430760F0BD2DE9F04722
:1053800086B005460E460024A24600BFA14600276F
:10539000B08900B100BF2F462C8A4CF6FF70044044
:1053A000F08804432C82AC894EF6F3100440B08898
:1053B00031890843718908430443AC81AC8A4FF6B4
:1053C000FF400440B0890443AC8201A8FFF750FBC2
:1053D0001F48874202D1DDF810A001E0DDF80CA0E3
:1053E000A88900F4004040B10AEBCA0000EB0A10A3
:1053F00031684900B0FBF1F807E00AEBCA0000EBA6
:105400000A1031688900B0FBF1F86420B8FBF0F0B5
:1054100004012009642101FB1089A88900F40040DF
:1054200040B1322000EBC900B0FBF1F000F0070002
:10543000044308E0322000EB09106421B0FBF1F0D6
:1054400000F00F0004432C8106B0BDE8F087000097
:105450000038014001468888C0F308007047C1F356
:1054600008028280704700BFFEE7000030B5A5B09B
:1054700001210420FFF7E2FA01214804FFF7CEFAE8
:1054800003208DF892000420ADF8900018208DF8CC
:10549000930024A94348FEF797FB0820ADF890003D
:1054A00048208DF8930024A93E48FEF78DFB4FF469
:1054B000E13020900020ADF88C000C20ADF88A007F
:1054C0000020ADF88800ADF88600ADF8840020A972
:1054D0003548FFF753FF012240F225513248FFF7CC
:1054E00028FF4FF4A060FEF7D3FF26208DF87C0044
:1054F00001208DF87F008DF87D008DF87E001FA8BB
:10550000FEF78EFF01212848FFF7D0FE2748446AA6
:10551000FFF7A4FAE00FC4F38071C4F34072C4F340
:105520000073CDE90232CDE90410C4F38060C4F306
:10553000C06123461EA2CDE90010602107A8FAF73A
:1055400087FE07AD0BE000BF80211748FFF7BAFECA
:105550000028F9D015F8011B1348FFF780FF2878C1
:105560000028F0D1FFF76AFB00202149087021498B
:10557000087020212048FBF735F820A52C460BE0C9
:1055800000BF80210848FFF79DFE0028F9D014F8DD
:10559000011B0548FFF763FF20780028F0D125B0F4
:1055A00030BD0000000801400044004000100240EF
:1055B000424F4F54206373723D2530386C58205051
:1055C0004F523D25752050494E3D25752053465478
:1055D0003D257520495744473D2575205757444779
:1055E0003D2575204C5057523D25750D0A00000091
:1055F0001E0000201F0000206C010020564F464175
:105600005F494E49545F4F4B205553415254325FCE
:1056100052585F494E545F454E41424C45440D0A35
:105620000000000010B5044600BF80210448FFF7C9
:1056300049FE0028F9D021460148FFF710FF10BDB0
:105640000044004017B581B026A0006800902648AD
:10565000007818B124480078022836D101AC2078AF
:10566000FFF7E0FF6078FFF7DDFFA078FFF7DAFFD4
:10567000E078FFF7D7FF02AC2078FFF7D3FF607820
:10568000FFF7D0FFA078FFF7CDFFE078FFF7CAFF64
:1056900003AC2078FFF7C6FF6078FFF7C3FFA07860
:1056A000FFF7C0FFE078FFF7BDFF9DF80000FFF7B0
:1056B000B9FF9DF80100FFF7B5FF9DF80200FFF765
:1056C000B1FF9DF80300FFF7ADFF07480078012800
:1056D00003D005480078022803D101A807C8FFF7C6
:1056E00015FB1FBD0000807F2000002010B5044680
:1056F00004B910BD03E014F8010BFFF793FF207805
:105700000028F8D100BFF4E710B502460B4602B1FD
:105710000BB9002010BD1E480078022801D00020DF
:10572000F8E71C480078022806DA0020184C2070A0
:10573000184C20701070EDE717480078232806D128
:1057400014480078401E144C205C212806D000200C
:105750000F4C20700F4C20701070DBE7002104E02C
:105760000D48405C5054481CC1B20A480078401EA5
:10577000C0B2884203DD581EC0B28842F0DC00206F
:105780005054034C2070034C20700120C2E70000ED
:105790001F0000201E0000206C010020490050EA7C
:1057A000C12018BF04204A0D18BF40F0010040F28C
:1057B000FF72B2EB515F08BF40F00200012808BF42
:1057C000052070472DE9F0414F1E00EBC70104464C
:1057D000D1E9000115461E4637F006020DD02A46D3
:1057E000334603F02FFC7F1E04EBC703D3E90023ED
:1057F00003F09CF937F00602F1D1022F25D0042FD7
:1058000013D0062F18BFBDE8F0812A46334603F0B7
:1058100019FCD4E90A2303F089F92A46334603F038
:1058200011FCD4E9082303F081F92A46334603F03A
:1058300009FCD4E9062303F079F92A46334603F03C
:1058400001FCD4E9042303F071F92A46334603F03E
:10585000F9FBD4E9022303F069F92A46334603F041
:10586000F1FBD4E90023BDE8F04103F05FB9012268
:1058700004F0D8BA03F05AB9002213461046114674
:1058800003F010BA40F2013200204FF0E04104F082
:10589000C9BA0000024A0020110704F0C3BA000090
:1058A00001FDFFFF10B50446D1E9000100F002F848
:1058B000206010BDF8B504460D466A4601F0F6F9C1
:1058C00000987E30009000281EDC002213462046FF
:1058D000294603F03FFB17D0002140F608004FF0A7
:1058E000000006462046294603F0EEF8044640F63E
:1058F000080006EA00014FF0000034F0004004BF49
:105900000220FAF738FF29E00098FF2828DB002161
:1059100008464FF0000000F44006002213462046DF
:10592000294603F08DFC8CBF002501250220FAF7E3
:1059300022FF4FF0FF4446B1002D0CBF4FF4000092
:105940004FF48000B04218BF084C042108464FF0C5
:105950000000002D04BF84F00040F8BD2046F8BDD3
:1059600020462946BDE8F84003F0AEB8FFFF7F7F30
:1059700010B504460A46D4E90003194601F01BFDA0
:10598000C4E9000110BD30380A2801D20120704757
:1059900000207047014600BF704700002DE9FE4F10
:1059A000074688460026684601F0ACF9002444E02A
:1059B00057F8240058F82410A0EB010ABAF1000FA0
:1059C00001DB514601E0CAF10001084604F016F877
:1059D00083464FF08F4103F0DFFE81465DF82400DF
:1059E000002103F09BFF18D05DF82410484603F017
:1059F000D3FE82464FF07E5104F068F9054600BFA1
:105A000025F0004082460F48416A504604F022F9D2
:105A100012D20120A04006430EE00A48C169484660
:105A200004F018F805D30748016A484604F012F953
:105A300002D20120A0400643641C032CB8DB304690
:105A4000BDE8FE8FD4A400082DE9F04D8D4F21F064
:105A5000004A86B005460C46BA452ADBAAEB070089
:105A600028430AD08848824501DC1AD1CDB106B05E
:105A70002846BDE8F04DFFF7FABE844A844B28461D
:105A800003F0E0FA07460E46824A834B2846214639
:105A900003F0D8FA06B03A463346BDE8F04D03F0BD
:105AA00045B80120FAF767FE06B0BDE8F04DFFF7F4
:105AB000E3BE7A48824542DABAF1795F0BDA2846CA
:105AC000FFF76CFE042808BFFFF7E4FE284606B087
:105AD0002146BDE8F08D2A460B46104603F0B2FA87
