:020000040800F2
:10000000C82B002045010008DD1C0008930E0008E5
:100010006D1C0008930A0008672C0008000000000F
:100020000000000000000000000000007121000836
:10003000610D00080000000019200008852200085A
:100040005F0100085F0100085F0100085F01000810
:100050005F0100085F0100085F0100085F01000800
:100060005F0100085F0100085F0100085F010008F0
:100070005F0100085F0100085F0100085F010008E0
:100080005F0100085F0100085F0100085F010008D0
:100090005F0100085F0100085F0100085F010008C0
:1000A0005F0100085F0100085F0100085F010008B0
:1000B0005F0100085F010008E92200085F010008F5
:1000C0005F0100085F0100085F0100085F01000890
:1000D0005F0100085F0100081D2800085F0100089B
:1000E0005F0100085F0100085F0100085F01000870
:1000F0005F0100085F0100085F0100085F01000860
:100100005F0100085F0100085F0100085F0100084F
:100110005F0100085F0100085F0100085F0100083F
:100120005F0100085F0100085F0100085F0100082F
:10013000DFF80CD000F04AFC004800479D4500085D
:10014000C82B00200648804706480047FEE7FEE728
:10015000FEE7FEE7FEE7FEE7FEE7FEE7FEE7FEE777
:10016000892200083101000840EA01039B0703D0FF
:1001700009E008C9121F08C0042AFAD203E011F8E6
:10018000013B00F8013B521EF9D27047F0B480EAFF
:100190000102D40F4200B2EB410F02D202460846E0
:1001A00011464A0042D0C30DDDB2C1F3C752AD1AA9
:1001B000202D35DAC1F3160141F4000204B1524298
:1001C000C5F1200602FA06F12A411044B3EBD05FD4
:1001D00023D0C4B1012DA0EBC35009DCF0BC4FF01B
:1001E000004202EAC352DBB200F5000000F01BBB84
:1001F000400000F1807000EBC350A0F1807040EA35
:10020000D170490009E0490841EAC071A0EBC35030
:1002100000F50000400800EBC350F0BC00F0FABA53
:100220006142012202EB4101001BF6E7F0BC70477E
:1002300081F00041AAE780F00040A7E780EA0102D0
:1002400010B502F00043400022D04A001FD0010E3A
:1002500001EB1261C0F35600C2F3560240F40000F5
:1002600042F40002A0FB022000047F39140400D0F5
:10027000401C50EA124001D44000491EC2B20C0694
:1002800004EBD010401C4008802A02D003E000207C
:1002900010BD20F00100002900DA0020184310BD35
:1002A00030B480EA010202F0004530F0004221F053
:1002B000004013D090B1C30DD40DC2F31601C0F3AA
:1002C0001600E41A41F4000140F400027D3491422A
:1002D00001D3641C00E04900002C02DA30BC00208D
:1002E00070474FF400000023914201D3891A034361
:1002F00040084FEA4101F7D151B1914202D14FF08C
:10030000004105E002D24FF0010101E06FF0010170
:1003100003EBC450284430BC00F07CBA2DE9FE4FFA
:10032000804681EA0300C00F0C46009021F0004196
:1003300023F00045B8EB0200A94105D24046214612
:1003400090461C460B46024623F00040104347D01F
:10035000270DC7F30A00C3F30A510290401A019017
:1003600040286BDAC3F3130040F4801B00989246D8
:1003700020B10023D2EB030A63EB0B0B0198594623
:10038000C0F14002504600F014FA06460D465046B1
:100390005946019A00F02CFA10EB08006141002444
:1003A00087EA115284EAE7731A4340D0009A62B395
:1003B000019A012A4FEA075215DC001B61EB02018A
:1003C0004FF0004202EA0752CDE90042001C41F51D
:1003D000801132462B4600F063FA03B0BDE8F08F7F
:1003E00040462146F9E7001B61EB0201001C41F584
:1003F000801300185B412018A2F5001747EB03019A
:1004000040EAD570B6196D4111E06D084FEA360625
:1004100045EAC0754FEA0752001B61EB0201001C60
:1004200041F5801149084FEA300000195141324628
:100430002B4603B0BDE8F04F00F023BA009801222C
:1004400040000023D0EB020263EBE07300982146EA
:100450004FEAE074B8EB000061EB0401E9E783F0D8
:1004600000435BE781F0004158E72DE9FE4F81EA48
:10047000030404F0004421F0004100944FF0000B0D
:1004800023F0004350EA01045ED052EA03045BD03B
:10049000C3F30A54C1F30A552C44A4F2F334019473
:1004A000A0FB0254C1F3130141F48011C3F3130301
:1004B00043F4801301FB024400FB034E840A970AB5
:1004C00044EA815447EA8357A4FB076802958D0AE2
:1004D00005FB07854FEA932C04FB0C542705029D6E
:1004E0004FEA065847EA1637B5EB08056EEB070CDE
:1004F000870E920E47EA811742EA8312A7FB020198
:10050000B6EB0B0164EB00042B0D43EA0C335E18D1
:1005100044EB1C50DA465146E7FB0201C5F31304D5
:100520004FEA0B3343EA14534FEA0432019C43EA87
:100530000603A4F10C040294009CCDE900B400F081
:10054000AFF903B0BDE8F08F00200146F9E72DE9CF
:10055000F04D81EA030404F0004B21F000451446FD
:100560004FF0000A23F0004150EA050220D054EA7F
:1005700001021DD0C5F30A570246C5F31303C1F3A8
:100580001300C1F30A5640F4801543F48013A7EB1F
:100590000608101BD64608F2FD3873EB050002D39F
:1005A00008F1010801E092185B41B8F1000F03DA8D
:1005B00000200146BDE8F08D00204FF48011064672
:1005C00084460EE0171B73EB050705D3121B63EB84
:1005D000050306434CEA010C49084FEA3000921823
:1005E0005B4150EA0107EDD152EA030012D082EAE2
:1005F000040083EA0501084305D0101BAB4106D275
:100600000122002306E000224FF0004302E06FF0D9
:10061000010253101AEB06004CEB085110EB0A00D4
:1006200041EB0B01BDE8F04D00F02BB9C10F80EAA2
:10063000E0700844CA079623002100F0F4B896231E
:100640000022114600F0EFB80EB5C10F80EAE0704D
:100650000844CA07002140F233438DE80E000A46E1
:100660000B4600F01DF903B000BD00F0004220F081
:100670000040C10DC0F3160040F400007F2901DAEC
:1006800000207047962903DCC1F19601C84001E0C3
:1006900096398840002AF4D04042704700F000426A
:1006A00030F000400AD0C10D01F56071C0F31600B2
:1006B00042EA0151C2084007114370470020014639
:1006C000704701F0004330B421F0004150EA0102CC
:1006D00006D00A0DA2F56072C1F31301002A02DCF4
:1006E00030BC00207047440F44EAC104C100E01848
:1006F00030BC00EBC25000F08DB80000002801DBD8
:10070000C0F10040002901DBC1F100418142704786
:10071000002801DBC0F10040002901DBC1F10041EC
:100720008842704730B50B46014600202022012444
:1007300009E021FA02F59D4205D303FA02F5491BAF
:1007400004FA02F52844151EA2F10102F1DC30BDC5
:100750002DE9F05F0546002092469B4688460646F6
:10076000814640241BE0284641464746224600F089
:100770002FF853465A46C01A914110D311461846D5
:10078000224600F016F82D1A67EB01084F46224664
:100790000120002100F00DF817EB00094E41201E4A
:1007A000A4F10104DFDC484631462A464346BDE851
:1007B000F09F202A04DB203A00FA02F10020704763
:1007C0009140C2F1200320FA03F31943904070478F
:1007D000202A04DB203A21FA02F00021704721FA96
:1007E00002F3D040C2F120029140084319467047FD
:1007F000202A06DBCB17203A41FA02F043EAE073E5
:1008000006E041FA02F3D040C2F1200291400843D1
:10081000194670470029A8BF7047401C490008BF0F
:1008200020F00100704710B4B0FA80FC00FA0CF020
:1008300050EA010404BF10BC704749B1CCF1200458
:1008400021FA04F411FA0CF118BF012121430843E5
:10085000A3EB0C01CB1D4FEA00614FEA102042BF11
:10086000002010BC704700EBC35010440029A4BF07
:1008700010BC7047401C490008BF20F0010010BCAC
:10088000704710B5141E73F1000408DA401C41F1E2
:10089000000192185B411A4301D120F0010010BD04
:1008A0002DE9F04D92469B4611B1B1FA81F202E07A
:1008B000B0FA80F220329046FFF77BFF04460F46E5
:1008C00040EA0A0041EA0B0153465A46084313D056
:1008D000114653EA010019D0C8F140025046FFF713
:1008E00077FF05460E46504659464246FFF761FFE0
:1008F000084305D0012004E020463946BDE8F08DCC
:100900000020054346EAE0762C4337430A98630506
:10091000E40AA0EB08000022FD0A44EA47540A302A
:1009200002D500200146E9E7010510196941DDE91A
:10093000084500196941BDE8F04DA2E770B521F006
:10094000004303430CD0C1F30A550024D5EB040542
:1009500064EB0403D617AD1AB34102DB0020014655
:1009600070BD201841EB025170BDC1F30A52C1F3B2
:10097000130140F2FF3341F480119A4202DA002061
:100980000146704740F233439A42A2F2334202DCFE
:100990005242FFF71DBFFFF70CBF000030B5041E29
:1009A00071F1000404DB4FF00044404264EB0101AC
:1009B000141E73F1000405DB1C464FF00043524245
:1009C00063EB0403994208BF904230BD064C074DCB
:1009D00006E0E06840F0010394E80700984710340F
:1009E000AC42F6D3FFF7A8FBD04D0008F04D00084D
:1009F0002DE9F04D00231A461B1A8A4103DB002023
:100A00000146BDE8F08DC1F30A52C1F3130141F470
:100A100080154FF0000BD10702D100186D41521E16
:100A20000027044640F2FF11384601EB620A3E46B9
:100A30008046024600204FF48011FFF7C9FEC2191C
:100A40007141BB1846EB0100B4EB030C75EB000CD5
:100A500004D3E41A65EB000517460E46241908F185
:100A600001006D4180463428E3DDF91946EB0600AC
:100A7000091BA84103D24FF0FF32134601E00022C8
:100A800013461BEB070046EB0A51BDE8F04DFFF79C
:100A9000F8BE00BFFEE710B5044604F1180104F1EA
:100AA000780002F0F3FD04F1380104F1B00002F027
:100AB000EDFD04F1580104F1E80002F0E7FD10BD7E
:100AC00010B50446204600F023F8002084F84801C1
:100AD000C4F8200100214FF492700151001D015112
:100AE000001D0151001D0151001D0151001D01514A
:100AF000001D0151001D0151001D0153801C0153B7
:100B00002046FFF7C8FF204600F056F810BD000051
:100B100010B504461B482060002060604FF0804004
:100B2000A0601948E0601E2020823C2060828C205A
:100B3000A0821648A0610021E1612162144961622E
:100B40001449A1621449E162144921634FF07A51BA
:100B500061631248A0631249E163002121641149D5
:100B600061641149A1641149E16411492165114988
:100B70006165202204F1380104F15800FFF7F4FA0E
:100B800010BD00000000F0423333B33E9A99193E85
:100B90000000C8C20000C842000020C1000020417F
:100BA0000AD7233D00409CC500409C4500007AC404
:100BB00000007A44CDCC4C3E10B5044604F17800D8
:100BC00001F0F0F804F1B00001F0ECF804F1E800F5
:100BD00001F0E8F800214FF496700151001D015119
:100BE000001D0151001D0151001D0151001D015149
:100BF000001D0153801C015310BD70B504460D4605
:100C0000C4F820514FF4927005510021001D01518C
:100C1000001D0151001D0151012084F8480104F11B
:100C2000780001F0BFF870BD2DE9FF4F81B0044698
:100C30000F469046DDE910ABDDF83C904246394660
:100C40002046049B00F07BF84FF49670015904F1A4
:100C5000780001F0E5F84FF4987108510A461159EF
:100C60002068FFF7E5FA4FF49A7108510A1F1159ED
:100C70002068FFF78BFA4FF49C710851081D025948
:100C8000081F015904F1B00001F0B9F80090FFF716
:100C9000ECFC05464FF4A07002594FF49C700159CA
:100CA00004F1E80001F0ABF80090FFF7DEFC064627
:100CB000B4F910002D1AB4F910000644B4F912204A
:100CC000B4F9441128B203F043FE4FF4A271085363
:100CD000B4F91220B4F9461130B203F039FE4FF4E2
:100CE000A3710853B4F91400002811DDB4F91410ED
:100CF000B4F9440102F0B5FC4FF4A2710853B4F901
:100D00001410B4F9460102F0ACFC4FF4A37108537F
:100D10004FF4A270015B0E9801804FF4A370005B4A
:100D2000A9F800004FF496700059CAF800004FF47B
:100D300098700059CBF8000005B0BDE8F08F2DE9A0
:100D4000F04106460F4614461D463946304603F02C
:100D500012FF2A462146304603F0BCFEBDE8F08172
:100D600070472DE9F04102460025002600200023AF
:100D70000024002791F803C00CF00F0591F803C080
:100D80000CF0100CBCF1000F03D091F802C04CEA3B
:100D9000050591F800C0BCF1000F31D014680020A7
:100DA0002BE04FF0010C0CFA00F3B1F800C00CEA94
:100DB00003069E4220D183004FF00F0C0CFA03F77C
:100DC000BC4305FA03FC4CEA040491F803C0BCF1EF
:100DD000280F06D14FF0010C0CFA00FCC2F814C029
:100DE0000AE091F803C0BCF1480F05D14FF0010CA7
:100DF0000CFA00FCC2F810C0401C0828D1D31460C3
:100E0000B1F800C0BCF1FF0F34DD546800202EE0C3
:100E100000F1080C4FF0010808FA0CF3B1F800C01B
:100E20000CEA03069E4221D183004FF00F0C0CFA0E
:100E300003F7BC4305FA03FC4CEA040491F803C031
:100E4000BCF1280F05D100F1080C08FA0CF8C2F823
:100E5000148091F803C0BCF1480F07D100F1080CD1
:100E60004FF0010808FA0CF8C2F81080401C08285E
:100E7000CED35460BDE8F0810246002093680B4059
:100E80000BB1012000E00020704741617047016113
:100E9000704700BFFEE7000010B500200F49086052
:100EA0000F48006820F470000D490860084600688B
:100EB00040F4E000086000200A49C1F8B4010220B3
:100EC00003F01EFA012005490860022003F018FA19
:100ED00000200449C1F8B00110BD0000B0812142DA
:100EE000040C01400080214208B50121082001F0D6
:100EF000B5F84FF44050ADF8000014208DF8030011
:100F000003208DF8020069460148FFF72AFF08BD5B
:100F1000000C014010B500200F4908600F48006820
:100F200020F470000D4908600846006840F4E000B5
:100F3000086001200A49C1F8B401022003F0E0F979
:100F4000012005490860022003F0DAF90020044975
:100F5000C1F8B00110BD0000B0812142040C014075
:100F60000080214270B5054600241748006820F42F
:100F70007000154908600846006840F48000086069
:100F8000002616E0002011490860022003F0B8F99D
:100F900001200F49C1F8B0016006040E0B487C38EF
:100FA000006808B1601CC4B2022003F0A9F9701CEB
:100FB000C6B2082EE6DB15B1FFF76EFF01E0FFF7C2
:100FC000A9FF204670BD0000040C0140B081214201
:100FD0000080214270B504461548006820F4700076
:100FE000134908600846006840F4E00008600020EB
:100FF00010490860002517E0E0090E49091D086046
:101000006006040E022003F07BF901200A49C1F8B2
:10101000B001022003F074F90020064908600220A4
:1010200003F06EF9681CC5B2082DE5DB70BD000049
:10103000040C0140B08121420080214210B50F48CC
:10104000006820F470000D4908600846006840F40C
:10105000E000086001200A4908600A49C1F8B001AF
:10106000042003F04DF9002005490860042003F036
:1010700047F900200349C1F8B00110BD040C01403C
:10108000B48121420080214210B50F48006820F44D
:1010900070000D4908600846006840F4E0000860F0
:1010A00000200A4908600A49C1F8B401042003F08D
:1010B00027F90120054908600549C1F8B401042059
:1010C00003F01EF910BD0000040C0140B081214264
:1010D0000080214210B500241548006820F47000FB
:1010E000134908600846006840F480000860012049
:1010F0001049086003F004F901200F49C1F8B0015C
:1011000003F0FEF80AE0601CC4B2322C03DDFFF7E6
:10111000BBFF012010BD012003F0F2F80548803824
:1011200000680028EFD10349091F086000BFF1E7FC
:10113000040C0140B4812142008021422DE9F04796
:1011400006460F46154698460024FFF777FF3046BF
:10115000FFF740FFFFF7BEFF3846FFF73BFFFFF703
:10116000B9FFFFF76BFF711CC8B2FFF733FFFFF742
:10117000B1FF00BF0FE0681EA04204D00120FFF7BE
:10118000F1FE814603E00020FFF7ECFE814608F8FF
:101190000490601CC4B2AC42EDDBFFF775FF204643
:1011A000BDE8F0872DE9F04180460D4616461F4602
:1011B0000024FFF743FF4046FFF70CFFFFF78AFFCD
:1011C0002846FFF707FFFFF785FF00BF06E0385D01
:1011D000FFF700FFFFF77EFF601CC4B2B442F6DBEE
:1011E000FFF752FF0120BDE8F08100000FB59DB070
:1011F000FE4801680068FFF721F81090FC4801687C
:10120000FA480068FFF71AF80F90FA480168F748A3
:101210000068FFF713F80E90F7480168F34800687C
:10122000FFF70CF80D90F24801680068FFF706F828
:101230000C90F0480168EE480068FEF7FFFF0B9045
:10124000ED480168EA480068FEF7F8FF0A90E948AF
:1012500001680068FEF7F2FF0990E7480168E54879
:101260000068FEF7EBFF0890E34801680068FEF7AE
:10127000E5FF0790E1480068E1490860084600681A
:10128000E0490968884210D2DE4800684FF6FF71D5
:10129000081ADB49096808440590FFF7D0F9DA49D4
:1012A0000690FEF7FDFF15900CE0D5480068D54983
:1012B0000968401A0590FFF7C2F9D3490690FEF776
:1012C000EFFF1590CE480068CE4908602399084684
:1012D000FEF7B4FF059022990846FEF7AFFF039092
:1012E00020990846FEF7AAFF02900399FEF74EFFE9
:1012F00004900599FEF74AFF069003F0CBF81C9086
:101300001C992098FEF79AFF20901C992298FEF7CE
:1013100095FF22901C992398FEF790FF2390269921
:101320000846FEF78BFF059025990846FEF786FFD5
:10133000039024990846FEF781FF02900399FEF777
:1013400025FF04900599FEF721FF069003F0A2F80F
:101350001C901C992498FEF771FF24901C992598E5
:10136000FEF76CFF25901C992698FEF767FF2690E4
:101370000E990A98FEF75CFF4FF080410690FEF749
:101380005DFF1B9008990F98FEF700FF4FF080411A
:101390000690FEF753FF1A900C991098FEF748FF3D
:1013A00005900999FEF744FF06900799FEF7EEFEB7
:1013B0001990904801680068FEF740FF04908E483D
:1013C00001680068FEF73AFF03900499FEF7DEFE1D
:1013D0004FF080410590FEF731FF4FF07E510690AF
:1013E000FEF729FF89490860824801688048006843
:1013F000FEF724FF05907D48006880F000400390D0
:101400007D4801680398FEF719FF04900599FEF7DF
:10141000BDFE4FF080410690FEF710FF7B4948600B
:101420007548016872480068FEF708FF059071482A
:1014300001686E480068FEF701FF04900599FEF709
:10144000F7FE4FF080410690FEF7F8FE6F49886086
:101450006848016866480068FEF7F0FE0590664837
:10146000016862480068FEF7E9FE04900599FEF7FE
:101470008DFE4FF080410690FEF7E0FE6449086063
:101480005B4801680068FEF7D9FE04905A4801687D
:101490000068FEF7D3FE03900499FEF777FE4FF045
:1014A00080410590FEF7CAFE4FF07E510690FEF790
:1014B000C2FE57494860504801684E480068FEF730
:1014C000BDFE05904948006880F000400390484800
:1014D00001680398FEF7B2FE04900599FEF756FEE8
:1014E0004FF080410690FEF7A9FE494988601A999D
:1014F0002398FEF7A3FE069019992298FEF79EFE08
:1015000005900699FEF794FE189019992098FEF719
:1015100095FE06901B992398FEF790FE059006997C
:10152000FEF786FE17901B992298FEF787FE06901D
:101530001A992098FEF782FE05900699FEF778FE2C
:10154000169000211898FFF7D9F86BD00021179852
:10155000FFF7D4F866D000211698FFF7CFF87DD0BA
:101560002C491898FEF76AFE05901599FEF766FE5D
:101570000690294801680698FEF708FE264908608B
:1015800024491798FEF75AFE05901599FEF756FE66
:101590000690224801680698FEF7F8FD1F4908608A
:1015A0001C491698FEF74AFE05901599FEF746FE6F
:1015B00006901B4801680698FEF7E8FD1849086088
:1015C0004FF07C501899FEF739FE05901D99FEF7F3
:1015D000DDFD0690104801680698FEF7D7FD1D90C6
:1015E0004FF07C501799FEF729FE1CE024000020E4
:1015F000280000202C000020300000205C0000208B
:10160000400000203C00002000409C46C00000201C
:10161000CC0000206F12833A180000201C0000202C
:10162000200000201AE005901E99FEF7AFFD0690FD
:10163000724801680698FEF7A9FD1E904FF07C5095
:101640001699FEF7FBFD05901F99FEF79FFD06908A
:101650006B4801680698FEF799FD1F9069481F992D
:101660000068FEF7EBFD049067481E990068FEF7DE
:10167000E5FD02906548006880F0004000901D99EB
:10168000FEF7DCFD01900299FEF7D2FD039004996C
:10169000FEF7CEFD05901599FEF7D0FD06905C484B
:1016A00001680698FEF772FD149056481E9900686E
:1016B000FEF7C4FD049054481F990068FEF7BEFD74
:1016C0000290534801681D98FEF7B8FD01900299F9
:1016D000FEF75CFD03900499FEF7AAFD05901599AD
:1016E000FEF7ACFD0690494801680698FEF74EFDEE
:1016F0001390444801681D98FEF7A0FD04904348EC
:101700001F990068FEF79AFD029041481E990068F3
:10171000FEF794FD01900299FEF78AFD039004996B
:10172000FEF734FD05901599FEF788FD06903648C2
:1017300001680698FEF72AFD1290334801681D984B
:10174000FEF77CFD049031481E990068FEF776FD97
:1017500002902F481F990068FEF770FD01900299D2
:10176000FEF714FD03900499FEF762FD05901599AC
:10177000FEF764FD0690234801680698FEF706FD13
:10178000119011990846FEF759FD059012990846E7
:10179000FEF754FD039013990846FEF74FFD0190A4
:1017A00014990846FEF74AFD00900199FEF7EEFCF9
:1017B00002900399FEF7EAFC04900599FEF7E6FC17
:1017C000069002F067FE1C901C991498FEF736FDF7
:1017D0000F4908601C991398FEF730FD0B4908600B
:1017E0001C991298FEF72AFD074908601C99119868
:1017F000FEF724FD0349086021B000BD1C00002055
:1018000020000020300000202C00002028000020B4
:10181000240000202DE9F04186B00446224800F063
:1018200051F8214948692149FEF708FD80462049C1
:10183000FEF736FD05461C4908691C49FEF7FEFC0B
:1018400080461B49FEF72CFD06461749C868174914
:10185000FEF7F4FC80461649FEF722FD07461248C3
:10186000006A1149C969104A92690F4B9B68CDE91A
:101870000132CDE903100C48406800900A482A461E
:10188000314603683846FFF7B1FC0A48006820601B
:1018900009480068606009480068A060084800685E
:1018A000E06006B0BDE8F081741D0020DB0F494008
:1018B0000000344324000020280000202C000020D9
:1018C0003000002010B58CB0044606A909A802F02B
:1018D000BFFA2E49099808600A9848600B988860FA
:1018E0000698C860079808610898486100208861D8
:1018F0006B4603AA642125480C3002F035FB2449CD
:101900000398FEF7FBFE1ED221490498FEF7F6FE6F
:1019100019D21F490598FEF7F1FE14D21D48006840
:10192000632810DB1C490098086001984860029801
:101930008860002019490860194908601949086041
:101940001449086008E013480068642804DA114864
:101950000068401C0F490860099820600A98606080
:101960000B98A0600C4A11680698FEF761FCE060D5
:10197000094A51680798FEF75BFC2061064A9168A6
:101980000898FEF755FC60610CB010BDEC0000201B
:101990000AD7A33C50000020681D0020180000203A
:1019A0001C000020200000202DE9F04F8FB00446DD
:1019B00000200A90099008900BA8FFF72BFF4FF02A
:1019C00080400E99FEF73AFC00900E99FEF736FC27
:1019D00083464FF040400D99FEF730FC00900D9982
:1019E000FEF72CFC59460190FEF722FC82464FF090
:1019F0007E51FEF7CBFB8146FEF750FE0746884638
:101A00004FF080400B99FEF719FC01900E99FEF7FC
:101A100015FC82464FF080400C99FEF70FFC0190B8
:101A20000D99FEF70BFC83465146FEF7AFFB81464E
:101A3000FEF734FE3A464346CDE9020102F08AF849
:101A400081F0004105460022494BFEF70EFD4FF0A4
:101A5000C042484BCDE90401FEF779FDCDE906010E
:101A6000FEF72FFE20604FF080400B99FEF7E6FB5B
:101A700003900D99FEF7E2FB82464FF040400C992F
:101A8000FEF7DCFB03900E99FEF7D8FB8346514628
:101A9000FEF77CFB8146FEF701FECDE9040101F073
:101AA00011FE81F0004107460022314BFEF7DDFCBC
:101AB00005464FF0C0422F4BFEF749FDCDE9060128
:101AC000FEF7FFFD60604FF080400D99FEF7B6FB1A
:101AD00083460D99FEF7B2FB81464FF040400C99CA
:101AE000FEF7ACFB83460C99FEF7A8FB82464946FD
:101AF000FEF79EFB06464FF07E51FEF747FB05467C
:101B0000FEF7CCFDCDE902014FF080400B99FEF7C6
:101B100095FB82460C99FEF791FB06464FF08040FC
:101B20000D99FEF78BFB82460E99FEF787FB8146E7
:101B30003146FEF72BFB0546FEF7B0FDCDE900016F
:101B4000DDE9022302F006F807460022084BFEF703
:101B50008CFC4FF0C042074BCDE90401FEF7F7FCC7
:101B6000CDE90601FEF7ADFDA0600FB0BDE8F08F36
:101B700000806640FB21094010B502F011F9D8B988
:101B800000F03CF84FF07E500E49086000200E49EE
:101B900008600E4908600E4908600E4908600E4949
:101BA00008600E4908600E4800680E4908600C483D
:101BB00000680D49086010BD0CA001F057F800BF87
:101BC000F9E7000024000020280000202C0000205D
:101BD00030000020180000201C0000202000002001
:101BE0005C0000203C00002040000020494D5520B2
:101BF0004552524F5221210D0A0000001FB501210C
:101C0000042000F00BFA184800F0B4FB6320ADF894
:101C100008004720ADF804000020ADF80A00ADF838
:101C2000060001A9104800F09DFD01210E4800F0BA
:101C30007FFB012211460C4800F0C5FC01210A4837
:101C400000F07CFB4FF4C06000F082F81E208DF89D
:101C5000000001208DF801008DF802008DF80300CE
:101C6000684600F03DF81FBD0008004000BFFEE7D9
:101C700010B5044624B101210448FFF708F903E038
:101C800001210248FFF701F910BD0000000C0140DE
:101C900038B5044601210D2000F0E0F910208DF840
:101CA000030003208DF802003020ADF800006946E3
:101CB0000848FFF756F840F20340ADF800006946C7
:101CC0000548FFF74EF80020FFF7D2FF204600F04E
:101CD00035F938BD00080140000C01407047000094
:101CE00070B5002100230F22C47804B3154C24687A
:101CF00004F4E064C4F5E064210AC1F10403CA40BD
:101D0000447804FA03F184781440214309010E4C0D
:101D10000678A155047804F01F050124AC4005782D
:101D20006D11AD0005F1E025C5F8004109E004782A
:101D300004F01F050124AC40044D0678761145F8E7
:101D4000264070BD0CED00E000E400E080E100E022
:101D500002490143024A1160704700000000FA0581
:101D60000CED00E030B5039C016042608360C4600C
:101D700000250561094D4561094D85610025C56155
:101D800005624FF07E554562044D8562044DC56283
:101D90000025056380F8345030BD000000007AC48F
:101DA00000007A4400210161C1610162016380F891
:101DB0003410704770B504460D464FF07E52002136
:101DC000284602F02DFA606270BD70B504460D46DB
:101DD00016466561A661D4E90512206902F020FA71
:101DE000206170BD70B504460D461646A562E662D8
:101DF000D4E90A12206B02F013FA206370BD2DE9BA
:101E0000F04106460C46154629462046FEF710FAD4
:101E100007463946304600F003F8BDE8F08100007F
:101E20002DE9FE4F04460E46D4F80C90002148469A
:101E3000FEF764FC01D8DFF8009194F8340028B96B
:101E400000270025012084F8340015E03046E169C0
:101E5000FEF7EEF983464946FEF722FA0746384672
:101E6000216AFEF7E5F90290616AFEF7E7F9834619
:101E7000216AFEF78BF90546256249463046FEF792
:101E8000DDF983462169FEF781F980464046D4E9B1
:101E9000051202F0C5F98046216AA068FEF7CEF966
:101EA000029041466068FEF7C9F90190314620680A
:101EB000FEF7C4F900900199FEF768F9834602998C
:101EC000FEF764F982465046E16AFEF721FC04D22F
:101ED00000213046FEF71CFC09D35046A16AFEF7EC
:101EE0000DFC1DD200213046FEF708FC18D2D4F8B4
:101EF0001080216AA068FEF7A1F90290414660684F
:101F0000FEF79CF9019031462068FEF797F90090A2
:101F10000199FEF73BF983460299FEF737F98246AD
:101F2000C4F81080E6615046D4E90A1202F078F94C
:101F30002063206BBDE8FE8F0AD7233C10B588B024
:101F40000446012140F6040000F088F84FF4407088
:101F5000ADF81C0003208DF81E0018208DF81F001E
:101F600007A92148FEF7FDFE04A800F04DFC47201C
:101F7000ADF810000020ADF81200ADF81440ADF837
:101F800016008DF8180004A9184800F0EBFB68460D
:101F900000F0D7FB6020ADF800000120ADF8020092
:101FA0000020ADF80600ADF8080069460F4800F0C3
:101FB00013FB08210D4800F05BFB69460B4800F05D
:101FC00061FB0821094800F0AFFB0121074800F040
:101FD000A3F90121054800F0B1F90121034800F0FF
:101FE000B9F908B010BD000000080140002C014004
:101FF00010B504462146024800F0ADFB10BD0000BC
:10200000002C014010B504462146024800F0A5FB13
:1020100010BD0000002C01407047000029B1064AA5
:10202000D2690243044BDA6104E0034AD269824375
:10203000014BDA61704700000010024029B1064AE6
:1020400012690243044B1A6104E0034A1269824395
:10205000014B1A61704700000010024029B1064A86
:1020600092690243044B9A6104E0034A92698243F5
:10207000014B9A61704700000010024029B1064AE6
:10208000D2680243044BDA6004E0034AD268824318
:10209000014BDA60704700000010024030B50021AB
:1020A0000022002400232D4D6D6805F00C0121B1A4
:1020B000042905D0082923D105E0294D056022E037
:1020C000274D05601FE0254D6D6805F47012234D06
:1020D0006D6805F48034022505EB92421CB9214D50
:1020E000554305600BE01D4D6D6805F400351DB1CD
:1020F0001C4D5543056002E0194D5543056002E053
:10210000174D056000BF00BF144D6D6805F0F0016C
:102110000909154D6B5C0568DD4045600F4D6D6824
:1021200005F4E061090A104D6B5C4568DD4085608F
:102130000A4D6D6805F46051C90A0B4D6B5C45682A
:10214000DD40C560054D6D6805F44041890B074DC4
:102150006B5CC568B5FBF3F5056130BD001002404E
:1021600000127A0000093D007C0000208C00002055
:10217000704710B500F002F810BD00000CB500204B
:10218000019000903348006840F480303149086085
:1021900000BF3048006800F4003000900198401CF7
:1021A0000190009818B90198B0F5A06FF1D12948B5
:1021B000006800F4003010B10120009001E0002020
:1021C00000900098012843D12348006840F0100097
:1021D000214908600846006820F0030008600846AE
:1021E000006840F0020008601A48406819494860D9
:1021F0000846406848600846406840F4806048608F
:102200000846406820F47C1048600846406840F466
:10221000E81048600846006840F08070086000BF21
:102220000C48006800F000700028F9D009484068A8
:1022300020F00300074948600846406840F002006B
:10224000486000BF0348406800F00C000828F9D13E
:102250000CBD00000010024000200240042808D1FC
:102260004FF0E021096941F004014FF0E0221161D3
:1022700007E04FF0E021096921F004014FF0E0226E
:10228000116170477047000010B51348006840F0B6
:1022900001001149086008464068104908400E498D
:1022A0004860084600680E4908400B490860084627
:1022B000006820F4802008600846406820F4FE0092
:1022C00048604FF41F008860FFF753FF4FF0006035
:1022D0000449086010BD0000001002400000FFF833
:1022E000FFFFF6FE08ED00E010B50121084800F000
:1022F00059F960B107480068401C0649086001218F
:10230000034800F018F80121014800F011F810BD51
:10231000000800405C00002021B1028842F08002E9
:10232000028004E002884FF67F731A4002807047F3
:10233000CA4302827047CA430282704721B10288B1
:1023400042F00102028004E002884FF6FE731A4058
:102350000280704731B1B0F8442042F40042A0F846
:10236000442005E0B0F84420C2F30E02A0F8442057
:102370007047000010B504466848844208D1012126
:10238000C014FFF77BFE0021E014FFF777FEC4E0E6
:10239000B4F1804F08D101210846FFF74FFE00211C
:1023A0000120FFF74BFEB8E05D48844208D10121CF
:1023B0000220FFF743FE00210220FFF73FFEACE0C2
:1023C0005848844208D101210420FFF737FE00213C
:1023D0000420FFF733FEA0E05348844208D10121D6
:1023E0000820FFF72BFE00210820FFF727FE94E0CE
:1023F0004E48844208D101211020FFF71FFE002122
:102400001020FFF71BFE88E04948844208D10121D3
:102410002020FFF713FE00212020FFF70FFE7CE0B5
:102420004448844208D101214014FFF727FE0021CF
:102430006014FFF723FE70E03F48844209D1012178
:10244000C804FFF71BFE00214FF40020FFF716FE23
:1024500063E03A48844209D101210805FFF70EFEE6
:1024600000214FF48010FFF709FE56E03448844203
:1024700009D101214805FFF701FE00214FF40010AA
:10248000FFF7FCFD49E02F48844208D1012140209C
:10249000FFF7D4FD00214020FFF7D0FD3DE02A48A2
:1024A000844208D101218020FFF7C8FD002180204F
:1024B000FFF7C4FD31E02548844208D10121801591
:1024C000FFF7BCFD0021A015FFF7B8FD25E020486F
:1024D000844209D101210804FFF7D0FD00214FF407
:1024E0008030FFF7CBFD18E01A48844209D1012162
:1024F0004804FFF7C3FD00214FF40030FFF7BEFD95
:102500000BE01548844208D101218804FFF7B6FD8D
:1025100000214FF48020FFF7B1FD10BD002C0140D9
:102520000004004000080040000C00400010004083
:102530000014004000340140004C014000500140B4
:102540000054014000180040001C004000200040E2
:10255000004001400044014000480140F0B50C46F5
:1025600015461E460021002200230189028B038CA0
:102570004FF6F877394021434FF6FC473A4040F296
:1025800001173A434FF6DD773B404FF6FF7707EAF6
:1025900006172F433B43018102830384F0BD0146AC
:1025A000888C704730B50246002000230024158A2D
:1025B00005EA0103958905EA010413B10CB1012074
:1025C00000E0002030BD1AB183890B43838102E013
:1025D00083898B438381704770B5002400220023D8
:1025E000058C4FF6FE7635400584028C8388048B7B
:1025F0004FF68F752C40B51E2C400D882C43751E50
:102600002A400D892A434D882A43144DA8420BD0F5
:10261000134DA84208D0134DA84205D0124DA84230
:1026200002D0124DA84213D14FF6F7752A404D89BA
:102630002A434FF6FB752A408D882A434FF6FF65E3
:102640002B404FF6FF552B408D892B43CD892B43D3
:1026500083800483CD888586028470BD002C014070
:102660000034014000400140004401400048014066
:102670000A460021018B4FF6F7731940114301837D
:102680007047000070B5002400220023058C4FF62F
:10269000EF7635400584028C8388048B48F6FF75FD
:1026A0002C404FF6FF452C400D884FF6FF7606EA8A
:1026B00005252C434FF6DF752A400D8906EA0515DE
:1026C0002A434D8806EA05152A43154DA84202D033
:1026D000144DA8421DD14FF67F752A404D894FF603
:1026E000FF7606EA05152A434FF6BF752A408D8806
:1026F00006EA05152A434FF6FF352B404FF2FF75CA
:102700002B408D8906EA85052B43CD8906EA850590
:102710002B4383800483CD880587028470BD00002D
:10272000002C0140003401400A460021018B4FF289
:10273000FF7319404FF6FF7303EA02231943018325
:1027400070470021018041808180C18001814181E9
:102750008181C1817047818670470187704781847C
:1027600070470000002202881D4B98420ED01D4B7E
:1027700098420BD0B0F1804F08D01B4B984205D047
:102780001A4B984202D01A4B984204D14FF68F73DD
:102790001A404B881A43174B984207D0164B984261
:1027A00004D04FF6FF431A40CB881A4302808B882F
:1027B00083850B8803850A4B98420BD0094B9842BE
:1027C00008D00E4B984205D00D4B984202D00D4BCD
:1027D000984201D10B7A038601238382704700005F
:1027E000002C01400034014000040040000800407B
:1027F000000C004000100040001400400040014068
:1028000000440140004801404FF6FF7181800021E3
:102810000180C180418001727047000070B540F2B4
:1028200027714D4800F05AF9F0B14C4800884C49E6
:10283000098888420DD04B48484A1288815C464836
:1028400000F00DFA4548008802F0E8F84349088096
:1028500005E0002240F227713F4800F069F940F29C
:1028600027713D4800F0D0F840F225513A4800F079
:1028700035F900286FD0384800F0ECF9C4B23A4876
:10288000008802F09FF8054638480088854206D047
:1028900037483549098844543348058004E03548B1
:1028A0000068401C33490860A52C0DD132480078DF
:1028B00040F080003049087030490878411C2F4AA8
:1028C00011702F490C5437E05A2C1CD12A4800783B
:1028D00000F0800048B100202849087026480078A0
:1028E00020F040002449087006E024490878411C83
:1028F000224A117022490C541F48007820F08000B1
:102900001D49087018E01D490878411C1B4A1170C8
:102910001B490C541848007820F0800016490870B4
:102920001748007811460978884205D11248007886
:1029300040F040001049087010480078642804D125
:102940000E480078401E0D49087040F2255102489B
:1029500000F05AF800BF70BD00440040660000203F
:1029600064000020981D00206C0000206E000020F4
:1029700098250020700000207B0000207A000020B5
:102980006027002070B5044600BFEFF310800646B4
:1029900072B60D48008802F041F805460B480088E1
:1029A000854208D00A4808490988445406480580E9
:1029B00000F020F804E007480068401C0549086062
:1029C00006B962B670BD00006400002066000020F9
:1029D000981D00206800002010B5044604B910BD01
:1029E00003E014F8010BFFF7CDFF20780028F8D1A1
:1029F00000BFF4E710B5012240F22771014800F052
:102A000097F810BD0044004010B50022002340F6A6
:102A10006A14A14200D100BF0A1201249440A3B25B
:102A2000DC43048010BD21B1828942F400528281CE
:102A300004E082894DF6FF731A40828170470000DE
:102A400010B504462048844209D101218803FFF7CC
:102A500015FB00214FF48040FFF710FB32E01B48CC
:102A6000844209D101214804FFF7E8FA00214FF41C
:102A70000030FFF7E3FA25E01548844209D101212F
:102A80008804FFF7DBFA00214FF48020FFF7D6FA25
:102A900018E01048844209D10121C804FFF7CEFA9A
:102AA00000214FF40020FFF7C9FA0BE00A488442E6
:102AB00008D101210805FFF7C1FA00214FF4801069
:102AC000FFF7BCFA10BD0000003801400044004090
:102AD00000480040004C00400050004070B50246E5
:102AE000002400230025002040F66A16B14200D1E0
:102AF00000BFC1F3421501F01F03012606FA03F3DC
:102B0000012D02D19689334006E0022D02D1168AAA
:102B1000334001E0968A33400C12012606FA04F491
:102B20001688344013B10CB1012000E0002070BDC4
:102B3000F0B50346002400260025002040F66A1761
:102B4000B94200D100BF1846C1F3421401F01F067C
:102B5000012707FA06F5012C01D10C3004E0022C04
:102B600001D1103000E014301AB107682F4307601C
:102B700002E00768AF430760F0BD00002DE9F047B1
:102B800086B005460E460024A24600BFA146002797
:102B9000B08900B100BF2F462C8A4CF6FF7004406C
:102BA000F08804432C82AC894EF6F3100440B088C0
:102BB00031890843718908430443AC81AC8A4FF6DC
:102BC000FF400440B0890443AC8201A8FFF766FAD5
:102BD0001F48874202D1DDF810A001E0DDF80CA00B
:102BE000A88900F4004040B10AEBCA0000EB0A10CB
:102BF00031684900B0FBF1F807E00AEBCA0000EBCE
:102C00000A1031688900B0FBF1F86420B8FBF0F0DD
:102C100004012009642101FB1089A88900F4004007
:102C200040B1322000EBC900B0FBF1F000F007002A
:102C3000044308E0322000EB09106421B0FBF1F0FE
:102C400000F00F0004432C8106B0BDE8F0870000BF
:102C50000038014001468888C0F308007047C1F37E
:102C600008028280704700BFFEE700000FB4054BEA
:102C700010B503A9044A029800F05CF910BC5DF895
:102C800014FB00004144000874000020490050EA91
:102C9000C12018BF04204A0D18BF40F0010040F2C7
:102CA000FF72B2EB515F08BF40F00200012808BF7D
:102CB000052070472DE9F0414F1E00EBC701044687
:102CC000D1E9000115461E4637F006020DD02A460E
:102CD0003346FDF7CAFB7F1E04EBC703D3E900238D
:102CE000FDF71CFB37F00602F1D1022F25D0042F8F
:102CF00013D0062F18BFBDE8F0812A463346FDF7F2
:102D0000B4FBD4E90A23FDF709FB2A463346FDF755
:102D1000ACFBD4E90823FDF701FB2A463346FDF757
:102D2000A4FBD4E90623FDF7F9FA2A463346FDF75A
:102D30009CFBD4E90423FDF7F1FA2A463346FDF75C
:102D400094FBD4E90223FDF7E9FA2A463346FDF75E
:102D50008CFBD4E90023BDE8F041FDF7DFBA012286
:102D6000FDF7ECBDFDF7DABA002213461046114616
:102D7000FDF7EDBB024A00201107FDF7DFBD0000A3
:102D800001FDFFFF02E008C8121F08C1002AFAD1A6
:102D900070477047002001E001C1121F002AFBD1DB
:102DA0007047000001490860704700009000002053
:102DB0002DE9FF5F82B00021DDE90430020DDDF86E
:102DC00040B0034318D044F61050A2F2FF32424301
:102DD0001514119801281FD0A5EB0B00401C5FEAC9
:102DE000000A4FF000064E4FDFF83891B0465046CB
:102DF00015D5CAF1000413E0119801244AA3012853
:102E000001D16FEA0B010298119AC0E90031C0E9C3
:102E1000024206B0BDE8F09FCBF10000DFE70446B8
:102E20000021404A491842EB0450CDE9001012E05D
:102E3000E00707D032463B4640464946FDF715FBC2
:102E40008046894632463B4610461946FDF70DFB43
:102E500006460F466410002CEAD1DDE90401DDE9E5
:102E60000023BAF1000F06DAFDF7FFFA42464B469F
:102E7000FDF7FBFA05E0FDF76AFB42464B46FDF71E
:102E800066FB04460E460022284BFDF787FD03D85B
:102E90004FF0FF30014607E00022254B2046314627
:102EA000FDF73CFAFDF761FD102409E0002C0ADB78
:102EB0000A220023FDF74CFC039B30321A55641E96
:102EC00050EA0102F2D1641C039AC4F111031444C4
:102ED000119A012A03D0012208430DD10AE00843C8
:102EE00004D000204FF0110B119072E7A3EB0B05FB
:102EF0006D1E0DE05B4504DD4FF0000205F101059C
:102F000004E003DA4FF00002A5F10105002AECD03D
:102F100002981199C0E90231C0E9004579E7000043
:102F2000000014400000F03F300000000000F043BB
:102F30000000E03F2DE9FF4F95B09B4689460646CD
:102F400000250FE2252877D100242746F84A0121E1
:102F5000059400E0044316F8013F203B01FA03F01A
:102F60001042F7D130782A2811D06FF02F03307833
:102F7000A0F13002092A16D8059A44F0020402EBA7
:102F8000820203EB42021044761C0590EFE759F8E9
:102F9000042B0592002A03DA504244F400540590B1
:102FA00044F00204761C30782E2816D116F8010F52
:102FB00044F004042A280DD06FF02F023078A0F1DD
:102FC0003003092B09D807EB870302EB4303C7182B
:102FD000761CF3E759F8047B761C30786C280FD008
:102FE00006DC4C2817D068280DD06A2814D104E0DC
:102FF000742810D07A280FD10DE044F400140AE0B0
:1030000044F4801401E044F440147278824202D106
:1030100004F58014761C761C307866280BD013DCFF
:10302000582877D009DC002875D04528F6D04628E6
:10303000F4D047281AD19DE118E0632835D06428E0
:1030400079D0652812D195E1702873D008DC672803
:10305000F1D069286FD06E280DD06F2806D1B5E069
:1030600073282CD0752875D0782874D05A461799B3
:1030700090476D1C75E1C4F30250022809D0032863
:103080000DD0D9F8001004280DD00D6009F1040905
:1030900067E1D9F80010EA17C1E90052F6E7D9F85C
:1030A00000100D80F2E70D70F0E719F8041B8DF8A1
:1030B000001000208DF80100EA46012003E059F8D5
:1030C00004AB4FF0FF3061074FF0000102D40DE078
:1030D00008F101018846B9420FDA8045F8DB1AF899
:1030E00008100029F4D108E008F101018846814266
:1030F000FADB1AF808100029F6D105985B46A0EB18
:10310000080721463846179A00F094FA284400EB45
:10311000080507E04DE029E10DE01AF8010B5A46D9
:1031200017999047B8F10108F7D25B462146384617
:10313000179A13E142E00A220092C4F302524FF0C0
:10314000000A022A08D059F804CB032A4FEAEC718E
:103150000AD00DE029E02AE009F1070121F0070279
:10316000F2E802C1914609E00FFA8CFC4FEAEC71DB
:10317000042A03D14FFA8CFC4FEAEC71002907DADC
:103180000A460021DCF1000C61EB02012D2202E075
:10319000220504D52B228DF80420012203E0E2074A
:1031A00001D02022F7E7904659E00A2102E01022E0
:1031B0000DE010214FF0000A00910BE010224FF0BB
:1031C000000A44F004040827009203E008224FF0AC
:1031D000000A0092C4F30252022A05D059F804CB27
:1031E0000021032A08D009E009F1070121F00702B4
:1031F000F2E802C1914605E01FFA8CFC042A01D1D5
:103200000CF0FF0C4FF00008220728D5702806D0DC
:10321000009B83F0100353EA0A0305D00EE040221E
:103220008DF80420012208E05CEA010206D0302279
:103230008DF804208DF8050002229046009B83F053
:10324000080353EA0A030AD15CEA010201D16207CA
:1032500005D530228DF804204FF001087F1E582834
:1032600004D034A003900EA802900DE036A0F9E738
:1032700053466046009AFDF76BFA84460398825CD9
:103280000298401E029002705CEA0100F0D10298A0
:1032900006A9081A00F1200A600702D524F4803438
:1032A00000E00127574502DDA7EB0A0000E00020FF
:1032B00000EB0A01009005984144401A0590E00394
:1032C00006D45B462146179A059800F0B3F90544E9
:1032D000002706E001A85A46C05D179990476D1C6B
:1032E0007F1C4745F6DBE0030CD55B462146179A69
:1032F000059800F09FF9054404E030205A461799DC
:1033000090476D1C0099481E00900029F5DC08E0EC
:10331000029802995A460078491C029117999047E1
:103320006D1CBAF10001AAF1010AF1DC65E10000AF
:10333000092801003031323334353637383961628B
:10334000636465660000000030313233343536374F
:1033500038394142434445460000000000F058F926
:103360000544761C307800287FF4ECAD19B028466F
:10337000BDE8F08F620700D4062709F1070222F0AA
:10338000070CFCE80223E14603F000485FEA080C62
:1033900002D00FF2702C0DE05FEA045C02D50FF250
:1033A000682C07E05FEAC47C02D00FF2602C01E0D9
:1033B000AFF2700C4FF0FF3823F00043CDF850C04F
:1033C00065280CD006DC452809D046281DD04728A2
:1033D0003DD13DE0662818D067287ED138E0002135
:1033E000112F01DB112000E0781CCDE9000106A9B6
:1033F0000EA8FFF7DDFCDDE90F010E9A0391002115
:10340000009207F1010A04914DE04FF0004000974F
:10341000CDE9011006A90EA8FFF7CAFCDDE90F02ED
:1034200003920E9B11990022DDF80CA000930492E8
:1034300011B9791C00EB010AB7EB0A0004D4C0F102
:10344000FF3007F1010A0490AAEB0700019044E065
:10345000012F00DA01270021112F01DD112000E0EA
:103460003846CDE9000106A90EA8FFF7A1FCDDE969
:103470000F010E9A0391002104910092BA46210790
:103480000CD40399514500DA8A46BAF1010F05DDE3
:10349000009AAAF10101515C302908D0B84202DA41
:1034A00010F1040F06DA0121CDE9011015E0AAF1AF
:1034B0000101E9E7002805DC049901440491AAEB25
:1034C000000102E0411C514500DD8A460499401A82
:1034D000401C01904FF000400290200704D4019856
:1034E000504501DBCDF8048000208DF84F00029894
:1034F0000DF14F07B0F1004F25D02B200E90029810
:103500004FF0020800280CDA404202902D200E9065
:1035100007E00A210298FDF705F93031029007F81B
:10352000011DB8F10001A8F10108F2DC02980028A1
:10353000EFD1791E0E980870307800F0200040F02E
:10354000450007F8020D12A8C01B00F107081498E7
:10355000007800B1012000EB0A01019801EBE07155
:1035600005984144401A401E0590E00306D45B468E
:103570002146179A059800F05DF8054414980078E4
:1035800018B15A46179990476D1CE00324D55B4645
:103590002146179A059800F04DF805441CE0049860
:1035A000002807DBDDE90301884203DD0098405C69
:1035B000179901E0179930205A469047049805F171
:1035C0000105401C04900198401E019004D12E205A
:1035D0005A46179990476D1CBAF10001AAF1010AE9
:1035E000DDDC05E017F8010B5A46179990476D1C72
:1035F000B8F10001A8F10108F4DC5B462146179AF6
:103600000598ABE62D0000002B0000002000000014
:103610002DE9F041044600251E461746880404D4CF
:1036200005E039462020B0476D1C641EF9D52846B8
:10363000BDE8F0812DE9F041044600251E46904684
:10364000C80301D5302700E02027880404D505E011
:1036500041463846B0476D1C641EF9D52846BDE882
:10366000F0810246002A05DD8A4201DA08467047E9
:103670001046FCE7002A07DA5042884202DA484244
:1036800000B2F4E71046F2E70020F0E738B505464F
:103690000C460B480090284694E80E00FEF762FBAB
:1036A0002846D4E90312FEF790FB2846D4E9051218
:1036B000FEF798FB2846E169FEF77CFB38BD000069
:1036C0000AD7233C2DE9F04D8D4F21F0004A86B0FA
:1036D00005460C46BA452ADBAAEB070028430AD068
:1036E0008848824501DC1AD1CDB106B02846BDE834
:1036F000F04DFFF734BB844A844B2846FCF7B5FEF7
:1037000007460E46824A834B28462146FCF7ADFE0B
:1037100006B03A463346BDE8F04DFCF7FFBD012048
:10372000FFF740FB06B0BDE8F04DFFF71DBB7A4840
:10373000824542DABAF1795F0BDA2846FFF7A6FA3A
:10374000042808BFFFF716FB284606B02146BDE84F
:10375000F08D2A460B461046FCF787FE834602464C
:103760006E480E460B4606217844FFF7A3FA5A46E8
:103770003346FCF77AFE804669488A465A46334605
:1037800004217844FFF796FA5A463346FCF76DFE5B
:1037900000223B46FCF7C2FD02460B46404651461E
:1037A000FCF7D5FE2A462346FCF75FFE06B02A4604
:1037B0002346BDE8F04DFCF7B1BD284624F000419A
:1037C00000223D463B46FCF74DFE4FF0FF32FDF731
:1037D000B5F80646024653480F460B460621784484
:1037E000FFF768FA32463B46FCF73FFECDE90001A1
:1037F0004D4832463B4604217844FFF75BFA324697
:103800003B46FCF732FE00222B46FCF787FD834641
:1038100002913046394601F0DBF8804643480D46B8
:10382000504517DCDDE900015A46029BFCF78FFE8C
:1038300042462B46FCF719FE42462B46FCF76EFD2E
:103840000122FDF77BF8304A304BFCF708FE304A86
:10385000304B4CE04FF0000A52460B464046FCF716
:103860005DFDCDE9031052462B4610461946FCF784
:10387000FCFD32463B46FCF7F5FDDDE90332FCF783
:1038800066FE06460F46DDE900015A46029BFCF73C
:103890005EFE83460091012230463946FDF74EF820
:1038A000194A1A4BFCF7DEFD06460F460122404638
:1038B0002946FDF743F85A46009BFCF7D6FD3246F1
:1038C0003B46FCF7CCFD06460F46012250462946F2
:1038D000FDF734F80E4DDFF858802A464346FCF7D2
:1038E000C1FD32463B46FCF7BDFD2A464346FCF788
:1038F000B9FD002CD8BF81F0004106B0BDE8F08DC5
:103900000000F03F0000F07F075C143326A6913CD6
:10391000182D4454FB21F93F0000E03FB41400008F
:10392000CA1400003E140000541400003333EF3F6B
:10393000FB21E93F2DE9F84F04460D4621F00040F8
:1039400000917349814211DC7249884201DC06D141
:103950002CB120462946BDE8F84FFFF700BA6E4863
:10396000002DCCBF6D496E49BDE8F88F6D4981428D
:1039700011DD6D498142D8BF4FF0FF366DDD204625
:103980002946FFF783F9042808BFFFF7F3F920461B
:103990002946BDE8F88F6549654F25F0004581420D
:1039A00033DD6449814219DD002632464FF0804301
:1039B00020462946FCF7B2FC80468A460122204672
:1039C0002946FCF7BBFF00223B46FCF748FD424678
:1039D0005346FCF7BCFD04460D463EE0012600229E
:1039E000BA463B4620462946FCF798FC80460F46DF
:1039F0000022534620462946FCF731FD42463B460D
:103A0000FCF7A5FD04460D4627E04B4981421BDD2E
:103A1000DFF828A102260022534620462946FCF75B
:103A200024FD00223B46FCF779FC80460F4600222D
:103A3000534620462946FCF712FD42463B46FCF71A
:103A400086FD04460D4608E0032622462B4600204C
:103A50003B49FCF77CFD04460D4622462B461046AA
:103A60001946FCF702FD8B46824602460B46FCF7E0
:103A7000FCFC07460246334888460B46062178443C
:103A8000FFF718F952465B46FCF7EFFC82462E48DA
:103A90008B463A46434605217844FFF70BF93A46F0
:103AA0004346FCF7E2FC02460B46002E50465946C0
:103AB0000CDAFCF733FC22462B46FCF7D6FC01B0AF
:103AC00022462B46BDE8F04FFCF7CCBCFCF726FCA9
:103AD00022462B46FCF7C9FC1C4A7A4402EBC6037B
:103AE000D3E90023FCF7BBFC22462B46FCF7B7FCCE
:103AF000174A7A4402EBC603D3E90023FCF7B2FC71
:103B0000009A002AB8BF81F00041BDE8F88F00009C
:103B1000000010440000F07F182D4454FB21F93FB1
:103B2000FB21F9BF0000DC3F0000203E0000F33F16
:103B30000000F03F0000E63F008003400000F83F37
:103B40000000F0BF5612000014120000B211000075
:103B50007A1100002DE9F04D9446CCF1000423F0D9
:103B600000464CEA0404524F46EAD4749A4688460A
:103B700021F00042BC4206D8454240EA050442EA30
:103B8000D474BC4204D9BDE8F04D6246FFF7EAB8F0
:103B9000AAF14055A5F17F6555EA0C040BD002242B
:103BA00004EAAA74434DDFF810E144EAD87452EAFB
:103BB000000B04D00CE0BDE8F04DFFF7BBBE002CBD
:103BC00014BF012CBDE8F08D022C30D0032C32D074
:103BD00056EA0C0B0AD0BE4220D1BA4209D126F0D7
:103BE000804622F080423346114617E000291ADB56
:103BF00025E0DFF8C8B0FB44002C04BFDBE900017E
:103C0000BDE8F08D012C02BFDBE9000181F000412D
:103C1000BDE8F08D022C0AD0032C0CD0BA4212D190
:103C2000B8F1000F0BDA23482549BDE8F08D28468E
:103C30002449BDE8F08D28467146BDE8F08D1D4849
:103C40002149BDE8F08D921B12153C2AC4BF1948CA
:103C50001D490EDCBAF1000FBEBF12F13C0F00206F
:103C6000014606DB6246FCF772FC21F00041FFF7DB
:103C700061FE002C08BFBDE8F08D012C04BF81F06F
:103C80000041BDE8F08D114A114B022C07D0FCF722
:103C9000E6FB2A46BDE8F04D0A4BFCF7E0BBFCF71B
:103CA000DEFB2A46BDE8F04D064BFCF7DBBB00000F
:103CB0000000F07F182D4454FB2109C00E110000B4
:103CC000FB21F9BFFB210940FB21F93F075C1433BD
:103CD00026A6A13C014689B101290BD0022905D0B5
:103CE00003290FD109480A4A10600BE00948084A25
:103CF000106007E00848064A106003E00748044ADD
:103D0000106000BF00BF02480068704700007A3DA5
:103D1000540000200000FA3D00007A3E0000FA3E08
:103D20000146082925D2DFE801F0201C1814100CE8
:103D300008041248124A10601BE01248104A106032
:103D400017E011480E4A106013E010480C4A10604A
:103D50000FE00F480A4A10600BE00E48084A106056
:103D600007E00D48064A106003E00C48044A106062
:103D700000BF00BF02480068704700000000F23931
:103D80005800002000007A3A0000FA3A00007A3B1E
:103D90000000FA3B00007A3C0000FA3C00007A3D4B
:103DA00010B500F001F810BD10B50024752000F02A
:103DB0004FFB0446214623A0FEF758FF0021762042
:103DC00000F05EFB0121112000F05AFB642000F09E
:103DD00071FA472C32D10220FFF77CFF00217620B8
:103DE00000F04EFB402444F008042146502000F02F
:103DF00047FB0120FFF794FF0021762000F040FBF5
:103E0000202444F0080421464F2000F039FB002113
:103E1000762000F035FB4E2000F01AFB044624F01B
:103E2000200444F00C0444F0030421464E2000F02A
:103E300027FB012000F03EFA002010BD4FF0FF30BC
:103E4000FBE700007265675F76616C3A25640A00E3
:103E500070B588B004460D46002005900690079086
:103E60000C2205A91F2000F000FB9DF815009DF80D
:103E7000141040EA012000B2ADF80C009DF81700C4
:103E80009DF8161040EA012000B2ADF80E009DF832
:103E900019009DF8181040EA012000B2ADF810009A
:103EA0009DF81B009DF81A1040EA012000B2ADF801
:103EB00004009DF81D009DF81C1040EA012000B28E
:103EC000ADF806009DF81F009DF81E1040EA012085
:103ED00000B2ADF80800BDF90C00FCF7A7FB0646E0
:103EE0001F4801683046FCF7A9F92060BDF90E00B3
:103EF000FCF79CFB06461A4801683046FCF79EF921
:103F00006060BDF91000FCF791FB0646144801689B
:103F10003046FCF793F9A060BDF90400FCF786FB7E
:103F20000646104801683046FCF788F92860BDF95C
:103F30000600FCF77BFB06460A4801683046FCF7A2
:103F40007DF96860BDF90800FCF770FB064605487E
:103F500001683046FCF772F9A860002008B070BD17
:103F600054000020580000202DE9F04F8BB005468A
:103F7000884691469A46A4480068002846D1002405
:103F800041E055F82400FCF789FBC4EB041202EB76
:103F900082029E4B03EB42129D4B1B6802EBC30255
:103FA00003C255F82400FCF779FBCDE908019948D4
:103FB00000EBC400D0E900B35A460898FCF7AEF90C
:103FC000944A02EBC40203C255F8241055F82400A9
:103FD000FCF734F98346FCF761FBCDE908018E4814
:103FE00000EBC400D0E900B35A460898FCF796F9F4
:103FF000894A02EBC40203C2884849F82400002021
:104000004AF82400641C032CBBDBA3E000249EE0E0
:10401000C4EB041000EB80007C4901EB40107C49AC
:10402000096800EBC100D0E900B37A4800EBC40096
:1040300003C85A46CDE90801FCF711FA754A02EBAC
:10404000C40203C2C4EB041000EB80016F4800EB14
:1040500041116F48006801EBC000D0E900B3C4EB28
:10406000041000EB8000694901EB401068490968C1
:1040700000EBC10103C95A46CDE90601FCF7F5F989
:10408000CDE90801644800EBC400D0E900B35A460A
:104090000898FCF7E7F9604A02EBC40203C255F83E
:1040A0002400FCF7FBFAC4EB041202EB8202574B2C
:1040B00003EB4212564B1B6802EBC30203C2C4EB74
:1040C000041000EB8000514901EB40105049096891
:1040D00000EBC100D0E900B34E4800EBC40003C8B8
:1040E0005A46CDE90801FCF719F94A4A02EBC40225
:1040F00003C2C4EB041000EB8000444901EB401004
:104100004349096800EBC101C4EB041000EB8000D7
:10411000D1E900B33D4901EB40113D48006801EB96
:10412000C00103C95A46CDE90601FCF79EF9CDE965
:104130000801394800EBC400D0E900B35A4608989A
:10414000FCF7ECF8344A02EBC40203C2641C032CF3
:10415000FFF65EAF2E480068401C2D4908600846F7
:104160000068404504DB0020086001202649086003
:104170002548006810B90BB0BDE8F08F4046FCF749
:1041800063FA06460F4600243AE0224800EBC401D9
:10419000D1E900B132463B465846FCF7D8F9CDE9A3
:1041A0000801FCF78EFA4AF824001A4800EBC40113
:1041B000D1E900B300EBC40103C95A46CDE90001BF
:1041C000FCF753F932463B46CDE90201FCF7BFF953
:1041D000CDE90401104800EBC400D0E900B35A4611
:1041E0000498FCF73FF932463B46CDE90601FCF75F
:1041F000AEF9CDE90801FCF764FA49F82400641C23
:10420000032CC2DB00BFB6E74800002018010020E5
:104210004C000020381D0020501D00200000C84226
:1042200070B506460D46144629463046FCF766FA38
:1042300001D2284670BD21463046FCF769FA01D20A
:104240002046F7E73046F5E770B506460D461446BA
:1042500029463046FCF752FA01D2284670BD214665
:104260003046FCF755FA01D22046F7E73046F5E72D
:1042700010B56FF00400FDF7F1FF0A4800680A4925
:10428000B0FBF1F0094908700846007800EB4001E6
:10429000C1EBC0104FF6FF7101EAC000044908806D
:1042A00010BD00000400002000127A006000002011
:1042B000620000200146114A12884A434FF0E02371
:1042C0005A6100229A611A46126942F001021A618B
:1042D00000BF4FF0E022106900F001021AB100F4B3
:1042E0008032002AF5D04FF0E022126922F001025C
:1042F0004FF0E0231A6100229A61704762000020AB
:104300000146114A12784A434FF0E0235A610022D5
:104310009A611A46126942F001021A6100BF4FF019
:10432000E022106900F001021AB100F48032002A84
:10433000F5D04FF0E022126922F001024FF0E023A5
:104340001A6100229A6170476000002002460B88C3
:10435000D31A18B20A8070471FB501210420FDF757
:104360007DFE01210846FDF759FE0320ADF80C0043
:104370008DF80E0004208DF80F0003A91248FCF7F9
:10438000F0FC6846FEF740FA0020ADF80000ADF8FA
:1043900002004FF6FF70ADF8040069464FF0804010
:1043A000FEF7E0F900231A4603214FF08040FEF7A4
:1043B000D5F800214FF08040FEF7D1F901218807A0
:1043C000FDF7BCFF1FBD0000000801401FB5012123
:1043D0000420FDF743FE01210220FDF71FFEC0204F
:1043E000ADF80C0003208DF80E0004208DF80F00AE
:1043F00003A91148FCF7B5FC6846FEF705FA002052
:10440000ADF80000ADF802004FF6FF70ADF8040003
:1044100069460A48FEF7A6F900231A460321074811
:10442000FEF79CF800210548FEF799F901210348A1
:10443000FDF784FF1FBD000000080140000400409C
:1044400070B504460D46E0B2FEF79CFA204670BDFA
:1044500038B50446002000906B4601222146D0204A
:10446000FCF76CFE9DF8000038BD70B504460D46A3
:104470001646F2B22B462146D020FCF75FFE70BDF7
:1044800013B5044601AB01222146D020FCF78AFE79
:1044900000201CBD2DE9F04704464FF07C5120461A
:1044A000FBF7CCFE814625462E460C48A0EB66065F
:1044B000354629464846FBF7C1FE82462946FBF7AA
:1044C000BDFE80464FF07F51FBF7B5FE07462946FB
:1044D000FBF7B4FE05462846BDE8F087DF59375F95
:1044E00008B501210820FDF7B9FD2020ADF8000036
:1044F00003208DF8020048208DF803006946024829
:10450000FCF72FFC08BD0000000C014010B5202175
:104510000348FCF7B1FC08B1012010BD0020FCE706
:10452000000C014010B510210348FCF7AEFC20211F
:104530000148FCF7ACFC10BD0008014010B510218B
:104540000348FCF7A4FC20210148FCF79EFC10BDA9
:104550000008014010B50446B4F57A7F02DD4FF43F
:104560007A7403E014F57A7F00DA0B4C002C05DD39
:10457000FFF7E4FFA0B2FDF73BFD0BE0002C06DAED
:10458000FFF7D0FF614288B2FDF732FD02E0002064
:10459000FDF72EFD10BD000018FCFFFFADF5007DFE
:1045A000FDF772FEFFF764FE4FF4E13000F03EFAD3
:1045B000BBA0FEF75BFBBCA0FEF70EFAFCF794FC79
:1045C000FDF7DAFAFFF78CFF4FF47A707F907F984F
:1045D000FDF75EFBFFF7C0FEFFF7F8FE0020FFF7D8
:1045E000B9FF002000F0CAF900207E907D90B2480B
:1045F000D0F800A000274FF0010B4FF00108012078
:1046000078904FF000090020FDF732FB00207790F2
:1046100024A8FCF755FAA9482490002025904FF0D3
:1046200080402690A64827901E20ADF8A0003C2090
:10463000ADF8A2008C20ADF8A400A2482A90002179
:1046400024A8C1610162A0494162A0498162A049D8
:10465000C162A04901634FF07A5141639D48329095
:10466000002124A8C16301649B4941649B49816482
:104670009B49C1649B4901659B494165202232A940
:104680003AA8FBF771FD24A8FCF705FA9748FDF757
:104690008BF99648016824A8FCF7AFFA24A8FCF728
:1046A0008BFA6420FFF706FEF9E083480468A4EB68
:1046B0000A0080B264287CDBA2467798201A41F277
:1046C0008831884205D377943A46214688A0FEF780
:1046D000CDFA8648FDF768F9FFF718FF8346C34512
:1046E00002D14FF000090CE0B9F1030F03DA09F130
:1046F000010000F0FF09B9F1030F02DBD8464FF0CB
:104700000009789801281DD1B8F1000F1AD1774817
:10471000016824A8FCF771FA24A8FCF74DFA0FB938
:10472000012000E0002007464FB90020FFF712FFEC
:10473000002000F023F90020FDF79AFA02E00120A2
:10474000FDF796FACDF8E0814FF08040FDF727FFA6
:104750007C906D48FDF723FF7B907EA97C98FFF746
:10476000F5FD0646704206B27DA97B98FFF7EEFD87
:1047700005465FBB5D482B463246016824A8FCF71E
:10478000DEFA6E98FBF78AFFCDE920016D98FBF702
:1047900085FFCDE91E0155490868FBF77FFFCDE98C
:1047A0001C01A81B06A991C1CDE90465DDE9200122
:1047B00000E073E0CDE90201DDE91E01CDE9000171
:1047C0005248DDE91C23FEF751FA68E079A87AA97E
:1047D00022AA23ABCDE90032CDE9021043482B4693
:1047E0003246016824A8FCF71FFABDF98C00FFF7D8
:1047F000B1FEBDF9880000F0C1F87298FBF74EFFDA
:10480000CDE920017198FBF749FFCDE91E017998A8
:10481000FBF744FFCDE91C017A98FBF73FFFCDE998
:104820001A016E98FBF73AFFCDE918016D98FBF776
:1048300035FFCDE916012D490868FBF72FFFCDE9BB
:104840001401BDF98800BDF98C1010AA91C20F9116
:10485000A81BCDE90C650E90DDE92001CDE90A0128
:10486000DDE91E01CDE90801DDE91C01CDE9060104
:10487000DDE91A01CDE90401DDE91801CDE9020104
:10488000DDE91601CDE900012148DDE91423FEF739
:10489000EDF920480068401C1E49086000BF04E78D
:1048A0004F4B0D0A00000000564F46415F524541F4
:1048B00044590D0A000000005C0000200000F04296
:1048C0003333B33E0000A0400000C8C20000C8421D
:1048D000000020C10000204100409CC500409C45D4
:1048E00000007AC400007A44CDCC4C3EB0000020D9
:1048F000484232207469636B3D256C752072756E79
:104900003D25750D0A000000000400408C4D000894
:10491000104D00080000002010B502210448FCF7EB
:10492000B4FA4FF480610248FCF7B1FA10BD000000
:10493000000C014010B502210448FCF7A8FA4FF41E
:1049400080610248FCF7A1FA10BD0000000C014094
:1049500010B50446002A01DC204610BD601A03B2DF
:10496000934202DD881800B2F7E75042834202DA30
:10497000881A00B2F1E72046EFE7000010B50446C0
:10498000B4F57A7F02DD4FF47A7403E014F57A7F90
:1049900000DA0B4C002C05DDFFF7CCFFA0B2FDF7D1
:1049A00031FB0BE0002C06DAFFF7B6FF614288B25C
:1049B000FDF728FB02E00020FDF724FB10BD0000FE
:1049C00018FCFFFF411C88B2FF2800DD0020704763
:1049D0002DE9F04106460F46FCF70AF8041E0D4685
:1049E00018BF0120284320F00040C0F17F6000F193
:1049F000E040C00F0ED0301C18BF0120384320F01B
:104A00000040C0F17F6000F1E040C00F04BF012012
:104A1000FEF7C8F920462946BDE8F081411C88B25E
:104A2000B0F5006F00DB00207047000010B586B0C5
:104A3000044601210420FDF711FB01214804FDF784
:104A4000EDFA2248FDF7FCFF0420ADF81400032026
:104A50008DF8160018208DF8170005A91C48FCF7E2
:104A600080F90820ADF8140004208DF8170005A97E
:104A70001748FCF776F926208DF8000003208DF802
:104A800001008DF8020001208DF803006846FDF753
:104A900027F901940020ADF80800ADF80A00ADF840
:104AA0000C00ADF810000C20ADF80E0001A907486D
:104AB000FEF764F8012240F225510448FEF738F869
:104AC00001210248FDF7AFFF06B010BD00440040D1
:104AD000000801402DE9F04704460D4616464FF008
:104AE0007E520021E068FFF7AFFB81460021484677
:104AF000FBF704FE0DD82846FBF798FD4FF49E7196
:104B000008513046FBF792FD4FF4A0710851BDE803
:104B1000F0872846FBF78AFD82464FF49E700159C4
:104B20005046FBF785FB80464946FBF787FB074667
:104B30004FF49E7001593846FBF728FB4FF49E71E5
:104B400008513046FBF772FD82464FF4A0700159C0
:104B50005046FBF76DFB80464946FBF76FFB074667
:104B60004FF4A07001593846FBF710FB4FF4A071C9
:104B7000085100BFCBE770B504460D4694F84801D4
:104B800018B929462046FCF738F8C4F820514FF4EC
:104B9000927001592846FBF74BFB064600F020F8BF
:104BA0004FF4947108510A4611596068FBF740FBB5
:104BB0004FF496710851A06880F0004608460159EC
:104BC0003046FBF79BFD0AD24FF496721059A1684C
:104BD000FBF794FD03D200214FF49670015170BD94
:104BE00010B5044604E00B492046FBF721FB0446C0
:104BF00009492046FBF78CFDF5D304E00549204622
:104C0000FBF7C4FA044605492046FBF777FDF5D3C8
:104C1000204610BD0000B44300003443000034C3FC
:104C2000555555555555C53F7D6FEB0312D6D4BF2D
:104C30005544880E55C1C93F3B8F68B52882A4BF33
:104C400088B20175E0EF493F09F7FD0DE13D023FF4
:104C50004B2D8A1C273A03C0C88A599CE52A00407C
:104C600059018D1B6C06E6BF82922EB1C5B8B33FC9
:104C70004FBB610567ACDD3F182D4454FB21E93F74
:104C80009BF681D20B73EF3F182D4454FB21F93F63
:104C9000E2652F227F2B7A3C075C143326A6813CE9
:104CA000BDCBF07A8807703C075C143326A6913C94
:104CB000C4EB98999999C9BF711623FEC671BCBF00
:104CC0006D9A74AFF2B0B3BF9AFDDE522DDEADBF68
:104CD0002F6C6A2C44B4A2BF0D5555555555D53F80
:104CE000FF8300922449C23F6E204CC5CD45B73F9B
:104CF000513DD0A0660DB13FEB0D76244B7BA93F13
:104D000011DA22E33AAD903F0000000000000000FD
:104D1000793D252E36662079303D252E3666207960
:104D200072656C3D252E3666207961775F653D257D
:104D30002E366620636F72723D252E3666207265B0
:104D4000664C3D252E326620726566523D252E3218
:104D50006620646C3D256C642064723D256C642083
:104D6000646966663D256C642070776D4C3D2564F2
:104D70002070776D523D2564207469636B3D256C0E
:104D8000752072756E3D25750D0A0000793D252E42
:104D900036662079303D252E3666207972656C3D69
:104DA000252E366620646C3D256C642064723D259A
:104DB0006C6420646966663D256C64207469636B6D
:104DC0003D256C752072756E3D25750D0A0000003D
:104DD000F04D00080000002094000000842D000821
:104DE000844E000894000020342B0000942D00080D
:104DF0000000000000A24A040000000000000000C3
:104E0000010203040607080900000000000000007A
:104E10000000000000000000000000000000000092
:104E20000000000000000000000000000000000082
:104E30000000000000000000000000000000000072
:104E40000000000023DB793E333303420000000002
:104E50000000000000000000000000000000000052
:104E60000000000000000000000000000000000042
:104E700001020304010203040607080902040608EC
:044E8000000000002E
:0400000508000131BD
:00000001FF
