:020000040800F2
:10000000480900209D010008D52300080D1C0008A8
:10001000B9210008DD0800087F3300080000000057
:10002000000000000000000000000000452B000858
:10003000A913000800000000FD290008A52C0008F5
:10004000B7010008B7010008B7010008B7010008B0
:10005000B7010008B7010008B7010008B7010008A0
:10006000B7010008B7010008B7010008B701000890
:10007000B7010008B7010008B7010008B701000880
:10008000B7010008B7010008B7010008B701000870
:10009000B7010008B7010008B7010008B701000860
:1000A000B7010008B7010008B7010008B701000850
:1000B000B7010008B7010008092D0008B7010008C2
:1000C000B7010008B7010008B7010008B701000830
:1000D000B701000859300008E1300008B7010008F6
:1000E000B7010008B7010008B701000800F002F8E6
:1000F00000F045F80AA090E8000C82448344AAF17D
:100100000107DA4501D100F03AF8AFF2090EBAE87A
:100110000F0013F0010F18BFFB1A43F0010318473B
:100120000C4500002C450000103A24BF78C878C167
:10013000FAD8520724BF30C830C144BF04680C60ED
:10014000704700000023002400250026103A28BF35
:1001500078C1FBD8520728BF30C148BF0B60704739
:10016000642900F0A380752900F0A080782900F0B0
:10017000D980002070471FB51FBD10B510BD00F01D
:100180007FFB1146FFF7F7FF03F024FA00F09DFB19
:1001900003B4FFF7F2FF03BC03F019FA09488047E4
:1001A00009480047FEE7FEE7FEE7FEE7FEE7FEE759
:1001B000FEE7FEE7FEE7FEE704480549054A064B71
:1001C00070470000A92C0008ED000008480300203B
:1001D000480900204805002048050020704710B558
:1001E0004C1084EA530404D54042C1F1000138BFE9
:1001F000491E1B4204D55242C3F1000338BF5B1EA7
:1002000000F044FA14F0804F04D04042C1F10001E4
:1002100038BF491E14F0004F04D05242C3F100030E
:1002200038BF5B1E10BD00000FB41CB50C0007AA40
:10023000009001D02044401E074B7B44694601904A
:10024000069800F0F8FA002C03D06946002000F070
:1002500005FB1CBC5DF814FB2906000070B50446C4
:1002600085690068C10601D5302600E02026C00758
:1002700007D070BDD4E9012130469047206A401C68
:1002800020626D1EF6D570BD70B504468569007894
:10029000C00707D170BDD4E9012120209047206A12
:1002A000401C20626D1EF6D570BD00002DE9F041A6
:1002B0000646002410687529314616A510D0AFF304
:1002C0000080002802DA404213A507E031688A075F
:1002D00001D512A502E0490704D511A5012401E0CA
:1002E000AFF3008000210A2206F1240709E0B0FBE9
:1002F000F2FCB0FBF2F302FB1C00303078541846DD
:10030000491C0028F3D123462A463046BDE8F04177
:1003100000F033BA000000002D0000002B000000A8
:100320002000000070B504460D4621461068AFF36A
:1003300000802188090502D50F4A7A4402E00E4A5E
:100340007A440E32002104F1240305E000F00F0688
:100350000009965D5E54491C0028F7D120780023DF
:10036000000704D5702D02D009B1022311322046B6
:10037000BDE8704000F001BAF34100002DE9F05FE4
:10038000894604464FF0000ADFF874B1FB44C0F818
:1003900020A02046E1688847002874D0252806D090
:1003A000D4E901219047206A401C2062F1E7002631
:1003B0005F462046E16888472028054607DB312D47
:1003C00005D2781910F8200C08B10643F1E7B00700
:1003D00001D526F00406C4F81CA00027C4F818A014
:1003E0002A2D09D0284603F0EBF838B304EB870830
:1003F000303DC8F8185019E059F8041B204604EBAA
:1004000087029161E1688847012F054618D1E069AC
:10041000002820DA26F020061DE0D8F8180000EBAE
:10042000800005EB40003038C8F818002046E1682D
:100430008847054603F0C4F80028EED1012F0AD002
:100440002E2D08D12046E16888477F1C0546022FE3
:1004500046F02006C4DBA069002803DA404246F0DB
:100460000106A061F00701D026F010066C2D0BD01C
:10047000682D09D04C2D39D06A2D35D0742D35D04A
:100480007A2D33D016E038E0E1682F4620468847C1
:10049000B842054609D16C2F26D04FF48060E16840
:1004A000064320468847054604E06C2F1AD04FF4D7
:1004B000807006430DB3A5F14100192802D82035FC
:1004C00046F400664A462946204626604E46FFF717
:1004D00047FE80B101280BD0F61D26F0070000F181
:1004E000080956E74020E4E78020D8E70020D6E757
:1004F00006F104094DE7284652E7206ABDE8F09F5F
:10050000C9410000032A40F2308010F0030C00F0D3
:10051000158011F8013BBCF1020F624498BF11F83D
:1005200001CB00F8013B38BF11F8013BA2F10402F6
:1005300098BF00F801CB38BF00F8013B11F003036E
:1005400000F02580083AC0F0088051F8043B083AD2
:1005500051F804CBA0E80810F5E7121D5CBF51F874
:10056000043B40F8043BAFF30080D20724BF11F8EE
:10057000013B11F801CB48BF11F8012B24BF00F853
:10058000013B00F801CB48BF00F8012B704710B5C4
:10059000203AC0F00B80B1E81850203AA0E818507B
:1005A000B1E81850A0E81850BFF4F5AF5FEA027C3C
:1005B00024BFB1E81850A0E8185044BF18C918C0AB
:1005C000BDE810405FEA827C24BF51F8043B40F84C
:1005D000043B08BF7047D20728BF31F8023B48BF31
:1005E00011F8012B28BF20F8023B48BF00F8012B6F
:1005F00070474FF000020429C0F0128010F0030C85
:1006000000F01B80CCF1040CBCF1020F18BF00F805
:10061000012BA8BF20F8022BA1EB0C0100F00DB8B4
:100620005FEAC17C24BF00F8012B00F8012B48BF12
:1006300000F8012B70474FF0000200B513469446B6
:100640009646203922BFA0E80C50A0E80C50B1F12A
:100650002001BFF4F7AF090728BFA0E80C5048BF3E
:100660000CC05DF804EB890028BF40F8042B08BFDC
:10067000704748BF20F8022B11F0804F18BF00F8D8
:10068000012B7047704770477047704753EA020C60
:1006900000F069802DE9F04B4FF00006002B1FBFE2
:1006A000B3FA83F503FA05F424FA05F65E4012BFA7
:1006B0001643B2FA82F502FA05F4C5F120051EBF11
:1006C00022FA05FC44EA0C04203556EA044C4FEAB1
:1006D000144418BF641C4FF000084FF0000990420A
:1006E00071EB030C39D3002919BFB1FA81F701FA74
:1006F00007F6B0FA80F700FA07F6C7F120071EBF29
:1007000020FA07FC46EA0C062037B6FBF4FCA7EB00
:100710000507103F07F01F0BCBF120060CFA0BFB6F
:100720002CFA06F644BFB3460026202FA4BF5E462F
:100730004FF0000B5BEA060C08BF4FF0010B19EB02
:100740000B09ABFB027C48EB0608C01B06FB02CC86
:100750000BFB03CC71EB0C01C1E70B460246414693
:100760004846BDE8F08B13B54FF000004FF0000194
:10077000AFF30080BDE81C4070472DE9F0470D46FF
:1007800099469246044600F124080168880604D57B
:10079000E06921F01001216000E00120A84201DDA4
:1007A000471B00E00027A1697A1902EB0900081A2B
:1007B000A0612078C00602D42046FFF74FFD002636
:1007C00008E0D4E901211AF806009047206A401C8D
:1007D000761C20624E45F4DB2078C0060AD5204600
:1007E000FFF73CFD06E0D4E9012130209047206A64
:1007F000401C2062381EA7F10107F4DC07E0D4E9B1
:10080000012118F805009047206A401C2062281E2C
:10081000A5F10105F3DC2046FFF736FD2078000640
:1008200002D50220BDE8F0870120FBE701694A1CE0
:1008300002610878704700B58FB0CDE90131002121
:10084000059105497944CDE9031011466846FFF743
:1008500095FD0FB000BD0000E5FFFFFF0A6802F83C
:10086000010B0A607047D1E900239A4202D2531C5F
:100870000B6010707047000000487047E8020020CD
:100880007546FFF7F9FFAE4605006946534620F06E
:100890000700854618B020B5FFF78EFCBDE8204064
:1008A0004FF000064FF000074FF000084FF0000B2C
:1008B00021F00701AC46ACE8C009ACE8C009ACE8DF
:1008C000C009ACE8C0098D46704710B50446AFF3C7
:1008D00000802046BDE81040FFF75ABC00BFFEE78D
:1008E000002203E0002341F82230521C072AF9DBE2
:1008F00010F5405F03DC4FF480520A607047B0F59A
:10090000405F03DB4FF480528A61F7E710F5405FE8
:1009100009DB10F5005F06DA214A121A0A6000F5B9
:1009200040524A603AE010F5005F09DB10F5805F45
:1009300006DA1C4A121A4A6000F500528A602DE05D
:1009400010F5805F07DB002805DA42428A6000F577
:100950008052CA6022E0002807DBB0F5805F04DA2D
:10096000C0F58052CA60086118E0B0F5805F09DB0D
:10097000B0F5005F06DAC0F500520A61A0F58052BA
:100980004A610BE0B0F5005F08DBB0F5405F05DAC7
:10099000C0F540524A61A0F500528A6100BFADE740
:1009A00000E0FFFF00F0FFFF2DE9F04704460E4690
:1009B000E7694FF0000894F8A80170B1218D608DAF
:1009C000081A0FFA80F9C9F1000003F099F882467D
:1009D000194903F0F5F8804600BF4146174803F077
:1009E000EFF882463946164803F0EAF88146514648
:1009F00002F03AFF05463146284603F0E1F8814609
:100A0000A16902F031FFA06104E00E49A06903F082
:100A1000D5F9A0610C49A06903F09EF9F5D304E073
:100A20000849A06902F020FFA0610849A06903F00D
:100A300093F8F5D3BDE8F087CDCCCC3D0AD7A33DE4
:100A40001F856B3F0000B44300003443000034C3F3
:100A500010B50446A169D4F8980101F071F910BDF0
:100A6000F0B58BB004460D462746002602E0002074
:100A7000B855761CB6F5DC7FF9D31DB1012084F89A
:100A8000B00102E0002084F8B00101F0F3F800F0BA
:100A900043FD01F0A3FB02F075FCF5B904F1600021
:100AA00000F0F0FE4FF0804000214FF07C52CDE985
:100AB0000612CDE908103148314A324BCDE90232F5
:100AC000CDE9041030483149314B0022CDE9001006
:100AD000010304F1600000F033FF2E482E4900238B
:100AE0004FF07C52CDE900102C4904F5A07001F0C4
:100AF00067FF2848284900234FF07C52CDE90010B9
:100B0000264904F5B67001F05BFF25494FF4AC703F
:100B100001514FF4C270015100224FF07C5104F595
:100B2000A07001F063FF00224FF07C5104F5B67015
:100B300001F05CFF00221B4904F5A07001F05AFF90
:100B40000022184904F5B67001F054FF7DB901F098
:100B50001DF915A20121084601F04FFEC8212046CB
:100B600001F09EF814A20121084601F046FE01F0B2
:100B700025FB002084F8A8010BB0F0BD0000204147
:100B800000004842000048C200003443000034C363
:100B9000CDCCCC3D0000C84200007A4400002F4478
:100BA0000000A0419A99993E43616C696272617438
:100BB000696E672E2E2E0000526561647921202017
:100BC00020202020200000002DE9F04F87B00446AF
:100BD00094F8A80110B907B0BDE8F08F0A2104F11C
:100BE000200000F0EDFC94F8B001012804D1B4F924
:100BF0009C71B4F99C8154E0B4F99C51D4F8B4913F
:100C00000021484602F0A8FF01D289F000494FF0C8
:100C1000020B022002904FF0000A8149484603F07F
:100C20009BF802D202254FF0010AD4F8A0610021FE
:100C3000304602F091FF01D286F00046B4F99C01E3
:100C4000032809DD4FF07C51304602F00DFE019083
:100C500002F03AFF281A05B2BAF1000F02D1022DB4
:100C600000DA02254FF08041D4F8A00102F0A8FF7D
:100C7000019002F029FF06B201216A1E10B200287D
:100C800000DA0020864201DD064604E04242964238
:100C900001DA424216B2A81B07B2A8190FFA80F86F
:100CA00000BF002F00DA0027B8F1000F01DA4FF083
:100CB0000008208D381A00B20690608DA8EB000065
:100CC00000B20590B4F9280002F01AFF0546384634
:100CD00002F016FF0646069802F012FF81463346E0
:100CE000504A494604F5A070009501F026FE049094
:100CF000B4F92A0002F004FF0546404602F000FF66
:100D00000646059802F0FCFE81463346454A4946B0
:100D100004F5B670009501F010FE0390049802F0FF
:100D2000D3FE0FFA80F9039802F0CEFE0FFA80FA94
:100D300094F8B001012811D03B49D4F8A00102F089
:100D40003FFF064602F0C0FE05B2A9EB05000FFA10
:100D500080F90AEB05000FFA80FA00BF4FF4AC717E
:100D6000085902F0B1FE05B24FF4C271085902F001
:100D7000ABFE06B2002D01DA684205B2002E01DAA0
:100D8000704206B2A94501DDA94605E068428145E9
:100D900002DA68420FFA80F9B24501DDB24605E099
:100DA0007042824502DA70420FFA80FAB4F8A40168
:100DB000A9EB00000FFA80FBB4F8A601AAEB000033
:100DC00000B20290BBF1020F02DD4FF0020B04E013
:100DD0001BF1020F01DA6FF0010B0298022802DD0D
:100DE0000220029006E0029810F1020F02DA6FF082
:100DF0000100029004F5D2742088584400B220808B
:100E000061880298084400B26080B4F90210B4F915
:100E10000000A4F5D27401F05DFA00BFDBE600002B
:100E2000000070410AD7233C0000C04010B50446C2
:100E3000A069C4F8980104F1340001F0D3FD10BD9D
:100E40002DE9F047044694F8A80108B9BDE8F087F9
:100E500094F8B00100B1F9E72046FFF7F9FDC4F8B6
:100E6000B401D4F8B4610021304602F075FE01D21D
:100E700086F000464FF07E51304602F06DFE07D2FC
:100E80000020C4F8A00104F1600000F04BFDDDE794
:100E900004F16000A269D4F8981100F041FC074603
:100EA0004FF07E51384602F08BFE0746B4F99C01A4
:100EB00002F026FE05460021284602F04DFE01D232
:100EC00085F000454FF07C51284602F079FE05463A
:100ED0004FF07E51284602F03FFE01D24FF07E5582
:100EE0002549284602F038FF00D2234D29463846CE
:100EF00002F032FF01D22F4608E085F00048394663
:100F0000404602F029FF01D285F000473846D4F868
:100F1000A01102F053FF80464FF07C51404602F092
:100F20001BFF02D24FF07C5807E04FF03F41404694
:100F300002F012FE01D24FF03F484146D4F8A00122
:100F400002F092FCC4F8A0012946D4F8A00102F0F6
:100F500003FF02D2C4F8A0510BE085F000494846D7
:100F6000D4F8A01102F0F8FE03D285F00040C4F8D6
:100F7000A00100BF6AE70000000020412DE9F04F0A
:100F8000B5B0044620212DA802F0D0FA074617B9C3
:100F900035B0BDE8F08F9DF8B400232800D0F7E706
:100FA0009DF8B50053285CD19DF8B600542858D15F
:100FB0009DF8B700412854D19DF8B800542850D16D
:100FC0009DF8B90000284CD1A06902F07DFD0546CE
:100FD0005949D4F8B40102F0F3FD834602F074FDE0
:100FE00006465549D4F8A00102F0EAFD834602F016
:100FF0006BFD80465149E06902F0E2FD834602F054
:1010000063FD8146D4F8980102F05EFD8246606976
:1010100002F05AFD83464A4802684A480368B4F918
:10102000A601B4F9A411CDE90B32CDE90910B4F948
:101030000A00CDE9070BCDE90589B4F99C01CDE99A
:1010400003A6CDE9010594F8A80100903E4A80214D
:101050000DA8D4F8AC31FFF7E7F80DA802F058FA64
:1010600096E79DF8B500522814D19DF8B600552892
:1010700010D19DF8B7004E280CD19DF8B80048B9A2
:101080002046FFF7D3FE204600F0D7F82FA002F04D
:101090003FFA7DE79DF8B500532815D19DF8B600BD
:1010A000542811D19DF8B7004F280DD19DF8B800F4
:1010B000502809D19DF8B90030B9204600F0EAF86F
:1010C00025A002F025FA63E79DF8B50053282ED13C
:1010D0009DF8B60050282AD19DF8B700442826D1A3
:1010E0009DF8B8003D2822D100264FF001080DF1EF
:1010F000B90528782D2802D14FF0FF386D1C06E085
:101100002878303806EB860100EB41066D1C287804
:10111000302802DB28783928F2DD06FB08F631B2E8
:10112000204600F087F80FA002F0F2F930E710A097
:1011300002F0EEF900BF2BE7000020410000C8429A
:101140002800002024000020CC4500084F4B2052EE
:10115000554E0D0A000000004F4B2053544F500DC8
:101160000A0000004F4B205350440D0A00000000BD
:101170004552520D0A0000002DE9F047AEB004467A
:10118000A06902F0A1FC05462549D4F8B40102F09B
:1011900017FD824602F098FC06462149D4F8A001CA
:1011A00002F00EFD824602F08FFC07461D49E06901
:1011B00002F006FD824602F087FC8046D4F89801D2
:1011C00002F082FC8146606902F07EFC824616488D
:1011D000026816480368B4F9A601B4F9A411CDE970
:1011E0000B32CDE90910B4F90A00CDE9070ACDE9BF
:1011F0000578B4F99C01CDE90396CDE9010594F891
:10120000A80100900A4A80210EA8D4F8AC31FFF75B
:101210000BF80EA802F07CF92EB0BDE8F0870000B4
:10122000000020410000C8422800002024000020C7
:101230006C450008A0F89C11704710B504460020CA
:10124000C4F8AC0194F8B00101280DD104F5A070E8
:1012500001F0C8FB04F5B67001F0C4FB00F0B6FF66
:10126000012084F8A80110BD2046FFF7DFFD04F13E
:10127000600000F057FB04F5A07001F0B3FB04F52B
:10128000B67001F0AFFB00F0A1FF012084F8A801C7
:1012900000BFE8E710B5044601F082F800F08EFFC9
:1012A000002004F5D07420606061A080E080207C84
:1012B000A4F5D07418B904F1600000F033FB04F514
:1012C000A07001F08FFB04F5B67001F08BFB0020DD
:1012D00084F8A80110BD000010B50446D4F8AC0194
:1012E000401CC4F8AC0194F8B001012822D0284871
:1012F0000088401C80B22649088014281ADB002090
:101300000880204600F07CFD78B122480068401C2F
:101310002049086020492046FFF746FB94F8A801C1
:1013200040B12046FFF78CFD04E01C480068401CDB
:101330001A4908601A480088401C80B21849088081
:101340000A2813DB0020088094F8A80118B1204671
:10135000FFF73AFC0AE001F023F80020C4F8A001EE
:10136000C4F8B401A4F8A401A4F8A6010D480088AB
:10137000401C80B20B490880322804DB0020088022
:101380002046FFF7F9FE2046FFF7F8FD10BD0000EC
:101390002C000020240000200AD7A33C28000020B5
:1013A0002E0000203000002070472DE9F0478046D5
:1013B000894600210E460F460C460D4600200EE0E1
:1013C000C21E110358F8202082FB01329E1957419A
:1013D00058F82020141945EBE27500F101000728A8
:1013E000EEDB00210846091BA84106DA22462B46FF
:1013F00030463946FEF7F3FE00E00020C9F8000051
:10140000BDE8F08700B5034603E04FF47A7000F0C2
:1014100005F8181EA3F10103F7D100BD00EBC001D0
:10142000C9004FF0E0225161002191610521116155
:1014300000BF4FF0E021096901F480310029F8D0A4
:1014400004214FF0E022116170472DE9FC5F8246D4
:101450000C469146A9EB0400C117CDE900014FEA03
:10146000EA704FF440521AEB020340F1000CDDE940
:101470000012A3FB017B0CFB01B103FB021106224E
:1014800000233846FEF7ABFE051941EBE4764FEA40
:10149000E470291B76EB000002DA2046BDE8FC9FD1
:1014A0004FEAE970B9EB0501B04101DA4846F5E7CA
:1014B0002846F3E72DE9F04105460C4614B9002013
:1014C000BDE8F081204602F033FB804641460848E3
:1014D00002F038FA0646284602F012FB804605491B
:1014E00002F030FA0746314602F06AFBE8E70000F6
:1014F00000606A470000304210B54FF0804001F0B4
:1015000056FC00B210BD000010B5024801F04FFCBF
:1015100000B210BD000400401FB50121084601F0D3
:101520007DFA0121022001F079FA0121042001F065
:1015300085FA48208DF80F0003208DF80E00C32097
:10154000ADF80C0003A91C4800F07BFA0020ADF8B0
:101550000600ADF802004FF6FF70ADF80400002061
:10156000ADF800008DF8080069464FF0804001F0AA
:10157000E9FC00231A4603214FF0804001F0F6FBFE
:1015800069460E4801F0DEFC00231A4603210B4891
:1015900001F0ECFB0121880701F0CDFB0121074898
:1015A00001F0C9FB00214FF0804001F0C9FC00218F
:1015B000024801F0C5FC1FBD0008014000040040C6
:1015C0002DE9F04104460F46FFF796FF0546FFF769
:1015D0009BFF064612480088281A00B22081114855
:1015E0000088301A00B26081B4F9081020680844FD
:1015F0002060B4F90A10606808446060B4F908001B
:101600003946FFF757FFE060B4F90A003946FFF7A3
:1016100051FF20610248058002480680BDE8F08144
:101620001A0000201C0000202DE9FF4F81B0064663
:101630001F46DDF838A0002009E0002147F82010FF
:101640004AF8201000220F9941F82020401C07285A
:10165000F3DB00245FE000255AE0039A52F82510DE
:10166000029A52F8240001F0D1F90090009828283D
:101670004DDDC4EBC40106F13C000844405700F1C5
:101680000308C4EBC40106F16D000844405700F1A3
:101690000309C4EBC40106F19E000844405700F161
:1016A000030BB8F1000F01DA4FF00008B8F1060F94
:1016B00001DD4FF00608B9F1000F01DA4FF0000923
:1016C000B9F1060F01DD4FF00609BBF1000F01DA99
:1016D0004FF0000BBBF1060F01DD4FF0060B57F882
:1016E0002800009901F08BF947F828005AF82900E2
:1016F000009901F084F94AF829000F9951F82B005C
:10170000009901F07CF90F9941F82B0000BF6D1C86
:10171000072DA2DB641C072C9DDB05B0BDE8F08F14
:101720002DE9F04FAFB004460F4690464FF08B4185
:10173000384602F045FA029002F0C6F983464FF0AF
:101740008B41404602F03CFA029002F0BDF92E9027
:101750002E98ABEB0005D4200159D8200151D4209C
:10176000D4F8D0100151C4F8D0500059281A2D9047
:101770002846D4E9031200F071FE6063D4E9051233
:101780002D9800F06BFEA06326A9606BFFF7A8F808
:101790001FA9A06BFFF7A4F80AA811A918AB1FAAEC
:1017A000CDE9001026A92046FFF73EFF09A918A899
:1017B000FFF7FBFD08A911A8FFF7F7FD07A90AA885
:1017C000FFF7F3FDD4E907120998FFF73EFE20600A
:1017D000D4E909120898FFF738FE6060D4E90B12CB
:1017E0000798FFF732FEA0602E46D42050F80490F0
:1017F000D82000590690A6EB0901206880FB011053
:10180000020542EA11300590606880FB061002056F
:1018100042EA11300490022000FB1962A168069888
:10182000104481FB0010020542EA11300390D4F805
:10183000DC1004980844C4F8DC00D4F8DC00B0F1F3
:10184000005F03DB6FF06040C4F8DC00D4F8DC001C
:10185000B0F1604F02DC0A48C4F8DC00D4F8DC10B8
:1018600005980144039801EB000A504602F048F93C
:101870004FF08B41029002F065F82FB0BDE8F08F79
:10188000010000E010B5A8B00446E0212046FEF7B4
:10189000D2FE2148E0604042206120486061404221
:1018A000A0610020E0614FF42040206200206062CF
:1018B0004FF4A040A0620020E0624FF4005020638B
:1018C00020608010606040F29910A06034221449BA
:1018D0001BA8FEF75CFE3422114934310EA8FEF736
:1018E00056FE34220E49683101A8FEF750FE31221F
:1018F0001BA904F13C00FEF74AFE31220EA904F1B7
:101900006D00FEF7FFFD312201A904F19E00FEF7F4
:10191000F9FD28B010BD000000C0F4FF00E0FCFF9E
:10192000984400080021C0F8D0100022D4210A50A9
:10193000D8210A50002141638163C0F8DC10704750
:101940002DE9F84F04460D4616461F46DDE90CAB5F
:10195000DDE90A894FF08B41284602F031F9009009
:1019600002F0B2F820604FF08B41304602F028F9C7
:10197000009002F0A9F860604FF08B41384602F009
:101980001FF9009002F0A0F8A0604FF08B41404694
:1019900002F016F9009002F097F8E0604FF08B41EA
:1019A000484602F00DF9009002F08EF820614FF0E9
:1019B0008B41504602F004F9009002F085F8606116
:1019C0004FF08B41584602F0FBF8009002F07CF893
:1019D000A0614FF08B410E9802F0F2F8009002F0F7
:1019E00073F8E0614FF08B410F9802F0E9F8009036
:1019F00002F06AF820624FF08B41109802F0E0F894
:101A0000009002F061F860624FF08B41119802F093
:101A1000D7F8009002F058F8A0624FF08B4112986E
:101A200002F0CEF8009002F04FF8E0624FF08B41E8
:101A3000139802F0C5F8009002F046F82063BDE864
:101A4000F88F2DE9F04102460025002600200023F2
:101A50000024002791F803C00CF00F0591F803C093
:101A60000CF0100CBCF1000F03D091F802C04CEA4E
:101A7000050591F800C0BCF1000F31D014680020BA
:101A80002BE04FF0010C0CFA00F3B1F800C00CEAA7
:101A900003069E4220D183004FF00F0C0CFA03F78F
:101AA000BC4305FA03FC4CEA040491F803C0BCF102
:101AB000280F06D14FF0010C0CFA00FCC2F814C03C
:101AC0000AE091F803C0BCF1480F05D14FF0010CBA
:101AD0000CFA00FCC2F810C0401C0828D1D31460D6
:101AE000B1F800C0BCF1FF0F34DD546800202EE0D7
:101AF00000F1080C4FF0010808FA0CF3B1F800C02F
:101B00000CEA03069E4221D183004FF00F0C0CFA21
:101B100003F7BC4305FA03FC4CEA040491F803C044
:101B2000BCF1280F05D100F1080C08FA0CF8C2F836
:101B3000148091F803C0BCF1480F07D100F1080CE4
:101B40004FF0010808FA0CF8C2F81080401C082871
:101B5000CED35460BDE8F081F0B50A4600230024DE
:101B60000021002500F00046B6F1004F02D11D4EC5
:101B7000F16901E01B4E7168C0F3034583B200F4C4
:101B80004016B6F5401F08D121F07061154E7668F9
:101B900026F07066134F7E6012E000F48016B6F5F2
:101BA000801F06D1032606FA05F4A14341F07061B7
:101BB00006E0460D360103FA06F6B14341F07061C6
:101BC00022B1460D360103FA06F6314300F0004615
:101BD000B6F1004F02D1034EF16101E0014E716098
:101BE000F0BD0000000001400246002093680B4059
:101BF0000BB1012000E00020704741617047016196
:101C000070470AB1016100E04161704700BFFEE723
:101C100070B50025002420211548FFF7E5FF28BBFB
:101C20001420FFF7EFFB20211148FFF7DDFFE8B993
:101C300003E00A20FFF7E6FB0A3420210C48FFF7F7
:101C4000D3FF18B940F24C408442F2D3B4F57A7F06
:101C500001D3022500E0012500BF20210448FFF741
:101C6000C3FF0028F9D01420FFF7CCFB284670BD35
:101C7000000C014008B50121082000F0DFFE4820DB
:101C80008DF803002020ADF8000003208DF802003D
:101C900069460248FFF7D5FE08BD0000000C014070
:101CA0002DE9F84F04460E460027B846B9460025F0
:101CB000AA461AE0204600F0A3F818B90220FFF760
:101CC000A1FB0EE0B4F906000744B4F90800804413
:101CD000B4F90A008144681C85B20520FFF792FB25
:101CE00000BF0AF101001FFA80FAB245E2DB0DB92C
:101CF000BDE8F88F284601F01BFF8346384601F007
:101D0000FFFE5946009001F01DFEE060284601F0FC
:101D10000FFF8346404601F0F3FE5946009001F064
:101D200011FE2061284601F003FF8346484601F07A
:101D3000E7FE5946009001F005FE606100BFD7E75D
:101D400070B504460D462946204602F037F806468F
:101D500004E00B49304602F031F8064609493046A6
:101D600001F0FAFFF5D304E00549304601F07CFDAF
:101D700006460549304601F0EFFEF5D3304670BD0A
:101D80000000B44300003443000034C308B501210F
:101D9000082000F053FE4FF44050ADF8000014202E
:101DA0008DF8030003208DF8020069461348FFF701
:101DB00048FE4FF480511148FFF721FF4FF40051C6
:101DC0000E48FFF71CFF6420FFF71CFB80216B20EF
:101DD00000F0A3F86420FFF715FB00216B2000F052
:101DE0009CF80A20FFF70EFB18211B2000F095F845
:101DF00000211C2000F091F808BD0000000C0140FB
:101E00007FB504460E2269463B2000F045F810B924
:101E1000002004B070BD9DF801009DF8001040EA5C
:101E2000012000B220809DF803009DF8021040EAD6
:101E3000012000B260809DF805009DF8041040EA82
:101E4000012000B2A0809DF809009DF8081040EA2A
:101E5000012000B2E0809DF80B009DF80A1040EAD6
:101E6000012000B220819DF80D009DF80C1040EA81
:101E7000012000B26081B4F90A0001F041FE06467B
:101E8000616901F09BFF0546024901F05BFDE061DD
:101E90000120BEE7333383412DE9F04107460E466A
:101EA000144614B90020BDE8F08100F0F1F8D0200C
:101EB00000F0A6F800F02AF918B100F007F90020A8
:101EC000F1E7384600F09CF800F020F918B100F076
:101ED000FDF80020E7E700F0DBF8D12000F090F8F3
:101EE00000F014F918B100F0F1F80020DBE700254C
:101EF00006E000F041F8705500F06AF8681CC5B2C1
:101F0000601EA842F5DC00F037F8611E705400F046
:101F1000A7F800F0DBF80120C5E770B505460C46D0
:101F200000F0B6F8D02000F06BF800F0EFF818B130
:101F300000F0CCF8002070BD284600F061F800F0F9
:101F4000E5F818B100F0C2F80020F4E7204600F0F0
:101F500057F800F0DBF818B100F0B8F80020EAE715
:101F600000F0B4F80120E6E7002002E000BF411CC9
:101F7000C8B20A28FADB704770B5002400F0FAF8FE
:101F8000002519E04FF480511048FFF736FEFFF7A7
:101F9000EBFF4FF480510D48FFF731FE6006040E51
:101FA0004FF400510948FFF71FFE08B144F0010447
:101FB000FFF7DAFF681CC5B2082DE3DB4FF4805150
:101FC0000248FFF71AFE204670BD0000000C0140D9
:101FD00010B500F0DFF84FF400510848FFF70DFE90
:101FE0004FF480510548FFF70AFEFFF7BDFF4FF49D
:101FF00080510248FFF701FE10BD0000000C0140B7
:1020000070B5044600F0C6F84FF480511348FFF74E
:10201000F4FD00251FE004F0800028B14FF40051CA
:102020000E48FFF7ECFD04E04FF400510B48FFF7BA
:10203000E4FD6006040EFFF797FF4FF48051074858
:10204000FFF7DDFDFFF790FF4FF480510348FFF7E6
:10205000D4FD681CC5B2082DDDDB70BD000C01404D
:1020600010B500F097F84FF400510848FFF7C7FD8E
:102070004FF480510548FFF7C2FDFFF775FF4FF49D
:1020800080510248FFF7B9FD10BD0000000C01406F
:1020900010B500F07FF84FF400510B48FFF7AFFD8B
:1020A0004FF480510848FFF7AAFDFFF75DFF4FF49A
:1020B00000510548FFF7A1FDFFF756FF4FF480518F
:1020C0000148FFF79AFD10BD000C014010B500F06B
:1020D00061F84FF480510C48FFF78FFD4FF4005129
:1020E0000948FFF78AFDFFF73FFF4FF4805106488C
:1020F000FFF785FDFFF738FF4FF400510248FFF767
:102100007EFDFFF731FF10BD000C014010B500242B
:1021100000F030F84FF400511548FFF770FD4FF410
:1021200080511348FFF76BFDFFF71EFF0FE0601CA7
:1021300080B20446C82808DB4FF480510C48FFF7F2
:102140005CFD00F027F8012010BDFFF70DFF4FF4F4
:1021500000510748FFF748FD0028E8D14FF48051AF
:102160000348FFF74AFD00F015F80020ECE70000F7
:10217000000C014008B54FF40050ADF800004820B5
:102180008DF8030069460248FFF75BFC08BD0000BC
:10219000000C014008B54FF40050ADF800001420C9
:1021A0008DF8030003208DF8020069460148FFF70F
:1021B00048FC08BD000C014000BFFEE710B501213E
:1021C0000148FFF71AFD10BD000C014010B50121B8
:1021D0000148FFF714FD10BD000C014000B589B0A7
:1021E0000121042000F02AFC0121082000F026FC37
:1021F0000121C80200F022FC10208DF823000320EA
:102200008DF822000120ADF8200008A92E48FFF724
:1022100018FC01212C48FFF7F0FC3020ADF820001D
:1022200008A92A48FFF70DFC30212848FFF7E5FCF4
:1022300040F20240ADF8200008A92348FFF701FC56
:1022400040F202412048FFF7D8FC18208DF8230007
:102250004001ADF8200008A91C48FFF7F2FB002060
:10226000ADF81A00ADF816006320ADF8180040F282
:10227000CF20ADF8140000208DF81C0005A91448EB
:1022800000F060FE01A800F04DFE6020ADF80400F3
:102290000020ADF80C000120ADF806000020ADF8DC
:1022A0000A0001A90A4800F09FFD01A9084800F0B2
:1022B000E7FD0121064800F04AFD0121044800F035
:1022C0003AFD09B000BD0000000C014000080140CB
:1022D000002C014070B505460C46002D04DB0021A2
:1022E000284600F013F804E00121684200B200F033
:1022F0000DF8002C04DB0021204600F02BF804E050
:102300000121604200B200F025F870BD70B50446AE
:102310000D46642C00DD6424002C00DA002445B94D
:1023200010210A48FFF76BFC20210848FFF765FCE5
:1023300007E010210548FFF760FC20210348FFF764
:102340005EFCA1B2024800F0F7FD70BD000801403C
:10235000002C014070B504460D46642C00DD642459
:10236000002C00DA00244DB902210B48FFF747FC8E
:102370004FF480610848FFF740FC08E0022106485E
:10238000FFF73BFC4FF480610348FFF738FCA1B234
:10239000024800F0D3FD70BD000C0140002C01404C
:1023A00010B530210848FFF728FC40F202410748E9
:1023B000FFF723FC0021064800F0BEFD0021044881
:1023C00000F0BCFD10BD000000080140000C014001
:1023D000002C01407047000070B5002100230F223F
:1023E000C47804B3154C246804F4E064C4F5E064D4
:1023F000210AC1F10403CA40447804FA03F1847845
:102400001440214309010E4C0678A155047804F0CC
:102410001F050124AC4005786D11AD0005F1E025E4
:10242000C5F8004109E0047804F01F050124AC4020
:10243000044D0678761145F8264070BD0CED00E09D
:1024400000E400E080E100E002490143024A11603B
:10245000704700000000FA050CED00E02DE9F74F91
:1024600082B08A469346D34503DC002005B0BDE820
:10247000F08FABEB0A084FEAE8790298A0EB0A0666
:10248000F71706210022A6FB010307FB013106FB1B
:1024900002134FF480519446A0FB012E03FB01E18F
:1024A00000FB0C10CDE9002042464B46DDE900015F
:1024B000FDF795FE4FF44053C41A61F100055942EF
:1024C000611A75F1FF3001DA5842CFE74FF44051FD
:1024D0000020091BA84102DA4FF44050C6E720460D
:1024E000C4E770B500240EE00021204600F007F993
:1024F000002504E0002000F0A4F9681CC5B2802D7E
:10250000F8DB601CC4B2082CEEDB70BD08B50121FD
:10251000082000F093FA10208DF8030003208DF8B6
:1025200002008020ADF8000069460D48FFF789FAE7
:102530004FF48070ADF8000069460948FFF781FA52
:102540004FF4C0710648FFF75AFB0122802104486E
:10255000FFF757FB012211020148FFF752FB08BDAC
:10256000000C014070B50546002424E08020204185
:10257000284008B1012000E0002002464FF480719D
:102580001648FFF73EFB002001E0411CC8B20A28B4
:10259000FBDB012280211148FFF733FB002001E023
:1025A000411CC8B20A28FBDB002280210B48FFF740
:1025B00028FB601CC4B2082CD8DB0122802107480C
:1025C000FFF71FFB002001E0411CC8B20A28FBDB1B
:1025D000002280210148FFF714FB70BD000C014070
:1025E00010B5012211020A48FFF70BFB01228021DE
:1025F0000748FFF706FB00224FF480710448FFF7FD
:1026000000FB002280210248FFF7FBFA10BD00000A
:10261000000C014010B500224FF480710648FFF70E
:10262000F0FA012280210448FFF7EBFA012211029F
:102630000148FFF7E6FA10BD000C014070B5002418
:1026400006E0002500E06D1CB5F57A7FFBD3641C25
:10265000B4F57A7FF5D3FFF759FFAE2000F0E1F82B
:10266000D52000F0DEF8802000F0DBF8A82000F094
:10267000D8F83F2000F0D5F8D32000F0D2F80020A1
:1026800000F0CFF8402000F0CCF8A12000F0C9F80D
:10269000C82000F0C6F8DA2000F0C3F8122000F0DD
:1026A000C0F8812000F0BDF8CF2000F0BAF8D920A2
:1026B00000F0B7F8F12000F0B4F8DB2000F0B1F83A
:1026C000302000F0AEF8A42000F0ABF8A62000F017
:1026D000A8F88D2000F0A5F8142000F0A2F8AF2093
:1026E00000F09FF8FFF7FDFE70BD10B50246012017
:1026F00000E050430B1EA1F10101FAD110BD70B5ED
:1027000005460C4645F0B00000F08BF8102141EA78
:10271000141000F086F804F00F0000F082F870BD8D
:102720002DE9F04105460E461746721ED206110EDF
:102730006A1E5206100EFFF7E2FF002409E0A7F11F
:102740002001134A02EB0111085D00F07AF8601CC9
:10275000C4B2082CF3DB721ED206110E6A1E0123CE
:1027600003EB4202D0B2FFF7CAFF00240BE0A7F14F
:102770002001074A02EB011204F10801505C00F04D
:1027800060F8601CC4B2082CF1DBBDE8F0810000E9
:10279000A63E00082DE9F0478146884615461E46AC
:1027A000002D06DB2B2241464846FFF7B9FF2F4696
:1027B00005E02D2241464846FFF7B2FF6F42002454
:1027C00017E0301B411E0A20FFF78FFFB7FBF0F028
:1027D0000A21B0FBF1F201FB120000F1300A08EB14
:1027E0000400401CC1B252464846FFF799FF601CE6
:1027F000C4B2B442E5DBBDE8F0872DE9F0410746FD
:102800000E461546002407E02A5D3019C1B238464D
:10281000FFF786FF601CC4B2285D0028F4D1BDE834
:10282000F08110B50446FFF7DBFE7820FFF79AFE33
:102830000020FFF797FE2046FFF794FEFFF7EAFE21
:1028400010BD10B50446FFF7CBFE7820FFF78AFED7
:102850004020FFF787FE2046FFF784FEFFF7DAFEF1
:1028600010BD2DE9F84F04460D461646294620684E
:1028700001F0A6F900903146284601F0A1F9814601
:10288000E16800F0F1FFE0606169E06801F064FA7E
:1028900002D26069E0600BE0606980F00049484660
:1028A000E16801F059FA03D2606980F00040E0600D
:1028B000E168606801F084F982464FF00008002169
:1028C000304601F049FA0CD22846216901F076FA27
:1028D0008346A16801F074F98146314601F032F86F
:1028E000804625615146009800F0BEFF8146414672
:1028F00000F0BAFF07463846A16901F02DFA01D26F
:10290000A7690AE0A06980F000493946484601F00D
:1029100023FA02D2A06980F000473846BDE8F88F5C
:1029200070B504460D4694F8200008B9002070BD2B
:102930002846E16901F044F9F9E72DE9FC5F044616
:102940000F4690461D46DDF83090424639462046F7
:10295000FFF787FF834629462046FFF7E1FF0190F6
:102960004946204600F01FF800905846019900F0B3
:102970007BFF8246009900F077FF06463046A1694A
:1029800001F0EAF901D2A6690AE0A06980F0004AE4
:102990003146504601F0E0F902D2A06980F00046CD
:1029A0003046BDE8FC9F70B504460D4694F82800FB
:1029B00008B9002070BD2846616A01F001F9F9E705
:1029C00070B5DDE904450160426083600026C660A1
:1029D000066144618561C66180F82060466280F8C6
:1029E000286070BD0021C16001617047C16180F83D
:1029F00020207047416280F82820704770470246C7
:102A00008A4201DD104670470846FCE702468A42CA
:102A100001DA104670470846FCE7000029B1064A73
:102A2000D2690243044BDA6104E0034AD26982436B
:102A3000014BDA61704700000010024029B1064ADC
:102A400092690243044B9A6104E0034A926982430B
:102A5000014B9A6170470000001002400348406A31
:102A600040F0807001494862704700000010024049
:102A700030B500210022002400232D4D6D6805F0A3
:102A80000C0121B1042905D0082923D105E0294DE5
:102A9000056022E0274D05601FE0254D6D6805F4B7
:102AA0007012234D6D6805F48034022505EB9242C7
:102AB0001CB9214D554305600BE01D4D6D6805F4B3
:102AC00000351DB11C4D5543056002E0194D5543BD
:102AD000056002E0174D056000BF00BF144D6D6832
:102AE00005F0F0010909154D6B5C0568DD40456096
:102AF0000F4D6D6805F4E061090A104D6B5C456887
:102B0000DD4085600A4D6D6805F46051C90A0B4DC2
:102B10006B5C4568DD40C560054D6D6805F440415E
:102B2000890B074D6B5CC568B5FBF3F5056130BDDE
:102B30000010024000127A0000093D000000002051
:102B400010000020704710B500F002F810BD000022
:102B50000CB50020019000903348006840F48030AC
:102B60003149086000BF3048006800F40030009030
:102B70000198401C0190009818B90198B0F5A06F19
:102B8000F1D12948006800F4003010B10120009014
:102B900001E0002000900098012843D123480068FC
:102BA00040F01000214908600846006820F003004A
:102BB00008600846006840F0020008601A48406853
:102BC000194948600846406848600846406840F433
:102BD000806048600846406820F47C1048600846E1
:102BE000406840F4E81048600846006840F0807093
:102BF000086000BF0C48006800F000700028F9D0A1
:102C00000948406820F003000749486008464068CA
:102C100040F00200486000BF0348406800F00C002C
:102C20000828F9D10CBD000000100240002002402D
:102C300008B501210820FFF701FF01210846FFF731
:102C4000FDFE01211348FEF787FF4FF48040ADF8E9
:102C5000000010208DF8030003208DF80200694663
:102C60000D48FEF7EEFE4FF40040ADF8000048209E
:102C70008DF8030069460848FEF7E3FE4FF48041F3
:102C80000548FEF7BCFF002004490870044908709D
:102C900008BD000000023000000C0140340000209C
:102CA000350000207047000010B51348006840F060
:102CB00001001149086008464068104908400E4963
:102CC0004860084600680E4908400B4908600846FD
:102CD000006820F4802008600846406820F4FE0068
:102CE00048604FF41F008860FFF72DFF4FF0006031
:102CF0000449086010BD0000001002400000FFF809
:102D0000FFFFF6FE08ED00E010B50121064800F0D7
:102D100051F840B10121044800F00AF80348006866
:102D2000401C0249086010BD00080040440000201B
:102D3000CA430282704721B1028842F00102028038
:102D400004E002884FF6FE731A400280704731B1EA
:102D5000B0F8442042F40042A0F8442005E0B0F866
:102D60004420C2F30E02A0F844207047F0B50C4690
:102D700015461E460021002200230189028B038C88
:102D80004FF6F877394021434FF6FC473A4040F27E
:102D900001173A434FF6DD773B404FF6FF7707EADE
:102DA00006172F433B43018102830384F0BD014694
:102DB000888C704730B50246002000230024158A15
:102DC00005EA0103958905EA010413B10CB101205C
:102DD00000E0002030BD1AB183890B43838102E0FB
:102DE00083898B438381704770B5002400220023C0
:102DF000058C4FF6FE7635400584028C8388048B63
:102E00004FF68F752C40B51E2C400D882C43751E37
:102E10002A400D892A434D882A43144DA8420BD0DD
:102E2000134DA84208D0134DA84205D0124DA84218
:102E300002D0124DA84213D14FF6F7752A404D89A2
:102E40002A434FF6FB752A408D882A434FF6FF65CB
:102E50002B404FF6FF552B408D892B43CD892B43BB
:102E600083800483CD888586028470BD002C014058
:102E7000003401400040014000440140004801404E
:102E800070B5002400220023058C4FF6EF76354004
:102E90000584028C8388048B48F6FF752C404FF61E
:102EA000FF452C400D884FF6FF7606EA05252C439A
:102EB0004FF6DF752A400D8906EA05152A434D882D
:102EC00006EA05152A43154DA84202D0144DA84222
:102ED0001DD14FF67F752A404D894FF6FF7606EAE1
:102EE00005152A434FF6BF752A408D8806EA051559
:102EF0002A434FF6FF352B404FF2FF752B408D894B
:102F000006EA85052B43CD8906EA85052B43838098
:102F10000483CD880587028470BD0000002C014029
:102F2000003401400021018041808180C180018105
:102F300041818181C18170478186704701877047D7
:102F400081847047002202881D4B98420ED01D4B91
:102F500098420BD0B0F1804F08D01B4B984205D05F
:102F60001A4B984202D01A4B984204D14FF68F73F5
:102F70001A404B881A43174B984207D0164B984279
:102F800004D04FF6FF431A40CB881A4302808B8847
:102F900083850B8803850A4B98420BD0094B9842D6
:102FA00008D00E4B984205D00D4B984202D00D4BE5
:102FB000984201D10B7A0386012383827047000077
:102FC000002C014000340140000400400008004093
:102FD000000C004000100040001400400040014080
:102FE00000440140004801401FB501210420FFF7C3
:102FF00015FD0020ADF80A00ADF8060040F2E730FC
:10300000ADF808004720ADF8040000208DF80C0052
:1030100001A91048FFF796FF012211460D48FFF75E
:10302000DAFE4FF4A060FFF70FFA1E208DF80000C3
:1030300001208DF8030002208DF8010000208DF89A
:1030400002006846FFF7C8F901210248FFF773FE46
:103050001FBD00000008004010B540F225511D487A
:1030600000F0C9F810B31B4800F080F9C4B21A4848
:10307000008800F40040C8B91748008800F4804078
:1030800060B10A2C03D000201349088020E01248C8
:10309000008840F400401049088019E00D2C06D14A
:1030A0000D48008840F480400B49088010E00A4831
:1030B0000088C0F30D0009490C5407480088401CE3
:1030C0000549088008460088C72801DD00200880DF
:1030D00010BD00000038014018000020480000200A
:1030E00010B540F22551334800F085F8002860D033
:1030F000304800F03BF9C4B22F48007820B10128D5
:1031000013D0022853D141E0232C0DD100202B49AC
:103110000870084601780078401C284A107028483A
:10312000445401202449087041E0212C0FD1234848
:103130000078202807DA214801780078401C1F4ACF
:1031400010701F48445402201B4908701DE0232CB6
:103150000BD1002019490870084601780078401CFE
:10316000164A1070164844540FE01448007820287E
:1031700008DA124801780078401C104A1070104894
:10318000445402E000200C49087010E0232C0DD1BB
:1031900000200A490870084601780078401C074A58
:1031A00010700748445401200349087000BF00BF55
:1031B00000BF10BD004400401F0000201E00002082
:1031C0001001002021B1828942F40052828104E082
:1031D00082894DF6FF731A408281704702460020B3
:1031E000B1F5007F00D100BF13880B400BB1012067
:1031F00000E00020704770B502460024002300253F
:10320000002040F66A16B14200D100BFC1F342155A
:1032100001F01F03012606FA03F3012D02D196895E
:10322000334006E0022D02D1168A334001E0968A2F
:1032300033400C12012606FA04F41688344013B108
:103240000CB1012000E0002070BDF0B50346002461
:1032500000260025002040F66A17B94200D100BFC1
:103260001846C1F3421401F01F06012707FA06F5BC
:10327000012C01D10C3004E0022C01D1103000E00F
:1032800014301AB107682F43076002E00768AF43A4
:103290000760F0BD2DE9F04786B005460E460024D4
:1032A000A24600BFA1460027B08900B100BF2F464B
:1032B0002C8A4CF6FF700440F08804432C82AC89C1
:1032C0004EF6F3100440B0883189084371890843F1
:1032D0000443AC81AC8A4FF6FF400440B0890443FC
:1032E000AC8201A8FFF7C4FB1F48874202D1DDF87A
:1032F00010A001E0DDF80CA0A88900F4004040B166
:103300000AEBCA0000EB0A1031684900B0FBF1F883
:1033100007E00AEBCA0000EB0A1031688900B0FB35
:10332000F1F86420B8FBF0F004012009642101FBEE
:103330001089A88900F4004040B1322000EBC90098
:10334000B0FBF1F000F00700044308E0322000EB8E
:1033500009106421B0FBF1F000F00F0004432C8150
:1033600006B0BDE8F08700000038014001468888BB
:10337000C0F308007047C1F308028280704700BFA5
:10338000FEE7000030B5A5B001210420FFF756FB91
:1033900001214804FFF742FB03208DF8920004202E
:1033A000ADF8900018208DF8930024A93A48FEF754
:1033B00048FB0820ADF8900048208DF8930024A920
:1033C0003548FEF73EFB4FF4E13020900020ADF889
:1033D0008C000C20ADF88A000020ADF88800ADF814
:1033E0008600ADF8840020A92C48FFF753FF012286
:1033F00040F225512948FFF728FF4FF4A060FFF75E
:1034000023F826208DF87C0001208DF87F008DF8B0
:103410007D008DF87E001FA8FEF7DEFF01211F480A
:10342000FFF7D0FE1E48446AFFF718FBE00FC4F315
:103430008071C4F34072C4F30073CDE90232CDE968
:103440000410C4F38060C4F3C061234615A2CDE923
:103450000010602107A8FCF7E7FE07AD0BE000BFF6
:1034600080210E48FFF7BAFE0028F9D015F8011B9D
:103470000A48FFF780FF28780028F0D1FFF7D8FB33
:103480000020184908701849087020211748FDF7D6
:10349000B0F825B030BD00000008014000440040F5
:1034A00000100240424F4F54206373723D25303864
:1034B0006C5820504F523D25752050494E3D257582
:1034C000205346543D257520495744473D257520D6
:1034D000575744473D2575204C5057523D25750D93
:1034E0000A0000001E0000201F0000201001002024
:1034F00010B5044600BF80210448FFF76FFE002886
:10350000F9D021460148FFF736FF10BD00440040C6
:1035100010B5044604B910BD03E014F8010BFFF721
:10352000E7FF20780028F8D100BFF4E710B5024685
:103530000B4602B10BB9002010BD1E4800780228CE
:1035400001D00020F8E71C480078022806DA0020A5
:10355000184C2070184C20701070EDE71748007858
:10356000232806D114480078401E144C205C2128E2
:1035700006D000200F4C20700F4C20701070DBE73D
:10358000002104E00D48405C5054481CC1B20A4878
:103590000078401EC0B2884203DD581EC0B2884287
:1035A000F0DC00205054034C2070034C20700120AC
:1035B000C2E700001F0000201E00002010010020B4
:1035C00030380A2801D20120704700207047014698
:1035D00000BF7047FFF732F877A201210846FFF7D6
:1035E0000CF979A201210220FFF707F9FEF742FB4F
:1035F00000217948FDF734FA05207749A1F89C01AC
:10360000FFF7F2FC75A201210846FFF7F6F877A252
:1036100001210220FFF7F1F878A201210320FFF732
:10362000ECF87AA201210420FFF7E7F8C3E06A482A
:10363000FDF752FEFEF7ECFA0446012C1DD1664858
:1036400090F8A80180B975A201210846FFF7D5F8C6
:103650006148FDF7EBFB6048FDF7EFFD74A2012127
:103660000846FFF7CAF827E05B48FDF713FE67A29C
:1036700001210420FFF7C1F81EE0022C1CD171A229
:1036800001210846FFF7B9F864215348FEF708FB0B
:1036900052A201210846FFF7B0F854A201210220EE
:1036A000FFF7ABF855A201210320FFF7A6F857A2B8
:1036B00001210420FFF7A1F84748D0F8AC01664982
:1036C0000968401A322872D34348D0F8AC016249E5
:1036D00008604148D0F8AC0142F21071B0FBF1F241
:1036E00001FB120504232A4607210120FFF752F8A7
:1036F0005A4800684FF47A71B0FBF1F201FB1205F1
:1037000003232A460D210120FFF744F8544800689E
:103710004FF47A71B0FBF1F201FB120503232A4644
:1037200002210846FFF736F82B49886900F0CCF9EA
:10373000054604232A4607210220FFF72BF82649D5
:10374000D1F8B401474900F03BFA064600F0BCF955
:10375000054603232A460D210220FFF71BF81E49C8
:10376000D1F8A0013F4900F02BFA064600F0ACF971
:10377000054603232A4602211846FFF70BF8164890
:10378000B0F9A421032308211846FFF703F81248D3
:10379000B0F9A62103230D211846FEF7FBFF0E48C2
:1037A00090F8A821012305210420FEF7F3FF012052
:1037B000FDF728FE00BF3AE746757A7A792050492E
:1037C0004420436172000000496E697469616C694C
:1037D0007A696E672E2E2E00300100204449414741
:1037E000205430303030204F3030300046303030D0
:1037F00020593030303020453030300043303030C8
:10380000204C3030302052303030200052554E3D68
:1038100030204D50553D3F202020200053746172D0
:1038200074696E672E2E2E202020202000000000BC
:1038300052756E6E696E672E2E2E2020202020205D
:103840000000000043616C6962726174696E672EEA
:103850002E2E202000000000400000202400002028
:10386000280000200000204190EA010F48BF81F0AD
:10387000004100F1AA82421A3CBF801A89184FEA1F
:10388000D0524FF07F4C1CEA410FA2EBD15318BF2E
:103890009CEA026F00F03B804FF0004C4CEA0020A5
:1038A0004CEA012121FA03FC10EB0C0C1ED202F1B0
:1038B000FF325FEA1C2040EBC25038BF70471CF05B
:1038C0007F0F4FEA400C18BFBCF17F4F38BF7047E5
:1038D000C3F12003994008BF20F00100BCF17F4FE5
:1038E00038BF7047A0F1C04000F031BA4FEA3C0049
:1038F000000A40EBC25028BF1CF0FF0F4FEA400CFB
:10390000E6D018BFBCF17F4F38BF7047EAE79CEAAA
:10391000026F05D010EA5C0F08BF00F0004070474E
:1039200010B500F0CEF900BF64FBBE3E401058BF9A
:10393000C0F14040491058BFC1F140418142EFF30E
:10394000008070474FF47F0C1CEAD0121EBF1CEAA7
:10395000D11392EA0C0F93EA0C0F00F0858090EAE5
:10396000010F48BF42F4807240F4000C41F40000A3
:103970002CF07F4120F07F4000B58142A2EB030292
:103980000FF2081CACEB504EC0F100009EF800E0B6
:103990004FEA4E0E00FB0EFC38BF49004FEA2C1CCC
:1039A00002F5FA020CFB0EF34FEACE1E4FEA112C81
:1039B0004FEAC1210EEB635E42EB22420EFB0CFC90
:1039C0004FEA1C5300FB03114FEA112C4FEA01315F
:1039D0000EFB0CFC4FEADC4C00FB0C11C14228BF73
:1039E00009184CEB03335DF804EB10EB410143EB9A
:1039F000C250B2F57C0F38BF704729D512F0F00FD6
:103A00001CBF00F1C04000F000407047008182837D
:103A10008485868788898B8C8D8E8F9192939596DD
:103A200097999A9C9D9FA0A2A3A5A7A8AAACAEB067
:103A3000B2B3B5B7B9BCBEC0C2C5C7C9CCCED1D46C
:103A4000D7D9DCDFE2E6E9ECF0F3F7FAFE0000009C
:103A50004FEA400C0CF1807CBCF17E4F28BF7047D0
:103A6000B0F1C04000F073B990EA010F0CEAD11335
:103A700048BF42F48072624538BF634507D213F4F1
:103A80007F0F16D080EA010000F00040704710B5AB
:103A900000F017F9097EFC3E00F005B880EA01004D
:103AA00000F00040704780EA010000F0004000F0A4
:103AB0004EB912F47F0F04BF0248704780EA01003C
:103AC00000F045B90000C07F41000B0ED3F19E020B
:103AD00008D950F400034FEA032323FA02F048BF49
:103AE0004042704710B500F0ECF800BF49922480C6
:103AF000002070476FF0004282EA2000704700000B
:103B000010F0004148BF4042B0FA80F310FA03F2CF
:103B1000C3F19D030BD051EAC35101EB12205306B0
:103B200038BF704700F1010008BF20F00100704766
:103B3000B0FA80F310FA03F2C3F19D030AD0D9055D
:103B400001EB1220530638BF704700F1010008BF97
:103B500020F001007047000050EA010C00F11380D2
:103B60001CF5000F58BFBCF5000F01D48842704708
:103B700007D710F5000F58BF11F5000F15D4884274
:103B80007047894270471CF5000F04D5BCF5000F43
:103B9000F7D5814270474FF0807C1CEB400F38BF57
:103BA0001CEB410F01D28142704710B500F089F83B
:103BB000922449004FF000504FF08051FFF7B6BEFD
:103BC0004FF47F0C1CEAD0121EBF1CEAD11392EAFC
:103BD0000C0F93EA0C0F00F0478090EA010F48BFEA
:103BE00042F480724FF0004C4CEA00204CEA012174
:103BF00002EB0302A0FB0113A2F50002002918BF8B
:103C000043F001035B0028BF4FEA330342EB22423B
:103C10005FEA132C4CEBC2502EBFBCEB436FB2F5E6
:103C20007C0F70474FEA036CBCF1004F08BF20F0D7
:103C30000100B2F57C0F38BF70470BD582F0FF0250
:103C400012F5803FC8BF704700F1C040D8BF00F0F8
:103C50000040704700F5000C5FEA4C0C48BF70470D
:103C6000B0F1C04000F073B890EA010F0CEAD11334
:103C700048BF42F48072624538BF634504D280EA8F
:103C8000010000F00040704710B500F01AF800BFC6
:103C90008900013E00F007B800F009B85FEA410C66
:103CA0005FEA1C6C08D080EA010000F050B85FEABF
:103CB000400C5FEA1C6CF6D14FF00040A0F580008C
:103CC00070470EF1020E2EF0030E5EF8044B2442F4
:103CD00004D44FEA4102B2F17F4F11D84FEA4003BA
:103CE000B3F17F4F0CD80ED14FEAD07CB2F17F4FA9
:103CF0000CEB4C0C0CF1020C08BF4CEBD17C04E03B
:103D00004FF0080C01E04FEAD17C0CEB4C0324FA95
:103D100003F404F00704B4F1040C06D20EEB840C97
:103D2000BDE810404CF0010C6047DFE80CF00708DC
:103D300002024FF00040A0F5800010BD084642008E
:103D400018BFD2F1807288BF00F0004010BDFF2183
:103D500041EAD050C005704751EA000C00F11380D1
:103D60001CF5000F58BFBCF5000F01D4814270470D
:103D700007D711F5000F58BF10F5000F15D4814279
:103D80007047894270471CF5000F04D5BCF5000F41
:103D9000F7D5884270474FF0807C1CEB410F38BF4D
:103DA0001CEB400F01D28842704780EA010081EA93
:103DB000000180EA0100FFF7F8BE000090EA010F61
:103DC00048BF81F000413FF556AD421A04D882F059
:103DD0000042A0EB020011444FEAD0524FF07F4C5A
:103DE0001CEA410FA2EBD15318BF9CEA026F4AD0E4
:103DF0004FF0004C4CEA00204CEA012121FA03FC70
:103E0000B0EB0C0C0FD412F0FE0F36D05FEA4C0072
:103E10001DD5001240EBC25038BF70471CF03F0F59
:103E200018BF70470BE0A2F101025FEA1C2040EBD3
:103E3000C25038BF70471CF07F0F18BF7047C3F1E6
:103E40002003994014BF401E20F0010070478008F5
:103E50004FEA122308BF7047B0FA80FCA2EB0C02B5
:103E6000CCF1280C60FA0CF093EA122F04BF00EB9F
:103E7000C25070474FEAC3707047130A5FEADC1004
:103E800008BF7047F6E79CEA026F04D010EA5C0FA7
:103E900008BF0020704710B5FFF713FF40DFF63E64
:103EA00081F00040704700000000000000000000AA
:103EB000000000000000000000F80000000000000A
:103EC00000333000000000100C06100C060000004B
:103ED00000000000000040C07840C0784000043F6F
:103EE00004043F040400007088FC0830000000183F
:103EF00020FF211E0000F008F000E0180000002163
:103F00001C031E211E0000F00888700000001E2106
:103F100023241927211010160E00000000000000B5
:103F2000000000000000000000E018040200000093
:103F300000071820400000020418E00000000040C4
:103F4000201807000000404080F08040400002023E
:103F5000010F01020200000000F00000000001015A
:103F6000011F01010100000000000000000080B0FE
:103F700070000000000000000000000000000001D0
:103F800001010101010100000000000000000030FB
:103F90003000000000000000000080601804006095
:103FA00018060100000000E010080810E000000FF3
:103FB000102020100F00001010F80000000000205A
:103FC000203F2020000000700808088870000030A2
:103FD000282422213000003008888848300000184A
:103FE000202020110E000000C02010F80000000763
:103FF0000424243F240000F80888880808000019D9
:10400000212020110E0000E0108888180000000F09
:10401000112020110E0000380808C83808000000E0
:10402000003F000000000070880808887000001C35
:10403000222121221C0000E010080810E0000000EE
:10404000312222110F00000000C0C000000000005B
:104050000030300000000000008000000000000080
:104060008060000000000000804020100800000177
:10407000020408102000404040404040400004043A
:104080000404040404000008102040800000002004
:10409000100804020100007048080808F000000041
:1040A000003036010000C030C828E810E0000718D2
:1040B000272423140B000000C038E0000000203C3F
:1040C00023020227382008F8888888700000203FE3
:1040D000202020110E00C0300808080838000718FA
:1040E00020202010080008F808080810E000203FF1
:1040F000202020100F0008F88888E8081000203FD2
:1041000020202320180008F88888E8081000203FA5
:10411000200003000000C03008080838000007181D
:104120002020221E020008F808000008F808203F9E
:10413000210101213F20000808F8080800000020A4
:10414000203F2020000000000808F8080800C08078
:1041500080807F00000008F888C028180800203FF1
:1041600020012638200008F8080000000000203F49
:1041700020202020300008F8F800F8F80800203F40
:10418000003F003F200008F830C00008F808203F3A
:10419000200007183F00E01008080810E0000F108A
:1041A000202020100F0008F808080808F000203F21
:1041B000210101010000E01008080810E0000F18BC
:1041C000242438504F0008F8888888887000203FE1
:1041D0002000030C302000708808080838000038E0
:1041E000202121221C00180808F8080818000000E7
:1041F000203F2000000008F808000008F808001F11
:10420000202020201F000878880000C838080000FF
:1042100007380E010000F80800F80008F800033C19
:104220000700073C030008186880806818082030E1
:104230002C03032C30200838C800C83808000000C0
:10424000203F2000000010080808C8380800203867
:10425000262120201800000000FE020202000000BB
:10426000007F40404000000C30C000000000000013
:1042700000010638C00000020202FE0000000040FB
:1042800040407F0000000000040202020400000021
:10429000000000000000000000000000000080801E
:1042A0008080808080800002020400000000000006
:1042B00000000000000000008080808000000019E5
:1042C000242222223F2008F8008080000000003FC6
:1042D000112020110E000000008080800000000EE0
:1042E000112020201100000000808088F800000EBE
:1042F000112020103F200000808080800000001FDF
:10430000222222221300008080F088888818002052
:10431000203F202000000000808080808000006B13
:1043200094949493600008F8008080800000203FFF
:10433000210000203F20008098980000000000200D
:10434000203F20200000000000809898000000C05E
:104350008080807F000008F8000080808000203F7F
:1043600024022D302000000808F800000000002082
:10437000203F202000008080808080808000203FBF
:1043800020003F20003F8080008080800000203F90
:10439000210000203F200000808080800000001F5E
:1043A000202020201F00808000808000000080FFEF
:1043B000A12020110E000000008080808000000EEF
:1043C000112020A0FF80808080008080800020203D
:1043D0003F212000010000008080808080000033A9
:1043E000242424241900008080E080800000000044
:1043F000001F202000008080000000808000001F3F
:10440000202020103F2080808000008080800001DC
:104410000E300806010080800080008080800F3010
:104420000C030C300F000080800080808000002092
:10443000312E0E31200080808000008080808081BD
:104440008E7018060100008080808080800000212E
:10445000302C2221300000000000807C020200008D
:104460000000003F404000000000FF00000000008E
:104470000000FF0000000002027C800000000040FD
:10448000403F000000000006010102020404000099
:10449000000000000000000003030202010000030E
:1044A0000302010100FF0202020100FFFF020201FC
:1044B00000FFFEFE010100FFFFFEFE0100FFFEFE09
:1044C000FEFD0000FFFEFEFDFD000000FDFDFEFE06
:1044D000FF0000FDFDFEFFFF0000FDFEFFFF0001ED
:1044E00001FEFEFF00010202FEFF000101020300C7
:1044F00000010102030300000102020303000000A7
:1045000001FFFDFDFDFE0101FFFDFEFEFF0000FFBE
:10451000FEFEFFFF0000FFFFFFFFFF0000000000A6
:1045200000000003FF010101010303020202010177
:10453000033031323334353637383941424344451C
:1045400046403058003031323334353637383961EF
:104550006263646566403078000400000800000073
:10456000000000000200010000100000484220741A
:1045700069636B3D256C752072756E3D25752073E2
:1045800070643D256420793D25642074793D25645F
:1045900020653D256420633D25642079723D2564B6
:1045A00020677A3D256420677A6F3D2564204C3D65
:1045B000256420523D2564206F6B3D256C75206677
:1045C00061696C3D256C750D0A000000535441541F
:1045D000207469636B3D256C752072756E3D257581
:1045E000207370643D256420793D25642074793DF5
:1045F000256420653D256420633D25642079723D56
:10460000256420677A3D256420677A6F3D25642004
:104610004C3D256420523D2564206F6B3D256C7513
:10462000206661696C3D256C750D0A004C460008DA
:1046300000000020480000002801000894460008FF
:1046400048000020000900004401000800000000AC
:104650000102030401020304060708090204060814
:104660000000000000000000000000000200000048
:10467000000000000000000000000000000000003A
:10468000000000000000000000000000000000002A
:044690000000000026
:04000005080000ED02
:00000001FF
