:020000040800F2
:10000000F007002001010008652C000861240008A9
:10001000C12B0008610A0008FB3000080000000046
:10002000000000000000000000000000852C000817
:10003000630A000800000000672C0008D12C0008AB
:100040001B0100081B0100081B0100081B01000820
:100050001B0100081B0100081B0100081B01000810
:100060001B0100081B0100081B0100081B01000800
:100070001B0100081B0100081B0100081B010008F0
:100080001B0100081B0100081B0100081B010008E0
:100090001B0100081B0100081B0100081B010008D0
:1000A0001B010008352D00081B0100081B0100087A
:1000B0001B0100081B0100081B0100081B010008B0
:1000C0001B0100081B0100081B0100081B010008A0
:1000D0001B0100081B0100081B0100081B01000890
:1000E0001B0100081B0100081B010008DFF80CD0F1
:1000F00000F028FC00480047B1400008F00700204D
:100100000648804706480047FEE7FEE7FEE7FEE7B1
:10011000FEE7FEE7FEE7FEE7FEE7FEE7332D000819
:10012000ED000008202A04DB203A21FA02F0002129
:10013000704721FA02F3D040C2F1200291400843F7
:1001400019467047D2B201E000F8012B491EFBD2DC
:1001500070470022F6E710B513460A4604461946D2
:10016000FFF7F0FF204610BDF0B480EA0102D40F83
:100170004200B2EB410F02D20246084611464A0045
:1001800042D0C30DDDB2C1F3C752AD1A202D35DA0E
:10019000C1F3160141F4000204B15242C5F1200638
:1001A00002FA06F12A411044B3EBD05F23D0C4B168
:1001B000012DA0EBC35009DCF0BC4FF0004202EA75
:1001C000C352DBB200F5000000F019BB400000F1A3
:1001D000807000EBC350A0F1807040EAD1704900FC
:1001E00009E0490841EAC071A0EBC35000F50000E6
:1001F000400800EBC350F0BC00F0F8BA61420122A5
:1002000002EB4101001BF6E7F0BC704781F00041B2
:10021000AAE780F00040A7E780EA010210B502F0EB
:100220000043400022D04A001FD0010E01EB1261B2
:10023000C0F35600C2F3560240F4000042F400023C
:10024000A0FB022000047F39140400D0401C50EAB7
:10025000124001D44000491EC2B20C0604EBD0107B
:10026000401C4008802A02D003E0002010BD20F08E
:100270000100002900DA0020184310BD2DE9FE4FCF
:10028000804681EA0300C00F0C46009021F0004137
:1002900023F00045B8EB0200A94105D240462146B3
:1002A00090461C460B46024623F00040104347D0C0
:1002B000270DC7F30A00C3F30A510290401A0190B8
:1002C00040286BDAC3F3130040F4801B0098924679
:1002D00020B10023D2EB030A63EB0B0B01985946C4
:1002E000C0F14002504600F060FA06460D46504606
:1002F0005946019A00F068FA10EB080061410024A9
:1003000087EA115284EAE7731A4340D0009A62B335
:10031000019A012A4FEA075215DC001B61EB02012A
:100320004FF0004202EA0752CDE90042001C41F5BD
:10033000801132462B4600F09FFA03B0BDE8F08FE3
:1003400040462146F9E7001B61EB0201001C41F524
:10035000801300185B412018A2F5001747EB03013A
:1003600040EAD570B6196D4111E06D084FEA3606C6
:1003700045EAC0754FEA0752001B61EB0201001C01
:1003800041F5801149084FEA3000001951413246C9
:100390002B4603B0BDE8F04F00F05FBA0098012291
:1003A00040000023D0EB020263EBE073009821468B
:1003B0004FEAE074B8EB000061EB0401E9E783F079
:1003C00000435BE781F0004158E72DE9FE4F81EAE9
:1003D000030404F0004421F0004100944FF0000BAE
:1003E00023F0004350EA01045ED052EA03045BD0DC
:1003F000C3F30A54C1F30A552C44A4F2F334019414
:10040000A0FB0254C1F3130141F48011C3F31303A1
:1004100043F4801301FB024400FB034E840A970A55
:1004200044EA815447EA8357A4FB076802958D0A82
:1004300005FB07854FEA932C04FB0C542705029D0E
:100440004FEA065847EA1637B5EB08056EEB070C7E
:10045000870E920E47EA811742EA8312A7FB020138
:10046000B6EB0B0164EB00042B0D43EA0C335E1872
:1004700044EB1C50DA465146E7FB0201C5F3130476
:100480004FEA0B3343EA14534FEA0432019C43EA28
:100490000603A4F10C040294009CCDE900B400F022
:1004A000EBF903B0BDE8F08F00200146F9E72DE934
:1004B000F04D81EA030404F0004B21F0004514469E
:1004C0004FF0000A23F0004150EA050220D054EA20
:1004D00001021DD0C5F30A570246C5F31303C1F349
:1004E0001300C1F30A5640F4801543F48013A7EBC0
:1004F0000608101BD64608F2FD3873EB050002D340
:1005000008F1010801E092185B41B8F1000F03DA2D
:1005100000200146BDE8F08D00204FF48011064612
:1005200084460EE0171B73EB050705D3121B63EB24
:10053000050306434CEA010C49084FEA30009218C3
:100540005B4150EA0107EDD152EA030012D082EA82
:10055000040083EA0501084305D0101BAB4106D215
:100560000122002306E000224FF0004302E06FF07A
:10057000010253101AEB06004CEB085110EB0A0075
:1005800041EB0B01BDE8F04D00F067B970B521F00B
:10059000004303430CD0C1F30A550024D5EB0405F6
:1005A00064EB0403D617AD1AB34102DB0020014609
:1005B00070BD201841EB025170BDC10F80EAE070A0
:1005C0000844CA079623002100F019B90EB5C10FDF
:1005D00080EAE0700844CA07002140F233438DE806
:1005E0000E000A460B4600F047F903B000BD00F0CC
:1005F000004220F00040C10DC0F3160040F400009E
:100600007F2901DA00207047962903DCC1F19601A9
:10061000C84001E096398840002AF4D04042704733
:1006200070B5C1F30A5201F000450024C1F3130173
:1006300040F2FF3341F480119A4201DA002070BD8C
:1006400040F233439A42A2F2334203DC5242FFF7B4
:1006500069FD00E090402C43F1D0404270BD00F0B5
:10066000004230F000400AD0C10D01F56071C0F3C6
:10067000160042EA0151C2084007114370470020AA
:100680000146704730B5041E71F1000404DB4FF0E1
:100690000044404264EB0101141E73F1000405DBC9
:1006A0001C464FF00043524263EB04038B4208BFE9
:1006B000824230BD30B5041E71F1000404DB4FF0FE
:1006C0000044404264EB0101141E73F1000405DB99
:1006D0001C464FF00043524263EB0403994208BFAB
:1006E000904230BD01F0004330B421F0004150EAA7
:1006F000010206D00A0DA2F56072C1F31301002AAF
:1007000002DC30BC00207047440F44EAC104C10041
:10071000E01830BC00EBC25000F068B830B50B46B2
:10072000014600202022012409E021FA02F59D4221
:1007300005D303FA02F5491B04FA02F52844151EF5
:10074000A2F10102F1DC30BD2DE9F05F0546002089
:1007500092469B4688460646814640241BE0284632
:10076000414647462246FFF7DDFC53465A46C01A2B
:10077000914110D311461846224600F016F82D1A62
:1007800067EB01084F4622460120002100F00DF8DA
:1007900017EB00094E41201EA4F10104DFDC48469E
:1007A00031462A464346BDE8F09F202A04DB203A22
:1007B00000FA02F1002070479140C2F1200320FAB4
:1007C00003F3194390407047202A06DBCB17203AE9
:1007D00041FA02F043EAE07306E041FA02F3D04046
:1007E000C2F1200291400843194670470029A8BF72
:1007F0007047401C490008BF20F00100704710B44A
:10080000B0FA80FC00FA0CF050EA010404BF10BCFE
:10081000704749B1CCF1200421FA04F411FA0CF12B
:1008200018BF012121430843A3EB0C01CB1D4FEA64
:1008300000614FEA102042BF002010BC704700EB5F
:10084000C35010440029A4BF10BC7047401C49008D
:1008500008BF20F0010010BC704710B5141E73F1E2
:10086000000408DA401C41F1000192185B411A4370
:1008700001D120F0010010BD2DE9F04D92469B46BC
:1008800011B1B1FA81F202E0B0FA80F22032904662
:10089000FFF78BFF04460F4640EA0A0041EA0B01CE
:1008A00053465A46084313D0114653EA010019D063
:1008B000C8F140025046FFF735FC05460E4650464B
:1008C00059464246FFF771FF084305D0012004E076
:1008D00020463946BDE8F08D0020054346EAE07623
:1008E0002C4337430A986305E40AA0EB0800002272
:1008F000FD0A44EA47540A3002D500200146E9E7E0
:10090000010510196941DDE9084500196941BDE893
:10091000F04DA2E7C1F30A52C1F3130140F2FF33D5
:1009200041F480119A4202DA00200146704740F2F9
:1009300033439A42A2F2334202DC5242FFF7F2BB47
:10094000FFF733BF064C074D06E0E06840F00103B7
:1009500094E8070098471034AC42F6D3FFF7CAFB7F
:10096000F8510008185200082DE9F04D00231A46EE
:100970001B1A8A4103DB00200146BDE8F08DC1F35C
:100980000A52C1F3130141F480154FF0000BD10757
:1009900002D100186D41521E0027044640F2FF119B
:1009A000384601EB620A3E468046024600204FF47C
:1009B0008011FFF7B7FBC2197141BB1846EB01006C
:1009C000B4EB030C75EB000C04D3E41A65EB0005E3
:1009D00017460E46241908F101006D41804634285F
:1009E000E3DDF91946EB0600091BA84103D24FF0DD
:1009F000FF32134601E0002213461BEB070046EBD3
:100A00000A51BDE8F04DFFF728BF70B58C1810F8FB
:100A1000015B15F0070301D110F8013B2A1106D143
:100A200010F8012B03E010F8016B01F8016B5B1E5D
:100A3000F9D12B0705D40023521E0DD401F8013B38
:100A4000FAE710F8013BCB1A921C03E013F8015BA4
:100A500001F8015B521EF9D5A142D8D3002070BD28
:100A6000FEE7704703480168486A002200B24A6204
:100A7000704700005002002003480168486A0022C5
:100A800000B24A62704700000802002072B6FEE71A
:100A900070B5044600F008F90546601C02D0044811
:100AA0000078044400F000F9401BA042FAD370BD66
:100AB000C00000202DE9F84FDFF8B8910024A9F11B
:100AC000040B23460F2709F1040AABF1040EC9E019
:100AD0000125A5402A40AA427DD1674ED1F804C025
:100AE000ACEB0608B44532D014DCBCF1030F3AD0AD
:100AF00009DCBCF1000F2AD0BCF1010F1CD0BCF105
:100B0000020F31D11DE0BCF1110F17D0BCF1120F53
:100B10002AD119E0B8F5881F19D006DCB8F5803F56
:100B200015D0B8F5801F1FD111E0B8F5001F0ED009
:100B3000B8F5041F18D10AE0CB6815E0CB681B1D7F
:100B400012E0CB6808330FE0CB680C330CE08B6805
:100B50002BB1012B4FF0080303D0456104E00423BF
:100B600002E0056100E00023FF2A01D8064601E00B
:100B700000F104064FEA840501D9A5F12005D6F855
:100B8000008007FA05FC28EA0C0803FA05F548EA94
:100B90000508C6F800804D68ED0062D5374DAE6996
:100BA00046F00106AE61AD6924F0030605F00105CB
:100BB0000095334D06EB050CDCF80850A607360F00
:100BC00007FA06F825EA0805DFF8B880404503D1A2
:100BD0004FF0000817E044E0DFF8AC80404502D158
:100BE0004FF001080FE0DFF8A480404502D14FF03C
:100BF000020808E0DFF89880404502D14FF0030872
:100C000001E04FF0040808FA06F848EA0508CCF8B5
:100C100008804D68D9F80060ED024D4601D51643B5
:100C200000E096432E604D68DAF80060AD0255464C
:100C300001D5164300E096432E604D68DBF8006056
:100C4000AD035D4601D5164300E096432E604D6826
:100C5000DEF80060ED03754601D5164300E09643CB
:100C60002E60641C0D682A46E5407FF431AFBDE874
:100C7000F88F00000804014000001110001002402D
:100C80000000014000080140000C0140001001403C
:100C9000001401408068084000D0012070470AB16C
:100CA000016170470904FBE7014880687047000054
:100CB000C000002070B5040025D094F83D00002548
:100CC00020B984F83C50204600F076FA242084F8BD
:100CD0003D002068016821F0010101602068016881
:100CE00041F4004101602068016821F40041016085
:100CF00000F0C4FB4D4A6168914201D84C4900E0C4
:100D00004C49884201D2012070BD4B492368B0FB99
:100D1000F1F15E6826F03F060E435E606368934221
:100D200006D94FF4967359434FF47A73B1FBF3F13C
:100D30002368491C1E6A26F03F0631431962616828
:100D4000914210D84900401EB0FBF1F2521CC2F390
:100D50000B02042A01D2042022E0B0FBF1F0401C77
:100D6000C0F30B001CE0A268F2B301EBC10303EB7C
:100D70000116431EB3FBF6F35B1C43F480431B05D3
:100D800049D092B301EBC10202EB0111401EB0FB4E
:100D9000F1F0401CC0F30B0040F4804040F40040F0
:100DA0002168CA694CF6FF739A431043C861D4E9BD
:100DB000071001432068026822F0C002114301605D
:100DC000D4E9030101432068826848F2FF339A4363
:100DD00011438160D4E9050108432168CA6822F003
:100DE000FF021043C86001E00EE016E020680168D1
:100DF00041F0010101602564202084F83D00256355
:100E000084F83E50002070BD01EB4106431EB3FB49
:100E1000F6F35B1CB3E70120C2E701EB4101401E82
:100E2000B0FBF1F0401CC0F30B00B7E7A086010057
:100E300080841E0000093D0040420F002DE9F84F5C
:100E40000025DDF82890984617468A460446009506
:100E5000FFF72AFF064694F83D0020287AD119238F
:100E6000012286492046009601F004FC0028F5D1B5
:100E700094F83C0001286DD0012084F83C002068E3
:100E80000168C90703D1016841F0010101602068D0
:100E9000016821F400610160222084F83D001020E7
:100EA00084F83E0025646762A4F82A80608D20855E
:100EB0007348E06233464A465146204601F0EAFA5A
:100EC00000287CD1208DDFF8BC81202768B1012863
:100ED00014D00228206801681ED041F480610160AE
:100EE0002068416980690090BBE0206841698169A0
:100EF0000091016841F400710160B2E0206801686E
:100F000021F48061016072B62068416981690091B5
:100F1000016841F400710AE041F40061016072B6B9
:100F20002068416981690091016821F48061016054
:100F300062B696E0032865D801280CD002284B46FB
:100F40004FF000024146204600960BD001F092FB84
:100F5000A8BB0CE090E032464946204601F030FC48
:100F600068BB71E001F086FB48BB72B633E02068D5
:100F7000016821F48061016072B620680069616ACD
:100F80000870606A401C6062208D401E2085608D64
:100F9000401E60853C4846F2A8110068B0FBF1F0A5
:100FA000C0EBC00000EB80000090401E009007D016
:100FB00020684069C04340070DD50098F5E727E059
:100FC00044F8305F6773A573206940F0200020610A
:100FD00062B625731CE02068016841F4007101606D
:100FE00020680069616A0870606A401C6062218D37
:100FF000491E2185618D491E618562B62168096996
:10100000017025E032464946204601F0D9FB10B177
:101010000120BDE8F88F20680069616A0870606A85
:10102000401C6062208D401E81B22185608D401E73
:10103000608520684269D243520712D4032903D144
:10104000016821F48061016020680069616A0870AC
:10105000606A401C6062208D401E2085608D401EAD
:101060006085208D00287FF465AF84F83D7084F89A
:101070003E5084F83C50CCE70220CAE70200100042
:101080000000FFFF04000100CC0000202DE9F84F14
:101090001F4690468A460446DDF82890FFF704FE76
:1010A000054694F83D0020287FD1192301224049AC
:1010B0002046009501F0DEFA002876D194F83C0035
:1010C000012872D0012084F83C0020680168C9071B
:1010D00003D1016841F0010101602068016821F439
:1010E00000610160212084F83D00102084F83E005A
:1010F00000262664C4F824806785608D20852D48ED
:10110000E0622B464A465146204601F039FA90B932
:10111000206841698069009036E02A4649462046A9
:1011200001F086FB50B1206C042804D120680168CE
:1011300041F4007101600120BDE8F88F606A216808
:1011400000780861606A401C6062618D491E61859B
:10115000218D491E89B2218522685369DB435B07D3
:101160000BD451B100781061606A401C6062608DE0
:10117000401E6085208D401E20852A464946204617
:1011800001F04CFA0028CED1208D0028C5D154F8AA
:101190003D0B016841F400710160202004F81E0934
:1011A000E67766770020C7E7FFE70220C4E7000084
:1011B000020010000000FFFF10B586B00021009172
:1011C0000191029103910068104988421BD1104C93
:1011D000A06940F00800A061A069694600F008001D
:1011E00004904FF44060009012200190032003907F
:1011F0000848FFF75FFCE06940F48000E061E069C7
:1012000000F48000049006B010BD000000580040BB
:1012100000100240000C014002488168027811442D
:1012200081607047C0000020074810B5016841F098
:1012300010010160032000F079F8002000F006F8AA
:1012400000F024F8002010BD0020024070B50D4DC4
:1012500004464FF47A712878B1FBF0F00A49096826
:10126000B1FBF0F000F0E0FA48B9102C07D20022F0
:101270002146501E00F03AF800206C6070BD01203D
:1012800070BD0000C0000020CC0000200E4808B552
:10129000816941F001018161816901F001010091E1
:1012A000C16941F08051C161C06900F08050009077
:1012B000052000F03BF80548416821F0E06141F06D
:1012C0000071416008BD00000010024000000140B4
:1012D000002809DB00F01F02012191404009800035
:1012E00000F1E020C0F8001170470000F0B40E4B90
:1012F0001B680C46C3F30223C3F10705042D00D974
:101300000425191D072901D2002300E0DB1E012658
:1013100006FA05F1491E214099409E40761E16406E
:101320003143F0BC01F01EBF0CED00E0064900F0B7
:10133000070208684FF6FF03184040EA0220034AFC
:1013400010430860704700000CED00E00000FA0553
:101350002DE9F0470F46050061D0434E306800F09C
:101360000700B84209D2306820F0070038433060E7
:10137000306800F00700B84251D128683B4C810723
:1013800012D5400703D5606840F4E06060602878BB
:10139000000703D5606840F4605060606068A96829
:1013A00020F0F000084360602878C00728D0686803
:1013B000012810D02168022810D0890700292EDAD0
:1013C000616821F0030101436160FFF76DFC804615
:1013D00041F288390DE021688903EFE78901EDE7E3
:1013E000FFF762FCA0EB0801494502D90320BDE8E4
:1013F000F0876068696800F00C00B0EB810FEFD1F6
:10140000306800F00700B8420BD9306820F00700C0
:1014100038433060306800F00700B84201D0012046
:10142000E5E72878400705D56068E96820F4E060C2
:10143000084360602878000706D56068296920F4B1
:10144000605040EAC100606000F038F86168084A06
:10145000C1F30311515CC8400649086006480068A2
:10146000FFF7F4FE0020C2E7002002400010024017
:10147000B6500008CC000020C400002004480549F4
:1014800000684968044AC1F30221515CC8407047B2
:10149000CC00002000100240C65000080448054956
:1014A00000684968044AC1F3C221515CC8407047D2
:1014B000CC00002000100240C65000080E4A5168BF
:1014C0000E4801F00C03042B11D0082B0FD10C484F
:1014D000C1F38343C903C05C0AD55168084AC1F30C
:1014E0004041921E515C054A5043B0FBF1F07047F9
:1014F00004494843704700000010024000127A007F
:10150000A650000800093D002DE9F84F040070D0F6
:101510002078C04DC00749D06868C0F38100012819
:1015200007D06868C0F38100022809D16868C00349
:1015300006D52868800339D560680028E7D035E0F3
:101540006068B0F5803F0BD010B1B0F5A02F11D07E
:10155000286820F480302860286820F4802002E089
:10156000286840F480302860606890B1FFF79CFBE9
:1015700006460AE0286840F480202860F0E700BFB3
:10158000FFF792FB801B642873D828688003F7D587
:101590000CE0FFF789FB064605E000BFFFF784FB80
:1015A000801B6428F0D828688003F7D420789A4EEE
:1015B00080074FF001094FF0000839D5686810F036
:1015C0000C0F07D06868C0F38100022809D1686851
:1015D000C00306D42868800714D52069012808D1E3
:1015E00010E02069B0B1C6F80090FFF75DFB074638
:1015F00005E00AE1FFF758FBC01B0228C4D82868A1
:101600008007F7D52868616920F0F80040EAC1003A
:1016100028600DE0C6F80080FFF746FB074604E0AF
:10162000FFF742FBC01B022823D828688007F7D4A5
:10163000207800072CD57948A169D9B1C0F800906D
:10164000FFF732FB074604E0FFF72EFBC01B022822
:101650000FD8686A8007F7D571484FF4FA510068CF
:10166000B0FBF1F0009000BF0098411E0091FAD24B
:101670000EE080E0C0F80080FFF716FB074604E0AC
:10168000FFF712FBC01B022875D8686A8007F7D4E1
:101690002078400760D5E8690027C00008D4E869D1
:1016A00040F08050E861E869012700F08050009028
:1016B0005C480168C90513D40168834641F4807110
:1016C0000160FFF7F1FA824606E000BFFFF7ECFA8F
:1016D000A0EB0A0064284ED8DBF80000C005F5D561
:1016E000E06801280AD008B1052813D0286A20F044
:1016F00001002862286A20F0040002E0286A40F015
:1017000001002862E06841F2883B98B1FFF7CCFA0B
:1017100082460BE0286A40F004002862EEE700BF32
:10172000FFF7C2FAA0EB0A0159455AD8286A800788
:10173000F6D50CE0FFF7B8FA824605E0FFF7B4FAF9
:10174000A0EB0A0159454CD8286A8007F6D41FB18E
:10175000E86920F08050E861E06988B36968C1F306
:101760008101022944D00228C6F8608004D0FFF726
:101770009BFA044638E034E0FFF796FA074604E0A7
:10178000FFF792FAC01B02282BD828688001F7D4F3
:10179000206AB0F5803F05D16868A16820F4003068
:1017A00008436860D4E908010843696821F47411AA
:1017B00008436860C6F86090FFF776FA044606E0D2
:1017C00025E000BFFFF770FA001B022809D828683F
:1017D0008001F7D51BE000BFFFF766FA001B022867
:1017E00002D90320BDE8F88F28688001F4D40EE008
:1017F0000128F7D06868226A00F48031914204D150
:10180000616A00F47010884201D00120EAE70020EC
:10181000E8E700000010024000004242800442421B
:10182000CC0000200070004010B5401EB0F1807F59
:1018300001D3012010BD4FF0E02460610F2160173B
:1018400001F090FC0020A06107202061002010BD65
:101850007047704770B590F83C20012A26D00124CB
:1018600080F83C40022280F83D2003685A689D6859
:1018700022F070060A6832435A600D4B02689A42A1
:1018800008D0B2F1804F05D00A4B9A4202D00A4BE1
:101890009A4204D1496825F080031943916080F889
:1018A0003D40002180F83C10084670BD022070BD0C
:1018B000002C0140000400400008004010B5040066
:1018C00003D094F83D0010B107E0012010BD0020C6
:1018D00084F83C00204600F01FF8022084F83D0008
:1018E000211D206801F02CFA012084F8460084F8BC
:1018F0003E0084F83F0084F8400084F8410084F8FA
:10190000420084F8430084F8440084F8450084F8D9
:101910003D00002010BD000008B500680B4988425A
:1019200012D10B48816941F4006181618069012213
:1019300000F40060009002211920FFF7D7FCBDE8F9
:1019400008401920FFF7C4BC08BD0000002C01406E
:101950000010024090F83D10012901D0012070478D
:10196000022180F83D100168CA6842F00102CA6095
:1019700000680B49884208D0B0F1804F05D0094972
:10198000884202D00849884204D1816801F00701E9
:10199000062903D0016841F0010101600020704771
:1019A000002C0140000400400008004070B50446CF
:1019B00090F83C000025012817D0012684F83C60EF
:1019C000022084F83D002068826822F0770222F429
:1019D0007F4282600868502838D00DDC20284FD024
:1019E00005DC90B3102811D14AE0022070BD3028E8
:1019F00046D040280AD13BE060282FD070280DD077
:101A0000B0F5805F03D0B0F5005F12D0012584F8F7
:101A10003D60002084F83C00284670BDCB68D1E9C9
:101A20000121206801F0D5F92068816841F0770133
:101A300009E0CB68D1E90121206801F0CAF92068EA
:101A4000816841F480418160E1E719E0CA68496832
:101A5000206801F073FA5021206806E0CA684968DE
:101A6000206801F07CFA6021206801F0BCF9CEE723
:101A7000CA684968206801F061FA40212068F4E7EB
:101A8000226801461046F0E72DE9F0410D460400BA
:101A900003D094F83D0018B108E00120BDE8F081C2
:101AA000002084F83C00204600F040F8022084F832
:101AB0003D002068816844F2070291438160211D46
:101AC000206801F03DF9226890689169166A2B68D8
:101AD000AF69034340F20330814341EA0721A8681C
:101AE000EF6908434FF6FC418843E96840EA072064
:101AF000014328692F6A000140EA073008436968FA
:101B00006D6926F0220646EA05152943936022688E
:101B1000906154F8460B0162012004F81F09E0753A
:101B20002076E0762077A0750020B7E700B585B075
:101B3000002100910191029103910268184919480E
:101B4000B2F1804F19D0184B9A4214D1CA6942F0B1
:101B50000202CA61CA6902F0020204928A6942F072
:101B600004028A61896901F004010491C021009195
:101B70006946FEF79FFF05B000BDCA6942F0010249
:101B8000CA61CA6902F0010204928A6942F0040241
:101B90008A61896901F0040104910321E7E70000EB
:101BA00000100240000801400004004070B590F8A9
:101BB0003E60044690F83F5090F8423090F8432041
:101BC000022021B104290ED0012E1BD114E0012ED8
:101BD00018D1012B16D184F83E0084F8420001226E
:101BE0000021206820E0012D0CD1012A0AD184F8BF
:101BF0003F0084F8430014E0012D03D1012B01D1F3
:101C0000012A01D0012070BD84F83E0084F83F0015
:101C100084F8420084F8430001220021206801F08A
:101C2000CBF801220421206801F0C6F82068016881
:101C300041F001010160002070BD70472DE9F041C5
:101C400004460068C66805694FF00007A90713D568
:101C5000B10711D5F91E0161012020772068806944
:101C60008007204602D0FFF7E8FF04E000F0A4F868
:101C7000204600F049F92777680716D5700714D574
:101C800021686FF0040008610220207720688069D5
:101C900010F4407F204602D0FFF7CFFF04E000F0B1
:101CA0008BF8204600F030F92777280715D5300744
:101CB00013D521686FF008000861042020772068A0
:101CC000C0698007204602D0FFF7B7FF04E000F0AC
:101CD00073F8204600F018F92777E80616D5F006C5
:101CE00014D521686FF01000086108202077206863
:101CF000C06910F4407F204602D0FFF79EFF04E049
:101D000000F05AF8204600F0FFF82777E80708D0DF
:101D1000F00706D021686FF001000861204600F04E
:101D200043F9280608D5300606D521686FF08000F3
:101D300008612046FFF78CFD680608D5700606D5B9
:101D400021686FF040000861204600F0CDFAA80637
:101D50000AD5B00608D521686FF02000086120463A
:101D6000BDE8F041FFF775BDBDE8F08100B585B075
:101D70000021009101910291039100680B49884272
:101D800012D10B48816941F008018161806969467F
:101D900000F0080004904FF4507000900220019071
:101DA00003900448FEF786FE05B000BD0008004021
:101DB00000100240000C0140704770B5044690F8D6
:101DC0003C0000260D4601280FD0012084F83C007D
:101DD0006AB1042A1DD0082A2FD00C2A3FD0012630
:101DE000002084F83C00304670BD022070BD2068A1
:101DF00001F002F82068816941F0080181612068E2
:101E0000816921F004018161206881692A69114397
:101E100011E0206801F018F82068816941F4006140
:101E200081612068816921F4806181612068816914
:101E30002A6941EA02218161D2E7206801F030F885
:101E40002068C16941F00801C1612068C16921F0C1
:101E50000401C1612068C1692A69114311E0206849
:101E600001F04AF82068C16941F40061C16120684D
:101E7000C16921F48061C1612068C1692A6941EAB0
:101E80000221C161ACE710B5040003D094F83D0015
:101E900010B107E0012010BD002084F83C0020466E
:101EA00000F01EF8022084F83D00211D206800F09B
:101EB00047FF012084F8460084F83E0084F83F0084
:101EC00084F8400084F8410084F8420084F843001C
:101ED00084F8440084F8450084F83D00002010BDDB
:101EE00008B500680649884208D10648C16941F032
:101EF0000401C161C06900F00400009008BD000049
:101F000000080040001002407047000010B5044671
:101F1000022249B104290ED0082913D094F84100B7
:101F2000012816D0012010BD94F83E000128F9D1F7
:101F300084F83E200FE094F83F000128F2D184F8A5
:101F40003F2008E094F840000128EBD184F84020BD
:101F500001E084F841200122206800F02DFF0F49A4
:101F60002068884203D1426C42F4004242642068F7
:101F7000884208D0B0F1804F05D00949884202D08C
:101F80000849884204D1816801F00701062903D07D
:101F9000016841F001010160002010BD002C0140EA
:101FA00000040040000800402DE9FF5F0068C249BE
:101FB00088427DD1C14CA088401C80B2A0802828D6
:101FC00076D30020A08094F90100BD4D01280BD0EC
:101FD00002286ED000286BD100F0F4FD002004B080
:101FE000BDE8F05F00F016BEFEF73CFDFEF7E5FA37
:101FF000A063FEF741FDFEF7E0FA0746E063A06C40
:10200000E0648146606DA0658246AE48A16B0068C1
:10201000FEF7FCF80646A064AB4839460068FEF7B8
:10202000F5F8804660653146206DFEF79DF8A74FB4
:102030002065B84201DD276502E0A84200D9256588
:102040004146E06DFEF790F8E065B84201DDE765D6
:1020500002E0A84200D9E56549463046FEF7D6F8C9
:102060002169FEF7D9F80546216DE068FEF7D4F83E
:1020700007463146A068FEF7CFF83946FEF774F8F8
:102080002946FEF771F80646206451464046FEF7A1
:10209000BDF8E169FEF7C0F80546E16DA069FEF7FD
:1020A000BBF8074641466069FEF7B6F8394601E0DD
:1020B00000E127E0FEF758F82946FEF755F80146FB
:1020C00060648348864200DB2064814200DB6064F8
:1020D0008048216C814200D32064616C814200D32E
:1020E00060647D4D206C2946FEF796F8FEF77FFA76
:1020F00000B200F067FD2946606CFEF78DF8FEF730
:1021000076FAD5E0FEF7AEFCFEF760FAC4E91A01F4
:10211000FEF7B2FCFEF75AFAC4E91C0182460391AD
:10212000206A60620290654EE06A2063803601900A
:10213000D6E90E23D4E918019046994683460091CA
:10214000FEF73DF9D4E91A23FEF739F9FEF7CAFA8A
:102150002062074642464B4658460099FEF78EF8E5
:102160005246039BFEF72BF9FEF7BCFA8346E0626A
:10217000D6E90C01D6E90A23FEF721F9C6E90E01DA
:102180003946A06AFDF7F0FF504EA062B04201DD73
:10219000A66202E0A84200D9A5625946606BFDF72D
:1021A000E3FFDFF83881DFF838916063B04201DD8A
:1021B000666302E0A84200D9656338460299FEF7DB
:1021C00025F82169FEF728F80546A16AE068FEF7C0
:1021D00023F806463946A068FEF71EF83146FDF79B
:1021E000C3FF2946FDF7C0FFFEF739FAC4E91E0117
:1021F00006460F4658460199FEF708F8E169FEF7D2
:102200000BF80546616BA069FEF706F88246594651
:102210006069FEF701F85146FDF7A6FF2946FDF774
:10222000A3FFFEF71CFA254D002280354346C5E981
:10223000000130463946FEF73DFA03D82749002011
:10224000C4E91E01D5E9000100224346FEF732FA37
:1022500003D822490020C5E90001D4E91E0100226B
:102260004E464B46FEF70EFA03D81D490020C4E93E
:102270001E01D5E9000100223346FEF703FA03D818
:1022800017490020C5E90001164ED4E91E010022BD
:102290003346FEF79AF8FEF7C3F900B200F092FC5D
:1022A000D5E9000100223346FEF78FF8FEF7B8F9B2
:1022B00000B294E6BDE8FF9F002C01400000002022
:1022C00000007AC3DC000020E000002000007A4318
:1022D0000000C8420000C8C20000204100408F40FA
:1022E00000408FC000002440704770B5040004D047
:1022F00094F84100002510B106E0012070BD84F87B
:102300004050204600F024F8242084F84100206842
:10231000C16821F40051C160204600F059FE2068D8
:10232000016921F4904101612068416921F02A018D
:1023300041612068C16841F40051C160656420209A
:1023400084F8410084F842006563002070BD0000FD
:1023500030B585B000240094019402940394006881
:102360001449884223D11448C16941F40031C16144
:10237000C16901F400310491816941F00401816176
:1023800080690E4D00F004000490042000900220AB
:1023900001900320039069462846FEF78BFB082036
:1023A000CDE90004694628460294FEF783FB05B098
:1023B00030BD000000440040001002400008014011
:1023C0002DE9F843044690F84100984616460D461C
:1023D000202802D00220BDE8F88385B17EB100201C
:1023E0006064212084F84100FEF75EFCA6848146EB
:1023F000E684A0682027B0F5805F02D003E00120CA
:10240000E9E7206910B12E4600250EE000260CE019
:102410008021204600F038FEA8B9C6B116F8010B9D
:1024200021684860E08C401EE084E08C4B464FF011
:102430000002CDF800800028EAD14FF0400120468C
:1024400000F022FE40B184F841700320C3E735F864
:10245000020BC0F30800E3E784F841700020BAE7FC
:10246000FEE700F083BA01684A69D24352050FD4EF
:102470006FF480624A61002140F8301F20224273CD
:102480008173026942F00402026101730120704706
:10249000002070472DE9F84F0446C06A1E46934657
:1024A0000D4621680A6842F480620A60082807D055
:1024B000012805D010F5803F02D0206B112804D1EF
:1024C0002068016841F4807101604FF001195B469A
:1024D000002249462046009600F0CCF84FF40078E0
:1024E00040B120680068C00501D5C4F840800320D1
:1024F000BDE8F88F2069DFF884A0B0F5804F0FD0D9
:102500000620216800EAD51747F0F000086133463D
:102510005A460AF10601204600F0F4F858BB03E0E1
:10252000E8B240F001001CE02168E8B208613346DF
:102530005A465146204600F0E5F8E0B92068416966
:1025400081690091016841F4807101605B4600225D
:1025500049462046009600F08DF80028C1D147F08A
:10256000F1002168086133465A465146204600F082
:10257000C9F80028BCD00120BAE700000200010021
:10258000F8B50446C06A1E460D461746082807D00F
:10259000012805D010F5803F02D0206B122804D10D
:1025A0002068016841F480710160134600224FF0F9
:1025B00001112046009600F05DF840B120680068E7
:1025C000C00502D54FF4007020640320F8BD2069D7
:1025D000B0F5804F0ED00620216800EAD51040F0FB
:1025E000F000086133463A460B49204600F08AF86D
:1025F00078B902E005F0FE0000E0E8B22168086169
:10260000054933463A46891F204600F07BF80028EA
:10261000DCD00120F8BD00000800010070B51646AE
:102620000D4604461EE02046FFF71DFF08B10120BD
:1026300070BD681C16D0FEF737FB801BA84200D87F
:1026400085B920684069C04340070BD5002044F895
:10265000300F20216173A073216941F020012161B5
:102660002073E4E720684069C0434007DBD40020C2
:1026700070BD00002DE9F047984617460D46044608
:10268000C1F30746DDF820902AE000BFB8F1FF3F14
:1026900026D0FEF709FBA0EB0901414502D8B8F1AD
:1026A000000F1DD12068012E16D0806925EA000098
:1026B0000004000C12D00020B84211D1002044F8D0
:1026C000300F20216173A073216941F02001216145
:1026D00020730120BDE8F0874069E7E70120EBE7C0
:1026E0002068012E0AD0806925EA00000004000C51
:1026F00006D00020B842C9D00020EBE74069F3E7DC
:102700000120F7E72DE9F047984616460D460446A6
:102710004FF000094FF0200AC1F3074723E020687B
:102720004069C043400515D42068016841F4007138
:10273000016021686FF480604861C4F8309084F8CB
:102740003DA084F83E90216C41F00401216484F89E
:102750003C9021E0701C06D0FEF7A6FAA0EB080022
:10276000B04203D816B1012F1FD021E02068012FFD
:1027700015D0806925EA00000004000C18D000BFC5
:1027800044F8309F84F80DA084F80E90216941F040
:102790002001216184F80C900120BDE8F087406998
:1027A00025EA00000004000CEAD12068406901E03D
:1027B0002068806925EA00000004000CAFD1ECE736
:1027C0002DE9F041002590460E460446202728E0DA
:1027D0004069C043C0060CD454F8301B6FF01000A1
:1027E000486144F810596777A577206A20622577F9
:1027F00014E0FEF759FAA0EB0800B04200D886B901
:1028000020684069C04340060BD544F8305F6773C9
:10281000A573206940F02000206125730120BDE8E8
:10282000F08120684169C9434906D1D40020F6E708
:1028300070B516460D4604461EE02046FFF713FE0F
:1028400008B1012070BD681C16D0FEF72DFA801B60
:10285000A84200D885B920684069C04300060BD55E
:10286000002044F8300F20216173A073216941F0EA
:10287000200121612073E4E720684069C04300061D
:10288000DBD4002070BD00002DE9F04385B00024AA
:1028900032480094019402940394816941F010013C
:1028A0008161816901F010010491816941F0200189
:1028B0008161816901F020010491816941F0040185
:1028C0008161816901F004010491816941F008018D
:1028D00081618069012200F00800DFF884805503DF
:1028E000049029464046FEF7DAF9DFF878904FF475
:1028F000F057002239464846FEF7D1F900950226E6
:1029000001250396CDE9015469464046FEF7D2F809
:102910004FF49870CDE90004694648460294FEF7EA
:10292000C9F84BF22100CDE90004DFF83C8069468C
:1029300040460294FEF7BEF8A8038DE831006946D0
:102940004046FEF7B7F800970396CDE90154694673
:102950004846FEF7AFF805B0BDE8F083001002402E
:102960000010014000080140000C01400D4810B566
:102970000B4901600C49416000214FF480428160A5
:10298000C0E9031241618161C1610162FEF792F900
:10299000002803D0BDE81040FEF778B810BD000055
:1029A000005800406C010020801A060010B586B067
:1029B0000024184800940194029403940494144948
:1029C000059401604721C0E9011440F2E731C0E9F4
:1029D000031444618461FEF771FF08B1FEF756F8F5
:1029E0004FF48050009069460A48FEF7DFFF08B1B7
:1029F000FEF74CF82020CDE9040404A90548FEF7B1
:102A000029FF002801D0FEF741F806B010BD0000F4
:102A1000002C0140C001002010B58CB02421684674
:102A2000FDF797FB0024164809944FF080410A9463
:102A3000C0E900144FF6FF71C0E9024104618461EE
:102A40000320CDE900040120CDE902040F21049107
:102A5000CDE90540CDE9074169460948FFF714F87B
:102A600008B1FEF713F81020CDE9090409A90448BC
:102A7000FEF7F0FE002801D0FEF708F80CB010BDFC
:102A80000802002010B58CB024216846FDF761FBD8
:102A900000241748099415490A94C0E900144FF618
:102AA000FF71C0E90241046184610320CDE90004A3
:102AB0000120CDE902040F210491CDE90540CDE9C3
:102AC000074169460A48FEF7DFFF08B1FDF7DEFF60
:102AD0001020CDE9090409A90548FEF7BBFE00282E
:102AE00001D0FDF7D3FF0CB010BD00000004004082
:102AF0005002002010B58AB0002407941C216846BB
:102B00000894FDF726FB1F481D4901602321C0E9F9
:102B1000011440F2E731C0E903148461FFF7B3F90F
:102B200008B1FDF7B3FF1020CDE9070407A9154848
:102B3000FEF790FE08B1FDF7A9FF6020CDE9000483
:102B40000294002269460F480494FFF736F908B151
:102B5000FDF79CFF082269460A48FFF72EF908B1E5
:102B6000FDF794FF0C2269460648FFF726F908B1E5
:102B7000FDF78CFF0348FFF7F9F80AB010BD00001D
:102B800000080040980200200C4810B50A49016076
:102B90004FF4E1314160002181600C22C160C0E945
:102BA00004128161C161FFF7A0FB002803D0BDE8DA
:102BB0001040FDF76BBF10BD00440040E002002054
:102BC000FEE700002DE9F041104D114E04004FF4D6
:102BD00080514FF400670BD501222846FEF75FF8BD
:102BE000002239462846FEF75AF8604280B209E0D2
:102BF00000222846FEF753F8012239462846FEF700
:102C00004EF8A0B23168C863BDE8F0810008014009
:102C1000980200202DE9F041104D114E04004FF4B0
:102C200000714FF480670BD501222846FEF737F874
:102C3000002239462846FEF732F8604280B209E0A9
:102C400000222846FEF72BF8012239462846FEF7D7
:102C500026F8A0B231680864BDE8F08100080140A0
:102C600098020020FEE7704708B54FF6FF72009209
:102C70000B46024697210248FEF7E0F808BD000027
:102C80006C01002070470FB400B599B01BAA6846CC
:102C90001A9900F041FA684600F00EF819B05DF894
:102CA00014FB000001B56423012269460148FFF7C7
:102CB00087FB08BDE002002070B50546002403E054
:102CC000FFF7F0FF641CA4B2285D0028F8D170BDA6
:102CD000FEF7A2BA30B58FB028216846FDF739FA61
:102CE00014210AA8FDF735FA01210804CDE90010E6
:102CF0000024029402250491CDE907504FF4E0101E
:102D000009906846FEF700FC08B172B6FEE70F2096
:102D1000CDE90A054FF48060CDE90C4002210AA8F4
:102D20000E94FEF715FB002801D072B6FEE70FB037
:102D300030BD70470148FEF781BF0000C001002090
:102D4000F0B50268194B1A4C1A4D4FF08047984263
:102D500005D0B84203D0A04201D0A84203D122F04E
:102D600070064A683243984205D0B84203D0A04268
:102D700001D0A84203D122F44074CA6822434C69AE
:102D800022F08002224302608A68C2620A6882627C
:102D9000984201D109690163012141610169C907B3
:102DA00003D0016921F001010161F0BD002C014057
:102DB000000400400008004010B501F01F0301218D
:102DC000046A99408C430462016A9A40114301628B
:102DD00010BD10B5846842EA032224F47F440A43FC
:102DE0002243826010BD826822F070020A4342F0E2
:102DF000070181607047000030B5036A026A22F063
:102E0000010202624268846924F073050C682C4355
:102E100023F002058B682B430A4DA8420BD123F007
:102E20000805CB6822F440722B434D6923F004035C
:102E300015438A692A434260846149684163036299
:102E400030BD0000002C014030B5026A036A23F057
:102E500010030362436884690D6824F4E64444EA7D
:102E600005248D6822F0200242EA05120B4DA8428B
:102E70000ED1CD6822F0800242EA05124D6923F49A
:102E8000406343EA85038D6922F0400243EA8503EB
:102E90004360846149688163026230BD002C014057
:102EA00030B5036A026A22F4807202624268C46921
:102EB00023F4007324F073050C682C438D6843EAF7
:102EC00005230C4DA8420ED1CD6823F4006343EADC
:102ED00005234D6922F4405242EA05128D6923F41C
:102EE000806342EA05124260C4614968C1630362BB
:102EF00030BD0000002C014030B5046A026A22F4A3
:102F0000805202624268C3690D6823F4E64343EAD3
:102F100005238D6824F4005444EA0534064DA84284
:102F200004D14D6922F4804242EA85124260C361B5
:102F300049680164046230BD002C014010B5036A89
:102F4000046A24F001040462846924F0F00444EA71
:102F5000021423F00A020A438461026210BD10B514
:102F6000036A046A24F010040462846923F0A00355
:102F700024F4704444EA023243EA0111826101629E
:102F800010BD01680C3151E8002F22F4907241E825
:102F90000023002BF5D10168143151E8002F22F0F5
:102FA000010241E80023002BF5D1016B012909D171
:102FB00001680C3151E8002F22F0100241E8002393
:102FC000002BF5D1202180F84210002101637047C9
:102FD00070B5044600680169E26821F4405111436C
:102FE00001612169A0680843616908432168CA68D2
:102FF00041F20C639A430243CA6020684169A269A6
:1030000021F44071114341611E492068884202D178
:10301000FEF744FA01E0FEF731FA00EBC00101EBE4
:103020000012606864218000B2FBF0F3B3FBF1F39F
:103030006FF018067343B2FBF0F5B2FBF0F605EB48
:103040008305322303EB0515B5FBF1F5B6FBF1F66D
:1030500005F0F00505EB0615B2FBF0F6B2FBF0F05B
:10306000B0FBF1F06FF01802504306EB800003EB69
:103070000010B0FBF1F0216800F00F0028448860D8
:1030800070BD0000003801402DE9F843984617460E
:103090000D460446089E24E0701C22D0FDF704FE75
:1030A000A0EB0800B0421AD8CEB12068C168490729
:1030B00017D5802D15D0402D13D00168C9430907BD
:1030C0000FD401680025406800902046FFF759FFA3
:1030D0000820606484F840500120BDE8F883032094
:1030E000FBE72068006835EA000004D00020B84201
:1030F000D2D00020F1E70120F9E7FEE708B54FF64E
:10310000FF7200920B46024696210248FDF7BEFF71
:1031100008BD00006C01002037B514460846064B78
:103120006A46214600F06EF904466946002000F028
:1031300000FD20463EBD0000333B0008490050EA38
:10314000C12018BF04204A0D18BF40F0010040F212
:10315000FF72B2EB515F08BF40F00200012808BFC8
:10316000052070470907090E002804DB00F1E02064
:1031700080F80014704700F00F0000F1E02080F8A4
:10318000141D70472DE9F0414F1E00EBC7010446A6
:10319000D1E9000115461E4637F006020DD02A4639
:1031A0003346FDF712F97F1E04EBC703D3E9002372
:1031B000FDF764F837F00602F1D1022F25D0042F75
:1031C00013D0062F18BFBDE8F0812A463346FDF71D
:1031D000FCF8D4E90A23FDF751F82A463346FDF7F7
:1031E000F4F8D4E90823FDF749F82A463346FDF7F9
:1031F000ECF8D4E90623FDF741F82A463346FDF7FB
:10320000E4F8D4E90423FDF739F82A463346FDF7FC
:10321000DCF8D4E90223FDF731F82A463346FDF7FE
:10322000D4F8D4E90023BDE8F041FDF727B8000049
:103230000022134610460149FDF739B90000F03F5E
:103240000122FDF7A3B9FDF719B800221346104675
:103250001146FDF72CB940F2013200204FF0E04159
:10326000FDF794B9024A00201107FDF78FB900005D
:1032700001FDFFFF02E008C8121F08C1002AFAD1B1
:1032800070477047002001E001C1121F002AFBD1E6
:103290007047000001490860704700006801002085
:1032A0002DE9FF5FDDE90220010DDDF838B00243B2
:1032B00018D044F61050A1F2FF3141430D140F987D
:1032C000012820D0A5EB0B00401C5FEA000A4FF05C
:1032D0000004474EDFF81C91A046504616D5CAF1AF
:1032E000000728E00F98012443A2012808D00021FC
:1032F00000980F9BC0E90021C0E90243BDE8FF9F91
:103300006FEA0B01F4E7CBF10000DEE7074612E0BD
:10331000F80707D02246334640464946FDF755F8A0
:10332000804689462246334610461946FDF74DF839
:1033300004460E467F10002FEAD1DDE90201BAF102
:10334000000F42464B4602DAFDF73FF801E0FDF779
:10335000AEF804460E460022284BFDF7ABF903D821
:103360004FF0FF30014607E00022254B2046314652
:10337000FCF784FFFDF7CEFA102409E0002C0ADBED
:103380000A220023FDF7E0F9019B30321A55641E32
:1033900050EA0102F2D1641C019AC4F111031444F1
:1033A0000F9A012A03D0012208430DD10AE00843F5
:1033B00004D000204FF0110B0F9080E7A3EB0B051A
:1033C0006D1E0DE05B4504DD4FF0000205F10105C7
:1033D00004E003DA4FF00002A5F10105002AECD069
:1033E00000980F99C0E90231C0E9004586E7000066
:1033F000000024400000F03F300000000000F043D7
:103400000000E03F2DE9FF4F95B09B4689460646F8
:1034100000250FE2252877D100242746F84A01210C
:10342000059400E0044316F8013F203B01FA03F045
:103430001042F7D130782A2811D06FF02F0330785E
:10344000A0F13002092A16D8059A44F0020402EBD2
:10345000820203EB42021044761C0590EFE759F814
:10346000042B0592002A03DA504244F400540590DC
:1034700044F00204761C30782E2816D116F8010F7D
:1034800044F004042A280DD06FF02F023078A0F108
:103490003003092B09D807EB870302EB4303C71856
:1034A000761CF3E759F8047B761C30786C280FD033
:1034B00006DC4C2817D068280DD06A2814D104E007
:1034C000742810D07A280FD10DE044F400140AE0DB
:1034D00044F4801401E044F440147278824202D132
:1034E00004F58014761C761C307866280BD013DC2B
:1034F000582877D009DC002875D04528F6D0462812
:10350000F4D047281AD19DE118E0632835D064280B
:1035100079D0652812D195E1702873D008DC67282E
:10352000F1D069286FD06E280DD06F2806D1B5E094
:1035300073282CD0752875D0782874D05A461799DE
:1035400090476D1C75E1C4F30250022809D003288E
:103550000DD0D9F8001004280DD00D6009F1040930
:1035600067E1D9F80010EA17C1E90052F6E7D9F887
:1035700000100D80F2E70D70F0E719F8041B8DF8CC
:10358000001000208DF80100EA46012003E059F800
:1035900004AB4FF0FF3061074FF0000102D40DE0A3
:1035A00008F101018846B9420FDA8045F8DB1AF8C4
:1035B00008100029F4D108E008F101018846814291
:1035C000FADB1AF808100029F6D105985B46A0EB43
:1035D000080721463846179A00F094FA284400EB71
:1035E000080507E04DE029E10DE01AF8010B5A4605
:1035F00017999047B8F10108F7D25B462146384643
:10360000179A13E142E00A220092C4F302524FF0EB
:10361000000A022A08D059F804CB032A4FEAEC71B9
:103620000AD00DE029E02AE009F1070121F00702A4
:10363000F2E802C1914609E00FFA8CFC4FEAEC7106
:10364000042A03D14FFA8CFC4FEAEC71002907DA07
:103650000A460021DCF1000C61EB02012D2202E0A0
:10366000220504D52B228DF80420012203E0E20775
:1036700001D02022F7E7904659E00A2102E010220B
:103680000DE010214FF0000A00910BE010224FF0E6
:10369000000A44F004040827009203E008224FF0D7
:1036A000000A0092C4F30252022A05D059F804CB52
:1036B0000021032A08D009E009F1070121F00702DF
:1036C000F2E802C1914605E01FFA8CFC042A01D100
:1036D0000CF0FF0C4FF00008220728D5702806D008
:1036E000009B83F0100353EA0A0305D00EE040224A
:1036F0008DF80420012208E05CEA010206D03022A5
:103700008DF804208DF8050002229046009B83F07E
:10371000080353EA0A030AD15CEA010201D16207F5
:1037200005D530228DF804204FF001087F1E58285F
:1037300004D034A003900EA802900DE036A0F9E763
:1037400053466046009AFCF7FFFF84460398825C6C
:103750000298401E029002705CEA0100F0D10298CB
:1037600006A9081A00F1200A600702D524F4803463
:1037700000E00127574502DDA7EB0A0000E000202A
:1037800000EB0A01009005984144401A0590E003BF
:1037900006D45B462146179A059800F0B3F9054414
:1037A000002706E001A85A46C05D179990476D1C96
:1037B0007F1C4745F6DBE0030CD55B462146179A94
:1037C000059800F09FF9054404E030205A46179907
:1037D00090476D1C0099481E00900029F5DC08E018
:1037E000029802995A460078491C0291179990470D
:1037F0006D1CBAF10001AAF1010AF1DC65E10000DB
:1038000009280100303132333435363738396162B6
:10381000636465660000000030313233343536377A
:1038200038394142434445460000000000F058F951
:103830000544761C307800287FF4ECAD19B028469A
:10384000BDE8F08F620700D4062709F1070222F0D5
:10385000070CFCE80223E14603F000485FEA080C8D
:1038600002D00FF2702C0DE05FEA045C02D50FF27B
:10387000682C07E05FEAC47C02D00FF2602C01E004
:10388000AFF2700C4FF0FF3823F00043CDF850C07A
:1038900065280CD006DC452809D046281DD04728CD
:1038A0003DD13DE0662818D067287ED138E0002160
:1038B000112F01DB112000E0781CCDE9000106A9E1
:1038C0000EA8FFF7EDFCDDE90F010E9A0391002130
:1038D000009207F1010A04914DE04FF0004000977B
:1038E000CDE9011006A90EA8FFF7DAFCDDE90F0209
:1038F00003920E9B11990022DDF80CA00093049214
:1039000011B9791C00EB010AB7EB0A0004D4C0F12D
:10391000FF3007F1010A0490AAEB0700019044E090
:10392000012F00DA01270021112F01DD112000E015
:103930003846CDE9000106A90EA8FFF7B1FCDDE984
:103940000F010E9A0391002104910092BA462107BB
:103950000CD40399514500DA8A46BAF1010F05DD0E
:10396000009AAAF10101515C302908D0B84202DA6C
:1039700010F1040F06DA0121CDE9011015E0AAF1DA
:103980000101E9E7002805DC049901440491AAEB50
:10399000000102E0411C514500DD8A460499401AAD
:1039A000401C01904FF000400290200704D4019881
:1039B000504501DBCDF8048000208DF84F000298BF
:1039C0000DF14F07B0F1004F25D02B200E9002983B
:1039D0004FF0020800280CDA404202902D200E9091
:1039E00007E00A210298FCF799FE3031029007F8AF
:1039F000011DB8F10001A8F10108F2DC02980028CD
:103A0000EFD1791E0E980870307800F0200040F059
:103A1000450007F8020D12A8C01B00F10708149812
:103A2000007800B1012000EB0A01019801EBE07180
:103A300005984144401A401E0590E00306D45B46B9
:103A40002146179A059800F05DF80544149800780F
:103A500018B15A46179990476D1CE00324D55B4670
:103A60002146179A059800F04DF805441CE004988B
:103A7000002807DBDDE90301884203DD0098405C94
:103A8000179901E0179930205A469047049805F19C
:103A90000105401C04900198401E019004D12E2085
:103AA0005A46179990476D1CBAF10001AAF1010A14
:103AB000DDDC05E017F8010B5A46179990476D1C9D
:103AC000B8F10001A8F10108F4DC5B462146179A21
:103AD0000598ABE62D0000002B0000002000000040
:103AE0002DE9F041044600251E461746880404D4FB
:103AF00005E039462020B0476D1C641EF9D52846E4
:103B0000BDE8F0812DE9F041044600251E469046AF
:103B1000C80301D5302700E02027880404D505E03C
:103B200041463846B0476D1C641EF9D52846BDE8AD
:103B3000F0810A68531C0B60107070472DE9F84F34
:103B400004460D4621F0004000917349814211DC8A
:103B50007249884201DC06D12CB120462946BDE8D5
:103B6000F84FFFF76DBB6E48002DCCBF6D496E4915
:103B7000BDE8F88F6D49814211DD6D498142D8BFA2
:103B80004FF0FF366DDD20462946FFF7D7FA0428AF
:103B900008BFFFF767FB20462946BDE8F88F654957
:103BA000654F25F00045814233DD6449814219DDCE
:103BB000002632464FF0804320462946FCF75EFB44
:103BC00080468A46012220462946FCF7DFFC002277
:103BD0003B46FCF7F4FB42465346FCF768FC0446C0
:103BE0000D463EE001260022BA463B4620462946C5
:103BF000FCF744FB80460F460022534620462946E8
:103C0000FCF7DDFB42463B46FCF751FC04460D4603
:103C100027E04B4981421BDDDFF828A10226002264
:103C2000534620462946FCF7D0FB00223B46FCF7D2
:103C300025FB80460F460022534620462946FCF7C6
:103C4000BEFB42463B46FCF732FC04460D4608E00C
:103C5000032622462B4600203B49FCF728FC04465D
:103C60000D4622462B4610461946FCF7AEFB8B4606
:103C7000824602460B46FCF7A8FB0746024633483D
:103C800088460B4606217844FFF77CFA52465B468D
:103C9000FCF79BFB82462E488B463A46434605215D
:103CA0007844FFF76FFA3A464346FCF78EFB02462C
:103CB0000B46002E504659460CDAFCF7DFFA224636
:103CC0002B46FCF782FB01B022462B46BDE8F04FA5
:103CD000FCF778BBFCF7D2FA22462B46FCF775FBC3
:103CE0001C4A7A4402EBC603D3E90023FCF767FBC6
:103CF00022462B46FCF763FB174A7A4402EBC603C5
:103D0000D3E90023FCF75EFB009A002AB8BF81F0DC
:103D10000041BDE8F88F0000000010440000F07F73
:103D2000182D4454FB21F93FFB21F9BF0000DC3F73
:103D30000000203E0000F33F0000F03F0000E63F9F
:103D4000008003400000F83F0000F0BF361500007F
:103D5000F4140000921400005A1400002DE9F04DF4
:103D60009446CCF1000423F000464CEA0404524F80
:103D700046EAD4749A46884621F00042BC4206D8EE
:103D8000454240EA050442EAD474BC4204D9BDE885
:103D9000F04D6246FFF757BAAAF14055A5F17F658D
:103DA00055EA0C040BD0022404EAAA74434DDFF850
:103DB00010E144EAD87452EA000B04D00CE0BDE8EC
:103DC000F04DFFF7BBBE002C14BF012CBDE8F08DF9
:103DD000022C30D0032C32D056EA0C0B0AD0BE4253
:103DE00020D1BA4209D126F0804622F080423346E3
:103DF000114617E000291ADB25E0DFF8C8B0FB44C4
:103E0000002C04BFDBE90001BDE8F08D012C02BFEE
:103E1000DBE9000181F00041BDE8F08D022C0AD001
:103E2000032C0CD0BA4212D1B8F1000F0BDA2348A0
:103E30002549BDE8F08D28462449BDE8F08D284687
:103E40007146BDE8F08D1D482149BDE8F08D921BFB
:103E500012153C2AC4BF19481D490EDCBAF1000FE7
:103E6000BEBF12F13C0F0020014606DB6246FCF7A4
:103E70001EFB21F00041FFF761FE002C08BFBDE8EA
:103E8000F08D012C04BF81F00041BDE8F08D114A96
:103E9000114B022C07D0FCF792FA2A46BDE8F04DF0
:103EA0000A4BFCF78CBAFCF78AFA2A46BDE8F04DBB
:103EB000064BFCF787BA00000000F07F182D445431
:103EC000FB2109C0EE130000FB21F9BFFB210940D3
:103ED000FB21F93F075C143326A6A13C042000F027
:103EE00061BF000010B500F03FFF012807D107486F
:103EF0008078032803D106480078FB2801D00020F1
:103F000010BD00F0D7F9012010BD0000FC0000201A
:103F10004803002010B50024134A144B09281AD274
:103F2000DFE800F01905080C0F121B1D1F004FF4ED
:103F3000805101E04FF40051104607E04FF400417A
:103F4000FAE74FF4807100E010211846FCF7A2FE5A
:103F5000012800D00124204610BD2021F5E70121D1
:103F6000EAE72021E8E70000000C014000080140DA
:103F700000220146052000F069BF00002DE9F04154
:103F8000104F0546002607F1200816E02C461C2D90
:103F900000D91C24201DC1B20A48FEF765FE00208E
:103FA000414607E03A18802E127901D28A55761CD4
:103FB000401CC0B2A042F5D32D1B002DE6D101203C
:103FC000BDE8F0812803002003480179B0F85C00C7
:103FD00000B200F0ADBE0000E4000020034801790B
:103FE000B0F8600000B200F0A3BE0000E4000020C2
:103FF00003480179B0F8640000B200F099BE0000F7
:10400000E400002003480179B0F8680000B200F035
:104010008FBE0000E400002070B50E4D4FF48046C6
:1040200031462846FCF736FE0B4C58B91420FCF7F5
:104030002FFD31462846FCF72DFE0028F6D0607A89
:10404000401C6072607A0321B0FBF1F201FB1200A8
:1040500070BD0000000C0140D000002070B50122AE
:104060000A4D540321462846FCF719FE4FF4FA7610
:104070003046FCF70DFD002221462846FCF70FFED6
:104080003046BDE87040FCF703BD00000010014061
:10409000012251030148FCF702BE0000001001405C
:1040A00000224FF400510148FCF7F9BD0010014017
:1040B00088B0FDF7B9F8FEF7D4F9FEF70BFEFEF76E
:1040C000E3FBFEF753FCFEF771FCFEF7A5FCFEF7E1
:1040D000D9FCFEF70FFDFEF757FD08216848FDF7F4
:1040E00015FF0C216648FDF711FF3C216548FDF7DF
:1040F0005DFD3C216448FDF759FD00F0CDFE012037
:10410000FFF736FFFFF7EAFE6048FDF723FCDFF814
:1041100080A1DFF880914FF0010BAAF1800800BF69
:10412000FFF77AFF40B2444688F8020060B90020E9
:1041300020706070A06260632065CAF83000CAF821
:104140003400E065FFF78AFF94F90200012802D0ED
:10415000022807D07AE000F0DFFE84F801B0FFF714
:1041600097FF73E0FFF7BEFE00286DD0FFF74AFF10
:10417000FCF775FA5546C5E90201FFF725FFFCF784
:104180006EFAC5E90401FFF729FFFCF768FAC5E9F3
:104190000601FFF72DFFFCF762FAC5E908010646A4
:1041A00032460B460191FCF710F9CDE90601D5E93D
:1041B00006733A46194610460393FCF706F9DDE903
:1041C0000623FCF75BF80122FCF7E0F90022324BF2
:1041D000FCF7F8F804910690D5E904013A46039BF0
:1041E000FCF7F3F807460391D5E902013246019B3B
:1041F000FCF7EBF83A46039BFCF740F80122FCF78A
:10420000C5F9049B069AFFF7A9FD0022234BFCF792
:10421000DCF8234A234BFCF74AF900221346C5E990
:104220000A01FCF72FFA01D0012000E000202178DC
:1042300021B30021084205D0D5E90A01C5E90C01E6
:1042400084F800B002206070FFF72AFFA046606C7F
:10425000FCF705FA06460F46D9F80000FCF7FFF90F
:1042600004460D46D8F83C00FCF7F9F98DE8F0005B
:1042700002460B460CA0FEF706FD51E70121D9E7E7
:10428000980200200802002050020020C0010020F7
:1042900080000020E00000200000F03F0080664029
:1042A000F4D64354FB21094025662C25662C25664F
:1042B0000D0A0000F0B52E482E4B4FF0000E00887E
:1042C000D97920F40040B3F80960B3F80B50B3F883
:1042D0000D40093801F00307F4467246092801DD54
:1042E000B3F80FE00B2801DDB3F811C0204859796D
:1042F000183801291AD004291DD0022920D00329F9
:1043000023D0052926D0082924D011292AD0132901
:104310002AD01E2909D1997A8170806F9918C97A9B
:104320008154521CD2B2092AF8D3F0BD8762C6610B
:10433000C0E90854F0BD8763C662C0E90C54F0BD03
:104340008764C663C0E91054F0BD8765C664C0E9E0
:104350001454F0BDC0F868E0C665C0E91854C0E95F
:104360001BC7F0BD4467F0BD597A4170F0BD000035
:10437000FC000020480300202DE9F04D16460F46B2
:1043800094B01C4621F0004123F00042002814BFE5
:104390004FF0010C4FF0000C0CEB470CFE4B0CEBFC
:1043A00003054FEA630C65452BD3350018BF012583
:1043B00005EB44051D44F94B9D4222D3F84B52EACC
:1043C000060C02D09F4205D148B914B0002019460E
:1043D000BDE8F08D002808BF4FF0000C01D04FF071
:1043E000010C0CEB470313F5001F0AD8002E14BF75
:1043F0004FF0010C4FF0000C0CEB440313F5001FC1
:1044000007D914B0324623463946BDE8F04DFEF7D1
:104410001ABFDFF890834FF0000A002FB8BF424563
:1044200023DAE14B9A42A8BF4FF0020A1DDADC4BB7
:1044300093421ADCDD4B03EB2253142B08DDC3F14E
:10444000340C26FA0CF303FA0CFCB4450DD108E049
:104450005EB9C3F1140C22FA0CF303FA0CFC944578
:1044600003D103F00103C3F1020A51EA00031BD197
:10447000002C19DA002F18BFBAF1020F02D0BAF1DE
:10448000010F07D00220FEF705FF14B0BDE8F04D84
:10449000FEF7CEBE0220FEF7FDFEFEF7C9FE14B009
:1044A00081F00041BDE8F08D330070D1424525D147
:1044B00007F1804212F5801201BF00280020B849A0
:1044C00014B008BFBDE8F08DB548884207DC002C69
:1044D000A1BF1846214614B0BDE8F08D07E0002CBE
:1044E000BFBF184684F0004114B0BDE8F08DB0495C
:1044F0007944D1E9000114B0BDE8F08DDFF8A0C225
:1045000062452AD1002C24DA39B1414517D100285F
:1045100004BF002002461CD106E040B10220FEF795
:10452000B9FEFEF798FE0A46394600F0D7BA9D4A12
:10453000394614B0002062F31E01BDE8F08D08DAA0
:1045400014B03B46BDE8F04D024600206146FBF743
:10455000AEBF14B03946BDE8F08D414517DAB4F16D
:10456000804F0CD0A4F10053B3F1FF530FD13B1E89
:104570000DDB14B01946BDE8F04D00F0A7BC3B467A
:1045800014B00246BDE8F04D1946FBF71EBF05000A
:1045900027F000433AD1E1B1414537D1002F06DD84
:1045A000002CA1BF0020414614B0BDE8F08D002FC3
:1045B00001DD002C1FDB002F16DA002C14DBBAF112
:1045C000010F4FF0000014BF76497A4914B0BDE8DE
:1045D000F08DBAF1020F18BF002F0CD0BAF1010F05
:1045E00009D1002F07DA0BE0002FB8BF002C0DDA3D
:1045F000BAF1010F04D0002014B00146BDE8F08DDF
:1046000014B000204FF00041BDE8F08D4FF00108DC
:1046100008EBE77CCDF814C05CEA0A0C0DD0DFF89B
:1046200098C162457EDDDFF894C1654B624512DDBD
:104630008B420ADB002C18DB23E00120FEF72AFE68
:1046400014B0BDE8F04DFEF700BE554A8A4202DCC8
:10465000002C0ADC15E0994202DA002C11DA04E0A1
:104660004F4B994219DD002C0BDD0220FEF712FEA4
:10467000FEF7F1FD4B4A14B061F31E021146BDE88E
:10468000F08D0220FEF706FEFEF7ECFD444A14B062
:1046900061F31E021146BDE8F08D00223946FBF79A
:1046A0008EFE07460D466FF00102FBF76FFF4FF0DD
:1046B0005532444BFBF786FE3A462B46FBF785FE08
:1046C0000022414BFBF77EFE80468B463A462B4646
:1046D00010461946FBF779FE42465B46FBF775FE2E
:1046E00088460E904FF0C042384B38462946FBF7BB
:1046F0006CFE83460091364A344B41460E98FBF7D8
:1047000064FE80460191334A334B38462946FBF715
:104710005CFE4246019BFBF752FE0D4602460B46ED
:104720000C9000E011E058460099FBF7A7FD002728
:1047300088465A463846009BFBF741FE2B460C9AAA
:10474000FBF740FE024600F079B90020B1F5801F6A
:1047500007DA352228461946FBF718FF05466FF0A1
:10476000340000EB2150A0F2FF300190C1F31300A0
:1047700040F07F6141F04051029118498842D8BF12
:104780004FF0000B35DD16498142C8BF4FF0010BD9
:104790002FDC4FF0000B25E0FFFF1F00FFFF0F0095
:1047A0000000F03F0000F07F0000404301FCFFFFED
:1047B000FC0C00000000F0FF0000E0410000F043AE
:1047C000FFFFEF3F5555D53F0000E03F4715F73F4E
:1047D000FE822B6544DF5DF80BAE543E8E980300DD
:1047E0007AB60B000198401C01900298A0F5801049
:1047F0000290FF480299784400EBCB000991D0E980
:10480000002328460B931292FBF7D9FD00910A90E2
:1048100028460B9B129A0999FBF730FD02460B467E
:104820000020F449FBF743FECDE90C010B4602469C
:1048300000990A98FBF7C9FD0690EF4888460027C3
:1048400078440299006810904FF0005040EA6100EF
:1048500000EB8B4000F5002102910B9B129A1098FF
:10486000FBF7ADFD2A46099BFBF7ACFD3A464346F4
:10487000FBF7ABFD0891129038464146029B109A17
:10488000FBF7A3FD009B0A9AFBF79CFD089B129A7D
:10489000FBF795FDDDE90C23FBF797FD0B91069ADD
:1048A0001290434610461946FBF78FFD0546024617
:1048B000D2480B460A9106217844FEF763FC0A9B16
:1048C0002A460891029010461946FBF77EFD089B88
:1048D000029AFBF77AFD0546099143463846194688
:1048E000069AFBF7CBFC0B9B129AFBF76EFD2A4650
:1048F000099BFBF7C3FCCDE908013A464346104645
:104900001946FBF762FD0A910022BD4B0090FBF7B0
:10491000B5FCDDE90823FBF7B1FC0D463A46B84B80
:104920003846FBF74CFD0A9B009AFBF748FDDDE992
:104930000823FBF747FDCDE908013A462B46104610
:104940004146FBF742FD00910A90DDE9080143462C
:10495000069AFBF73AFD069088462B463A460B9995
:104960001298FBF732FD4346069AFBF787FC804618
:104970000B4602460D9100990A98FBF77FFC002038
:104980000F460546009B0A9AFBF719FD42460D9B10
:10499000FBF718FD88460E904FF06042994B284671
:1049A0003946FBF712FD02910090974A954B41461C
:1049B0000E98FBF70AFD80460391944A944B2846D3
:1049C0003946FBF702FD4246039BFBF757FC914A31
:1049D0007A4402EBCB03D3E90023FBF74FFC0546F7
:1049E00007910198FBF7F2FD0C9003912A46079B73
:1049F00002990098FBF742FC874A7A4402EBCB030A
:104A0000D3E9002393460193FBF738FC039B0C9AF0
:104A1000FBF734FC002788463846039B0C9AFBF7CB
:104A2000CEFC5A46019BFBF7CAFC029B009AFBF79F
:104A3000C6FC2A46079BFBF7C5FC024600200690F1
:104A400005986C4DAAF10103184301D1734D0690EE
:104A500000200B46049030462146FBF7B6FC824608
:104A60008B46234630461946049AFBF7A8FC3A4683
:104A70004346FBF7AAFC52465B46FBF7FFFB0646A4
:104A80008A463A46434621460498FBF79EFC044674
:104A90000F4632465346FBF7F1FB614A8B46914283
:104AA00021DBABEB020353EA000210D122463B4666
:104AB000FBF785FC804603915A4A5B4B30465146D2
:104AC000FBF7DCFB4246039BFBF7F4FD27D20220F9
:104AD000FEF7E0FBFEF7BFFB0A46294614B062F37F
:104AE0001E01BDE8F08D514B2BF000429A4216D3C7
:104AF0004F4A0BEB020353EA000208D122463B4621
:104B0000FBF75DFC32465346FBF7D4FD07D8022085
:104B1000FEF7C0FBFEF7A6FB0A462946DEE72BF0B0
:104B200000404449444A01EB20514FF000088242C2
:104B300023DA481C4FF4801121FA00F058443F4A10
:104B4000C0F30A517A443E4BA1F2FF31CB4020EA38
:104B50000303C0F3130040F4801CC1F11400126879
:104B60002CFA00F8BBF1000FB8BFC8F100082046CE
:104B70003946FBF724FC04460F4622463B463046A6
:104B80005146FBF77BFB4FF0000B5A462D4B584626
:104B90000391FBF71AFC00910A902B4A2B4B5846C5
:104BA0000399FBF712FC0491029022463B465846BB
:104BB0000399FBF704FC32465346FBF703FC244AF7
:104BC000244BFBF702FC049B029AFBF757FB0746BA
:104BD0008A46009B0A9AFBF751FB04460E46009B4F
:104BE0000A9AFBF7ECFB3A465346FBF7EBFB33E044
:104BF000D60800000000F03FAC09000044080000A7
:104C00000000084009C7EE3FFD033ADCF5015B14E4
:104C1000E02F3EBE1C070000E20600000000F0BFCF
:104C200000009040FE822B654715973C00CC9040D9
:104C300000346F3F01FCFFFF0000E03FA8060000CA
:104C4000FFFF0F00432EE63F396CA80C615C20BECD
:104C5000EF39FAFE422EE63F0746224633460F91D1
:104C600010461946FBF7B1FB834602462E488A469A
:104C70000B4605217844FEF785FA5A465346FBF762
:104C8000A4FB22463346FBF79DFB82468B463A4601
:104C9000204631460F9BFBF798FB3A460F9BFBF7EC
:104CA000EDFA0F460A9000224FF0804350465946D5
:104CB000FBF785FB0391009052465B462046314648
:104CC000FBF783FB039B009AFBF7F1FB3B460A9A39
:104CD000FBF775FB22463346FBF771FB0022134BB3
:104CE000FBF770FB0E46044601EB0851081500283F
:104CF00010DC424620463146FBF748FCFEF71EFA20
:104D0000042808BFFEF7AEFA424620463146FBF7BC
:104D10003DFC044606980B4614B022462946BDE8E1
:104D2000F04DFBF752BB0000B80400000000F03F5C
:104D300070B50C46FBF741FC05466042FBF746FCAC
:104D400002460B4600204FF08041FFF715FB04465A
:104D50000E462846FBF783FC22463346FBF735FB1D
:104D6000BDE87040FBF7BEBC10B504210B48FDF751
:104D70007BFF0A48027843788478C178084802703B
:104D800043708470C17042EA032030F4004003D0C5
:104D9000001FFFF7F3F8012010BD000028030020DA
:104DA000FC00002003220F4900238B54521CD2B276
:104DB0000C2AFAD3012240B1012808D0022808D0D9
:104DC000032808D004280AD006E0CA7004E00A715B
:104DD00002E04A7100E0CA71072000F005B8CA700D
:104DE0000A71F6E748030020064A074BF2211170CA
:104DF00019785170491C197090700C21022000F034
:104E000005B8000048030020E400002070B50D4BF9
:104E10000C1D00221C700C4E5A709870355CDD70B1
:104E20006D1C355403F1200004E0855C9E18521C73
:104E30003571D2B28A42F8D3E1B20248FEF75EF988
:104E4000012070BD28030020600100204FF47A7318
:104E5000594330B40F4BFD241C70587000209870DB
:104E6000D870187159710C0A9C710C0CDC71090E08
:104E7000197258729872D87218735A73100A98730C
:104E8000100CD873100E1874112130BC0220FFF7DB
:104E9000BDBF0000480300200B4910B50120087079
:104EA0000146FFF7B3FF3220FBF7F2FDFFF75CFF8F
:104EB0000128FBD03220FBF7EBFD00BFFFF754FFCA
:104EC0000128FBD010BD0000480300202DE9F0416F
:104ED00006460F46FBF748FD04000D4618BF0120AB
:104EE000284320F00040C0F17F6000F1E040C00F97
:104EF0000ED0301C18BF0120384320F00040C0F114
:104F00007F6000F1E040C00F04BF0120FEF7C2F94E
:104F100020462946BDE8F0812DE9F0470120FEF743
:104F2000F9FF594C60700220FEF7F4FFA0700320D7
:104F3000FEF7F0FFE0700420FEF7ECFF2071052083
:104F4000FEF7E8FF60710620FEF7E4FFA07107207E
:104F5000FEF7E0FFE0710820FEF7DCFF2072A27A86
:104F60004A49DFF82C9152B1012A33D194F900203B
:104F7000022A6BD0012A6CD0032A6FD070E06578CA
:104F80000DB9022222704FF0010A08B984F800A07E
:104F900055EA000201D1032222702679637956EA8C
:104FA000030215D0E27842EA060757EA030C0FD055
:104FB00094F80680C44648EA060858EA030807D071
:104FC00056B12BB127B153EA0C0701D03AB108E032
:104FD000E1602161BDE8F087002BF9D1F2E7002EF6
:104FE000F6D113B1BCF1000FF2D0A378294E53EAE9
:104FF000020705D0E7795CEA070804D033B107E07F
:10500000C4E90316E6E7C4E90361E3E7002AF7D140
:10501000BCF1000F01D0002FF5D01F4A55EA03065E
:1050200004D057EA000604D035B109E0C4E9031200
:10503000D0E7C4E90321CDE713B1C4E90392C9E77E
:105040000FB10028F5D084F80AA0C3E7E160134946
:1050500005E01349C4E9031902E0FFE7E1602161BB
:10506000617869B1A17859B1E17849B1217939B153
:10507000617929B1A17919B1E17909B10028A9D1E2
:105080000020A072A6E70000D000002000004842E7
:105090000000704200003042000028420000F0C1D1
:1050A00000007041010202030405060708090A0B0B
:1050B0000C0D0E0F10100000000000000000010297
:1050C00003040607080900000000010203040000B1
:1050D000000000000000F03F000000000000F83F6A
:1050E00000000000000000000000004003B8E23FA4
:1050F000000000000000000006D0CF43EBFD4C3E56
:10510000033333333333E33FFFAB6FDBB66DDB3F4A
:105110004D268F515555D53F01411DA96074D13F92
:1051200065DBC9934A86CD3FEF4E454A287ECA3F8C
:105130003E5555555555C53F93BDBE166CC166BF0E
:105140002CDE25AF6A56113FF16BD2C541BDBBBE07
:10515000D0A4BE726937663E4FBB610567ACDD3FC8
:10516000182D4454FB21E93F9BF681D20B73EF3F8E
:10517000182D4454FB21F93FE2652F227F2B7A3C06
:10518000075C143326A6813CBDCBF07A8807703CBF
:10519000075C143326A6913CC4EB98999999C9BF32
:1051A000711623FEC671BCBF6D9A74AFF2B0B3BF67
:1051B0009AFDDE522DDEADBF2F6C6A2C44B4A2BF27
:1051C0000D5555555555D53FFF8300922449C23F93
:1051D0006E204CC5CD45B73F513DD0A0660DB13FC7
:1051E000EB0D76244B7BA93F11DA22E33AAD903FD9
:1051F000000000000000000018520008000000201D
:105200006C0100000A0A00083C5200086C010020F2
:10521000840600008432000881E8099A99993ECDFD
:10522000CC4C3E0C01460358594032018210031900
:0C523000127A320E5A080432090273048C
:04000005080000ED02
:00000001FF
