:020000040800F2
:10000000984D0020C5010008DD4D00083D40000866
:10001000BD4B0008453300085F5A0008000000008F
:10002000000000000000000000000000D1520008A5
:10003000853B00080000000069510008C353000818
:10004000DF010008DF010008DF010008DF01000810
:10005000DF010008DF010008DF010008DF01000800
:10006000DF010008DF010008DF010008DF010008F0
:10007000DF010008DF010008DF010008DF010008E0
:10008000DF010008DF010008DF010008DF010008D0
:10009000DF010008DF010008DF010008DF010008C0
:1000A000DF010008DF010008DF010008DF010008B0
:1000B000DF010008DF01000825540008DF01000807
:1000C000DF010008DF010008DF010008DF01000890
:1000D000DF0100088D57000815580008DF010008EF
:1000E000DF010008DF010008DF01000800F002F86E
:1000F00000F059F80AA090E8000C82448344AAF169
:100100000107DA4501D100F04EF8AFF2090EBAE866
:100110000F0013F0010F18BFFB1A43F0010318473B
:10012000A4BF0000C4BF0000103A24BF78C878C143
:10013000FAD8520724BF30C830C144BF04680C60ED
:10014000704700000023002400250026103A28BF35
:1001500078C1FBD8520728BF30C148BF0B60704739
:1001600066290AF0E186642900F0B880752900F05C
:10017000B580782900F0EE80732900F05E860020BB
:1001800070471FB500F0F4FE0400002000210AF0C3
:1001900087F9401C6060002000210AF06BF9E060E4
:1001A0001FBD10B510BD01F0A9F91146FFF7E9FF19
:1001B00008F00AFC01F04CFC03B4FFF7F2FF03BCAB
:1001C00005F0BAFF0948804709480047FEE7FEE707
:1001D000FEE7FEE7FEE7FEE7FEE7FEE7FEE7FEE7F7
:1001E00004480549054A064B70470000C5530008FE
:1001F000ED00000898470020984D00209849002005
:1002000098490020704700000FB41CB50C0007AAE5
:10021000009001D02044401E074B7B44694601906A
:10022000069800F0D8FD002C03D06946002000F0AD
:10023000E5FD1CBC5DF814FBE90B000070B504463D
:1002400085690068C10601D5302600E02026C00778
:1002500007D070BDD4E9012130469047206A401C88
:1002600020626D1EF6D570BD70B5044685690078B4
:10027000C00707D170BDD4E9012120209047206A32
:10028000401C20626D1EF6D570BD70B50C4605464B
:10029000012A05D02878800600D5EA69002302E00B
:1002A000012305E05B1C934202D2E05C0028F9D1F7
:1002B000A869E618C01AA861286A18442862284666
:1002C000FFF7BCFF04E0D5E9012114F8010B9047CA
:1002D000B442F8D32846FFF7C7FF70BD2DE9F041BF
:1002E0000646002410687529314616A510D0AFF3D4
:1002F0000080002802DA404213A507E031688A072F
:1003000001D512A502E0490704D511A5012401E099
:10031000AFF3008000210A2206F1240709E0B0FBB8
:10032000F2FCB0FBF2F302FB1C00303078541846AC
:10033000491C0028F3D123462A463046BDE8F04147
:1003400000F0DBBA000000002D0000002B000000D0
:100350002000000070B504460D4621461068AFF33A
:1003600000802188090502D50F4A7A4402E00E4A2E
:100370007A440E32002104F1240305E000F00F0658
:100380000009965D5E54491C0028F7D120780023AF
:10039000000704D5702D02D009B102231132204686
:1003A000BDE8704000F0A9BA0AB300002DE9F05F83
:1003B000894604464FF0000ADFF874B1FB44C0F8E8
:1003C00020A02046E1688847002874D0252806D060
:1003D000D4E901219047206A401C2062F1E7002601
:1003E0005F462046E16888472028054607DB312D17
:1003F00005D2781910F8200C08B10643F1E7B007D0
:1004000001D526F00406C4F81CA00027C4F818A0E3
:100410002A2D09D0284605F088FE38B304EB87085A
:10042000303DC8F8185019E059F8041B204604EB79
:1004300087029161E1688847012F054618D1E0697C
:10044000002820DA26F020061DE0D8F8180000EB7E
:10045000800005EB40003038C8F818002046E168FD
:100460008847054605F061FE0028EED1012F0AD02D
:100470002E2D08D12046E16888477F1C0546022FB3
:1004800046F02006C4DBA069002803DA404246F0AB
:100490000106A061F00701D026F010066C2D0BD0EC
:1004A000682D09D04C2D39D06A2D35D0742D35D01A
:1004B0007A2D33D016E038E0E1682F462046884791
:1004C000B842054609D16C2F26D04FF48060E16810
:1004D000064320468847054604E06C2F1AD04FF4A7
:1004E000807006430DB3A5F14100192802D82035CC
:1004F00046F400664A462946204626604E46FFF7E7
:100500002FFE80B101280BD0F61D26F0070000F168
:10051000080956E74020E4E78020D8E70020D6E726
:1005200006F104094DE7284652E7206ABDE8F09F2E
:10053000E0B200000FB400B58DB010A90990009191
:100540000B904FF0FF300A9000200C900648784442
:100550000690064878446A4607900F9909A800F06B
:1005600085FC0DB05DF814FB3B0900005309000049
:100570002DE9FF5F1D464FF0FF3B91464FF000080D
:100580005F46D5E90146A96901987F1C8847296A19
:10059000824688470028F6D1BAF1FF3F0CD0002EE2
:1005A00024F4C06419DD600614D5BAF12B0F09D00C
:1005B000BAF12D0F0ED103E0584604B0BDE8F09F0C
:1005C00044F48064A96901987F1C8847761E82469E
:1005D000002E02DDBAF1300F03D0B9F1000F26D0A2
:1005E00032E0A969761E01987F1C44F400748847A4
:1005F000002E824605DDBAF1780F06D0BAF1580F09
:1006000003D0B9F1000F10D01EE0B9F1000F02D0F5
:10061000B9F1100F18D1A969761E01987F1C24F436
:10062000007488478246102002E0082000E00A207B
:10063000814609E0A96908FB0908761E01987F1C1C
:1006400044F4007488478246002E05DD4946504632
:1006500000F0F7FB0028EDDAE96901988847A0056A
:1006600002D46FF00100A8E7E00725D1600613D59A
:10067000600502D5C8F1000000E0404629680A1D67
:100680002A600968220501D5087015E0220701D506
:10069000088011E008600FE02868011D29600068EB
:1006A000210502D580F8008006E0210702D5A0F8D8
:1006B000008001E0C0F8008038467EE7401ECAB2E4
:1006C00010F8011F8A4202D00029F9D1002070479A
:1006D00040EA010370B59B072ED14FF00136042A82
:1006E0002AD308C810C99D1B9D43121F15EAC615C1
:1006F00017D0D8B2E1B2401A50EA056110D198B2D1
:10070000A1B2401A50EA05410AD123F07F4024F0FB
:100710007F41401A50EA052102D1180EA0EB146067
:1007200070BDA342DBD018BA21BA884201D901209A
:1007300070BD4FF0FF3070BD0AB9002070BD10F8D9
:10074000013B11F8014B63B1A3420AD1521E08D0FC
:1007500010F8013B11F8014B1BB1A34201D1521E0D
:10076000EDD1181B70BD10B5203AC0F00B80B1E878
:100770001850203AA0E81850B1E81850A0E81850D6
:10078000BFF4F5AF5FEA027C24BFB1E81850A0E8DF
:10079000185044BF18C918C0BDE810405FEA827CF9
:1007A00024BF51F8043B40F8043B08BF7047D20710
:1007B00028BF31F8023B48BF11F8012B28BF20F8B1
:1007C000023B48BF00F8012B70474FF0000204299C
:1007D000C0F0128010F0030C00F01B80CCF1040C70
:1007E000BCF1020F18BF00F8012BA8BF20F8022BA4
:1007F000A1EB0C0100F00DB85FEAC17C24BF00F84A
:10080000012B00F8012B48BF00F8012B70474FF077
:10081000000200B5134694469646203922BFA0E850
:100820000C50A0E80C50B1F12001BFF4F7AF09075C
:1008300028BFA0E80C5048BF0CC05DF804EB89004D
:1008400028BF40F8042B08BF704748BF20F8022B90
:1008500011F0804F18BF00F8012B70474FF0013C9A
:1008600050F8042B51F8043B9A4221D1A2EB0C031F
:10087000934313EACC1317D150F8042B51F8043BDF
:100880009A4215D1A2EB0C03934313EACC130BD17C
:1008900050F8042B51F8043B9A4209D1A2EB0C0307
:1008A000934313EACC13DBD04FF00000704700BF36
:1008B000D01A01BAB1FA81F101F0180122FA01F05F
:1008C000CB40C1F12001DBB2C0B2C01A2CFA01F357
:1008D000D11A914311EAC311E6D1704770477047AE
:1008E0007047704710B500F047FB006810BD10B5A9
:1008F000044600F041FB046010BD2DE9F0470D46B1
:1009000099469246044600F124080168880604D5F9
:10091000E06921F01001216000E00120A84201DD22
:10092000471B00E00027A1697A1902EB0900081AA9
:10093000A0612078C00602D42046FFF77FFC002685
:1009400008E0D4E901211AF806009047206A401C0B
:10095000761C20624E45F4DB2078C0060AD520467E
:10096000FFF76CFC06E0D4E9012130209047206AB3
:10097000401C2062381EA7F10107F4DC07E0D4E92F
:10098000012118F805009047206A401C2062281EAB
:10099000A5F10105F3DC2046FFF766FC2078000690
:1009A00002D50220BDE8F0870120FBE770472DE962
:1009B000FF4F0C461E464FF0FF378BB0D2E90001C7
:1009C000DDF860800A908A46C1F30A5505B93D46B4
:1009D000002108464FF00000BAF1000F00F440007B
:1009E00005DA00EB80004FF4400101EA50004FEAC5
:1009F0009059B9F1010F00DDB9460A9850EA4A0052
:100A00000ED044F61050A5F2FF3545432F14B8F12F
:100A1000000F1ED07542291E1EDDC9F100021CE028
:100A2000B8F1010F4FF0000001D0302103E0F24394
:100A300005E02154401CB042FBDB3046002200217F
:100A400021540B99C1F80880C1E900200FB0BDE81E
:100A5000F08FBD1B6D1CDEE74A4600DA694206A82E
:100A600000F0D6FC06AB93E8070003AB83E8070071
:100A700050460A9901F033FA8DE80700A0F50050BE
:100A80001F3800900398002D0ADD42F21F014A46EC
:100A90000844002303A90390684601F0DFFC09E045
:100AA000A0F500504A461F38002303A9039068466A
:100AB00001F0FEFC8DE807000004000C03D04FF0AD
:100AC000FF30410800E01046B8F1000F03D00022CB
:100AD000009215461EE0751E05D400F051FA303222
:100AE00062556D1EF9D5B3460122084302D000229B
:100AF0007F1C04E02078302801D100227F1E002ACC
:100B0000099784D01DE0112D07DA00F039FA303250
:100B100062556D1C50EA0102F5D1084302D00098DD
:100B2000C8B10EE00021681E05E0235C625C6354DE
:100B30002254401E491C8142F7DBAB46A81B401ED5
:100B40000990002004F80B000B98099AC0F808805F
:100B5000C0E9002B7AE711264FF0000857E72DE98E
:100B6000F04F88460446D21D22F0070191B0D1E92A
:100B70000001CDE90A0105F023FA02460B98C00FE7
:100B800001D02D2007E02068810701D52B2002E04D
:100B9000202101EAC000032A099001D0072A05DBC1
:100BA00003464146204600F039FA0BE120788006E2
:100BB00001D5E06900E00620B8F1650F814606D056
:100BC000B8F1660F18D0B8F1670F70D131E000208E
:100BD000B9F1110F009001DB112301E009F10103CC
:100BE0000AAA01A90CA8FFF7E2FEDDE90C700026B5
:100BF00009F10105834647E001204B4600904FF084
:100C000000470AAA01A90CA8FFF7D1FEDDE90DB043
:100C10000C995D46002610B909F101000D18B9EBD9
:100C2000050003D4C0F1FF3609F10105A5EB090069
:100C30002BE0B9F1010F01DA4FF001090020B9F101
:100C4000110F0090484601DD112300E003460AAA77
:100C500001A90CA8FFF7ABFEDDE90C704D4600269C
:100C60008346207800070AD4AB4500DA5D4601A828
:100C7000012D04DD411911F8011C302907D04F4521
:100C800002DA17F1040F04DA012082460FE06D1E2C
:100C9000EEE7002F02DCED1B3E4403E0781CA84287
:100CA00000DD7D1CB81B00F1010A4FF000472078E1
:100CB000000703D4AA4501DB4FF0FF3A0021B7F14A
:100CC000004F0DF143088DF8431024D002202B2350
:100CD000002F01DA7F422D230A21021EA0F101001C
:100CE00000DC5FB197FBF1FC97FBF1F201FB1C7C90
:100CF00017460CF1300C08F801CDEEE7A8F1010021
:100D000003702188090501D5452100E06521A0F186
:100D1000010800F8011C09980FA9A1EB0807FF1DA5
:100D200000B10120411901EBEA70A1693844081AA9
:100D3000401EA0612078C00602D42046FFF77EFA4C
:100D4000099828B1D4E901219047206A401C20620B
:100D50002078C00622D52046FFF770FA1EE0002E4C
:100D600004DBB34502DD01A8805D00E03020D4E95A
:100D700001219047206A401C2062761CAAF10100E4
:100D80005FEA000A0AD100F0F3F8C0680168405C2D
:100D9000D4E901219047206A401C2062281EA5F159
:100DA0000105DCDC07E0D4E9012118F8010B9047CC
:100DB000206A401C2062381EA7F10107F3DC2046A0
:100DC000FFF752FA032011B041E6000001694A1C06
:100DD00002610878704700B58FB0CDE9013100217C
:100DE000059105497944CDE9031011466846FFF79E
:100DF000DDFA0FB000BD0000E5FFFFFF0A6802F852
:100E0000010B0A607047D1E900239A4202D2531CB9
:100E10000B601070704710B5436913B1AFF30080D9
:100E200001E0FFF732FA012010BD127800F1240131
:100E30000A7000224A700122EDE711684FF0FF327C
:100E4000E9E73A2800D2303820F02002412A01D3C5
:100E5000A2F13700884201D34FF0FF307047000005
:100E6000026811441378016018467047D160054943
:100E7000794451610449794411620021116111469C
:100E800000F00CB9EDFFFFFF91010000426842B194
:100E9000016811F8013B23B1521EC0E90012184647
:100EA00070470121C160881E704742685AB1C3680B
:100EB000016843B983688B4205D0491E521CC0E9C2
:100EC0000012002070474FF0FF3070470FB400232E
:100ED00000B589B00CA900910B99CB60214B7B44E4
:100EE0000693214B7B44079304236FF00042CDE926
:100EF00001321E4A7A446B460892024600200AF0EC
:100F00009BF809B05DF814FB70B506464FF0FF3052
:100F100015460C46324686B00091CDE9010169467E
:100F20000020049004A8FFF7D1FF0246049821187E
:100F300025B108B1084600E0204628600498002842
:100F40000DD0002A02DD0098884208D03246081BE6
:100F500069460094CDE9010404A8FFF7B7FF06B085
:100F600070BD0000ABFFFFFFC3FFFFFF13010000D8
:100F70000048704758470020004870473847002015
:100F800030B5B0F10A024FEA900E71F100034EEA5B
:100F9000817EB0EB0E0061EB91014FEA101E4EEA2C
:100FA000017E10EB0E0041EB11114FEA102E4EEABC
:100FB000016E10EB0E0041EB11214FEA104E4EEA8C
:100FC000014E10EB0E0041EB1141401841F10001C0
:100FD0004FEAD00040EA41704FEAD10110EB8005A2
:100FE0004FEA810444EA907444EB01046D1944EB28
:100FF0000404521BA3414FF0000348BF0A3200D53E
:1010000030BD401C41F1000130BD10B5044600F078
:101010009BFA0068005D00F0010010BD2DE9F04171
:101020001F46044603260168072A01F4006004DB1A
:1010300008B116A505E016A503E008B115A500E066
:1010400015A521F010002060A069C01EA0610FB19D
:10105000401EA0612046FFF7F1F84FB1D4E901210D
:1010600038469047206A401C2062C01C206206E07F
:10107000206AFAE7D4E9012115F8010B9047761EA2
:10108000F8D22046FFF7F0F8BDE8F0814E414E005F
:101090006E616E00494E4600696E66002DE9F34FA1
:1010A0004FF0000A0C4656468DB001200C9001F11D
:1010B0000C000B9062690B9801219047051E2DD002
:1010C000252D2CD0216A8847C0B162690B98012177
:1010D0009047216A88470028F7D16269411E0B9822
:1010E000904700E0761CA1690D988847216A8847DF
:1010F0000028F7D1E1690D988847DBE7A1690D98D1
:101100008847A842074601D1761CD3E7E1690D98CC
:1011100088477F1C02D1BAF1000F6FD06BE1626982
:101120000B9800273D46394690472A2804D162692A
:101130000B98012190470125DFF8D08262690B9856
:1011400001219047A0F130010A290AD24745E5DC88
:1011500007EB870100EB4107303FDFD445F0100576
:10116000ECE7E90601D46FF000476C280AD04C2860
:1011700014D0682815D06A280DD074281CD07A287D
:101180001AD01DE062690B98012190476C2802D0AB
:1011900045F0040514E045F002050DE045F020059A
:1011A0000AE062690B9801219047682802D045F057
:1011B000080505E045F4006562690B980121904738
:1011C000C4E9015765283DD019DC58287AD00CDCD9
:1011D000452837D004DC252826D041289ED131E08F
:1011E00046282FD0472899D12CE05B2877D061285A
:1011F00028D063287CD0642823D15AE0F6E06F28F9
:1012000048D008DC66281DD067281BD0692821D06B
:101210006E2816D127E0702845D0732868D075282D
:1012200047D078280DD14DE0A1690D988847252831
:1012300005463FF469AFE1690D9888476D1C3FF49E
:101240006AAFD8E00D9923466A466FF0010009F0B5
:10125000F3FEC5E045F0400023464FF00002606019
:10126000A80736D43EE0E8077FF447AF2068011DA9
:1012700021600068290501D506701BE7290701D503
:10128000068017E7A90703D5F117C0E9006111E748
:1012900006600FE745F0400023464FF0080260600B
:1012A000A80716D41EE040F60E0125EA0100606092
:1012B00016E045F0400023464FF00A026060A807A0
:1012C00007D40FE045F040006060A80708D523462A
:1012D00010220D996FF00100AFF3008080E007E06D
:1012E000102223460D996FF00100FFF741F977E0D6
:1012F0004FF0000963284F46C8464B46CB4602D004
:101300005B2806D038E0E80601D40120A060012760
:1013100032E06269D4F80CB00B98012190475E2846
:1013200007D14FF0010949466269D4F80CB00B9817
:101330009047216939B900210A4603AB43F82120BF
:10134000491C0829FADBD8B3216949B308F101081F
:1013500062690B98012190475D28F4D1B9F1000F23
:1013600009D0002003A951F82020D24341F82020C1
:10137000401C0828F7DB03AB2069002820794FEADE
:1013800040701ED05B462246CDF80080CDE9019723
:101390000D9900286FF0010020DAAFF300801FE004
:1013A000C11703AA00EBD1614B1121F01F0102EB21
:1013B0008302411A13680120884003431360C7E782
:1013C00019E00D99224600286FF00100009702DA1B
:1013D000AFF3008004E0AFF3008001E0AFF30080E2
:1013E00000280ADA401C06D10C9820B14FF0FF30DB
:1013F0000FB0BDE8F08F5046FAE7E90701D10AF1D6
:10140000010A064400200C9054E60000CCCCCC0C21
:101410002DE9F047814616468AB0354878440DC814
:101420008DE80D0032487844801C03AC0DC884E878
:101430000D0041F69B300844372190FBF1F290FB00
:10144000F1F5A5F1800501FB12041B3C02D56442B5
:10145000012000E00020DFF898A080460027FA4431
:10146000AAF1BE0A0EE0E0070AD03246684607EB52
:10147000470101230AEB810101F01AF88DE807000A
:1014800064107F1C002CEED1194F7F44AE3F19E051
:10149000E80715D007EB04100DF1180A90E80E00CC
:1014A0008AE80E00C068F04201D1981908903246CF
:1014B000012306A903A800F0FBFF03AB83E80700A4
:1014C0006D10641C002DE3D14FF0010332466946D4
:1014D000B8F1000F03A802D000F0C0FF01E000F057
:1014E000E7FFC9E90001C9F808200AB0BDE8F087A4
:1014F00010A3000000487047384700207546FFF7EA
:10150000F9FFAE4605006946534620F007008546C0
:1015100018B020B5FEF764FEBDE820404FF000068D
:101520004FF000074FF000084FF0000B21F00701CB
:10153000AC46ACE8C009ACE8C009ACE8C009ACE80E
:10154000C0098D467047000010B5FFF711FD001D62
:1015500010BD00BF4D8F00002DE9FF4F06468BB038
:101560000878FF2806D0491C2D2805D000244FF00C
:10157000000908E000200CE00124F8E709EB8903EA
:10158000491C00EB43090878FF28F7D114B1C9F1D1
:1015900000008146107800252C46AA4629462D28B1
:1015A00001D02B2804D1521C2D2813D000208246B4
:1015B0008B461078FF280FD04FF0000C0A21521CE8
:1015C000A5FB017804FB018105FB0C11C5194BEB50
:1015D0000104EEE70120EAE7002108464FF0000091
:1015E000BAF1000F02D000EB80004008C0F3815731
:1015F000012F01DD4FF0FF370E9955EA040009EB8A
:1016000001080BD04FF0020918F5FA7F16DA4FEAFD
:10161000CA70002F706008DD012007E04FEACA7031
:10162000C6E900B00FB0BDE8F08F00203060FFF7D2
:10163000A3FCC0F800901821084616E0B8F5FA7F20
:1016400018DD002F02DAF748784401E0F6487844C4
:10165000D0E90010C6E9001040EACA707060FFF7D8
:101660008BFCC0F80090142108460FB0BDE8F04F85
:1016700009F057BC002108464FF00000B8F1000106
:10168000099002DAC7F1000200E03A4601DAC8F137
:10169000000106A8FFF7BCFE06AB93E8070003AB0A
:1016A00083E8070044F23E005BEA040100905846DC
:1016B00004D144F21E012C465D460091210C090420
:1016C000014306D10099240444EA15442D0410393D
:1016D000009104F07F41014306D10099240244EABD
:1016E00015642D020839009104F07041014306D1C0
:1016F0000099240144EA15742D01091F009104F09A
:101700004041014306D10099A40044EA9574AD001C
:10171000891E009104F00041084304D100986D191E
:101720006441401E00904FF001033A466846B8F10C
:10173000000FCDE9014503A902DD00F0CEFE01E076
:1017400000F0A1FEBAF1000F04460D4601D084F06E
:101750000044002108464FF00000099940F2FF774D
:10176000484010F00C0F07D124F00040284303D06C
:10177000C4F30A50B84212D1FFF7FEFBC0F8009044
:10178000C4F30A50B8420AD1A8487844D0E90010FE
:10179000C6E9001004F000410843706042E7C6E962
:1017A00000543FE72DE9FF4F1F464FF0000A4FF06E
:1017B000FF38454691B0D7E90146CDF83CA0FFF788
:1017C000D7FBC0680168405C1090B96912986D1C25
:1017D0008847396A814688470028F6D1B9F1FF3F2A
:1017E0000AD0002E24F4D06411DDB9F12B0F08D0FB
:1017F000B9F12D0F0BD102E0404615B013E744F4C8
:101800008064B96912986D1C8847761E8146600510
:1018100004A901D52D2000E02B20002E01F1010BA1
:101820000DF130088DF810003FDDB9F1690F08D0D7
:10183000B9F1490F05D0B9F16E0F02D0B9F14E0FD1
:101840001CD13B4601A8009580E85002DDE9121248
:101850006FF0020009F0F4FBC11CCED10EE0B969B3
:1018600012986D1C884781461398761E44F40074C4
:1018700005600F98401C002E0F9016DDB9F1300F57
:10188000EDD0B9F1780F02D0B9F1580F0DD10F9802
:1018900001280AD13B46CDE90054DDE91212001FB0
:1018A000029609F0CBFBC11CA7D1109989453ED106
:1018B00044F0800406E01399681CAAF1010A44F47C
:1018C00000740860B9696D1C1298761E884730282C
:1018D0008146F0D02BE01099894505D1200603D42C
:1018E000761E44F0800418E0484604F01EFC08B35D
:1018F000761E0DF123018B4544F4007408D2A9F142
:1019000030000BF8010B200607D5AAF1010003E017
:10191000200602D40AF101008246A00502D51399DF
:10192000681C0860B96912986D1C88478146002EB2
:10193000D1DC53E0002E51DDB9F1650F02D0B9F1D1
:10194000450F4BD1A00549D5B9696D1C1298761E7B
:1019500024F440748847002E81460CDD2B2804D0E7
:10196000B9F12D0F07D144F48074B96912986D1C38
:101970008847761E8146E00501D52D2100E02B2108
:1019800008F8011BCDF8008021E0761E0DF1390129
:10199000884544F400740CD2A9F1300010F0FF0027
:1019A00088F8000002D10099884509D908F101089A
:1019B00006E0E00501D51E4801E042F20F708246C4
:1019C000B96912986D1C8847814613980560002EEE
:1019D00004DD484604F0A9FB0028D6D1F969129825
:1019E0008847FF2053468BF8000088F8000000204D
:1019F0000A900B9004AA0CA90AA8FFF7ADFDA00558
:101A000002D46FF00100F8E614F0240F12D0E007C2
:101A10001CD13868DDE90A12031D3B600068C0E98B
:101A2000001213E0A0AA000092AA000056A900002C
:101A3000F1D8FFFF0AA9684604F006FBE00705D1CC
:101A40003868009A011D3960006802602846D4E6B3
:101A500010B50446AFF300802046BDE81040FEF705
:101A6000ABBB00002DE9FF4F1F464FF03C0987B08C
:101A70004FF00042DDE9141001F10108DDF858A033
:101A800002EA405003900020059083460546044634
:101A90000490B969461E08988847AAF1010A029085
:101AA000BAF1000F3BDD02982E2815D01021FFF768
:101AB000C8F900282EDB4FF0010B0599014317D020
:101AC000B9F1000F0BDB4A46C11700F0F5F90543E9
:101AD0000C43A9F1040905E0012004900BE008B1D2
:101AE00045F0010501200590049820B9361D02E05B
:101AF000049800B1361FB969089808F101088847B1
:101B0000BBF1000FAAF1010A0290C9D00999C1F8EE
:101B10000080C5E70298702808D0502806D0F969DF
:101B200008988847BBF1000F14D04FE000200290C6
:101B30000120BBF1000F049009D0B969089808F1A1
:101B400001088847AAF10109B9F1000F07DCF9691A
:101B5000089888476FF001000BB0BDE8F08F2B2884
:101B600004D02D280CD14FF0FF300490B9690898AB
:101B700008F101088847A9F10109B9F1000FE6DD74
:101B8000411CE4D00A21FFF75CF90028DFDB029951
:101B900008F1010801EB810100EB41000290B969F5
:101BA000089888470A21FFF74CF9099AA9F1010919
:101BB000B9F1000FC2F8008001DD0028E7DAF96909
:101BC000089888470499029800FB016655EA0400CA
:101BD00004D004F04041090002D006E0039898E0E8
:101BE000A40044EA9574AD00B61E04F0004108005C
:101BF00002D16D196441761E159810F0240F03D0A0
:101C00004FF00B095C4803E04FF028096FF07D00AE
:101C10008246564507DAAAEB06018944B9F1410F1D
:101C200001DD4FF0410901200021A9F1010200F07E
:101C300043F9024628400B462140084301D00121C8
:101C400000E00021501E029143F1FF312840214065
:101C5000084301D0012000E000200299834651EAA8
:101C60000B014FD0002108464FF00000039900F40B
:101C7000400039B100EB80004FF4400100EBD07020
:101C800001EA60008015012802DD4FF0FF3000E01E
:101C900013D0401C36D0029860B3BBF1000F0CD1BA
:101CA0004A460120002100F007F92840214008435E
:101CB00001D0012000E00020E0B101204A460021CF
:101CC00000F0FAF8034640190A4661412D1A8C418A
:101CD00011D3B9F1400F09DD159810F0240F02D08F
:101CE000AAF1340603E0AAF1170600E0761C0025ED
:101CF0004FF0004406E05B1E42F1FF3220EA03058C
:101D000021EA0204CAF10100B04206DA1B49039835
:101D100008430190002000900EE0039AC4F3D32101
:101D2000E80A0A43164940EA44500A433146CDE9DD
:101D30000002684604F0EEF9159810F0240F0BD05D
:101D40001598C00715D13868DDE90012031D3B6006
:101D50000068C0E900120CE002A8694604F074F9BA
:101D60001598C00705D13868029A011D39600068CE
:101D700002604046F0E6000002FCFFFF0000F07F3A
:101D80000000F03F2DE9FF4F92461D4685B04FF011
:101D90000041DDE9124BDDE914727F1E01EA4B5070
:101DA000414940F0FF4940EA0108002122F02000AB
:101DB0004928049102D04E2828D04CE03BA00126AF
:101DC00007C88DE80700A9690698641C88477F1E2C
:101DD000014606D41DF8060018B121F02001814209
:101DE0000BD0E96906988847032E34D0082E32D0EC
:101DF0006FF0010009B0BDE8F08F761C032E01D012
:101E0000082EE0D1601CCAF80000DCE7A96906983A
:101E1000641C88477F1E2AD420F02000412826D148
:101E2000A9690698641C88477F1E20D420F02000F2
:101E30004E281CD1A9690698641C88477F1E48F467
:101E4000002849F48009CAF8004001D4282806D0A7
:101E5000E969069888475FEACB7012D022E0A96949
:101E60000698641C88477F1E01D4002803DAE969BC
:101E700006988847BCE72928F1D1641CCAF80040BD
:101E8000E9E71BF0240F07D028680499031D2B6095
:101E90000068C0E9001805E02868021D2A60006893
:101EA000C0F800902046A5E70000F07F494E464963
:101EB0004E49545900000000B2F120030AD5C2F186
:101EC000200301FA02F120FA03F300FA02F041EADA
:101ED0000301704700FA03F14FF0000070475FEA1A
:101EE000400C08BF91F0000F4FEA8C234FEAC1224B
:101EF00043EA51514FEA1C5018BF00F5F0404FEA39
:101F0000300018BF41F000415FEA6C5C00F02980AE
:101F1000BCF1FF3F08BF40F080407047130C06BF84
:101F200012044FF0100C4FF0000C130E04BF1202FD
:101F30000CF1080C130F04BF12010CF1040C930FE9
:101F400004BF92000CF1020CD30F04BF52000CF13D
:101F5000010C11464FF00002A0F11F00A0EB0C0095
:101F6000704711F0004F08BF704731F000413FF457
:101F7000D5AF0B0C06BF09044FF0100C4FF0000C4E
:101F80000B0E04BF09020CF1080C0B0F04BF090172
:101F90000CF1040C8B0F04BF89000CF1020CCB0F69
:101FA00004BF49000CF1010CCCF12003A0EB0C00A4
:101FB00022FA03F302FA0CF241EA030100F10100F4
:101FC000704720F07F4C80EA030023F07F47ACEBA2
:101FD000070303F57C5300F0004003F1FF032DE9F4
:101FE00080494FEA154B09B44FEA144325EA0B4EDA
:101FF00024EA03480FF2042606EB132749083E782B
:102000005FEA320203FB0667C7F5000707FB06F627
:102010004FEA54374FEAD64606F1020607FB066C34
:10202000CCF1005C4FEA1C472CEA074C07FB06F496
:102030000CFB06F504EB15464FEA961634BF00205C
:102040004FF000404FEAD13706FB07FC4FEA1C4C2B
:102050000CFB0BF7D21B03FB0CF761EB07010CFB2E
:102060000EF7B0EB074072EB17420CFB08F734BFDA
:10207000A2EB0742B2EB074261EB17414FEA0C4477
:102080004FEA910706FB07FC4FEA1C4C0CFB0BF7D1
:10209000B0EBC74072EB573203FB0CF734BFA2EB37
:1020A000C742B2EBC74261EB57310CFB0EF7B0EB06
:1020B000C70072EB57720CFB08F734BFA2EBC702E4
:1020C000B2EBC70261EB5771039F4FEA816141EAAE
:1020D000921104EBCC044FEAD1374FEA826206FB3F
:1020E00007FC42EA90124FEA80604FEA1C4C0CFB5E
:1020F0000BF7D21B03FB0CF761EB07010CFB0EF790
:10210000B0EB074072EB17420CFB08F734BFA2EBB1
:102110000742B2EB074261EB17414FEA8C554FEA99
:10212000910704EB9C2406FB07FC4FEA1C4C0CFBBC
:102130000BF7B0EBC74072EB573203FB0CF734BF21
:10214000A2EBC742B2EBC74261EB57310CFB0EF773
:10215000B0EBC70072EB57720CFB08F734BFA2EB71
:10216000C702B2EBC70261EB577115EB4C254FEA82
:10217000816141EA92114FEA82624FEAD13742EA25
:10218000901206FB07FC44F100044FEA80604FEA1E
:102190001C4C0CFB0BF7D21B03FB0CF761EB07018C
:1021A0000CFB0EF7B0EB074072EB17420CFB08F785
:1021B00034BFA2EB0742B2EB074261EB174115EBCC
:1021C0001C154FEA813141EA92414FEA823242EADC
:1021D00090424FEA80304FEA0C7644F1000448EA1E
:1021E00003434EEA0B484FF0000EB2EB080C71EBC4
:1021F000030724BF624639464EEB0E0E4FF0000B2C
:102200000018524149414BEB0B0BB2EB080C71EB40
:1022100003077BF1000B24BF624639464EEB0E0EDE
:102220004FF0000B0018524149414BEB0B0BB2EB46
:10223000080C71EB03077BF1000B24BF62463946A3
:102240004EEB0E0E51EA020718BF46F0010616EBE0
:102250000E7655F1000254F1000103D5BDE8890165
:10226000BDE80088BDE88901BDE80048B6195241C3
:1022700041EB0101A3F10103704780807F7E7D7CEB
:102280007B7A7978777676757473727171706F6E08
:102290006E6D6C6C6B6A6A696868676666656464B3
:1022A000636362616160605F5F5E5E5D5D5C5C5B3D
:1022B0005B5A5A59595858575756565555555454AC
:1022C000535352525251515050504F4F4F4E4E4D0A
:1022D0004D4D4C4C4C4B4B4B4A4A4A494949484856
:1022E0004847474747464646454545444444444396
:1022F00043434342424242414141000046EA0646CE
:10230000A3F570534FEA164646EA42564FEAD222E8
:1023100042EA415210B54FEAD121A3F1010300F086
:102320002FF820F0004000F1020C00F0004701EB14
:1023300000501146BCF5006F40EA070000D210BD06
:10234000BAF1000F0AD01CB503B44FF004004FF0EF
:1023500004014FF000000FBCBDE810404FF0000139
:10236000BBF1010FB9BF04484FF0FF310348002112
:1023700040EA070010BD00BFFFFFEF7F0000F07FC5
:10238000002B9C4630D477002BD01CB54FEA370782
:1023900003B44FF010004FF01001BAF1000F06D057
:1023A000BCF1000FDCBF40F0080040F008014FF026
:1023B00000000FBCBDE810400BF1010BBBF1010F99
:1023C00008BF5FEA170722BF12F1010211F10101F4
:1023D0004FF0004143F1000300F0004043EA0000E9
:1023E0007047F9D35708D0E746EA064613F1400F85
:1023F0004FEA16461FDD13F1200FDFBF16430A46D2
:10240000002120335B42BED0C3F1200746EA0646D6
:1024100002FA07F74FEA164646EA0706C3F1200715
:1024200022FA03F201FA07F721FA03F14FF0000351
:1024300042EA0702A7E746EA020646EA06464FEAEC
:10244000164646EA0106BCBF46EA0646360C4FF081
:1024500000034FF000024FF0000194E72DE9804C9B
:102460009A46934670B491E8380007C831EA400CA8
:1024700048BF34EA430C03D5FFF7A3FDFFF780FF05
:10248000F0BCBDE8008C2DE9804C9A46934670B4B0
:1024900091E8380007C831EA400C48BF34EA430CE1
:1024A00003D5FFF78EFDFFF729FFF0BCBDE8008CD8
:1024B0002DE9804C9A46934670B491E8380007C8DD
:1024C00010F0804F08BF13F0804F03D100F01AF8CE
:1024D000FFF756FFF0BCBDE8008C2DE9804C9A4612
:1024E000934670B491E8380007C810F0804F08BFD9
:1024F00013F0804F03D100F005F8FFF7FFFEF0BCAA
:10250000BDE8008C20F07F4780EA030023F07F4C79
:1025100007EB0C03A3F57C5300F00040A3F1FE038E
:1025200092F0000F00F0B38095F0000F00F077807C
:102530002DE901494FEA11404FEA144621EA0048CB
:1025400000FB06FC24EA064708FB06F607FB08F832
:1025500000FB07F718EB06484CEB164C4FEA124B02
:1025600018EB07484FEA15464CEB174022EA0B4E92
:102570000BFB06FC25EA06470EFB06F607FB0EFEE4
:102580000BFB07F71EEB064E4CEB164C4FF000060C
:102590001EEB074E4CEB174B18EB0B0840F10000FD
:1025A00018EB0E0B58EB000840F100008F1A4FF0AB
:1025B00000013CBFC943661B14BFB5EB040C0021EE
:1025C0003CBFC943F61B4FEA17444EEA8E0E27EA7A
:1025D00004454FEA1C4704FB07622CEA074C05FB45
:1025E00007F70CFB05F604FB0CFC16EB074642EB69
:1025F000174216EB0C4642EB1C421BEB060658EB4F
:102600000202414146EA9E0601D5BDE80189B6199C
:10261000524141EB0101A3F10103BDE801894FEAF9
:1026200014454FEA114724EA054621EA074C05FB09
:1026300007F406FB07F70CFB06F105FB0CFC11EB9E
:10264000074144EB17444FEA124711EB0C4144EBAE
:102650001C4422EA074C05FB07F206FB07F70CFBBC
:1026600006F605FB0CFC16EB074642EB174216EB91
:102670000C4642EB1C456A1854F1000148BF7047F4
:10268000B619524141EB0101A3F10103704795F0E6
:10269000000F37D04FEA11424FEA144721EA0246B1
:1026A00024EA074C02FB07F106FB07F70CFB06F4D4
:1026B00002FB0CFC14EB074441EB17414FEA1547B2
:1026C00014EB0C4441EB1C4125EA074C02FB07F5D7
:1026D00006FB07F70CFB06F602FB0CFC16EB0746A5
:1026E00045EB174516EB0C4645EB1C42121951F110
:1026F000000148BF7047B619524141EB0101A3F1F7
:10270000010370474FEA14454FEA114724EA054692
:1027100021EA074C05FB07F106FB07F70CFB06F265
:102720004FF0000605FB0CFC12EB074241EB174192
:1027300012EB0C4251EB1C4148BF7047921841EB21
:102740000101A3F10103704708B501460020009084
:10275000034800900098084400900098008808BD45
:10276000006C004008B500220092044A0092009AD2
:1027700002440092009A116008BD0000006C004005
:102780002DE9F04104460D4616461F4642480470A6
:10279000424804700120424908704248002101600B
:1027A00081800020404908704049087045B140A030
:1027B00000F0B8FB00F018F9502001F0E4F905E052
:1027C0003DA000F0AFFBFA2001F0DDF93DA000F0E4
:1027D000A9FB304600F032FD38B93DA000F0A2FB65
:1027E00000202D490870BDE8F0810321B42000F0DD
:1027F00037FD30B939A000F095FB0020264908705C
:10280000F1E70220264908700020374908700320AC
:102810002349087035A000F085FB00F091FA10B94B
:1028200035A000F07FFB04201D49087035A000F0A2
:1028300079FB44F62061082000F0A2F830B934A0FA
:1028400000F070FB002014490870CCE70120164905
:10285000087005201249087030A000F063FB40F2B8
:10286000DC51384600F03EFC50B92FA000F05AFB76
:1028700000200D4908700D49087007490870B2E73B
:1028800085200A49087006200549087029A000F033
:1028900049FB0120A7E70000280000204D00002090
:1028A0004E000020380000204C00002029000020AD
:1028B00042493A48520D0A0042493A57544E0D0ACD
:1028C0000000000042493A5052450D0A0000000045
:1028D00042493A465052450D0A00000042493A46E4
:1028E0005052530D0A0000004F00002042493A5058
:1028F00049440D0A0000000042493A465049440D3F
:102900000A00000042493A4654520D0A00000000F5
:1029100042493A464654520D0A00000042493A578D
:1029200046520D0A0000000042493A465746520DF1
:102930000A00000042493A5244590D0A00000000C2
:1029400010B5002415E001F015FF0C49097849067F
:10295000080E01F0B7FE01F04FFF18B901F02AFF91
:10296000012010BD01F026FF012001F00CF9601CD0
:10297000C4B2032CE7D30020F3E7000028000020B6
:1029800030B585B005460C4614216846FDF73FFF7B
:10299000FD208DF800008DF80150E0B28DF80500A3
:1029A000200A8DF80600200C8DF80700200E8DF807
:1029B000080011226946022000F06AFA05B030BD15
:1029C0007CB5044600250BE0694601A800F042F9F9
:1029D00018B9022001F0D7F800E000BF681CC5B2AA
:1029E000A542F1DB7CBD000010B54FF480410748E3
:1029F00001F01BFB0A2001F0C6F84FF480410348A8
:102A000001F015FB502001F0BEF810BD000C014094
:102A10002DE9F04104460E46092E02D20020BDE801
:102A2000F08162480078FB2801D00020F7E75F487A
:102A300045795F480570012D39D10F2E37D35B489A
:102A4000093000F0FFF80746082100F0B9F8A0614E
:102A500056480B3000F0F6F80746082100F0B0F8B1
:102A6000E06152480D3000F0EDF80746082100F013
:102A7000A7F820624F49A06908F04EF8074607F012
:102A8000CFFF00B220804B49E06908F045F80746C7
:102A900007F0C6FF00B260804649206A08F03CF8A3
:102AA000074607F0BDFF00B2A0800120B7E7022D66
:102AB00045D10F2E43D33D48093000F0C3F880467E
:102AC000092100F07DF807463B4908F025F86062CF
:102AD00036480B3000F0B6F88046092100F070F857
:102AE0000746354908F018F8A06230480D3000F06C
:102AF000A9F88046092100F063F807462E4908F03E
:102B00000BF8E0622D49606A08F006F8074607F006
:102B100087FF00B2E0802949A06A07F0FDFF074661
:102B200007F07EFF00B220812449E06A07F0F4FF3D
:102B3000074607F075FF00B2608101206FE7052DA1
:102B400001D0082D2FD1112E2DD31848093000F0B7
:102B500079F807460E2100F033F8A06413480B30D3
:102B600000F070F807460E2100F02AF8E0640F48E4
:102B70000D3000F067F807460E2100F021F82065BF
:102B80000A480F3000F05EF807460E2100F018F8F2
:102B90006064012084F8600084F86200204600F040
:102BA000DFF901203BE7002039E700004406002060
:102BB0005400002000007A44E12E65420000C84223
:102BC0002DE9F04105460C46012101FA04F007F019
:102BD0005BFF0646284607F03FFF0746314607F0F1
:102BE0005DFEBDE8F081000070B506460D460DB9EA
:102BF000002070BD01F0BEFD11490978012202EBF1
:102C00004101C8B201F05EFD01F0F6FD18B101F01E
:102C1000D1FD0020EDE700240CE001F003FD30556C
:102C2000601CA84202D201F033FD01E001F088FDF2
:102C3000601C84B2AC42F0DB01F0BCFD0120D8E79F
:102C400028000020014608784A7840EA022000B2B5
:102C5000704700002DE9F041E2B006460F464FF400
:102C60000041314801F0D8F918B1002062B0BDE848
:102C7000F0812E480068401C2C49086000202C4937
:102C800008702C48002101600421FFF7ADFF20B936
:102C90000120274908700020E8E7264800782549E8
:102CA000497840EA0128C8F30E08B8F1040F04D2AD
:102CB00002201F4908700020D8E7A8F1040084B260
:102CC00014B1B4F5C07F04D903201949087000205D
:102CD000CCE7201D81B201A8FFF786FF20B90420B0
:102CE000134908700020C1E74FF4C0711248FDF786
:102CF0008EFD002506E001A9281D085C0E494855F7
:102D0000681C85B2A542F6DB0020094908700B4813
:102D10000068401C0949086016B106488078307088
:102D200007B13C800120A1E70008014064000020B9
:102D30006C0000203E0000204406002068000020B7
:102D40003EB50025F9208DF8080000208DF8090017
:102D50000820FFF735FE142000F015FF1FA000F03B
:102D6000E1F8022202A9104600F092F820B91EA054
:102D700000F0D8F800203EBD002426E0694601A8F6
:102D8000FFF768FFE0B11DB901251AA000F0CAF8ED
:102D90001B4800781B4908709DF8040002280FD1D9
:102DA000BDF8000002280BD315480078F82807D199
:102DB00015A000F0B7F88520164908700120DAE761
:102DC000012000F0E0FE601C84B2B4F5FA6FD5D3A8
:102DD00011A000F0A7F80020CDE7000042493A50CA
:102DE0004944530D0A00000042493A4650494453B1
:102DF0000D0A000042493A504944504B0D0A000068
:102E0000440600204F00002042493A504944520DE8
:102E10000A0000002900002042493A545049440D5C
:102E20000A00000070B516480578002015490870A2
:102E3000154908701549087008241BE010480470F3
:102E4000FFF77EFD00B913E01048007808B90D487F
:102E500004700D4804700D480078FF2804D20B4818
:102E60000078401C09490870012000F08CFE00BF6A
:102E7000601CC4B2782CE1D30148057070BD00001D
:102E800028000020500000205100002052000020A7
:102E90002DE9F047E0B00446894617463D1DB5F5DB
:102EA000C07F03D9002060B0BDE8F0871A480470E5
:102EB0001A4805801A4810F804A0005D401C184903
:102EC0000855E8B28DF80000280A8DF801008DF849
:102ED00002408DF803A0002606E019F80610301D08
:102EE0000DF80010701CC6B2BE42F6DB4FF00008B1
:102EF0000DE02946684600F0F1F908B10120D2E75B
:102F0000052000F040FE08F1010000F0FF08B8F1D4
:102F1000030FEED30020C6E7580000205A0000201F
:102F20003800002010B50446204602F09BFF10BD7B
:102F300010B504460948007800B110BD4CB100201E
:102F400084F8600060632063A06384F8610084F803
:102F5000620001F005F900BFEFE700005E0000200D
:102F60002DE9FF5F0446656CA06C0390E06C029055
:102F7000206D01904FF08040019907F0CDFD009049
:102F8000019907F0C9FD82464FF04040029907F0D1
:102F9000C3FD0090029907F0BFFD8346514607F03C
:102FA0004BFF81464FF07E5107F004FC074629464F
:102FB0004FF0804007F0B0FD8346019907F0ACFD6B
:102FC00081464FF08040039907F0A6FD83460299A1
:102FD00007F0A2FD8246494607F0ECFB80463946E1
:102FE00003F054F980F000463A49304607F094FD6A
:102FF00039490860394801683748006807F01CFF04
:10300000064600F04BF9606329464FF0804007F018
:1030100083FD8346029907F07FFD81464FF04040D3
:10302000039907F079FD8346019907F075FD824603
:10303000494607F0BFFB80464FF07E52284901F019
:1030400052F8074603F090F880F0004621493046D8
:1030500007F062FDE0634FF08040029907F05CFDED
:103060000090029907F058FD82464FF040400399C6
:1030700007F052FD0090039907F04EFD834651463C
:1030800007F0DAFE81464FF07E5107F093FB0746CA
:1030900029464FF0804007F03FFD8346039907F033
:1030A0003BFD81464FF08040029907F035FD834695
:1030B000019907F031FD8246494607F07BFB8046C7
:1030C000394603F0E3F80646024907F025FD20647F
:1030D000BDE8FF9FE12E654248000020440000202B
:1030E000000080BF2DE9F04790B004460D463148FE
:1030F000D0F800903048D0F800A00026B046002755
:1031000024E0204601F032F948B194F8600030B173
:103110002AA0FFF707FF012010B0BDE8F087B8F143
:10312000000F05D123480068484501D04FF0010841
:103130003EB921480068504503D0012622A0FFF780
:10314000F1FE012000F01FFD781C87B2AF42D8DBF2
:1031500086B12048008820490978CDE900101F4831
:1031600003781FA2302104A8FDF74EF804A8FFF74A
:10317000D9FE1CE0B8F1000F16D02248C0782149D2
:103180008978204A52781F4B1B78CDE90032CDE96F
:1031900002101D4803781DA2302104A8FDF734F861
:1031A00004A8FFF7BFFE02E021A0FFF7BBFE00204E
:1031B000B2E70000640000206800002042493A5253
:1031C00050540D0A0000000042493A5746504B0D3A
:1031D0000A00000056000020540000205300002088
:1031E00042493A57464E502063683D257520726922
:1031F000643D307825303258206C656E3D25750D64
:103200000A0000003E0000206C00002042493A57AE
:1032100046524120633D257520683D2530325825B2
:1032200030325825303258253032580D0A0000000F
:1032300042493A57464E4F0D0A00000070B5044609
:10324000002509E0FFF77CFB08B1012070BD0520D7
:1032500000F099FC681D85B2A542F3DB0020F5E77C
:103260002DE9F04106460C460027002512E0FFF745
:1032700067FB40B1A54201DA681CC5B2A54203DB79
:103280000120BDE8F08100250A2000F07CFC07F158
:103290000A0087B2B742EADB0020F2E710B5044625
:1032A00004E00B49204607F0C7FD044609492046C3
:1032B00007F0FEFCF5D304E00549204607F07AFA52
:1032C00004460549204607F0F3FBF5D3204610BD20
:1032D0000000B44300003443000034C370B5054619
:1032E0000E4600201549088001F044FA1449097877
:1032F0004906080E01F0E6F901F07EFA30B100202F
:103300000E49088001F056FA002070BD00240EE03E
:10331000285D01F0D7F901F06FFA30B1601C074960
:10332000088001F047FA0020EFE7601C84B2B44245
:10333000EEDB01F03FFA0120E7E700005C0000202F
:1033400028000020032005F08BFA10B50446204623
:1033500000F026F910BD70B504460D4629462046FA
:1033600000F0D8F970BD10B50446204600F044FACC
:1033700010BD10B50446204600F088FA10BD10B507
:103380000446204600F09EFA10BD10B504462046C3
:1033900000F088FB10BD10B50446204600F0AAFBE3
:1033A00010BD70B594B0044600260CB914B070BDC1
:1033B0000CE05021684602F079FD054605B907E0AA
:1033C0006946204605F008FF701CC6B2102EF0D3E7
:1033D00000BF204605F06AFE94F82F00D8B109E03E
:1033E000E0680A30E060204607F000F894F82F000B
:1033F00000B904E06068E168401A0A28F0D200BF12
:1034000060682169401A142804D36068206120464E
:1034100006F0B0FACAE7207868B994F82E0048B1EF
:1034200060682169401A142804D36068206120462E
:1034300006F0A0FABAE708E0E0680A30E06020464B
:1034400005F076FD207800B904E06068E168401A74
:103450000A28F1D200BF60682169401A142804D3F9
:1034600060682061204606F085FA00BF9EE70000F4
:1034700010B5044604B910BD4FF4AA712046FDF7FB
:10348000C6F906F0E1FD0C4844F8580F0B48E0651A
:103490004FF07A502066002060660948A06609480F
:1034A000E06600202067482024F8260C583C20467F
:1034B00006F086FE00BFDEE70000904100002041DC
:1034C000CDCCCC3E6F12833B10B504460CB9002026
:1034D00010BD204606F0E6F908B90020F8E71C21E7
:1034E00004F1D400FDF793F9642104F1F000FDF735
:1034F0008EF900F0BFFB04F1F00000F037FF30B1AF
:1035000004F1F00000F0BAFF012084F82C00012043
:1035100020706068A0606068E0606068206160683A
:10352000606160686062002084F82B00A0862046FD
:1035300006F09EF9204606F093F96068A061A06B42
:10354000E063A06BA064A06B2064A06B60650020AA
:10355000A4F8D000A4F8D20001F03CFB0120B7E7AA
:1035600010B5044604B910BD0020207084F82B006B
:10357000A08620616062A061204606F079F92046AD
:1035800006F06EF900F076FB204606F019FE00BF4B
:10359000E9E700B970474168491C416000BFF9E79D
:1035A00070B59EB0044600260CE050210AA802F037
:1035B0007DFC054605B907E00AA9204603F0BCFAE0
:1035C000701CC6B2102EF0DB00BF42F2245001592D
:1035D00042F210500059081A052802D3204603F081
:1035E00083FE42480078D0B142F22450015942F2A1
:1035F00018500059081A0A282CD342F224500159B5
:1036000042F21850015139480078052803D120466C
:1036100004F007F81EE0204603F0F1FF1AE094F8EA
:103620009C0010B194F89D00A0B994F8A80088B946
:1036300042F22450015942F214500059081AC82885
:1036400008D342F22450015942F21450015120464D
:1036500004F0A8F894F89C00C8B194F89D00B0B1AB
:1036600042F224500059D4F8A010461A42F22050D9
:103670000059301A0A2809D342F2205006511B483B
:10368000007818B93146204605F0DCF800BF94F800
:103690009C0048B3D4F8A40030B342F2245000593F
:1036A000D4F8A010461AD4F8A400B0421BD8204683
:1036B00000F0F8F9002004F89C0F012020736388C3
:1036C0000BA228216846FCF79FFD684604F002FE25
:1036D00063889C3C0BA2242101A8FCF795FD01A85E
:1036E00004F0F8FD00BF00BF1EB070BD84000020D4
:1036F0004558505F54494D454F55542069643D2508
:10370000750D0A004558505F454E442069643D25BB
:10371000750D0A0070B504460D464FF4155120464C
:10372000FDF775F801F05EFA01F03EFB01F04AFA90
:1037300000F0C6FA02F000FA05F058FA012000F095
:10374000B1FE204600F058F8002D38D100F008FDF9
:1037500000F000FD85282ED16421204600F071FC88
:10376000204600F003FE204603F0C6F9204600F094
:1037700085FE42F2B840E16B015142F23050E16BFC
:103780000151001D616B0151001D216B015142F27D
:10379000B8421159E06B07F04FFB42F2C4410851A7
:1037A00042F22450015942F208500151012142F2E3
:1037B0002850015503E064212046FDF728F8002039
:1037C0000749086007490860074908600749086019
:1037D0000749086007490860204604F0AFFF70BD44
:1037E000880000208C000020900000209400002021
:1037F000980000209C00002010B504461F4880342B
:1038000060601F48A0600020E0604FF07F502061A2
:10381000002060611B48A0611B4844F8800900211A
:1038200042F2B840015142F2D840015142F20C50EC
:103830000151001F015142F210500151001D015170
:10384000001D0151001D0151001D015142F228507F
:103850000155001D0151001D0151001D0151001DA8
:10386000015142F2E840015142F23C5001552046DC
:1038700003F089FE204603F0A1FE10BD9A99193F7E
:10388000A69B443C8FC2F53D00000C4270B5044637
:1038900002F077FF054642F23050015942F2B8403B
:1038A000015142F23450015942F2D84001510021F5
:1038B00042F23C500155204603F065FE284602F0D6
:1038C00066FF70BD70B504465CA005F015FA204691
:1038D00000F0E8F85DA005F00FFA4FF4967120466D
:1038E00004F02AFE40B9002142F2FA4001555CA0E2
:1038F00005F002FA002070BD5EA005F0FDF920463B
:1039000003F0FAF8204600F0B9FD42F2B840E16B4E
:10391000015142F2D840616B0151002142F23C500A
:10392000015542F23050E16B0151001D616B0151B4
:10393000001D216B015142F22450015942F22C50DA
:10394000015142F22450015942F208500151012123
:1039500042F2285001551421204604F071FD204602
:1039600003F011FE204603F029FE42F224500159D3
:1039700042F20450015142F22450015942F20850DF
:10398000015142F22450015942F21050015142F2C9
:103990002450015942F20C50015142F22450015975
:1039A00042F21450015142F22450015942F218508F
:1039B00001510021001D0151001D015142F2305002
:1039C000E16B0151001D616B0151001D216B015123
:1039D00042F2B842115942F23052105907F02CFA13
:1039E00042F2C441085142F22450015942F22C5093
:1039F00001510121001F015522A005F07DF902F0BF
:103A0000C0FE0546012142F2FA40015542F224501F
:103A1000015942F2FC400151204603F0CFFD00F075
:103A200029F9002000F03EFD01F0D4F8284602F00C
:103A3000AEFE18A005F060F901205CE752554E5F1C
:103A4000535445503D454E544552000052554E5F2B
:103A5000535445503D524541445F494D5500000087
:103A600052554E5F535445503D494D555F4641496F
:103A70004C00000052554E5F535445503D494D5542
:103A80005F4F4B0052554E5F535445503D454E419C
:103A9000424C450052554E5F535445503D444F4EA5
:103AA0004500000070B5044602F06BFE054600219B
:103AB00042F2FA400155204603F080FD204603F013
:103AC00062FD002142F23C50015542F20450015186
:103AD00042F210500151001F0151012000F0E2FCA0
:103AE00001F062F901F06EF800F0C4F8284602F027
:103AF0004EFE70BD70B5044604B970BD42F224504C
:103B00000059401C42F2245108514FF414500059FE
:103B1000401C4FF414510851084600590A21B0FBCB
:103B2000F1F201FB120010B9204604F0F1FB42F261
:103B30002450015942F20C500059081A052802D3AA
:103B4000204602F0C3FE94F89C00C8B1B4F8AC0063
:103B5000002815DD42F224500059D4F8A010451A6F
:103B600042F21C500059281AB4F8AC10884206D30F
:103B700042F21C5005512946204602F03FFD00BF8D
:103B800000BFBAE7704700B5034603E04FF47A7010
:103B900000F005F8181EA3F10103F7D100BD00EBFA
:103BA000C001C9004FF0E02251610021916105215F
:103BB000116100BF4FF0E021096901F48031002953
:103BC000F8D004214FF0E022116170472DE9F04751
:103BD00006460C4614B90020BDE8F08700F020F836
:103BE00005460DB90020F7E7204606F04DFF814657
:103BF00049460A4806F052FE0746284606F044FFAA
:103C00008146304606F028FF8246494606F046FEC9
:103C10008046394606F080FFDEE7000000606A4714
:103C20000D48008810B10C48008800E00B200146C8
:103C30000948408810B10848408800E01E2002462C
:103C40000548007910B10448007900E004200346DB
:103C500001FB02F0584370471C00002070B5044679
:103C6000204601F03AFC05B20021204601F0FEFC9E
:103C7000284670BD10B500214FF0804001F0F6FCE1
:103C80000021024801F0F2FC10BD000000040040D9
:103C9000002801DB012101E04FF0FF31014A5171A1
:103CA000704700001C000020002801DB012101E01A
:103CB0004FF0FF31014A9171704700001C00002055
:103CC0001FB50121084601F051FA0121022001F03F
:103CD0004DFA0121042001F059FA48208DF80F0017
:103CE00003208DF80E00C320ADF80C0003A929486D
:103CF00000F0BEF80020ADF80600ADF802004FF667
:103D0000FF70ADF804000020ADF800008DF8080049
:103D100069464FF0804001F0ABFC00231A460321B6
:103D20004FF0804001F0B8FB4FF08040008B40F630
:103D30000F71084040F0C00040F440404FF0804117
:103D400008836946144801F093FC00231A460321B6
:103D5000114801F0A1FB10481830008840F60F719F
:103D6000084040F0C00040F440400B491831088042
:103D70000121880701F075FB0121074801F071FB63
:103D800000214FF0804001F071FC0021024801F059
:103D90006DFC1FBD00080140000400402DE9F0410A
:103DA00004460F464FF08040FFF758FF0546214874
:103DB000FFF754FF0646204890F90500684305B216
:103DC0001D4890F90600704306B2A581E6810020E7
:103DD00020746074284602F0BEF91749098909B2B7
:103DE000884202DD002501202074304602F0B3F93C
:103DF0001149098909B2884202DD00260120607458
:103E000025816681B4F90810206808442060B4F95F
:103E10000A10606808446060B4F908003946FFF78A
:103E2000D5FE6061B4F90A003946FFF7CFFEA06104
:103E3000BDE8F081000400401C00002070B50025A2
:103E400001214FF0C05001F091F9012001F086F9F5
:103E50000420FEF779FC044604F47F40B0F5254FBA
:103E600000D1E5B200210420FEF77CFC284670BD9D
:103E70002DE9F04102460025002600200023002401
:103E8000002791F803C00CF00F0591F803C00CF067
:103E9000100CBCF1000F03D091F802C04CEA0505EC
:103EA00091F800C0BCF1000F31D0146800202BE065
:103EB0004FF0010C0CFA00F3B1F800C00CEA030655
:103EC0009E4220D183004FF00F0C0CFA03F7BC4345
:103ED00005FA03FC4CEA040491F803C0BCF1280F76
:103EE00006D14FF0010C0CFA00FCC2F814C00AE035
:103EF00091F803C0BCF1480F05D14FF0010C0CFA4A
:103F000000FCC2F810C0401C0828D1D31460B1F8DE
:103F100000C0BCF1FF0F34DD546800202EE000F13A
:103F2000080C4FF0010808FA0CF3B1F800C00CEAD5
:103F300003069E4221D183004FF00F0C0CFA03F7C9
:103F4000BC4305FA03FC4CEA040491F803C0BCF13D
:103F5000280F05D100F1080C08FA0CF8C2F81480FB
:103F600091F803C0BCF1480F07D100F1080C4FF0E5
:103F7000010808FA0CF8C2F81080401C0828CED3BB
:103F80005460BDE8F0810000F0B50A46002300242B
:103F90000021002500F00046B6F1004F02D11D4E71
:103FA000F16901E01B4E7168C0F3034583B200F470
:103FB0004016B6F5401F08D121F07061154E7668A5
:103FC00026F07066134F7E6012E000F48016B6F59E
:103FD000801F06D1032606FA05F4A14341F0706163
:103FE00006E0460D360103FA06F6B14341F0706172
:103FF00022B1460D360103FA06F6314300F00046C1
:10400000B6F1004F02D1034EF16101E0014E716043
:10401000F0BD0000000001400246002093680B4004
:104020000BB1012000E00020704741617047016141
:1040300070470AB1016100E041617047012004F05E
:104040000FFC2DE9F05F04460E464FF00008C14614
:10405000C246002500271EE0204600F087F918B967
:104060000520FFF790FD14E04046616A06F0A2FBD0
:1040700080464846A16A06F09DFB81465046E16AAB
:1040800006F098FB8246681C85B20520FFF77BFD91
:1040900000BF781C87B2B742DEDBDDB1284606F0F0
:1040A000F3FC83465946404606F0F8FBE06028469C
:1040B00006F0EAFC83465946484606F0EFFB2061CD
:1040C000284606F0E1FC83465946504606F0E6FBDA
:1040D000606103E00020E06020616061204600F044
:1040E000CDF9BDE8F09F70B506460D461446294649
:1040F000304606F0DDFC01D2284670BD2146304630
:1041000006F0D6FD01D22046F7E73046F5E700007D
:1041100008B501210D2001F039F801210848FFF709
:1041200033FF4FF40040ADF8000048208DF8030045
:1041300003208DF8020069460248FFF799FE08BD8A
:10414000000230000008014001480078704700007C
:104150002800002001480078704700002900002056
:1041600010B59AB001206149087061A0FEF7DAFE2F
:1041700001210D2001F00AF801216048FFF704FF3A
:104180004FF44050ADF8640014208DF86700032010
:104190008DF8660019A95A48FFF76AFE4FF480406F
:1041A000ADF8640010208DF8670003208DF86600DC
:1041B00019A95348FFF75CFE4FF40040ADF86400C6
:1041C00048208DF8670003208DF8660019A94D4836
:1041D000FFF74EFE4FF480414948FFF728FF4FF4A8
:1041E00080514748FFF723FF4FF400514448FFF741
:1041F0001EFF4548002101608180444801604FF462
:10420000C0714348FCF703FB002042490860424963
:1042100008604249087042490870424908704249A2
:104220000870424908704249087042490870424982
:104230000870424908704249087042490870424972
:1042400008804249088064216846FCF7E0FA0024AF
:104250000BE03F49085D6B464FF47A720021FEF790
:104260008FFA00B103E0601CC4B2042CF1DB00BF84
:104270003148007885281FD036A0FEF753FEFEF7A0
:10428000D1FD2C480078B8B135A0FEF74BFE6B4647
:104290009622002125480078FEF772FA60B924487A
:1042A000007822490978884206D06B469622002180
:1042B0001F480078FEF764FA1F480078852810D060
:1042C00000240BE02249085D6B464FF47A7201210D
:1042D000FEF756FA00B103E0601CC4B2042CF1DB17
:1042E00000BF0020014908701AB010BD5E00002018
:1042F00042493A494E490D0A0000000000023000D0
:10430000000C014000080140380000203E00002061
:104310004406002044000020480000204C000020FB
:104320004D0000204E0000204F00002050000020D3
:104330005100002052000020290000202800002009
:104340005300002054000020560000206000002090
:1043500064B6000842493A53434E0D0A000000007B
:1043600042493A534849540D0A0000002DE9FC41E6
:1043700004460027002514B1002084F86200384864
:104380000078D0B937480078A0B9374800884FF690
:10439000FF71884204D234480088401C32490880AA
:1043A00031480088C82805D300202F4908802046BE
:1043B000FEF7BEFD0020BDE8FC8100261EE0694638
:1043C00001A8FEF747FC00B91AE001279DF8040098
:1043D00026490870BDF80000254908809DF80400B2
:1043E000032803D09DF80400042805D1BDF800106F
:1043F0002046FEF70DFB0543701CC6B2062EDED329
:1044000000BF1DB994F8600028B127B900201649F3
:1044100008800120CFE713480078D8B912480088F7
:104420004FF6FF71884204D20F480088401C0E49A5
:1044300008800D48008828280CD300200A490880ED
:10444000074908700B49087001200B490870204685
:10445000FEF76EFD0DB10120ADE70020ABE70000D7
:104460004C0000205E00002060000020530000206F
:1044700056000020290000204E000020074909684E
:10448000074A1160002141658165C165416381630F
:10449000016380F8611080F86210704748000020C6
:1044A0004400002008B1012100E00021014A117000
:1044B00070470000370000202DE9F0470446894688
:1044C00094F8600008B9BDE8F0874B4801684B4894
:1044D000006806F0B1FC0746FEF7E0FE804694F85F
:1044E000610000287DD00021484606F0E1FB78D22B
:1044F0004046A16B06F0A0FC054604E04049284672
:1045000006F09AFC05463F49284606F0D1FBF5D354
:1045100004E03B49284606F04DF905463A4928464D
:1045200006F0C6FAF5D34946284606F0B7F906461E
:1045300000BF25F000400746344906F0B9FB07D319
:1045400000BF26F0004007462E4906F0B1FB2DD2F1
:1045500049462C4806F0E0FA07460021384606F0A6
:10456000A7FA00D8294F2949384606F0A1FB00D206
:10457000264F3946284606F09BFB00D23D4687F081
:10458000004A2946504606F093FB01D287F00045C9
:104590002946A06B06F00EF98246FEF77FFE8046A4
:1045A0004946284606F07AF9064600BF15493046C6
:1045B00006F07EFB00D2134E1349304606F078FA1F
:1045C00000D2114E3046216B06F036FC824610496F
:1045D00006F0A2FA0746216B06F0ECF8206305E02E
:1045E000FFE700202063012084F86100C4F83480D4
:1045F000C4F8388000BF66E744000020480000206F
:104600000000B44300003443000034C300003442CF
:104610003333B33E002002E000BF411CC8B2FF2884
:10462000FADB704770B5002400F042F9002523E062
:104630004FF480511548FFF7F8FCFFF7EBFF4FF4FC
:1046400080511248FFF7F3FC00F01AF930B94FF42B
:1046500080510E48FFF7E9FC204670BD6006040E4D
:104660004FF400510948FFF7D7FC08B144F00104AA
:10467000FFF7D0FF681CC5B2082DD9DB4FF480517D
:104680000248FFF7D2FC2046E7E70000000C01409B
:1046900010B500F01DF94FF400510948FFF7C5FCB3
:1046A0004FF480510648FFF7C2FC00F0E9F8FFF72D
:1046B000B1FF4FF480510248FFF7B7FC10BD000076
:1046C000000C014070B5044600F002F94FF480512F
:1046D0001A48FFF7AAFCFFF79DFF00252AE004F027
:1046E000800028B14FF400511448FFF7A0FC04E00B
:1046F0004FF400511148FFF798FC6006040EFFF7D5
:1047000089FF4FF480510D48FFF791FC00F0B8F895
:1047100028B94FF480510948FFF787FC70BDFFF7B7
:1047200079FF4FF480510548FFF77FFCFFF772FFD8
:10473000681CC5B2082DD2DB00BFEFE7000C0140BA
:1047400010B500F0C5F84FF400510948FFF76FFCB1
:104750004FF480510648FFF76AFC00F091F8FFF72C
:1047600059FF4FF480510248FFF75FFC10BD000075
:10477000000C014010B500F0ABF84FF400510C48AC
:10478000FFF755FC4FF480510948FFF750FC00F04B
:1047900077F8FFF73FFF4FF400510548FFF745FC5E
:1047A000FFF738FF4FF480510148FFF73EFC10BD82
:1047B000000C014010B500F08BF84FF480510D480B
:1047C000FFF733FC4FF400510A48FFF72EFCFFF7C8
:1047D00021FF4FF480510748FFF729FC00F050F803
:1047E000FFF718FF4FF400510248FFF720FCFFF7D6
:1047F00011FF10BD000C014010B5002400F058F866
:104800004FF400511D48FFF712FC4FF480511B4834
:10481000FFF70DFC00F034F840B94FF48051174811
:10482000FFF703FC00F054F8012010BDFFF7F2FE83
:1048300010E0601C80B20446B0F5966F08DB4FF4C0
:1048400080510E48FFF7F1FB00F042F80120ECE741
:10485000FFF7E0FE4FF400510848FFF7DDFB0028AA
:10486000E7D14FF480510548FFF7DFFBFFF7D2FE99
:1048700000F02EF8FFF7CEFE0020D6E7000C014036
:1048800010B5002409E0601C80B20446B0F5166F34
:1048900001DB002010BDFFF7BDFE4FF4805103483F
:1048A000FFF7BAFB0028EED00120F3E7000C01402F
:1048B00008B54FF40050ADF8000048208DF8030013
:1048C00069460248FFF7D4FA08BD0000000C014019
:1048D00008B54FF40050ADF8000014208DF8030027
:1048E00003208DF8020069460148FFF7C1FA08BDB0
:1048F000000C014070B520211C4804F01FF805464B
:104900006DB31B48007850BB0F20FFF73CF9202106
:10491000164804F013F808B3002403E00A20FFF758
:1049200032F90A342021114804F008F810B1B4F526
:104930007A7FF3D300BF20210C4803F0FFFF00284B
:10494000F9D10F20FFF71FF9012009490870B4F5CC
:10495000487F01D3022070BD0120FCE700BF15B9DC
:104960000020034908700020F5E70000000C01401A
:104970001A00002008B50121082000F007FC48209B
:104980008DF8030003208DF802002020ADF8000010
:1049900069460248FFF76CFA08BD0000000C0140B0
:1049A0000146012901D102A0704703A0FCE70000E5
:1049B000545241434B00000053545241494748541C
:1049C0000000000010B57E2000F064FC08B111A0CA
:1049D00010BD7D2000F05EFC08B110A0F8E77C203F
:1049E00000F058FC08B10FA0F2E77B2000F052FC69
:1049F00008B10EA0ECE77A2000F04CFC08B10DA045
:104A0000E6E77F2000F046FC08B10CA0E0E70DA02F
:104A1000DEE700005757444700000000495744476D
:104A2000000000005346542000000000504F522068
:104A30000000000050494E20000000004C5057522A
:104A400000000000554E4B4E00000000014619B911
:104A5000034890F8FA04704702480078FBE700002A
:104A6000A4400020E445002070B590B005460C46F7
:104A70002846FFF795FF064633461DA211210BA8D5
:104A8000FBF7C2FB2CB11DA2112106A8FBF7BCFB52
:104A900004E01EA2112106A8FBF7B6FB012D0CD1E4
:104AA0002CB11EA2112101A8FBF7AEFB0AE01FA248
:104AB000112101A8FBF7A8FB04E020A2112101A805
:104AC000FBF7A2FB0BAA0121084600F0EBFA1FA29C
:104AD0000121022000F0E6FA06AA0121032000F0DD
:104AE000E1FA01AA0121042000F0DCFA10B070BD47
:104AF0004D4F44453A252D313173000053544154F4
:104B0000453A52554E4E494E472020005354415489
:104B1000453A5245414459202020200054524143F7
:104B20004B3A52554E4E494E472020005452414375
:104B30004B3A50454E44494E472020005452414381
:104B40004B3A4F464620202020202000533D52550E
:104B50004E204C3D4D4F44452020200010B50446CA
:104B600014B900F005F810BD00F010F8FBE70000E4
:104B700010B50548FEF7F7FB0348FEF7FAFB0248BD
:104B8000FEF7FDFB10BD0000A420002010B5024878
:104B9000FEF79AFC10BD0000E445002010B5044665
:104BA0001CB90448FEF7F1FB02E00348FEF7D8FC0D
:104BB00010BD0000A4200020E4450020022003F0E6
:104BC0004FFE000010B501210148FFF72EFA10BD7D
:104BD000000C014010B501210148FFF728FA10BD73
:104BE000000C014000B589B00121042000F0CEFA8C
:104BF0000121082000F0CAFA0121C80200F0C6FA1B
:104C000010208DF8230003208DF822000120ADF83C
:104C1000200008A92E48FFF72BF901212C48FFF7A7
:104C200004FA3020ADF8200008A92A48FFF720F93F
:104C300030212848FFF7F9F940F20240ADF8200092
:104C400008A92348FFF714F940F202412048FFF772
:104C5000ECF918208DF823004001ADF8200008A9D8
:104C60001C48FFF705F90020ADF81A00ADF8160052
:104C70006320ADF8180040F2CF20ADF814000020FA
:104C80008DF81C0005A9144800F0F2FC01A800F002
:104C9000DFFC6020ADF804000020ADF80C0001201E
:104CA000ADF806000020ADF80A0001A90A4800F09E
:104CB00031FC01A9084800F079FC0121064800F008
:104CC000DCFB0121044800F0CCFB09B000BD000072
:104CD000000C014000080140002C014070B5054661
:104CE0000C46002D04DB0021284600F013F804E0F8
:104CF0000121684200B200F00DF8002C04DB002115
:104D0000204600F02BF804E00121604200B200F0E0
:104D100025F870BD70B504460D46642C00DD642492
:104D2000002C00DA002445B910210A48FFF77FF96A
:104D300020210848FFF779F907E010210548FFF71F
:104D400074F920210348FFF772F9A1B2024800F07C
:104D500089FC70BD00080140002C014070B504467C
:104D60000D46642C00DD6424002C00DA00244DB9CB
:104D700002210B48FFF75BF94FF480610848FFF709
:104D800054F908E002210648FFF74FF94FF480611B
:104D90000348FFF74CF9A1B2024800F065FC70BD72
:104DA000000C0140002C014010B530210848FFF7ED
:104DB0003CF940F202410748FFF737F90021064865
:104DC00000F050FC0021044800F04EFC10BD000033
:104DD00000080140000C0140002C01407047000019
:104DE00070B5002100230F22C47804B3154C246849
:104DF00004F4E064C4F5E064210AC1F10403CA408C
:104E0000447804FA03F184781440214309010E4CDC
:104E10000678A155047804F01F050124AC400578FC
:104E20006D11AD0005F1E025C5F8004109E00478F9
:104E300004F01F050124AC40044D0678761145F8B6
:104E4000264070BD0CED00E000E400E080E100E0F1
:104E500002490143024A1160704700000000FA0550
:104E60000CED00E070B500240EE00021204600F0BB
:104E7000C0F8002504E0002000F060F9681CC5B20D
:104E8000802DF8DB601CC4B2082CEEDB70BD000086
:104E900008B50121082000F079F910208DF80300F1
:104EA00003208DF802008020ADF800006946094813
:104EB000FEF7DEFF4FF48070ADF80000694605484C
:104EC000FEF7D6FF012000F00BF9012000F016F9E3
:104ED00008BD0000000C014070B50446002511E03B
:104EE000C4F3C01000F00AF903F054FE012000F0F2
:104EF000F7F803F04FFE002000F0F2F86006040E11
:104F0000681CC5B2082DEBDB012000F0E9F803F0C6
:104F100041FE002000F0E4F870BD10B5012000F063
:104F2000EDF8012000F0DCF803F034FE002000F082
:104F3000E5F803F02FFE002000F0D2F810BD10B508
:104F4000002000F0DBF8012000F0CAF803F022FE98
:104F5000012000F0D3F803F01DFE10BD10B5FFF7DF
:104F600097FFAE2000F0DAF8D52000F0D7F88020C7
:104F700000F0D4F8A82000F0D1F83F2000F0CEF8DF
:104F8000D32000F0CBF8002000F0C8F8402000F05B
:104F9000C5F8A12000F0C2F8C82000F0BFF8DA2060
:104FA00000F0BCF8122000F0B9F8812000F0B6F84B
:104FB000CF2000F0B3F8D92000F0B0F8F12000F0D5
:104FC000ADF8DB2000F0AAF8302000F0A7F8A4200C
:104FD00000F0A4F8A62000F0A1F88D2000F09EF8C3
:104FE000142000F09BF8AF2000F098F8FFF73AFF8C
:104FF00010BD70B505460C4645F0B00000F08EF8C7
:10500000102141EA141000F089F804F00F0000F0BC
:1050100085F870BD2DE9F04704460D461646374623
:10502000202F01DB7E2F00DD2027A7F1200000F0DC
:10503000FF086A1ED206110E621E5206100EFFF7FE
:10504000D8FF4FF000090AE0154901EB081111F8EB
:10505000090000F073F809F1010000F0FF09B9F14F
:10506000080FF1DB6A1ED206110E621E012303EB4C
:105070004202D0B2FFF7BDFF4FF000090BE0084934
:1050800001EB081209F10801505C00F057F809F132
:10509000010000F0FF09B9F1080FF0DBBDE8F0876F
:1050A00074B000082DE9F04107460E46154600246D
:1050B0000DB9BDE8F0810CE02A5D3019C1B2384667
:1050C000FFF7A8FF601CC4B23019C0B2102800DD81
:1050D00002E0285D0028EFD100BF00BFE9E7000033
:1050E00010B504460CB1012000E0002002468021EA
:1050F0000148FEF79EFF10BD000C014010B50446AC
:105100000CB1012000E0002002464FF480710248FB
:10511000FEF78FFF10BD0000000C014010B50446E3
:10512000FFF7FBFE7820FFF7D7FE0020FFF7D4FE45
:105130002046FFF7D1FEFFF702FF10BD10B5044671
:10514000FFF7EBFE7820FFF7C7FE4020FFF7C4FE15
:105150002046FFF7C1FEFFF7F2FE10BD01490862CD
:105160007047000000000E427047000029B1064A57
:10517000D2690243044BDA6104E0034AD2698243F4
:10518000014BDA61704700000010024029B1064A65
:1051900092690243044B9A6104E0034A9269824394
:1051A000014B9A6170470000001002400348406ABA
:1051B00040F08070014948627047000000100240D2
:1051C00030B500210022002400232D4D6D6805F02C
:1051D0000C0121B1042905D0082923D105E0294D6E
:1051E000056022E0274D05601FE0254D6D6805F440
:1051F0007012234D6D6805F48034022505EB924250
:105200001CB9214D554305600BE01D4D6D6805F43B
:1052100000351DB11C4D5543056002E0194D554345
:10522000056002E0174D056000BF00BF144D6D68BA
:1052300005F0F0010909154D6B5C0568DD4045601E
:105240000F4D6D6805F4E061090A104D6B5C45680F
:10525000DD4085600A4D6D6805F46051C90A0B4D4B
:105260006B5C4568DD40C560054D6D6805F44041E7
:10527000890B074D6B5CC568B5FBF3F5056130BD67
:105280000010024000127A0000093D0000000020DA
:105290001000002010B501460022002300204A1112
:1052A000012A02D1094C236806E0022A02D1074CE8
:1052B000236A01E0054C636A01F01F020124944057
:1052C0001C400CB1012000E0002010BD0010024085
:1052D000704710B500F002F810BD00000CB50020BA
:1052E000019000903348006840F4803031490860F4
:1052F00000BF3048006800F4003000900198401C66
:105300000190009818B90198B0F5A06FF1D1294823
:10531000006800F4003010B10120009001E000208E
:1053200000900098012843D12348006840F0100005
:10533000214908600846006820F00300086008461C
:10534000006840F0020008601A4840681949486047
:105350000846406848600846406840F480604860FD
:105360000846406820F47C1048600846406840F4D5
:10537000E81048600846006840F08070086000BF90
:105380000C48006800F000700028F9D00948406817
:1053900020F00300074948600846406840F00200DA
:1053A000486000BF0348406800F00C000828F9D1AD
:1053B0000CBD000000100240002002407047704702
:1053C0007047704710B51348006840F0010011495C
:1053D000086008464068104908400E494860084681
:1053E00000680E4908400B4908600846006820F430
:1053F000802008600846406820F4FE0048604FF4B2
:105400001F008860FFF765FF4FF0006004490860E7
:1054100010BD0000001002400000FFF8FFFFF6FE84
:1054200008ED00E010B50121084800F059F860B11E
:105430000121064800F012F80548FEF7AAF80548D1
:10544000007810B90448FDF7A6FF10BD0008004021
:10545000E4450020AC000020A4200020CA430282C2
:10546000704721B1028842F00102028004E0028804
:105470004FF6FE731A400280704731B1B0F84420F5
:1054800042F40042A0F8442005E0B0F84420C2F302
:105490000E02A0F844207047F0B50C4615461E4693
:1054A0000021002200230189028B038C4FF6F8773C
:1054B000394021434FF6FC473A4040F201173A4346
:1054C0004FF6DD773B404FF6FF7707EA06172F438D
:1054D0003B43018102830384F0BD0146888C704701
:1054E00030B50246002000230024158A05EA010396
:1054F000958905EA010413B10CB1012000E00020F8
:1055000030BD1AB183890B43838102E083898B43C9
:105510008381704770B5002400220023058C4FF66C
:10552000FE7635400584028C8388048B4FF68F7598
:105530002C40B51E2C400D882C43751E2A400D8929
:105540002A434D882A43144DA8420BD0134DA8423C
:1055500008D0134DA84205D0124DA84202D0124DDA
:10556000A84213D14FF6F7752A404D892A434FF6CA
:10557000FB752A408D882A434FF6FF652B404FF676
:10558000FF552B408D892B43CD892B43838004838A
:10559000CD888586028470BD002C01400034014016
:1055A00000400140004401400048014070B5002423
:1055B00000220023058C4FF6EF7635400584028CDF
:1055C0008388048B48F6FF752C404FF6FF452C402E
:1055D0000D884FF6FF7606EA05252C434FF6DF755A
:1055E0002A400D8906EA05152A434D8806EA051565
:1055F0002A43154DA84202D0144DA8421DD14FF6A2
:105600007F752A404D894FF6FF7606EA05152A4335
:105610004FF6BF752A408D8806EA05152A434FF6D6
:10562000FF352B404FF2FF752B408D8906EA85052B
:105630002B43CD8906EA85052B4383800483CD88DF
:105640000587028470BD0000002C01400034014039
:105650000021018041808180C1800181418181815F
:10566000C181704781867047018770478184704788
:10567000002202881D4B98420ED01D4B98420BD041
:10568000B0F1804F08D01B4B984205D01A4B98427E
:1056900002D01A4B984204D14FF68F731A404B88B0
:1056A0001A43174B984207D0164B984204D04FF636
:1056B000FF431A40CB881A4302808B8883850B886E
:1056C00003850A4B98420BD0094B984208D00E4BE9
:1056D000984205D00D4B984202D00D4B984201D113
:1056E0000B7A03860123838270470000002C01405F
:1056F000003401400004004000080040000C00405D
:1057000000100040001400400040014000440140EF
:10571000004801401FB501210420FFF727FD0020AC
:10572000ADF80A00ADF8060040F2E730ADF8080029
:105730004720ADF8040000208DF80C0001A91248A4
:10574000FFF796FF012211460F48FFF7DAFE01210D
:105750000D48FFF783FE4FF4A060FFF779FB1E2092
:105760008DF8000001208DF8030002208DF8010063
:1057700000208DF802006846FFF732FB0121024845
:10578000FFF76FFE1FBD00000008004010B540F29B
:1057900025511D4800F09FF810B31B4800F056F942
:1057A000C4B21A48008800F40040C8B917480088FD
:1057B00000F4804060B10A2C03D000201349088017
:1057C00020E01248008840F400401049088019E0A9
:1057D0000D2C06D10D48008840F480400B4908800C
:1057E00010E00A480088C0F30D0009490C5407482E
:1057F0000088401C0549088008460088C72801DD4C
:105800000020088010BD0000003801401800002072
:10581000B400002010B540F225511D4800F05BF89F
:1058200060B11B4800F012F9C4B21A480068401C6D
:1058300018490860204600F015F900BF08211448F7
:1058400000F03CF810B1124800F000F940F2277166
:105850000F4800F040F8D0B10F4800880F49098880
:1058600088420ED00E480C490988445C0A480088DA
:1058700004F0F9FD084908802146054800F0EBF8DE
:1058800005E0002240F22771014800F04EF810BDFB
:1058900000440040740000207A00002078000020BE
:1058A0000408002021B1828942F40052828104E080
:1058B00082894DF6FF731A408281704702460020AC
:1058C000B1F5007F00D100BF13880B400BB1012060
:1058D00000E00020704770B5024600240023002538
:1058E000002040F66A16B14200D100BFC1F3421554
:1058F00001F01F03012606FA03F3012D02D1968958
:10590000334006E0022D02D1168A334001E0968A28
:1059100033400C12012606FA04F41688344013B101
:105920000CB1012000E0002070BDF0B5034600245A
:1059300000260025002040F66A17B94200D100BFBA
:105940001846C1F3421401F01F06012707FA06F5B5
:10595000012C01D10C3004E0022C01D1103000E008
:1059600014301AB107682F43076002E00768AF439D
:105970000760F0BD2DE9F04786B005460E460024CD
:10598000A24600BFA1460027B08900B100BF2F4644
:105990002C8A4CF6FF700440F08804432C82AC89BA
:1059A0004EF6F3100440B0883189084371890843EA
:1059B0000443AC81AC8A4FF6FF400440B0890443F5
:1059C000AC8201A8FFF7FCFB1F48874202D1DDF83B
:1059D00010A001E0DDF80CA0A88900F4004040B15F
:1059E0000AEBCA0000EB0A1031684900B0FBF1F87D
:1059F00007E00AEBCA0000EB0A1031688900B0FB2F
:105A0000F1F86420B8FBF0F004012009642101FBE7
:105A10001089A88900F4004040B1322000EBC90091
:105A2000B0FBF1F000F00700044308E0322000EB87
:105A300009106421B0FBF1F000F00F0004432C8149
:105A400006B0BDE8F08700000038014001468888B4
:105A5000C0F308007047C1F3080282807047042039
:105A600002F0FEFE2B49097821B1012911D002294B
:105A70004DD13DE023280BD10021274A1170117828
:105A80004A1C254B1A70254A50540121214A117095
:105A90003DE021280ED1204909783F2906DA1E4A27
:105AA00011784A1C1C4B1A701C4A50540221194A86
:105AB00011701CE0232809D10021174A11701178B8
:105AC0004A1C154B1A70154A505410E012490978B7
:105AD0003F2907DA104A11784A1C0F4B1A700F4AF7
