:020000040800F2
:10000000C8120020C1010008953C000855390008BD
:10001000ED3A000899300008DB49000800000000B4
:10002000000000000000000000000000E94200089D
:100030009F30000800000000D1410008D5430008AF
:10004000DB010008DB010008DB010008DB01000820
:10005000DB010008DB010008DB010008DB01000810
:10006000DB010008DB010008DB010008DB01000800
:10007000DB010008DB010008DB010008DB010008F0
:10008000DB010008DB010008DB010008DB010008E0
:10009000DB010008DB010008DB010008DB010008D0
:1000A000DB010008DB010008DB010008DB010008C0
:1000B000DB010008DB01000839440008DB0100080F
:1000C000DB010008DB010008DB010008DB010008A0
:1000D000DB0100089147000819480008DB0100080F
:1000E000DB010008DB010008DB01000800F002F87A
:1000F00000F056F80AA090E8000C82448344AAF16C
:100100000107DA4501D100F04BF8AFF2090EBAE869
:100110000F0013F0010F18BFFB1A43F0010318473B
:10012000347B0000547B0000103A24BF78C878C1AB
:10013000FAD8520724BF30C830C144BF04680C60ED
:10014000704700000023002400250026103A28BF35
:1001500078C1FBD8520728BF30C148BF0B60704739
:10016000662907F0E980642900F0B080752900F065
:10017000AD80732900F08985002070471FB501F01C
:100180006DF804000020002106F092FB401C606026
:100190000020002106F076FBE0601FBD10B510BD09
:1001A00001F022FB1146FFF7E9FF05F039FF01F0EE
:1001B00073FD03B4FFF7F2FF03BC04F0CDFC0000B5
:1001C0000948804709480047FEE7FEE7FEE7FEE7EB
:1001D000FEE7FEE7FEE7FEE7FEE7FEE70448054927
:1001E000054A064B70470000D9430008ED0000089F
:1001F000C80C0020C8120020C80E0020C80E002025
:10020000704700000FB41CB5074B06AA7B44694633
:100210000090059800F00FFD0020694600F01EFDDB
:100220001CBC5DF814FB00004D0A000070B50446CC
:1002300085690068C10601D5302600E02026C00788
:1002400007D070BDD4E9012130469047206A401C98
:1002500020626D1EF6D570BD70B5044685690078C4
:10026000C00707D170BDD4E9012120209047206A42
:10027000401C20626D1EF6D570BD70B50C4605465B
:10028000012A05D02878800600D5EA69002302E01B
:10029000012305E05B1C934202D2E05C0028F9D107
:1002A000A869E618C01AA861286A18442862284676
:1002B000FFF7BCFF04E0D5E9012114F8010B9047DA
:1002C000B442F8D32846FFF7C7FF70BD2DE9F041CF
:1002D0000646002410687529314616A510D0AFF3E4
:1002E0000080002802DA404213A507E031688A073F
:1002F00001D512A502E0490704D511A5012401E0AA
:10030000AFF3008000210A2206F1240709E0B0FBC8
:10031000F2FCB0FBF2F302FB1C00303078541846BC
:10032000491C0028F3D123462A463046BDE8F04157
:1003300000F013BA000000002D0000002B000000A8
:10034000200000002DE9F05F894604464FF0000AC6
:10035000DFF874B1FB44C0F820A02046E16888476C
:10036000002874D0252806D0D4E901219047206ABE
:10037000401C2062F1E700265F462046E16888477E
:100380002028054607DB312D05D2781910F8200CFE
:1003900008B10643F1E7B00701D526F00406C4F81A
:1003A0001CA00027C4F818A02A2D09D0284604F064
:1003B000CCFB38B304EB8708303DC8F8185019E07F
:1003C00059F8041B204604EB87029161E1688847D5
:1003D000012F054618D1E069002820DA26F0200612
:1003E0001DE0D8F8180000EB800005EB4000303825
:1003F000C8F818002046E1688847054604F0A5FBC8
:100400000028EED1012F0AD02E2D08D12046E16818
:1004100088477F1C0546022F46F02006C4DBA069F2
:10042000002803DA404246F00106A061F00701D03F
:1004300026F010066C2D0BD0682D09D04C2D39D02C
:100440006A2D35D0742D35D07A2D33D016E038E0B2
:10045000E1682F4620468847B842054609D16C2FEF
:1004600026D04FF48060E168064320468847054661
:1004700004E06C2F1AD04FF4807006430DB3A5F141
:100480004100192802D8203546F400664A4629461C
:10049000204626604E46FFF763FE80B101280BD050
:1004A000F61D26F0070000F1080956E74020E4E7B2
:1004B0008020D8E70020D6E706F104094DE728465A
:1004C00052E7206ABDE8F09F307700000FB400B516
:1004D0008DB010A9099000910B904FF0FF300A9059
:1004E00000200C90064878440690064878446A46F6
:1004F00007900F9909A800F04FFE0DB05DF814FBAE
:10050000CF0C0000E70C000040EA010370B59B0728
:100510002ED14FF00136042A2AD308C810C99D1BDA
:100520009D43121F15EAC61517D0D8B2E1B2401A82
:1005300050EA056110D198B2A1B2401A50EA0541C3
:100540000AD123F07F4024F07F41401A50EA052170
:1005500002D1180EA0EB146070BDA342DBD018BA14
:1005600021BA884201D9012070BD4FF0FF3070BD23
:100570000AB9002070BD10F8013B11F8014B63B1BE
:10058000A3420AD1521E08D010F8013B11F8014BCA
:100590001BB1A34201D1521EEDD1181B70BD032A1D
:1005A00040F2308010F0030C00F0158011F8013B90
:1005B000BCF1020F624498BF11F801CB00F8013B77
:1005C00038BF11F8013BA2F1040298BF00F801CB3B
:1005D00038BF00F8013B11F0030300F00D86083A24
:1005E000C0F0088051F8043B083A51F804CBA0E869
:1005F0000810F5E7121D5CBF51F8043B40F8043BBE
:10060000AFF30080D20724BF11F8013B11F801CBF2
:1006100048BF11F8012B24BF00F8013B00F801CBC3
:1006200048BF00F8012B70474FF000020429C0F0CA
:10063000128010F0030C00F01B80CCF1040CBCF114
:10064000020F18BF00F8012BA8BF20F8022BA1EB66
:100650000C0100F00DB85FEAC17C24BF00F8012B4B
:1006600000F8012B48BF00F8012B70474FF0000243
:1006700000B5134694469646203922BFA0E80C5098
:10068000A0E80C50B1F12001BFF4F7AF090728BF73
:10069000A0E80C5048BF0CC05DF804EB890028BFEF
:1006A00040F8042B08BF704748BF20F8022B11F018
:1006B000804F18BF00F8012B704700004FF0013C3D
:1006C00050F8042B51F8043B9A4221D1A2EB0C03C1
:1006D000934313EACC1317D150F8042B51F8043B81
:1006E0009A4215D1A2EB0C03934313EACC130BD11E
:1006F00050F8042B51F8043B9A4209D1A2EB0C03A9
:10070000934313EACC13DBD04FF00000704700BFD7
:10071000D01A01BAB1FA81F101F0180122FA01F000
:10072000CB40C1F12001DBB2C0B2C01A2CFA01F3F8
:10073000D11A914311EAC311E6D17047704770474F
:100740007047704710B500F08DFD006810BD10B502
:10075000044600F087FD046010BD2DE9F0470D460A
:1007600099469246044600F124080168880604D59B
:10077000E06921F01001216000E00120A84201DDC4
:10078000471B00E00027A1697A1902EB0900081A4B
:10079000A0612078C00602D42046FFF747FD00265E
:1007A00008E0D4E901211AF806009047206A401CAD
:1007B000761C20624E45F4DB2078C0060AD5204620
:1007C000FFF734FD06E0D4E9012130209047206A8C
:1007D000401C2062381EA7F10107F4DC07E0D4E9D1
:1007E000012118F805009047206A401C2062281E4D
:1007F000A5F10105F3DC2046FFF72EFD2078000669
:1008000002D50220BDE8F0870120FBE770472DE903
:10081000FF4F0C461E464FF0FF378BB0D2E9000168
:10082000DDF860800A908A46C1F30A5505B93D4655
:10083000002108464FF00000BAF1000F00F440001C
:1008400005DA00EB80004FF4400101EA50004FEA66
:100850009059B9F1010F00DDB9460A9850EA4A00F3
:100860000ED044F61050A5F2FF3545432F14B8F1D1
:10087000000F1ED07542291E1EDDC9F100021CE0CA
:10088000B8F1010F4FF0000001D0302103E0F24336
:1008900005E02154401CB042FBDB30460022002121
:1008A00021540B99C1F80880C1E900200FB0BDE8C0
:1008B000F08FBD1B6D1CDEE74A4600DA694206A8D0
:1008C00000F01CFF06AB93E8070003AB83E80700CA
:1008D00050460A9901F00AFA8DE80700A0F5005089
:1008E0001F3800900398002D0ADD42F21F014A468E
:1008F0000844002303A90390684601F0B5FC09E011
:10090000A0F500504A461F38002303A9039068460B
:1009100001F0D4FC8DE807000004000C03D04FF078
:10092000FF30410800E01046B8F1000F03D000226C
:10093000009215461EE0751E05D400F097FC30327B
:1009400062556D1EF9D5B3460122084302D000223C
:100950007F1C04E02078302801D100227F1E002A6D
:10096000099784D01DE0112D07DA00F07FFC3032AA
:1009700062556D1C50EA0102F5D1084302D000987F
:10098000C8B10EE00021681E05E0235C625C635480
:100990002254401E491C8142F7DBAB46A81B401E77
:1009A0000990002004F80B000B98099AC0F8088001
:1009B000C0E9002B7AE711264FF0000857E72DE930
:1009C000F04F88460446D21D22F0070191B0D1E9CC
:1009D0000001CDE90A0104F003F802460B98C00FAC
:1009E00001D02D2007E02068810701D52B2002E0EF
:1009F000202101EAC000032A099001D0072A05DB63
:100A000003464146204600F07FFC0BE1207880063B
:100A100001D5E06900E00620B8F1650F814606D0F7
:100A2000B8F1660F18D0B8F1670F70D131E000202F
:100A3000B9F1110F009001DB112301E009F101036D
:100A40000AAA01A90CA8FFF7E2FEDDE90C70002656
:100A500009F10105834647E001204B4600904FF025
:100A600000470AAA01A90CA8FFF7D1FEDDE90DB0E5
:100A70000C995D46002610B909F101000D18B9EB7B
:100A8000050003D4C0F1FF3609F10105A5EB09000B
:100A90002BE0B9F1010F01DA4FF001090020B9F1A3
:100AA000110F0090484601DD112300E003460AAA19
:100AB00001A90CA8FFF7ABFEDDE90C704D4600263E
:100AC0008346207800070AD4AB4500DA5D4601A8CA
:100AD000012D04DD411911F8011C302907D04F45C3
:100AE00002DA17F1040F04DA012082460FE06D1ECE
:100AF000EEE7002F02DCED1B3E4403E0781CA84229
:100B000000DD7D1CB81B00F1010A4FF00047207882
:100B1000000703D4AA4501DB4FF0FF3A0021B7F1EB
:100B2000004F0DF143088DF8431024D002202B23F1
:100B3000002F01DA7F422D230A21021EA0F10100BD
:100B400000DC5FB197FBF1FC97FBF1F201FB1C7C31
:100B500017460CF1300C08F801CDEEE7A8F10100C2
:100B600003702188090501D5452100E06521A0F128
:100B7000010800F8011C09980FA9A1EB0807FF1D47
:100B800000B10120411901EBEA70A1693844081A4B
:100B9000401EA0612078C00602D42046FFF746FB25
:100BA000099828B1D4E901219047206A401C2062AD
:100BB0002078C00622D52046FFF738FB1EE0002E25
:100BC00004DBB34502DD01A8805D00E03020D4E9FC
:100BD00001219047206A401C2062761CAAF1010086
:100BE0005FEA000A0AD100F039FBC0680168405C86
:100BF000D4E901219047206A401C2062281EA5F1FB
:100C00000105DCDC07E0D4E9012118F8010B90476D
:100C1000206A401C2062381EA7F10107F3DC204641
:100C2000FFF71AFB032011B041E6000001694A1CDE
:100C300002610878704700B58FB0CDE9013100211D
:100C4000059105497944CDE9031011466846FFF73F
:100C500079FB0FB000BD0000E5FFFFFF0A6802F856
:100C6000010B0A60704710B5436913B1AFF3008000
:100C700001E0FFF702FB012010BD127800F1240112
:100C80000A7000224A700122EDE711684FF0FF322E
:100C9000E9E700002DE9FF4F06468BB00878FF28F2
:100CA00006D0491C2D2805D000244FF0000908E08B
:100CB00000200CE00124F8E709EB8903491C00EB54
:100CC00043090878FF28F7D114B1C9F10000814623
:100CD000107800252C46AA4629462D2801D02B281D
:100CE00004D1521C2D2813D0002082468B46107848
:100CF000FF280FD04FF0000C0A21521CA5FB0178F1
:100D000004FB018105FB0C11C5194BEB0104EEE757
:100D10000120EAE7002108464FF00000BAF1000F79
:100D200002D000EB80004008C0F38157012F01DDA5
:100D30004FF0FF370E9955EA040009EB01080BD07C
:100D40004FF0020918F5FA7F16DA4FEACA70002F41
:100D5000706008DD012007E04FEACA70C6E900B004
:100D60000FB0BDE8F08F0020306000F07BFAC0F8D3
:100D700000901821084616E0B8F5FA7F18DD002F1C
:100D800002DAF748784401E0F6487844D0E90010E8
:100D9000C6E9001040EACA70706000F063FAC0F85B
:100DA0000090142108460FB0BDE8F04F06F0C1BA1C
:100DB000002108464FF00000B8F10001099002DA66
:100DC000C7F1000200E03A4601DAC8F1000106A8C6
:100DD00000F094FC06AB93E8070003AB83E8070040
:100DE00044F23E005BEA04010090584604D144F20C
:100DF0001E012C465D460091210C0904014306D1D9
:100E00000099240444EA15442D041039009104F09B
:100E10007F41014306D10099240244EA15642D0262
:100E20000839009104F07041014306D10099240172
:100E300044EA15742D01091F009104F0404101435B
:100E400006D10099A40044EA9574AD00891E009172
:100E500004F00041084304D100986D196441401E1C
:100E600000904FF001033A466846B8F1000FCDE913
:100E7000014503A902DD01F036FA01E001F009FAAB
:100E8000BAF1000F04460D4601D084F00044002161
:100E900008464FF00000099940F2FF77484010F0F3
:100EA0000C0F07D124F00040284303D0C4F30A50AC
:100EB000B84212D100F0D6F9C0F80090C4F30A503D
:100EC000B8420AD1A8487844D0E90010C6E9001019
:100ED00004F000410843706042E7C6E900543FE770
:100EE0002DE9FF4F1F464FF0000A4FF0FF384546EF
:100EF00091B0D7E90146CDF83CA000F0AFF9C06849
:100F00000168405C1090B96912986D1C8847396A75
:100F1000814688470028F6D1B9F1FF3F0AD0002E5C
:100F200024F4D06411DDB9F12B0F08D0B9F12D0FE5
:100F30000BD102E0404615B013E744F48064B96970
:100F400012986D1C8847761E8146600504A901D55C
:100F50002D2000E02B20002E01F1010B0DF13008B7
:100F60008DF810003FDDB9F1690F08D0B9F1490FD4
:100F700005D0B9F16E0F02D0B9F14E0F1CD13B462E
:100F800001A8009580E85002DDE912126FF002001E
:100F900006F05EFAC11CCED10EE0B96912986D1C44
:100FA000884781461398761E44F4007405600F98B4
:100FB000401C002E0F9016DDB9F1300FEDD0B9F1C5
:100FC000780F02D0B9F1580F0DD10F9801280AD12E
:100FD0003B46CDE90054DDE91212001F029606F0EF
:100FE00035FAC11CA7D1109989453ED144F080043F
:100FF00006E01399681CAAF1010A44F40074086021
:10100000B9696D1C1298761E884730288146F0D049
:101010002BE01099894505D1200603D4761E44F0B3
:10102000800418E0484603F090FD08B3761E0DF1E9
:1010300023018B4544F4007408D2A9F130000BF869
:10104000010B200607D5AAF1010003E0200602D417
:101050000AF101008246A00502D51399681C0860B8
:10106000B96912986D1C88478146002ED1DC53E087
:10107000002E51DDB9F1650F02D0B9F1450F4BD10A
:10108000A00549D5B9696D1C1298761E24F44074E8
:101090008847002E81460CDD2B2804D0B9F12D0F96
:1010A00007D144F48074B96912986D1C8847761E84
:1010B0008146E00501D52D2100E02B2108F8011B18
:1010C000CDF8008021E0761E0DF13901884544F409
:1010D00000740CD2A9F1300010F0FF0088F8000075
:1010E00002D10099884509D908F1010806E0E00518
:1010F00001D51E4801E042F20F708246B96912988C
:101100006D1C8847814613980560002E04DD484613
:1011100003F01BFD0028D6D1F96912988847FF20FB
:1011200053468BF8000088F8000000200A900B90CE
:1011300004AA0CA90AA8FFF7ADFDA00502D46FF020
:101140000100F8E614F0240F12D0E0071CD1386833
:10115000DDE90A12031D3B600068C0E9001213E0DC
:10116000F46E0000E66E0000AA6D0000F1D8FFFFEB
:101170000AA9684603F078FCE00705D13868009AB0
:10118000011D3960006802602846D4E602681144F7
:101190001378016018467047D16005497944516160
:1011A00004497944116200211161114600F0ECB844
:1011B000EDFFFFFF51010000426842B1016811F8E4
:1011C000013B23B1521EC0E90012184670470121AD
:1011D000C160881E704742685AB1C368016843B94C
:1011E00083688B4205D0491E521CC0E900120020C2
:1011F00070474FF0FF30704710B5203AC0F00B80B9
:10120000B1E81850203AA0E81850B1E81850A0E80A
:101210001850BFF4F5AF5FEA027C24BFB1E8185064
:10122000A0E8185044BF18C918C0BDE810405FEAD4
:10123000827C24BF51F8043B40F8043B08BF704750
:10124000D20728BF31F8023B48BF11F8012B28BF55
:1012500020F8023B48BF00F8012B70470048704758
:10126000840C002000487047640C002030B5B0F1B9
:101270000A024FEA900E71F100034EEA817EB0EB54
:101280000E0061EB91014FEA101E4EEA017E10EB59
:101290000E0041EB11114FEA102E4EEA016E10EBD9
:1012A0000E0041EB11214FEA104E4EEA014E10EBB9
:1012B0000E0041EB1141401841F100014FEAD0000E
:1012C00040EA41704FEAD10110EB80054FEA8104FA
:1012D00044EA907444EB01046D1944EB0404521B7E
:1012E000A3414FF0000348BF0A3200D530BD401C77
:1012F00041F1000130BD10B5044600F09BFA0068D2
:10130000005D00F0010010BD2DE9F0411F460446CC
:1013100003260168072A01F4006004DB08B116A562
:1013200005E016A503E008B115A500E015A521F01C
:1013300010002060A069C01EA0610FB1401EA06116
:101340002046FEF773FF4FB1D4E90121384690479C
:10135000206A401C2062C01C206206E0206AFAE776
:10136000D4E9012115F8010B9047761EF8D22046EA
:10137000FEF772FFBDE8F0814E414E006E616E00D7
:10138000494E4600696E66002DE9F34F4FF0000AA2
:101390000C4656468DB001200C9001F10C000B90CC
:1013A00062690B9801219047051E2DD0252D2CD068
:1013B000216A8847C0B162690B9801219047216A70
:1013C00088470028F7D16269411E0B98904700E0DA
:1013D000761CA1690D988847216A88470028F7D1B3
:1013E000E1690D988847DBE7A1690D988847A84215
:1013F000074601D1761CD3E7E1690D9888477F1C29
:1014000002D1BAF1000F6FD06BE162690B9800272F
:101410003D46394690472A2804D162690B9801213C
:1014200090470125DFF8D08262690B98012190472F
:10143000A0F130010A290AD24745E5DC07EB870114
:1014400000EB4107303FDFD445F01005ECE7E9063B
:1014500001D46FF000476C280AD04C2814D06828BB
:1014600015D06A280DD074281CD07A281AD01DE017
:1014700062690B98012190476C2802D045F0040561
:1014800014E045F002050DE045F020050AE0626930
:101490000B9801219047682802D045F0080505E027
:1014A00045F4006562690B9801219047C4E9015732
:1014B00065283DD019DC58287AD00CDC452837D077
:1014C00004DC252826D041289ED131E046282FD0A3
:1014D000472899D12CE05B2877D0612828D0632851
:1014E0007CD0642823D15AE0F6E06F2848D008DC8D
:1014F00066281DD067281BD0692821D06E2816D1F8
:1015000027E0702845D0732868D0752847D0782800
:101510000DD14DE0A1690D988847252805463FF477
:1015200069AFE1690D9888476D1C3FF46AAFD8E058
:101530000D9923466A466FF0010005F085FFC5E06E
:1015400045F0400023464FF000026060A80736D403
:101550003EE0E8077FF447AF2068011D2160006886
:10156000290501D506701BE7290701D5068017E775
:10157000A90703D5F117C0E9006111E706600FE77D
:1015800045F0400023464FF008026060A80716D4DB
:101590001EE040F60E0125EA0100606016E045F00D
:1015A000400023464FF00A026060A80707D40FE00E
:1015B00045F040006060A80708D5234610220D9929
:1015C0006FF00100AFF3008080E007E010222346B7
:1015D0000D996FF00100AFF3008077E04FF0000944
:1015E00063284F46C8464B46CB4602D05B2806D000
:1015F00038E0E80601D40120A060012732E06269EA
:10160000D4F80CB00B98012190475E2807D14FF019
:10161000010949466269D4F80CB00B9890472169DA
:1016200039B900210A4603AB43F82120491C082997
:10163000FADBD8B3216949B308F1010862690B9854
:10164000012190475D28F4D1B9F1000F09D00020A5
:1016500003A951F82020D24341F82020401C08283B
:10166000F7DB03AB2069002820794FEA40701ED0D9
:101670005B462246CDF80080CDE901970D99002800
:101680006FF0010020DAAFF300801FE0C11703AA5A
:1016900000EBD1614B1121F01F0102EB8302411AD3
:1016A00013680120884003431360C7E719E00D99D0
:1016B000224600286FF00100009702DAAFF30080A5
:1016C00004E0AFF3008001E0AFF3008000280ADA05
:1016D000401C06D10C9820B14FF0FF300FB0BDE890
:1016E000F08F5046FAE7E90701D10AF1010A0644F2
:1016F00000200C9054E60000CCCCCC0C2DE9F04737
:10170000814616468AB0354878440DC88DE80D00EC
:1017100032487844801C03AC0DC884E80D0041F6C3
:101720009B300844372190FBF1F290FBF1F5A5F1D5
:10173000800501FB12041B3C02D56442012000E03D
:101740000020DFF898A080460027FA44AAF1BE0ADC
:101750000EE0E0070AD03246684607EB4701012356
:101760000AEB810100F0AAFD8DE8070064107F1CE0
:10177000002CEED1194F7F44AE3F19E0E80715D099
:1017800007EB04100DF1180A90E80E008AE80E002D
:10179000C068F04201D1981908903246012306A989
:1017A00003A800F08BFD03AB83E807006D10641CF9
:1017B000002DE3D14FF0010332466946B8F1000F26
:1017C00003A802D000F050FD01E000F077FDC9E968
:1017D0000001C9F808200AB0BDE8F0870C640000D9
:1017E00000487047640C00207546FFF7F9FFAE46CD
:1017F00005006946534620F00700854618B020B51D
:10180000FEF7ECFCBDE820404FF000064FF000076B
:101810004FF000084FF0000B21F00701AC46ACE898
:10182000C009ACE8C009ACE8C009ACE8C0098D4605
:101830007047000010B5FFF711FD001D10BD00BF7F
:10184000715000002DE9FF4F1F464FF03C0987B053
:101850004FF00042DDE9141001F10108DDF858A055
:1018600002EA405003900020059083460546044656
:101870000490B969461E08988847AAF1010A0290A7
:10188000BAF1000F3BDD02982E2815D0102100F090
:101890001FFA00282EDB4FF0010B0599014317D0EA
:1018A000B9F1000F0BDB4A46C11700F0FEF9054302
:1018B0000C43A9F1040905E0012004900BE008B1F4
:1018C00045F0010501200590049820B9361D02E07D
:1018D000049800B1361FB969089808F101088847D3
:1018E000BBF1000FAAF1010A0290C9D00999C1F811
:1018F0000080C5E70298702808D0502806D0F96902
:1019000008988847BBF1000F14D04FE000200290E8
:101910000120BBF1000F049009D0B969089808F1C3
:1019200001088847AAF10109B9F1000F07DCF9693C
:10193000089888476FF001000BB0BDE8F08F2B28A6
:1019400004D02D280CD14FF0FF300490B9690898CD
:1019500008F101088847A9F10109B9F1000FE6DD96
:10196000411CE4D00A2100F0B3F90028DFDB029922
:1019700008F1010801EB810100EB41000290B96917
:10198000089888470A2100F0A3F9099AA9F10109EA
:10199000B9F1000FC2F8008001DD0028E7DAF9692B
:1019A000089888470499029800FB016655EA0400EC
:1019B00004D004F04041090002D006E0039898E00A
:1019C000A40044EA9574AD00B61E04F0004108007E
:1019D00002D16D196441761E159810F0240F03D0C2
:1019E0004FF00B095C4803E04FF028096FF07D00D1
:1019F0008246564507DAAAEB06018944B9F1410F40
:101A000001DD4FF0410901200021A9F1010200F0A0
:101A10004CF9024628400B462140084301D00121E1
:101A200000E00021501E029143F1FF312840214087
:101A3000084301D0012000E000200299834651EACA
:101A40000B014FD0002108464FF00000039900F42D
:101A5000400039B100EB80004FF4400100EBD07042
:101A600001EA60008015012802DD4FF0FF3000E040
:101A700013D0401C36D0029860B3BBF1000F0CD1DC
:101A80004A460120002100F010F928402140084377
:101A900001D0012000E00020E0B101204A460021F1
:101AA00000F003F9034640190A4661412D1A8C41A2
:101AB00011D3B9F1400F09DD159810F0240F02D0B1
:101AC000AAF1340603E0AAF1170600E0761C00250F
:101AD0004FF0004406E05B1E42F1FF3220EA0305AE
:101AE00021EA0204CAF10100B04206DA1B49039858
:101AF00008430190002000900EE0039AC4F3D32124
:101B0000E80A0A43164940EA44500A433146CDE9FF
:101B10000002684603F00EF8159810F0240F0BD061
:101B20001598C00715D13868DDE90012031D3B6028
:101B30000068C0E900120CE002A8694602F094FFB8
:101B40001598C00705D13868029A011D39600068F0
:101B500002604046F0E6000002FCFFFF0000F07F5C
:101B60000000F03F2DE9FF4F92461D4685B04FF033
:101B70000041DDE9124BDDE914727F1E01EA4B5092
:101B8000414940F0FF4940EA0108002122F02000CD
:101B90004928049102D04E2828D04CE03BA00126D1
:101BA00007C88DE80700A9690698641C88477F1E4E
:101BB000014606D41DF8060018B121F0200181422B
:101BC0000BD0E96906988847032E34D0082E32D00E
:101BD0006FF0010009B0BDE8F08F761C032E01D034
:101BE000082EE0D1601CCAF80000DCE7A96906985D
:101BF000641C88477F1E2AD420F02000412826D16B
:101C0000A9690698641C88477F1E20D420F0200014
:101C10004E281CD1A9690698641C88477F1E48F489
:101C2000002849F48009CAF8004001D4282806D0C9
:101C3000E969069888475FEACB7012D022E0A9696B
:101C40000698641C88477F1E01D4002803DAE969DE
:101C500006988847BCE72928F1D1641CCAF80040DF
:101C6000E9E71BF0240F07D028680499031D2B60B7
:101C70000068C0E9001805E02868021D2A600068B5
:101C8000C0F800902046A5E70000F07F494E464985
:101C90004E4954590000000010B50446AFF30080CF
:101CA0002046BDE81040FEF784BAB2F120030AD501
:101CB000C2F1200301FA02F120FA03F300FA02F064
:101CC00041EA0301704700FA03F14FF0000070474A
:101CD0003A2800D2303820F02002412A01D3A2F164
:101CE0003700884201D34FF0FF3070475FEA400C65
:101CF00008BF91F0000F4FEA8C234FEAC12243EA5C
:101D000051514FEA1C5018BF00F5F0404FEA300027
:101D100018BF41F000415FEA6C5C00F02980BCF123
:101D2000FF3F08BF40F080407047130C06BF12040D
:101D30004FF0100C4FF0000C130E04BF12020CF108
:101D4000080C130F04BF12010CF1040C930F04BF15
:101D500092000CF1020CD30F04BF52000CF1010CE5
:101D600011464FF00002A0F11F00A0EB0C007047DD
:101D700011F0004F08BF704731F000413FF4D5AF7C
:101D80000B0C06BF09044FF0100C4FF0000C0B0EAB
:101D900004BF09020CF1080C0B0F04BF09010CF180
:101DA000040C8B0F04BF89000CF1020CCB0F04BF95
:101DB00049000CF1010CCCF12003A0EB0C0022FA3D
:101DC00003F302FA0CF241EA030100F1010070474B
:101DD00020F07F4C80EA030023F07F47ACEB070341
:101DE00003F57C5300F0004003F1FF032DE9804927
:101DF0004FEA154B09B44FEA144325EA0B4E24EA87
:101E000003480FF2042606EB132749083E785FEAE1
:101E1000320203FB0667C7F5000707FB06F64FEA29
:101E200054374FEAD64606F1020607FB066CCCF1A2
:101E3000005C4FEA1C472CEA074C07FB06F40CFB3E
:101E400006F504EB15464FEA961634BF00204FF016
:101E500000404FEAD13706FB07FC4FEA1C4C0CFB55
:101E60000BF7D21B03FB0CF761EB07010CFB0EF722
:101E7000B0EB074072EB17420CFB08F734BFA2EB44
:101E80000742B2EB074261EB17414FEA0C444FEABD
:101E9000910706FB07FC4FEA1C4C0CFB0BF7B0EB61
:101EA000C74072EB573203FB0CF734BFA2EBC742BB
:101EB000B2EBC74261EB57310CFB0EF7B0EBC7003A
:101EC00072EB57720CFB08F734BFA2EBC702B2EB00
:101ED000C70261EB5771039F4FEA816141EA92119A
:101EE00004EBCC044FEAD1374FEA826206FB07FCD1
:101EF00042EA90124FEA80604FEA1C4C0CFB0BF751
:101F0000D21B03FB0CF761EB07010CFB0EF7B0EBE8
:101F1000074072EB17420CFB08F734BFA2EB0742F5
:101F2000B2EB074261EB17414FEA8C554FEA91073C
:101F300004EB9C2406FB07FC4FEA1C4C0CFB0BF744
:101F4000B0EBC74072EB573203FB0CF734BFA2EB88
:101F5000C742B2EBC74261EB57310CFB0EF7B0EB57
:101F6000C70072EB57720CFB08F734BFA2EBC70235
:101F7000B2EBC70261EB577115EB4C254FEA81615B
:101F800041EA92114FEA82624FEAD13742EA901257
:101F900006FB07FC44F100044FEA80604FEA1C4C4A
:101FA0000CFB0BF7D21B03FB0CF761EB07010CFBDF
:101FB0000EF7B0EB074072EB17420CFB08F734BF8B
:101FC000A2EB0742B2EB074261EB174115EB1C1580
:101FD0004FEA813141EA92414FEA823242EA90422D
:101FE0004FEA80304FEA0C7644F1000448EA03439C
:101FF0004EEA0B484FF0000EB2EB080C71EB0307F2
:1020000024BF624639464EEB0E0E4FF0000B00180F
:10201000524149414BEB0B0BB2EB080C71EB030740
:102020007BF1000B24BF624639464EEB0E0E4FF09B
:10203000000B0018524149414BEB0B0BB2EB080C63
:1020400071EB03077BF1000B24BF624639464EEB70
:102050000E0E51EA020718BF46F0010616EB0E7687
:1020600055F1000254F1000103D5BDE88901BDE836
:102070000088BDE88901BDE80048B619524141EB2E
:102080000101A3F10103704780807F7E7D7C7B7A14
:102090007978777676757473727171706F6E6E6D14
:1020A0006C6C6B6A6A6968686766666564646363BA
:1020B00062616160605F5F5E5E5D5D5C5C5B5B5A40
:1020C0005A595958585757565655555554545353AD
:1020D00052525251515050504F4F4F4E4E4D4D4D08
:1020E0004C4C4C4B4B4B4A4A4A4949494848484753
:1020F0004747474646464545454444444443434391
:10210000434242424241414146EA0646A3F57053EA
:102110004FEA164646EA42564FEAD22242EA415276
:1021200010B54FEAD121A3F1010300F02FF820F000
:10213000004000F1020C00F0004701EB0050114696
:10214000BCF5006F40EA070000D210BDBAF1000FE5
:102150000AD01CB503B44FF004004FF004014FF057
:1021600000000FBCBDE810404FF00001BBF1010FB3
:10217000B9BF04484FF0FF310348002140EA07008F
:1021800010BD00BFFFFFEF7F0000F07F002B9C46DB
:1021900030D477002BD01CB54FEA370703B44FF08B
:1021A00010004FF01001BAF1000F06D0BCF1000F83
:1021B000DCBF40F0080040F008014FF000000FBC09
:1021C000BDE810400BF1010BBBF1010F08BF5FEA46
:1021D000170722BF12F1010211F101014FF0004176
:1021E00043F1000300F0004043EA00007047F9D3D8
:1021F0005708D0E746EA064613F1400F4FEA164665
:102200001FDD13F1200FDFBF16430A4600212033E4
:102210005B42BED0C3F1200746EA064602FA07F742
:102220004FEA164646EA0706C3F1200722FA03F2F0
:1022300001FA07F721FA03F14FF0000342EA07021F
:10224000A7E746EA020646EA06464FEA164646EA87
:102250000106BCBF46EA0646360C4FF000034FF0BD
:1022600000024FF0000194E72DE9804C9A46934616
:1022700070B491E8380007C831EA400C48BF34EA2E
:10228000430C03D5FFF7A4FDFFF780FFF0BCBDE8CA
:10229000008C2DE9804C9A46934670B491E8380042
:1022A00007C831EA400C48BF34EA430C03D5FFF7B6
:1022B0008FFDFFF729FFF0BCBDE8008C2DE9804CB5
:1022C0009A46934670B491E8380007C810F0804FE2
:1022D00008BF13F0804F03D100F01AF8FFF756FF44
:1022E000F0BCBDE8008C2DE9804C9A46934670B452
:1022F00091E8380007C810F0804F08BF13F0804FF6
:1023000003D100F005F8FFF7FFFEF0BCBDE8008C3C
:1023100020F07F4780EA030023F07F4C07EB0C039B
:10232000A3F57C5300F00040A3F1FE0392F0000FF0
:1023300000F0B38095F0000F00F077802DE901499F
:102340004FEA11404FEA144621EA004800FB06FC20
:1023500024EA064708FB06F607FB08F800FB07F728
:1023600018EB06484CEB164C4FEA124B18EB07489B
:102370004FEA15464CEB174022EA0B4E0BFB06FCCE
:1023800025EA06470EFB06F607FB0EFE0BFB07F7DA
:102390001EEB064E4CEB164C4FF000061EEB074EA4
:1023A0004CEB174B18EB0B0840F1000018EB0E0B31
:1023B00058EB000840F100008F1A4FF000013CBFBD
:1023C000C943661B14BFB5EB040C00213CBFC943D5
:1023D000F61B4FEA17444EEA8E0E27EA04454FEAF1
:1023E0001C4704FB07622CEA074C05FB07F70CFBB4
:1023F00005F604FB0CFC16EB074642EB174216EB06
:102400000C4642EB1C421BEB060658EB0202414114
:1024100046EA9E0601D5BDE80189B619524141EB55
:102420000101A3F10103BDE801894FEA14454FEA18
:10243000114724EA054621EA074C05FB07F406FB91
:1024400007F70CFB06F105FB0CFC11EB074144EB15
:1024500017444FEA124711EB0C4144EB1C4422EAAB
:10246000074C05FB07F206FB07F70CFB06F605FB1E
:102470000CFC16EB074642EB174216EB0C4642EB00
:102480001C456A1854F1000148BF7047B619524103
:1024900041EB0101A3F10103704795F0000F37D024
:1024A0004FEA11424FEA144721EA024624EA074C58
:1024B00002FB07F106FB07F70CFB06F402FB0CFC22
:1024C00014EB074441EB17414FEA154714EB0C445A
:1024D00041EB1C4125EA074C02FB07F506FB07F719
:1024E0000CFB06F602FB0CFC16EB074645EB17450A
:1024F00016EB0C4645EB1C42121951F1000148BF86
:102500007047B619524141EB0101A3F10103704735
:102510004FEA14454FEA114724EA054621EA074CE1
:1025200005FB07F106FB07F70CFB06F24FF0000670
:1025300005FB0CFC12EB074241EB174112EB0C427E
:1025400051EB1C4148BF7047921841EB0101A3F1C8
:102550000103704708B500220092044A0092009AD5
:1025600002440092009A116008BD0000006C004017
:1025700010B592B001204449087001210D2001F0EE
:1025800039FE0121414801F08BF94FF44050ADF87C
:10259000440014208DF8470003208DF8460011A94F
:1025A0003B4801F0F1F84FF48040ADF844001020B2
:1025B0008DF8470011A9364801F0E6F84FF40040C5
:1025C000ADF8440048208DF8470011A9314801F0CA
:1025D000DBF84FF480412E4801F0B5F94FF48051FB
:1025E0002B4801F0B0F94FF40051294801F0ABF944
:1025F0002948002101608180284801604FF4C071A2
:102600002748FEF711F8002026490860264908608F
:10261000264908702649087026490870264908701E
:102620002649088026490880402101A8FEF71EF8A7
:1026300000240BE02349085D01AB4FF47A720021BE
:1026400002F066FC00B103E0601CC4B2042CF1DBB4
:1026500000BF18480078852810D000240BE01949E5
:10266000085D01AB4FF47A72012102F051FC00B118
:1026700003E0601CC4B2042CF1DB00BF002002495F
:10268000087012B010BD00003200002000023000BF
:10269000000C0140000801401E0000202400002022
:1026A0005C010020280000202C00002030000020C9
:1026B000310000201D0000201C00002034000020FC
:1026C00036000020947400082DE9FC4104460027E0
:1026D000002514B1002084F83D0047480078D0B9A7
:1026E00046480078A0B9464800884FF6FF718842F6
:1026F00004D243480088401C414908804048008873
:10270000C82805D300203E490880204603F020F861
:102710000020BDE8FC8100261EE0694601A800F00B
:102720003DF900B91AE001279DF804003549087009
:10273000BDF80000344908809DF80400032803D048
:102740009DF80400042805D1BDF80010204602F0D1
:1027500015FE0543701CC6B2032EDED300BF35B193
:10276000002027490880294908800120D1E794F8F2
:102770003C00E0B1DFB925480088401C23490880AF
:102780000846008819280DD3002008801A490870CF
:102790001F49087001201F490870204602F0D8FF29
:1027A0000020B6E70020164908800120B1E7134851
:1027B0000078D8B9124800884FF6FF71884204D2D9
:1027C0000F480088401C0E4908800D4800882828C2
:1027D0000CD300200A490880074908700C4908708A
:1027E00001200C490870204602F0B2FF0DB1012013
:1027F0008FE700208DE7000030000020320000202D
:102800003400002041000020440000203600002059
:102810001D0000203100002000B9704706490968FA
:10282000064A116000218161C161016280F83E1099
:1028300080F83D1000BFF0E72C00002028000020A9
:102840002DE9F05F0446894614B194F83C0008B9BC
:10285000BDE8F09F4A4801684A48006804F0F4FC6B
:10286000824603F097F8804694F83E0000287CD01A
:102870000021484604F024FC77D24046E16904F088
:10288000E3FC054604E04049284604F0DDFC05462B
:102890003E49284604F014FCF5D304E03A492846A2
:1028A00004F090F905463A49284604F009FBF5D3AF
:1028B0004946284604F0FAF9074600BF25F00040D3
:1028C0008246344904F0FCFB07D300BF27F00040E8
:1028D00082462E4904F0F4FB2CD249462B4804F0E2
:1028E00023FB06460021304604F0EAFA00D8294EC0
:1028F0002849304604F0E4FB00D2264E31462846F3
:1029000004F0DEFB00D2354686F0004A29465046E8
:1029100004F0D6FB01D286F000452946E06904F0B8
:1029200051F9824603F036F880464946284604F0BD
:10293000BDF907461549384604F0C2FB00D2134FD3
:102940001349384604F0BCFA00D2114F3846216AC8
:1029500004F07AFC8346104904F0E6FA8246216AC4
:1029600004F030F9206205E0FFE70020206201203A
:1029700084F83E00C4F81880C4F81C8000BF67E7E4
:10298000280000202C0000200000B4430000344345
:10299000000034C300003442295C0F3E2DE9F041B1
:1029A000E2B006460F464FF40041314800F0C0FF48
:1029B00018B1002062B0BDE8F0812E480068401CCC
:1029C0002C49086000202C4908702C480021016027
:1029D000042102F0E9FD20B90120274908700020F8
:1029E000E8E7264800782549497840EA0128C8F3F5
:1029F0000E08B8F1040F04D202201F49087000200D
:102A0000D8E7A8F1040084B214B1B4F5C07F04D9AA
:102A10000320194908700020CCE7201D81B201A8CD
:102A200002F0C2FD20B90420134908700020C1E75C
:102A30004FF4C0711248FDF7F7FD002506E001A92B
:102A4000281D085C0E494855681C85B2A542F6DB76
:102A50000020094908700B480068401C09490860BB
:102A600016B106488078307007B13C800120A1E79C
:102A70000008014038000020400000202400002011
:102A80005C0100203C00002008B50121082001F075
:102A9000B1FB2020ADF8000048208DF80300022093
:102AA0008DF802006946044800F06EFE00200349DC
:102AB00008700349087008BD000C01405000002058
:102AC0005C000020024908780021014A117070471B
:102AD0005C00002010B504462248007830B101287F
:102AE0000DD002281DD0032839D131E003F032FA8D
:102AF00020B11D48046001201A4908702FE003F03E
:102B000029FA18B900201749087009E0164800682A
:102B1000201A142804D315480460022011490870B3
:102B20001DE003F017FA30B90120114908700020A8
:102B30000C4908700BE00D480068201AB0F57A7F48
:102B400005D302200A49087003200649087006E0F0
:102B500003F000FA10B900200249087000BF00BF5E
:102B600010BD00005000002058000020540000203C
:102B70005C00002010B501F04DF901F0CFF803A280
:102B80000121084601F0EAF910BD00005379737481
:102B9000656D205265616479000000002DE9F04FF9
:102BA00087B004460D461646994624B1012C08D03C
:102BB000022C12D10BE025A20121084601F0CEF92A
:102BC00011E025A20121084601F0C8F90BE025A279
:102BD0000121084601F0C2F905E025A201210846BD
:102BE00001F0BCF900BF00BF012D01D123A000E01E
:102BF00023A002460A21012001F0B0F9304603F07B
:102C0000B5FF07463A460B461EA102A8FDF7FAFAA1
:102C100002AA0121022001F0A1F9109803F0A6FFF9
:102C200007468846484603F0A1FF824652460B46B7
:102C300017A102A8CDE90078FDF7E4FA02AA012164
:102C4000032001F08BF907B0BDE8F08F53544F50CB
:102C5000202020200000000053545241494748548E
:102C600000000000545241434B494E470000000011
:102C70003F3F3F20202020200000000054000000A3
:102C800053000000593A252B372E31660000000012
:102C90004C3A252B352E306620523A252B352E30D6
:102CA0006600000000B587B00121042001F0A2FAFF
:102CB0000121480401F08EFA03208DF81A00042047
:102CC000ADF8180018208DF81B0006A9284800F060
:102CD0005BFD0820ADF8180048208DF81B0006A900
:102CE000234800F051FD4FF4E13002900020ADF890
:102CF00014000C20ADF812000020ADF81000ADF863
:102D00000E00ADF80C0002A91A4801F0F1FD0122F5
:102D100040F22551174801F0C6FD002240F227710C
:102D2000144801F0C0FD4FF4A06000F0EDFF262034
:102D30008DF8040001208DF807008DF805008DF84E
:102D4000060001A800F0A8FF01210A4801F068FD73
:102D50000020094908800949088009490870094983
:102D60000870094908700949087007B000BD0000E3
:102D700000080140004400404600002048000020B8
:102D80004A0000204B0000204D0000204C00002095
:102D90002DE9F04FD7B00446894692469B4639A0AC
:102DA0002490012C02D139A0249003E0022C01D1FF
:102DB00039A02490669803F0D9FE05460E46659822
:102DC00003F0D4FE07468846649803F0CFFECDE9B1
:102DD0002201639803F0CAFECDE92001629803F056
:102DE000C5FECDE91E01619803F0C0FECDE91C01CE
:102DF000609803F0BBFECDE91A01584603F0B6FE19
:102E0000CDE91801504603F0B1FECDE916016798EF
:102E100003F0ACFECDE91078CDE91256CDE91401EE
:102E2000DDE92201CDE90E01DDE92001CDE90C014A
:102E3000DDE91E01CDE90A01DDE91C01CDE908014A
:102E4000DDE91A01CDE90601DDE91801CDE904014A
:102E5000DDE91601CDE90201DDE91401CDE900014A
:102E6000B9F1010F01D10FA000E008A003460F49FE
:102E700025A8249AFDF7C6F925A800F019F857B03F
:102E8000BDE8F08F53544F5000000000535452419E
:102E90004947485400000000545241434B494E47B3
:102EA00000000000545241434B000000E07B00084A
:102EB00010B5044604B910BD03E014F8010B03F08B
:102EC00059FC20780028F8D100BFF4E72DE9F04F35
:102ED000B3B00446894692469B463D9803F046FEB1
:102EE00005460E463C9803F041FE07468846DDE95C
:102EF0003F2341994298CDE90723CDE909103E9837
:102F00004B4622460849CDE900ABCDE90278CDE930
:102F1000045606900BA8FDF775F90BA8FFF7C8FF3C
:102F200033B0BDE8F08F0000307B00082DE9F04F92
:102F3000B9B00446894692469B46499803F016FE6E
:102F400005460E46439803F011FE07468846429810
:102F500003F00CFECDE90C56CDE90E01469B459AD7
:102F600047994898CDE90723CDE909104498CDE960
:102F700004780690DDE90E014B462246CDE900AB10
:102F8000CDE90201044910A8FDF73CF910A8FFF7AC
:102F90008FFF39B0BDE8F08F847B00082DE9F04148
:102FA00005460E4605B116B90020BDE8F08103F0D4
:102FB00087FA00BFEFF31080074672B61248007818
:102FC00018B907B962B60020EFE710480078B042A0
:102FD00002DB701E0D490870002404E00C48005DFF
:102FE0002855601CC4B2094800788442F6DB0020F2
:102FF000064909786854044908700449087007B9FB
:1030000062B60120D1E700004D0000204C000020F6
:103010001C0B002010B540F225511B4801F019FC93
:1030200038B1194801F0D0FCC4B2204603F0F8F9D9
:1030300000BF0821144801F0FFFB10B1124801F055
:10304000C3FC40F22771104801F003FCD0B10F48D7
:1030500000880F49098888420ED00E480B4909881C
:10306000445C0A48008803F0B1FB08490880214607
:10307000054801F0AEFC05E0002240F2277102484D
:1030800001F011FC10BD0000004400404800002089
:1030900046000020DC020020032002F0F9FC70470B
:1030A00000B5034603E04FF47A7000F005F8181EEF
:1030B000A3F10103F7D100BD00EBC001C9004FF03F
:1030C000E0225161002191610521116100BF4FF0A3
:1030D000E021096901F480310029F8D004214FF082
:1030E000E02211617047000070B504460D4624B11E
:1030F0000021284603F0E4FE00D870BD2946184898
:1031000003F012FF0646A16FD4F8800003F0D8FE4A
:103110000FD278343146A06803F054FDA0602168D6
:10312000A068783C03F0CCFF18D2A06FC4F88000F0
:1031300014E0A16FD4F8800003F0C2FF0ED27834FF
:103140003146A06804F080F8A0602168A068783C4F
:1031500003F0B6FE02D2A06FC4F8800000BFCCE737
:103160000000A0412DE9FF4F89B004463C2524B161
:103170000021179803F0A4FE02D80DB0BDE8F08F2F
:103180000A98E0670B98C4F8880020461799FFF763
:10319000ABFF54F8800F0A9904F056F808902169A3
:1031A00054F8800903F0C0FE82462046179B0A9A15
:1031B000089900F07DFF05905046059903F002FD47
:1031C00081467F49484603F07BFF01D2DFF8F0914A
:1031D0007C49484603F074FE01D2DFF8E8910021F3
:1031E000484603F06DFF09D84FF07C51484603F084
:1031F000E9FC834603F01CFE00B208E04FF07C516E
:10320000484604F021F8834603F012FE00B2064659
:10321000A4F89860D4F884000B9904F015F881465E
:1032200003F010FB0790A06A079903F07DFE05905C
:10323000206B80F000400290169903F075FE8346E3
:10324000E06A079903F070FE0190179903F06CFE95
:103250000290616B03F0B6FC8146E06C80F00040A8
:10326000029001464846E26C02F0DCFB8146C4F85D
:103270003490002E01DB314600E07142084603F035
:10328000F3FD4FF07E51029003F0DEFF82464FF0D7
:103290007E51504603F014FE01D24FF07E5A504644
:1032A000A16C03F00DFF01D2D4F848A08AF00040D1
:1032B00049460290059803F085FC5946009003F0BA
:1032C00081FC52460190029902F0ACFB04900498F4
:1032D00060640021049803F0F3FE09D84FF07C519C
:1032E000049803F06FFC029003F0A2FD00B208E026
:1032F0004FF07C51049803F0A7FF029003F098FD73
:1033000000B20690304A3149584602F08BFB0390D8
:103310000021039803F0D4FE09D84FF07C510398A4
:1033200003F050FC029003F083FD00B208E04FF080
:103330007C51039803F088FF029003F079FD00B2FE
:10334000A4F89C000598C4F8A000C4F8A490C4F8A0
:10335000A8B00698A4F89A000698304407B20698D8
:10336000301A0FFA80F8002E08DD002F00DA00274F
:10337000B8F1000F0CDA4FF0000809E0002E07DA70
:10338000002F00DD0027B8F1000F01DD4FF000082D
:10339000AF4200DD2F466842874201DA684207B239
:1033A000A84500DDA8466842804502DA68420FFA67
:1033B00080F8A4F89470A4F8968000BFDDE60000C1
:1033C00000007042000070C20000A0410000A0C1D7
:1033D0002DE9FF4F87B004469B46149E3C2524B13F
:1033E0000021304603F06CFD02D80BB0BDE8F08F31
:1033F000DDE9080103F0E6FB4FF07C51039003F098
:1034000093FD0746E767C4F88CB031462046FFF7C6
:103410006BFE54F8800F394603F016FF06902169C1
:1034200054F8800903F080FD039033463A46204665
:10343000069900F03DFE0290DDE9021003F0C2FBA8
:1034400001902F49019803F03BFE01D22C480190D6
:103450002C49019803F034FD01D22A480190002143
:10346000019803F02DFE09D84FF07C51019803F02C
:10347000A9FB009003F0DCFC00B208E04FF07C51A7
:10348000019803F0E1FE009003F0D2FC00B204903A
:103490000498A4F898000020A4F89C008BF0004049
:1034A0000590324604F15000059900F0B3FD0390F9
:1034B00003F0BEFC0FFA80F8A4F89A800498404408
:1034C0000FFA80F90498A0EB08000FFA80FAA945DA
:1034D00000DDA9466842814502DA68420FFA80F9A8
:1034E000AA4500DDAA466842824502DA68420FFA20
:1034F00080FAA4F89490A4F896A000BF75E70000A5
:1035000000007042000070C210B5044604B910BD3E
:103510000C4844F8780F00206060A060E0602061F3
:103520006061A083E08320846084A084A062E06264
:1035300020630548A061783C204600F007F800BFF2
:10354000E5E70000000020413333933F38B50446DF
:1035500004B938BD0A4800230A4A0B4900902046A6
:1035600000F008FE0948084B094A0A49009004F196
:10357000280000F0FFFD0848C4F8900000BFE8E70D
:10358000000070420AD7A33C3333B33E0000A04191
:10359000CDCC4C3E6666E63E3333933F38B50446A9
:1035A00004B938BD09480023094A0A490090204659
:1035B00000F0E0FD08484FF07C53084A41020090BB
:1035C00004F1500000F0D6FD00BFEAE700007042B1
:1035D000A69B443C9A99193F0000A0410AD7233C7E
:1035E00000B5024602B900BD104600F0E0FD02F150
:1035F000280000F0DCFD02F1500000F0D8FD0020B2
:1036000042F87C0F5060108350839083D0831084E5
:1036100050629062D0627C3A00BFE4E71FB501219E
:10362000032000F0D7FD0121042000F0E3FD482035
:103630008DF80F0003208DF80E00C320ADF80C00AC
:1036400003A9294800F0A0F80020ADF80600ADF865
:1036500002004FF6FF70ADF804000020ADF8000046
:103660008DF8080069464FF0804000F0FFFF00230E
:103670001A4603214FF0804000F00CFF4FF08040CD
:10368000008B40F60F71084040F0C00040F440400D
:103690004FF0804108836946144800F0E7FF00239B
:1036A0001A460321114800F0F5FE10481830008832
:1036B00040F60F71084040F0C00040F440400B4914
:1036C000183108800121880700F0C9FE0121074850
:1036D00000F0C5FE00214FF0804000F0C5FF002142
:1036E000024800F0C1FF1FBD000801400004004077
:1036F00010B500214FF0804000F0B6FF00210248D5
:1037000000F0B2FF10BD00000004004070B5044698
:1037100004B970BD4FF0804000F0DDFE06B200211C
:103720004FF0804000F0A0FF164800F0D4FE05B234
:103730000021144800F098FF704206B200BFA68135
:10374000E581002020766076304601F008FA40F6E8
:103750002821884202DD002601202076284601F03B
:10376000FEF940F62821884202DD0025012060761E
:10377000268165812068304420606068284460604C
:1037800000BFC6E7000400402DE9F04102460025D5
:103790000026002000230024002791F803C00CF02D
:1037A0000F0591F803C00CF0100CBCF1000F03D012
:1037B00091F802C04CEA050591F800C0BCF1000F79
:1037C00031D0146800202BE04FF0010C0CFA00F30C
:1037D000B1F800C00CEA03069E4220D183004FF0EE
:1037E0000F0C0CFA03F7BC4305FA03FC4CEA040483
:1037F00091F803C0BCF1280F06D14FF0010C0CFA70
:1038000000FCC2F814C00AE091F803C0BCF1480FF4
:1038100005D14FF0010C0CFA00FCC2F810C0401C9E
:103820000828D1D31460B1F800C0BCF1FF0F34DD1B
:10383000546800202EE000F1080C4FF0010808FA4F
:103840000CF3B1F800C00CEA03069E4221D18300BC
:103850004FF00F0C0CFA03F7BC4305FA03FC4CEADB
:10386000040491F803C0BCF1280F05D100F1080C45
:1038700008FA0CF8C2F8148091F803C0BCF1480FA4
:1038800007D100F1080C4FF0010808FA0CF8C2F853
:103890001080401C0828CED35460BDE8F0810000A1
:1038A000F0B50A46002300240021002500F0004660
:1038B000B6F1004F02D11D4EF16901E01B4E716857
:1038C000C0F3034583B200F44016B6F5401F08D19B
:1038D00021F07061154E766826F07066134F7E6099
:1038E00012E000F48016B6F5801F06D1032606FA12
:1038F00005F4A14341F0706106E0460D360103FA7C
:1039000006F6B14341F0706122B1460D360103FA6B
:1039100006F6314300F00046B6F1004F02D1034EE7
:10392000F16101E0014E7160F0BD00000000014056
:103930000246002093680B400BB1012000E00020FC
:10394000704741617047016170470AB1016100E051
:1039500041617047012002F09BF8000008B5012189
:103960001C2000F047FC48208DF8030003208DF850
:1039700002004FF4E050ADF8000069460948FFF737
:1039800003FF40F61820ADF8000069460648FFF72F
:10399000FBFE4FF40050ADF8000069460348FFF706
:1039A000F3FE08BD00080140000C0140001001407A
:1039B0002DE9F05F05460024A0460DB9BDE8F09F53
:1039C0004FF48061344802F01AFB08B144F001045E
:1039D0004FF40061304802F012FB08B144F00204D9
:1039E0004FF480512C4802F00AFB08B144F0040463
:1039F00008212A4802F003FB08B144F00804102112
:103A0000264802F0FCFA08B144F010044FF40071AB
:103A1000224802F0F4FA08B144F020044FF40061A7
:103A20001E4802F0ECFA08B144F040044FF4005193
:103A30001B4802F0E4FA08B144F08004204602F08A
:103A4000CFFA07462C706F701FB90020A87068600D
:103A5000B4E70120A870002609E00120B040204012
:103A600018B1104830F916008044701CC6B2082EF8
:103A7000F3DB384603F010FA83460B4903F054FA9F
:103A80008146404603F0F0F98246494603F00EF9BC
:103A9000686000BF92E7000000080140000C014090
:103AA00000100140847400080000C84210B50C48A2
:103AB0000068401C0A4908600A480078401C09490F
:103AC0000870084600780A2804DB002008700120EE
:103AD0000549087002480068FEF7FCFF10BD0000B1
:103AE0006C0000209000002070000020022001F0F7
:103AF000CFFF000010B501210148FFF722FF10BDE4
:103B0000000C014010B501210148FFF71CFF10BD5A
:103B1000000C014000B589B001210C2000F06AFBC7
:103B20000121C80200F066FB10208DF8230003205D
:103B30008DF822000120ADF8200008A93348FFF7D6
:103B400023FE01213148FFF7FCFE3020ADF82000B4
:103B500008A92F48FFF718FE30212D48FFF7F1FE86
:103B60000220ADF8200008A92848FFF70DFE022129
:103B70002648FFF7E6FE4FF48060ADF8200008A964
:103B80002248FFF701FE4FF480612048FFF7D9FE7D
:103B900018208DF823004001ADF8200008A91C482A
:103BA000FFF7F2FD0020ADF81A00ADF81600632013
:103BB000ADF8180040F2CF20ADF8140000208DF8C9
:103BC0001C0005A9134800F051FD01A800F03EFDBE
:103BD0006020ADF804000020ADF80C000120ADF825
:103BE00006000020ADF80A0001A90A4800F090FC88
:103BF00001A9084800F0D8FC0121064800F03BFC70
:103C00000121044800F02BFC09B000BD000C01406C
:103C100000080140002C01402DE9F04180460F468C
:103C20001446404600F0A3FF0546384600F09FFFCB
:103C30000646281905B2301B06B2002D00DA002511
:103C4000002E00DA0026284602F04AFA304602F03A
:103C50006DFABDE8F081000010B530210A48FFF789
:103C600070FE02210948FFF76CFE4FF4806107489F
:103C7000FFF767FE0021064800F0F2FC002104482F
:103C800000F0F0FC10BD000000080140000C0140F5
:103C9000002C01407047000070B5002100230F2266
:103CA000C47804B3154C246804F4E064C4F5E064FB
:103CB000210AC1F10403CA40447804FA03F184786C
:103CC0001440214309010E4C0678A155047804F0F4
:103CD0001F050124AC4005786D11AD0005F1E0250C
:103CE000C5F8004109E0047804F01F050124AC4048
:103CF000044D0678761145F8264070BD0CED00E0C5
:103D000000E400E080E100E002490143024A116062
:103D1000704700000000FA050CED00E070B50024CB
:103D20000EE00021204600F0C0F8002504E000204D
:103D300000F060F9681CC5B2802DF8DB601CC4B2CD
:103D4000082CEEDB70BD000008B50121082000F052
:103D500051FA10208DF8030003208DF80200802016
:103D6000ADF8000069460948FFF70EFD4FF480707A
:103D7000ADF8000069460548FFF706FD012000F098
:103D80000BF9012000F016F908BD0000000C0140FD
:103D900070B50446002511E0C4F3C01000F00AF924
:103DA00002F0EAF9012000F0F7F802F0E5F900204E
:103DB00000F0F2F86006040E681CC5B2082DEBDBBB
:103DC000012000F0E9F802F0D7F9002000F0E4F853
:103DD00070BD10B5012000F0EDF8012000F0DCF816
:103DE00002F0CAF9002000F0E5F802F0C5F9002061
:103DF00000F0D2F810BD10B5002000F0DBF8012073
:103E000000F0CAF802F0B8F9012000F0D3F802F08F
:103E1000B3F910BD10B5FFF797FFAE2000F0DAF848
:103E2000D52000F0D7F8802000F0D4F8A82000F0CA
:103E3000D1F83F2000F0CEF8D32000F0CBF80020DE
:103E400000F0C8F8402000F0C5F8A12000F0C2F84A
:103E5000C82000F0BFF8DA2000F0BCF8122000F013
:103E6000B9F8812000F0B6F8CF2000F0B3F8D920DF
:103E700000F0B0F8F12000F0ADF8DB2000F0AAF877
:103E8000302000F0A7F8A42000F0A4F8A62000F04D
:103E9000A1F88D2000F09EF8142000F09BF8AF20D0
:103EA00000F098F8FFF73AFF10BD70B505460C46D4
:103EB00045F0B00000F08EF8102141EA141000F037
:103EC00089F804F00F0000F085F870BD2DE9F04787
:103ED00004460D4616463746202F01DB7E2F00DDB7
:103EE0002027A7F1200000F0FF086A1ED206110E5D
:103EF000621E5206100EFFF7D8FF4FF000090AE0CD
:103F0000154901EB081111F8090000F073F809F1E7
:103F1000010000F0FF09B9F1080FF1DB6A1ED206BB
:103F2000110E621E012303EB4202D0B2FFF7BDFF68
:103F30004FF000090BE0084901EB081209F10801F4
:103F4000505C00F057F809F1010000F0FF09B9F1E9
:103F5000080FF0DBBDE8F087987400082DE9F04108
:103F600007460E46154600240DB9BDE8F0810CE069
:103F70002A5D3019C1B23846FFF7A8FF601CC4B2F1
:103F80003019C0B2102800DD02E0285D0028EFD112
:103F900000BF00BFE9E7000010B504460CB10120E6
:103FA00000E00020024680210148FFF7CEFC10BD52
:103FB000000C014010B504460CB1012000E00020C7
:103FC00002464FF480710248FFF7BFFC10BD0000AD
:103FD000000C014010B50446FFF7FBFE7820FFF708
:103FE000D7FE0020FFF7D4FE2046FFF7D1FEFFF7F3
:103FF00002FF10BD10B50446FFF7EBFE7820FFF777
:10400000C7FE4020FFF7C4FE2046FFF7C1FEFFF7C2
:10401000F2FE10BD2DE9F05F04460D46164624B1B0
:104020000021304602F04CFF02D80020BDE8F09F8E
:104030002946206802F078FF82462946606802F02F
:1040400073FF8346314602F06FFF8146E16802F05C
:10405000B9FDE060606A80F0004902464946E068C8
:1040600001F0E0FCE0602846216903F0EDF88346AA
:10407000A16802F059FF8146314602F017FE07465B
:1040800025615046E16802F09DFD8146394602F007
:1040900099FD8046206A80F0004902464946404624
:1040A00001F0C0FC8046C4F81C804046BEE700001A
:1040B0002DE9FC5F0446894615461E4624B10021C1
:1040C000304602F0FDFE02D80020BDE8FC9F4946C4
:1040D000206802F029FF01904946606802F024FF41
:1040E0008346314602F020FF8246E16802F06AFD15
:1040F000E060606A80F0004A02465146E06801F0E4
:1041000091FCE0602846616903F09EF80090A06889
:1041100080F0004B5846009902F006FF8246314677
:1041200002F0C4FD074665613846A16903F08CF8CA
:1041300083460F4902F0F8FE8246A16902F042FD73
:10414000A061E168019802F03DFD8246A16902F09C
:1041500039FD8046206A80F0004A024651464046BA
:1041600001F060FC8046C4F81C804046ADE70000CA
:104170009A99193E2DE9F0410446884615461E4697
:10418000069F0CB9BDE8F081C4F800806560A660A8
:104190000020E06020616061A061E06127624FF073
:1041A0007C51384602F0C0FE606200BFEAE700B909
:1041B00070470021C160016141618161C16100BF3F
:1041C000F6E70000014908627047000000000E4257
:1041D0007047000029B1064AD2690243044BDA61F4
:1041E00004E0034AD2698243014BDA617047000060
:1041F0000010024029B1064A92690243044B9A61B9
:1042000004E0034A92698243014B9A6170470000BF
:104210000010024030B500210022002400232D4D63
:104220006D6805F00C0121B1042905D0082923D1BE
:1042300005E0294D056022E0274D05601FE0254D72
:104240006D6805F47012234D6D6805F48034022505
:1042500005EB92421CB9214D554305600BE01D4D05
:104260006D6805F400351DB11C4D5543056002E035
:10427000194D5543056002E0174D056000BF00BFB2
:10428000144D6D6805F0F0010909154D6B5C05686A
:10429000DD4045600F4D6D6805F4E061090A104D81
:1042A0006B5C4568DD4085600A4D6D6805F46051C2
:1042B000C90A0B4D6B5C4568DD40C560054D6D68F6
:1042C00005F44041890B074D6B5CC568B5FBF3F500
:1042D000056130BD0010024000127A0000093D0067
:1042E0000000002010000020704710B500F002F818
:1042F00010BD00000CB5002001900090334800680C
:1043000040F480303149086000BF3048006800F454
:10431000003000900198401C0190009818B9019855
:10432000B0F5A06FF1D12948006800F4003010B159
:104330000120009001E0002000900098012843D166
:104340002348006840F010002149086008460068D2
:1043500020F0030008600846006840F00200086092
:104360001A4840681949486008464068486008464D
:10437000406840F4806048600846406820F47C1043
:1043800048600846406840F4E81048600846006805
:1043900040F08070086000BF0C48006800F00070BA
:1043A0000028F9D00948406820F003000749486018
:1043B0000846406840F00200486000BF034840687B
:1043C00000F00C000828F9D10CBD000000100240DC
:1043D000002002407047000010B51348006840F00C
:1043E00001001149086008464068104908400E491C
:1043F0004860084600680E4908400B4908600846B6
:10440000006820F4802008600846406820F4FE0020
:1044100048604FF41F008860FFF767FF4FF00060AF
:104420000449086010BD0000001002400000FFF8C1
:10443000FFFFF6FE08ED00E010B50121054800F091
:104440004DF828B10121034800F006F8FFF72EFBD4
:1044500010BD000000080040CA430282704721B12D
:10446000028842F00102028004E002884FF6FE73E7
:104470001A400280704731B1B0F8442042F4004243
:10448000A0F8442005E0B0F84420C2F30E02A0F8E2
:1044900044207047F0B50C4615461E460021002208
:1044A00000230189028B038C4FF6F87739402143B2
:1044B0004FF6FC473A4040F201173A434FF6DD779A
:1044C0003B404FF6FF7707EA06172F433B43018136
:1044D00002830384F0BD0146888C704730B50246E4
:1044E000002000230024158A05EA0103958905EAC6
:1044F000010413B10CB1012000E0002030BD1AB15D
:1045000083890B43838102E083898B4383817047D6
:1045100070B5002400220023058C4FF6FE7635404E
:104520000584028C8388048B4FF68F752C40B51E52
:104530002C400D882C43751E2A400D892A434D8836
:104540002A43144DA8420BD0134DA84208D0134D56
:10455000A84205D0124DA84202D0124DA84213D154
:104560004FF6F7752A404D892A434FF6FB752A40CE
:104570008D882A434FF6FF652B404FF6FF552B40A1
:104580008D892B43CD892B4383800483CD888586F9
:10459000028470BD002C0140003401400040014005
:1045A000004401400048014070B50024002200236F
:1045B000058C4FF6EF7635400584028C8388048B9A
:1045C00048F6FF752C404FF6FF452C400D884FF6FE
:1045D000FF7606EA05252C434FF6DF752A400D8944
:1045E00006EA05152A434D8806EA05152A43154DA6
:1045F000A84202D0144DA8421DD14FF67F752A4023
:104600004D894FF6FF7606EA05152A434FF6BF752A
:104610002A408D8806EA05152A434FF6FF352B40C0
:104620004FF2FF752B408D8906EA85052B43CD8916
:1046300006EA85052B4383800483CD8805870284A1
:1046400070BD0000002C01400034014000210180B9
:1046500041808180C180018141818181C181704718
:1046600081867047018770478184704700220288E5
:104670001D4B98420ED01D4B98420BD0B0F1804F8D
:1046800008D01B4B984205D01A4B984202D01A4BC7
:10469000984204D14FF68F731A404B881A43174B38
:1046A000984207D0164B984204D04FF6FF431A4069
:1046B000CB881A4302808B8883850B8803850A4B3D
:1046C00098420BD0094B984208D00E4B984205D027
:1046D0000D4B984202D00D4B984201D10B7A0386C4
:1046E0000123838270470000002C01400034014008
:1046F0000004004000080040000C00400010004092
:1047000000140040004001400044014000480140C6
:104710001FB501210420FFF75DFD0020ADF80A0060
:10472000ADF8060040F2E730ADF808004720ADF8DC
:10473000040000208DF80C0001A91348FFF796FF34
:10474000012211461048FFF7DAFE01210E48FFF75B
:1047500083FE4FF4A060FFF7D7FA1E208DF800000B
:1047600001208DF8030002208DF8010000208DF853
:1047700002006846FFF790FA002004490860012112
:104780000148FFF76CFE1FBD000800406C000020D0
:1047900010B540F225511D4800F05BF810B31B48DE
:1047A00000F012F9C4B21A48008800F40040C8B9F9
:1047B0001748008800F4804060B10A2C03D0002024
:1047C0001349088020E01248008840F40040104956
:1047D000088019E00D2C06D10D48008840F4804077
:1047E0000B49088010E00A480088C0F30D00094911
:1047F0000C5407480088401C05490880084600887A
:10480000C72801DD0020088010BD000000380140ED
:10481000180000209400002010B5FEF7FBFB10BD2F
:1048200021B1828942F40052828104E082894DF6EE
:10483000FF731A408281704702460020B1F5007F65
:1048400000D100BF13880B400BB1012000E0002015
:10485000704770B50246002400230025002040F672
:104860006A16B14200D100BFC1F3421501F01F0327
:10487000012606FA03F3012D02D19689334006E0A2
:10488000022D02D1168A334001E0968A33400C1281
:10489000012606FA04F41688344013B10CB1012045
:1048A00000E0002070BDF0B503460024002600257E
:1048B000002040F66A17B94200D100BF1846C1F384
:1048C000421401F01F06012707FA06F5012C01D159
:1048D0000C3004E0022C01D1103000E014301AB189
:1048E00007682F43076002E00768AF430760F0BD29
:1048F0002DE9F04786B005460E460024A24600BFCB
:10490000A1460027B08900B100BF2F462C8A4CF683
:10491000FF700440F08804432C82AC894EF6F310FB
:104920000440B08831890843718908430443AC814D
:10493000AC8A4FF6FF400440B0890443AC8201A822
:10494000FFF768FC1F48874202D1DDF810A001E0A4
:10495000DDF80CA0A88900F4004040B10AEBCA00C1
:1049600000EB0A1031684900B0FBF1F807E00AEBF0
:10497000CA0000EB0A1031688900B0FBF1F864202E
:10498000B8FBF0F004012009642101FB1089A8891B
:1049900000F4004040B1322000EBC900B0FBF1F060
:1049A00000F00700044308E0322000EB0910642106
:1049B000B0FBF1F000F00F0004432C8106B0BDE81D
:1049C000F08700000038014001468888C0F30800E5
:1049D0007047C1F3080282807047042001F058F844
:1049E000490050EAC12018BF04204A0D18BF40F00A
:1049F000010040F2FF72B2EB515F08BF40F00200CD
:104A0000012808BF052070474100080218BF042094
:104A10000A0E18BF40F001004FF07F4232EA010158
:104A200008BF40F00200012808BF0520704740F28F
:104A3000013200204FF0E04102F0B2BC024A0020F7
:104A4000110702F0ADBC000001FDFFFF012102F0E3
:104A5000D5BC02F0B7B80021084602F027B96FF0C4
:104A60005E01080702F0CABC10B50446D1E9000196
:104A700000F002F8206010BDF8B504460D466A4605
:104A800001F030F800987E30009000281EDC0022F3
:104A900013462046294601F067FF17D0002140F653
:104AA00008004FF0000006462046294601F016FF98
:104AB000044640F6080006EA00014FF0000034F01A
:104AC000004004BF0220FBF742FE29E00098FF28C7
:104AD00028DB002108464FF0000000F440060022C9
:104AE00013462046294602F00BF88CBF002501250D
:104AF0000220FBF72CFE4FF0FF4446B1002D0CBF07
:104B00004FF400004FF48000B04218BF084C04215D
:104B100008464FF00000002D04BF84F00040F8BDAF
:104B20002046F8BD20462946BDE8F84001F0D6BE33
:104B3000FFFF7F7F10B504460A46D4E900031946FB
:104B400001F014FAC4E9000110BD30380A2801D27E
:104B50000120704700207047014600BF70470146A2
:104B6000002902DA484200B270470846FCE70146D5
:104B7000002903DD082901DA08207047002905DA39
:104B800011F1080F02DD6FF00700F6E70846F4E7C1
:104B90002DE9F04104464FF00E4000EB4400B0F127
:104BA000506F204655D84FF0FC41B1EB440F1CD25A
:104BB00024F000404FF07E5102F0B3FA4FF0FF3185
:104BC00002F01CFC054601F041FD14F0004F1DBF32
:104BD0002F4F304E80F000402F4F08BF2F4E4FF028
:104BE000404102F0A1F9044605E000273E46014697
:104BF00002F09AF905462A49284602F095F9294912
:104C000001F0E0FF294602F08FF9274901F0DAFFB1
:104C1000294602F089F9254901F0D4FF294602F01E
:104C200083F9234901F0CEFF80462946204602F051
:104C30007BF9414602F078F905463146204601F0FD
:104C4000C1FF294601F0BEFF3946BDE8F04101F041
:104C5000B9BF4FF0E441B1EB440F08D9FFF7D4FEE0
:104C6000042808BFFFF7FBFE2046BDE8F0814FF0A7
:104C70007F41B1EB440F03D2BDE8F041FFF7E6BE40
:104C80000120FBF764FDBDE8F041FFF7E4BE000042
:104C90000000C9BF22AAFDB90000C93F22AAFD3900
:104CA00024FE1C3DC78AD83C1E67383D1B93993DA6
:104CB000AFAA2A3E2DE9F0474FF0684202EB4003CD
:104CC0000C460546B3F1654F3CBF02EB4102B2F121
:104CD000654F7CD2C0F3C753C1F3C7529A1A1B2A3F
:104CE00006DD10F0004F14BF76487748BDE8F08726
:104CF00012F11A0F17DA11F0004F06D010F0004F22
:104D00000CBF72487248BDE8F0872146284601F082
:104D1000CDFF0446FFF778FE042808BFFFF79FFE8B
:104D20002046BDE8F0874200B2EB410F25D910F0D4
:104D3000004F19BF674F684E684F694E224685F095
:104D4000004415460A4680F0004110460A1A5200F7
:104D5000B2F1807F40D248406249DFF88CA110F068
:104D6000004F18D04FF03F48384602F06DFA074622
:104D70005146304602F068FA17E011F0004F04BFC8
:104D800000263746E2D010F0004F19BF574F584E5B
:104D9000584F594EDAE74FF07C58384601F012FF71
:104DA00007465146304601F00DFF0646414628466B
:104DB00002F0BAF8214601F005FF8246214640463E
:104DC00002F0B2F8294602F0ACF9514600E037E0B3
:104DD00001F06CFF044604E02146284601F066FF1E
:104DE0000446014602F0A0F88046444902F09CF8CF
:104DF000434901F0E7FE414602F096F8414901F0CF
:104E0000E1FE414602F090F83F4901F0DBFE4146E9
:104E100002F08AF83D4901F0D5FE0546414620469C
:104E200002F082F8294602F07FF8314601F0CAFE0E
:104E3000214601F0C7FE3946BDE8F04701F0C2BE89
:104E40004FF07F42B2EB400F28BFB2EB410F03D2CD
:104E5000BDE8F047FFF7FDBD40EA01035B0008BF76
:104E600044F0FF410AD0B2EB400F08BFB2EB410F54
:104E700006D125F0804024F0804105460C4629E704
:104E8000B2EB400F12BF5FEA410245F0FF4004F071
:104E900000413FF41FAF4A0092EA40033FF51AAFCA
:104EA000002AACBF4FF09F464FF03E56314602F00D
:104EB0003BF805463146204602F036F804462846BF
:104EC000214607E7DB0FC9BFDB0FC93FDB0F4940B6
:104ED000DB0F49C00000C9BF22AAFDB90000C93FCD
:104EE00022AAFD390060ED3EC30ACE37000049C05A
:104EF00022AA7DBA0000494022AA7D3A2DAD65BDA7
:104F00008FB8D53D0FB511BE61C84C3EA8AAAABE48
:104F10002DE9F04104460D4616461F462E48047002
:104F200001202E4908702E48002101608180002058
:104F30002C4908702C4908702DB100F0BDF85020A4
:104F4000FEF7AEF802E0FA20FEF7AAF8304600F0CD
:104F5000F0FC20B9002020490870BDE8F081032151
:104F6000B42000F0F8FC18B900201B490870F4E7E1
:104F700003201A49087000F04DFB042017490870FF
:104F800044F62061082000F065F818B900201249A5
:104F90000870E2E749F64041022000F05BF801208A
:104FA0001049087005200D49087040F2DC51384660
:104FB00000F0A8FC38B900200A4908700A490870B6
:104FC00005490870C9E7852007490870062003498C
:104FD00008700120C1E700001C0000203100002003
:104FE0001E000020300000201D00002070B5064685
:104FF0000D4614462946304601F062FF01D228468C
:1050000070BD2146304602F05BF801D22046F7E73A
:105010003046F5E710B5002415E000F011F90C4911
:1050200009784906080E00F0B3F800F04BF918B9FA
:1050300000F026F9012010BD00F022F90120FEF752
:105040002FF8601CC4B2032CE7D30020F3E7000064
:105050001C00002030B585B005460C46142168467A
:10506000FBF704FBFD208DF800008DF80150E0B245
:105070008DF80500200A8DF80600200C8DF8070039
:10508000200E8DF8080011226946022000F020FB56
:1050900005B030BD7CB50446002509E0694601A88D
:1050A000FDF77CFC10B90220FDF7FAFF681CC5B2C1
:1050B000A542F3DB7CBD000010B54FF480410748EA
:1050C000FEF73FFC0A20FDF7EBFF4FF48041034859
:1050D000FEF739FC5020FDF7E3FF10BD000C014046
:1050E000002002E000BF411CC8B2FF28FADB704775
:1050F00070B5002400F0CAFA002523E04FF4805177
:105100001548FEF71EFCFFF7EBFF4FF480511248E5
:10511000FEF719FC00F01AF930B94FF480510E482F
:10512000FEF70FFC204670BD6006040E4FF40051E0
:105130000948FEF7FDFB08B144F00104FFF7D0FF7A
:10514000681CC5B2082DD9DB4FF480510248FEF728
:10515000F8FB2046E7E70000000C014010B500F026
:10516000A5FA4FF400510948FEF7EBFB4FF48051CC
:105170000648FEF7E8FB00F0E9F8FFF7B1FF4FF44F
:1051800080510248FEF7DDFB10BD0000000C01401D
:1051900070B5044600F08AFA4FF480511A48FEF7C1
:1051A000D0FBFFF79DFF00252AE004F0800028B126
:1051B0004FF400511448FEF7C6FB04E04FF40051D1
:1051C0001148FEF7BEFB6006040EFFF789FF4FF49F
:1051D00080510D48FEF7B7FB00F0B8F828B94FF43E
:1051E00080510948FEF7ADFB70BDFFF779FF4FF422
:1051F00080510548FEF7A5FBFFF772FF681CC5B29A
:10520000082DD2DB00BFEFE7000C014010B500F025
:105210004DFA4FF400510948FEF795FB4FF48051C9
:105220000648FEF790FB00F091F8FFF759FF4FF4A6
:1052300080510248FEF785FB10BD0000000C0140C4
:1052400010B500F033FA4FF400510C48FEF77BFB29
:105250004FF480510948FEF776FB00F077F8FFF72E
:105260003FFF4FF400510548FEF76BFBFFF738FF97
:105270004FF480510148FEF764FB10BD000C014063
:1052800010B500F013FA4FF480510D48FEF759FBAA
:105290004FF400510A48FEF754FBFFF721FF4FF48B
:1052A00080510748FEF74FFB00F050F8FFF718FF5A
:1052B0004FF400510248FEF746FBFFF711FF10BD07
:1052C000000C014010B5002400F0E0F94FF400514B
:1052D0001D48FEF738FB4FF480511B48FEF733FBA7
:1052E00000F034F840B94FF480511748FEF729FB1D
:1052F00000F0DCF9012010BDFFF7F2FE10E0601CA9
:1053000080B20446B0F5966F08DB4FF480510E482A
:10531000FEF717FB00F0CAF90120ECE7FFF7E0FE0B
:105320004FF400510848FEF703FB0028E7D14FF483
:1053300080510548FEF705FBFFF7D2FE00F0B6F9F5
:10534000FFF7CEFE0020D6E7000C014010B5002488
:1053500009E0601C80B20446B0F5166F01DB002046
:1053600010BDFFF7BDFE4FF480510348FEF7E0FA91
:105370000028EED00120F3E7000C01402DE9F047B2
:1053800005460E464FF00008092E02D20020BDE867
:10539000F08778480078FB2801D00020F7E7052443
:1053A000E1E07448075D74480770012F27D104F1CC
:1053B0000A00B04223D86F4A211D501800F022F98C
:1053C0008146082100F0DCF828606A4AA11D5018C7
:1053D00000F018F98146082100F0D2F86860654AAB
:1053E00004F10801501800F00DF98146082100F081
:1053F000C7F8A860B84604F10A0084B2B3E0022FEF
:1054000034D104F10A00B04230D85A4A211D501854
:1054100000F0F8F88246092100F0B2F881465749B9
:1054200001F082FDE860534AA11D501800F0EAF82F
:105430008246092100F0A4F88146504901F074FD2C
:1054400028614C4A04F10801501800F0DBF882464C
:10545000092100F095F88146484901F065FD686131
:105460004FF0010804F10A0084B27CE0082F3BD120
:1054700004F10C00B04237D83E4A211D501800F00C
:10548000C1F881460E2100F07BF82863394AA11D3E
:10549000501800F0B7F881460E2100F071F86863EB
:1054A000344A04F10801501800F0ACF881460E218E
:1054B00000F066F8A8632F4A04F10A01501800F0C2
:1054C000A1F881460E2100F05BF8E862012085F822
:1054D0003C0085F83D00284600F052F94FF00108E5
:1054E00004F10C0084B23EE0052F3BD104F10E0024
:1054F000B04237D81F4A211D501800F083F881466A
:105500000E2100F03DF828631A4AA11D501800F042
:1055100079F881460E2100F033F86863154A04F1EA
:105520000801501800F06EF881460E2100F028F8AE
:10553000A863104A04F10A01501800F063F881468C
:105540000E2100F01DF8E862012085F83C0085F886
:105550003D00284600F014F94FF0010804F10E0058
:1055600084B200E003E0201DB0427FF61AAF00BF16
:1055700040460CE75C01002042000020E12E65421D
:105580002DE9F04105460C46012101FA04F001F035
:1055900083FC0646284601F067FC0746314601F0C9
:1055A00085FBBDE8F081000070B506460D460DB9DB
:1055B000002070BDFFF744FE11490978012202EB7B
:1055C0004101C8B2FFF7E4FDFFF77CFE18B1FFF719
:1055D00057FE0020EDE700240CE0FFF789FD305571
:1055E000601CA84202D2FFF7B9FD01E0FFF70EFEF2
:1055F000601C84B2AC42F0DBFFF742FE0120D8E72A
:105600001C000020014608784A7840EA022000B2D7
:10561000704700003EB5F9208DF8080000208DF895
:1056200009000820FFF736FD1420FDF739FD02229E
:1056300002A9104600F04CF808B900203EBD002435
:105640001AE0694601A8FDF7A9F980B19DF80400A8
:1056500002280CD1BDF80000022808D309480078C0
:10566000F82804D18520084908700120E6E70120C8
:10567000FDF716FD601C84B2B4F5FA6FE1D300208B
:10568000DCE700005C0100201D00002008B54FF49D
:105690000050ADF8000048208DF80300694602482C
:1056A000FEF772F808BD0000000C014008B54FF489
:1056B0000050ADF8000014208DF8030003208DF891
:1056C000020069460148FEF75FF808BD000C014082
:1056D0002DE9F047E0B004468946904608F10406FB
:1056E000B6F5C07F03D9002060B0BDE8F087174849
:1056F00010F804A0005D401C14490855F0B28DF864
:105700000000300A8DF801008DF802408DF803A0EA
:10571000002506E019F80510281D0DF80010681C7A
:10572000C5B24545F6DB00270BE03146684600F080
:1057300051F908B10120D7E70520FDF7B1FC781C2D
:10574000C7B2032FF1D30020CEE700001E000020D7
:1057500010B504460948007800B110BD4CB10020D6
:1057600084F83C00A0612062E06184F83E0084F887
:105770003D00FCF7FDFE00BFEFE700003200002017
:105780002DE9FF5F0446E56A206B0390606B029091
:10579000A06B01904FF08040019901F0C5FB009093
:1057A000019901F0C1FB82464FF04040029901F09F
:1057B000BBFB0090029901F0B7FB8346514601F014
:1057C00043FD81464FF07E5101F0FCF90746294622
:1057D0004FF0804001F0A8FB8346019901F0A4FB43
:1057E00081464FF08040039901F09EFB8346029969
:1057F00001F09AFB8246494601F0E4F980463946B9
:10580000FFF758FA80F000463A49304601F08CFB29
:1058100039490860394801683748006801F014FDCB
:10582000064600F0B7F8A06129464FF0804001F02D
:105830007BFB8346029901F077FB81464FF04040A5
:10584000039901F071FB8346019901F06DFB8246DB
:10585000494601F0B7F980464FF07E522849FFF7DC
:10586000C5FB0746FFF794F980F000462149304612
:1058700001F05AFB60624FF08040029901F054FB46
:105880000090029901F050FB82464FF0404003998E
:1058900001F04AFB0090039901F046FB8346514614
:1058A00001F0D2FC81464FF07E5101F08BF90746A2
:1058B00029464FF0804001F037FB8346039901F001
:1058C00033FB81464FF08040029901F02DFB834667
:1058D000019901F029FB8246494601F073F980469F
:1058E0003946FFF7E7F90646024901F01DFBA062C1
:1058F000BDE8FF9FE12E65422C000020280000201B
:10590000000080BF70B504460D4600260DE020461D
:10591000FCF7DAFE20B194F83C0008B1012070BD1C
:105920000120FDF7BDFB701C86B2AE42EFDB00200C
:10593000F5E770B50446002509E0FFF76BFB08B1F9
:10594000012070BD0520FDF7ABFB681D85B2A542A7
:10595000F3DB0020F5E72DE9F04106460C46002771
:10596000002512E0FFF756FB40B1A54201DA681CA2
:10597000C5B2A54203DB0120BDE8F08100250A2065
:10598000FDF78EFB07F10A0087B2B742EADB002081
:10599000F2E7000010B5044604E00B49204601F090
:1059A00053FC04460949204601F08AFBF5D304E084
:1059B0000549204601F006F904460549204601F054
:1059C0007FFAF5D3204610BD0000B44300003443F5
:1059D000000034C370B505460E46FFF731FC104990
:1059E00009784906080EFFF7D3FBFFF76BFC18B1E7
:1059F000FFF746FC002070BD00240BE0285DFFF798
:105A0000C7FBFFF75FFC18B1FFF73AFC0020F2E795
:105A1000601C84B2B442F1DBFFF732FC0120EAE7FC
:105A20001C00002070B506460D4614462946304637
:105A300001F046FA01D2284670BD2146304601F0F9
:105A40003FFB01D22046F7E73046F5E770B5044644
:105A50000D462A460DA12046FAF738FD012800D14F
:105A600070BD214608782D2802D008782B2800D157
:105A7000491C0878302806DB0878392803DC002028
:105A800028600120ECE70020EAE70000256600001E
:105A90000446204600F014F800BF0748006800F4F0
:105AA000E06006490843001D03490860BFF34F8FBB
:105AB00000BF00BFFEE700000CED00E00000FA05AB
:105AC00010B5044601214FF0C050FEF783FB0120C2
:105AD000FEF778FBE0B240F425410420FCF73AFDE4
