:020000040800F2
:10000000202C002045010008011B0008B70C000847
:10001000911A00086F0A0008832A000800000000F7
:100020000000000000000000000000008D1F00081C
:10003000850B000800000000351E0008A120000804
:100040005F0100085F0100085F0100085F01000810
:100050005F0100085F0100085F0100085F01000800
:100060005F0100085F0100085F0100085F010008F0
:100070005F0100085F0100085F0100085F010008E0
:100080005F0100085F0100085F0100085F010008D0
:100090005F0100085F0100085F0100085F010008C0
:1000A0005F0100085F0100085F0100085F010008B0
:1000B0005F0100085F010008052100085F010008DA
:1000C0005F0100085F0100085F0100085F01000890
:1000D0005F0100085F010008392600085F01000881
:1000E0005F0100085F0100085F0100085F01000870
:1000F0005F0100085F0100085F0100085F01000860
:100100005F0100085F0100085F0100085F0100084F
:100110005F0100085F0100085F0100085F0100083F
:100120005F0100085F0100085F0100085F0100082F
:10013000DFF80CD000F038FC0048004759430008B5
:10014000202C00200648804706480047FEE7FEE7CF
:10015000FEE7FEE7FEE7FEE7FEE7FEE7FEE7FEE777
:10016000A520000831010008F0B480EA0102D40F94
:100170004200B2EB410F02D20246084611464A0045
:1001800042D0C30DDDB2C1F3C752AD1A202D35DA0E
:10019000C1F3160141F4000204B15242C5F1200638
:1001A00002FA06F12A411044B3EBD05F23D0C4B168
:1001B000012DA0EBC35009DCF0BC4FF0004202EA75
:1001C000C352DBB200F5000000F01BBB400000F1A1
:1001D000807000EBC350A0F1807040EAD1704900FC
:1001E00009E0490841EAC071A0EBC35000F50000E6
:1001F000400800EBC350F0BC00F0FABA61420122A3
:1002000002EB4101001BF6E7F0BC704781F00041B2
:10021000AAE780F00040A7E780EA010210B502F0EB
:100220000043400022D04A001FD0010E01EB1261B2
:10023000C0F35600C2F3560240F4000042F400023C
:10024000A0FB022000047F39140400D0401C50EAB7
:10025000124001D44000491EC2B20C0604EBD0107B
:10026000401C4008802A02D003E0002010BD20F08E
:100270000100002900DA0020184310BD30B480EAE4
:10028000010202F0004530F0004221F0004013D09E
:1002900090B1C30DD40DC2F31601C0F31600E41AD9
:1002A00041F4000140F400027D34914201D3641C0A
:1002B00000E04900002C02DA30BC002070474FF407
:1002C00000000023914201D3891A034340084FEAFA
:1002D0004101F7D151B1914202D14FF0004105E007
:1002E00002D24FF0010101E06FF0010103EBC450B5
:1002F000284430BC00F07CBA2DE9FE4F804681EAEC
:100300000300C00F0C46009021F0004123F000458F
:10031000B8EB0200A94105D24046214690461C4652
:100320000B46024623F00040104347D0270DC7F389
:100330000A00C3F30A510290401A019040286BDA78
:10034000C3F3130040F4801B0098924620B10023B1
:10035000D2EB030A63EB0B0B01985946C0F1400244
:10036000504600F014FA06460D4650465946019A8A
:1003700000F02CFA10EB08006141002487EA1152CA
:1003800084EAE7731A4340D0009A62B3019A012AC3
:100390004FEA075215DC001B61EB02014FF00042EF
:1003A00002EA0752CDE90042001C41F580113246B5
:1003B0002B4600F063FA03B0BDE8F08F40462146BB
:1003C000F9E7001B61EB0201001C41F580130018E6
:1003D0005B412018A2F5001747EB030140EAD570F6
:1003E000B6196D4111E06D084FEA360645EAC07551
:1003F0004FEA0752001B61EB0201001C41F580111E
:1004000049084FEA30000019514132462B4603B0EB
:10041000BDE8F04F00F023BA00980122400000230D
:10042000D0EB020263EBE073009821464FEAE074E0
:10043000B8EB000061EB0401E9E783F000435BE700
:1004400081F0004158E72DE9FE4F81EA030404F0F2
:10045000004421F0004100944FF0000B23F00043D2
:1004600050EA01045ED052EA03045BD0C3F30A549D
:10047000C1F30A552C44A4F2F3340194A0FB0254B6
:10048000C1F3130141F48011C3F3130343F4801348
:1004900001FB024400FB034E840A970A44EA81549C
:1004A00047EA8357A4FB076802958D0A05FB078579
:1004B0004FEA932C04FB0C542705029D4FEA065883
:1004C00047EA1637B5EB08056EEB070C870E920E60
:1004D00047EA811742EA8312A7FB0201B6EB0B0140
:1004E00064EB00042B0D43EA0C335E1844EB1C5004
:1004F000DA465146E7FB0201C5F313044FEA0B331A
:1005000043EA14534FEA0432019C43EA0603A4F180
:100510000C040294009CCDE900B400F0AFF903B0E4
:10052000BDE8F08F00200146F9E72DE9F04D81EAA2
:10053000030404F0004B21F0004514464FF0000A7C
:1005400023F0004150EA050220D054EA01021DD0F8
:10055000C5F30A570246C5F31303C1F31300C1F3F1
:100560000A5640F4801543F48013A7EB0608101BCD
:10057000D64608F2FD3873EB050002D308F10108F6
:1005800001E092185B41B8F1000F03DA0020014648
:10059000BDE8F08D00204FF48011064684460EE041
:1005A000171B73EB050705D3121B63EB050306430B
:1005B0004CEA010C49084FEA300092185B4150EABE
:1005C0000107EDD152EA030012D082EA040083EA67
:1005D0000501084305D0101BAB4106D201220023C0
:1005E00006E000224FF0004302E06FF001025310DA
:1005F0001AEB06004CEB085110EB0A0041EB0B0123
:10060000BDE8F04D00F02BB9C10F80EAE07008445E
:10061000CA079623002100F0F4B896230022114661
:1006200000F0EFB80EB5C10F80EAE0700844CA07C9
:10063000002140F233438DE80E000A460B4600F0DD
:100640001DF903B000BD00F0004220F00040C10DD4
:10065000C0F3160040F400007F2901DA0020704743
:10066000962903DCC1F19601C84001E09639884023
:10067000002AF4D04042704700F0004230F00040C1
:100680000AD0C10D01F56071C0F3160042EA0151B4
:10069000C20840071143704700200146704701F02F
:1006A000004330B421F0004150EA010206D00A0DA7
:1006B000A2F56072C1F31301002A02DC30BC0020F5
:1006C0007047440F44EAC104C100E01830BC00EB9D
:1006D000C25000F08DB80000002801DBC0F10040DE
:1006E000002901DBC1F1004181427047002801DB94
:1006F000C0F10040002901DBC1F100418842704790
:1007000030B50B46014600202022012409E021FAE1
:1007100002F59D4205D303FA02F5491B04FA02F5DE
:100720002844151EA2F10102F1DC30BD2DE9F05F75
:100730000546002092469B46884606468146402450
:100740001BE0284641464746224600F02FF8534614
:100750005A46C01A914110D311461846224600F05D
:1007600016F82D1A67EB01084F462246012000219A
:1007700000F00DF817EB00094E41201EA4F1010412
:10078000DFDC484631462A464346BDE8F09F202A32
:1007900004DB203A00FA02F1002070479140C2F1D8
:1007A000200320FA03F3194390407047202A04DB0A
:1007B000203A21FA02F00021704721FA02F3D040DA
:1007C000C2F120029140084319467047202A06DBF7
:1007D000CB17203A41FA02F043EAE07306E041FA0F
:1007E00002F3D040C2F120029140084319467047FD
:1007F0000029A8BF7047401C490008BF20F0010035
:10080000704710B4B0FA80FC00FA0CF050EA010412
:1008100004BF10BC704749B1CCF1200421FA04F4A4
:1008200011FA0CF118BF012121430843A3EB0C017D
:10083000CB1D4FEA00614FEA102042BF002010BCE0
:10084000704700EBC35010440029A4BF10BC704790
:10085000401C490008BF20F0010010BC704710B5D3
:10086000141E73F1000408DA401C41F100019218D3
:100870005B411A4301D120F0010010BD2DE9F04D7C
:1008800092469B4611B1B1FA81F202E0B0FA80F2D1
:1008900020329046FFF77BFF04460F4640EA0A00ED
:1008A00041EA0B0153465A46084313D0114653EA16
:1008B000010019D0C8F140025046FFF777FF054606
:1008C0000E46504659464246FFF761FF084305D0A1
:1008D000012004E020463946BDE8F08D00200543A4
:1008E00046EAE0762C4337430A986305E40AA0EB16
:1008F00008000022FD0A44EA47540A3002D50020CD
:100900000146E9E7010510196941DDE908450019CB
:100910006941BDE8F04DA2E770B521F00043034303
:100920000CD0C1F30A550024D5EB040564EB040395
:10093000D617AD1AB34102DB0020014670BD201866
:1009400041EB025170BDC1F30A52C1F3130140F2F1
:10095000FF3341F480119A4202DA002001467047C9
:1009600040F233439A42A2F2334202DC5242FFF792
:100970001DBFFFF70CBF000030B5041E71F100046D
:1009800004DB4FF00044404264EB0101141E73F19C
:10099000000405DB1C464FF00043524263EB0403A6
:1009A000994208BF904230BD064C074D06E0E06812
:1009B00040F0010394E8070098471034AC42F6D3A6
:1009C000FFF7BAFB98490008B84900082DE9F04D37
:1009D00000231A461B1A8A4103DB00200146BDE8AA
:1009E000F08DC1F30A52C1F3130141F480154FF0A9
:1009F000000BD10702D100186D41521E002704469A
:100A000040F2FF11384601EB620A3E46804602463C
:100A100000204FF48011FFF7C9FEC2197141BB18C5
:100A200046EB0100B4EB030C75EB000C04D3E41AA5
:100A300065EB000517460E46241908F101006D41CB
:100A400080463428E3DDF91946EB0600091BA8416E
:100A500003D24FF0FF32134601E0002213461BEB96
:100A6000070046EB0A51BDE8F04DFFF7F8BE00BFA6
:100A7000FEE7816101220277704710B5044600202D
:100A8000A082E082A061207701F0FAF810BD00009A
:100A90002DE9FE4F04460F4690469946207F18B92F
:100AA00039462046FFF7E5FF3846A169FFF7AEFB60
:100AB000009003F0B1FE0546E06880F00040294652
:100AC0000090FFF709FE05D22846E168FFF704FE13
:100AD00000D2002529466068FFF79EFB0646A06805
:100AE00080F00040009001463046A26803F08AFA88
:100AF000064631462068FFF789FB029031462068A0
:100B0000FFF732FB01901D48A0F800801C48A0F8B8
:100B100000900298FFF797FD00B2009001F034F8C2
:100B200082460198FFF78FFD00B2009001F04AF86D
:100B30008346B4F91000AAEB000AB4F9100083440C
:100B4000B4F91220B4F914100FFA8AF003F0A6FDDC
:100B5000A082B4F91220B4F916100FFA8BF003F04A
:100B60009DFDE082A18A0C980180E18A0D980180A8
:100B70000E9805600F980660BDE8FE8F54000020B7
:100B80005600002070472DE9F0410246002500265E
:100B9000002000230024002791F803C00CF00F056B
:100BA00091F803C00CF0100CBCF1000F03D091F8C9
:100BB00002C04CEA050591F800C0BCF1000F31D02D
:100BC000146800202BE04FF0010C0CFA00F3B1F890
:100BD00000C00CEA03069E4220D183004FF00F0CA8
:100BE0000CFA03F7BC4305FA03FC4CEA040491F841
:100BF00003C0BCF1280F06D14FF0010C0CFA00FC29
:100C0000C2F814C00AE091F803C0BCF1480F05D146
:100C10004FF0010C0CFA00FCC2F810C0401C082870
:100C2000D1D31460B1F800C0BCF1FF0F34DD5468BB
:100C300000202EE000F1080C4FF0010808FA0CF338
:100C4000B1F800C00CEA03069E4221D183004FF0A8
:100C50000F0C0CFA03F7BC4305FA03FC4CEA04043E
:100C600091F803C0BCF1280F05D100F1080C08FA77
:100C70000CF8C2F8148091F803C0BCF1480F07D1FA
:100C800000F1080C4FF0010808FA0CF8C2F81080C7
:100C9000401C0828CED35460BDE8F08102460020F5
:100CA00093680B400BB1012000E0002070474161C8
:100CB00070470161704700BFFEE7000010B50020DB
:100CC0000F4908600F48006820F470000D49086063
:100CD0000846006840F4E000086000200A49C1F8B6
:100CE000B401022003F0EAF901200549086002205E
:100CF00003F0E4F900200449C1F8B00110BD000080
:100D0000B0812142040C01400080214208B501213C
:100D1000082001F0B1F84FF44050ADF80000142065
:100D20008DF8030003208DF8020069460148FFF7A3
:100D30002AFF08BD000C014010B500200F490860D3
:100D40000F48006820F470000D49086008460068EC
:100D500040F4E000086001200A49C1F8B401022013
:100D600003F0ACF9012005490860022003F0A6F960
:100D700000200449C1F8B00110BD0000B08121423B
:100D8000040C01400080214270B50546002417483C
:100D9000006820F47000154908600846006840F4B7
:100DA00080000860002616E000201149086002203B
:100DB00003F084F901200F49C1F8B0016006040E68
:100DC0000B487C38006808B1601CC4B2022003F0F4
:100DD00075F9701CC6B2082EE6DB15B1FFF76EFF81
:100DE00001E0FFF7A9FF204670BD0000040C0140A0
:100DF000B08121420080214270B504461548006848
:100E000020F47000134908600846006840F4E000D0
:100E10000860002010490860002517E0E0090E492D
:100E2000091D08606006040E022003F047F9012046
:100E30000A49C1F8B001022003F040F90020064938
:100E40000860022003F03AF9681CC5B2082DE5DB02
:100E500070BD0000040C0140B0812142008021429D
:100E600010B50F48006820F470000D49086008466E
:100E7000006840F4E000086001200A4908600A495F
:100E8000C1F8B001042003F019F9002005490860F9
:100E9000042003F013F900200349C1F8B00110BD8C
:100EA000040C0140B48121420080214210B50F485A
:100EB000006820F470000D4908600846006840F49E
:100EC000E000086000200A4908600A49C1F8B4013E
:100ED000042003F0F3F80120054908600549C1F832
:100EE000B401042003F0EAF810BD0000040C014036
:100EF000B08121420080214210B5002415480068CD
:100F000020F47000134908600846006840F480002F
:100F1000086001201049086003F0D0F801200F4953
:100F2000C1F8B00103F0CAF80AE0601CC4B2322C68
:100F300003DDFFF7BBFF012010BD012003F0BEF869
:100F40000548803800680028EFD10349091F086070
:100F500000BFF1E7040C0140B4812142008021422E
:100F60002DE9F04706460F46154698460024FFF740
:100F700077FF3046FFF740FFFFF7BEFF3846FFF729
:100F80003BFFFFF7B9FFFFF76BFF711CC8B2FFF71C
:100F900033FFFFF7B1FF00BF0FE0681EA04204D08F
:100FA0000120FFF7F1FE814603E00020FFF7ECFE91
:100FB000814608F80490601CC4B2AC42EDDBFFF738
:100FC00075FF2046BDE8F0872DE9F04180460D46CB
:100FD00016461F460024FFF743FF4046FFF70CFF6D
:100FE000FFF78AFF2846FFF707FFFFF785FF00BFDF
:100FF00006E0385DFFF700FFFFF77EFF601CC4B21C
:10100000B442F6DBFFF752FF0120BDE8F08100009B
:101010000FB59DB0FE4801680068FFF7FDF810901D
:10102000FC480168FA480068FFF7F6F80F90FA48A4
:101030000168F7480068FFF7EFF80E90F74801687D
:10104000F3480068FFF7E8F80D90F248016800687F
:10105000FFF7E2F80C90F0480168EE480068FFF7EF
:10106000DBF80B90ED480168EA480068FFF7D4F818
:101070000A90E94801680068FFF7CEF80990E74850
:101080000168E5480068FFF7C7F80890E348016881
:101090000068FFF7C1F80790E1480068E14908607F
:1010A00008460068E0490968884210D2DE480068B6
:1010B0004FF6FF71081ADB49096808440590FFF7ED
:1010C000ACFADA490690FFF7D9F815900CE0D5484C
:1010D0000068D5490968401A0590FFF79EFAD34980
:1010E0000690FFF7CBF81590CE480068CE4908600F
:1010F00023990846FFF790F8059022990846FFF7D4
:101100008BF8039020990846FFF786F80290039920
:10111000FFF72AF804900599FFF726F8069003F0E8
:1011200097F81C901C992098FFF776F820901C994E
:101130002298FFF771F822901C992398FFF76CF81A
:10114000239026990846FFF767F8059025990846E9
:10115000FFF762F8039024990846FFF75DF80290C4
:101160000399FFF701F804900599FEF7FDFF06903B
:1011700003F06EF81C901C992498FFF74DF824900A
:101180001C992598FFF748F825901C992698FFF799
:1011900043F826900E990A98FFF738F84FF08041EF
:1011A0000690FFF739F81B9008990F98FEF7DCFFBF
:1011B0004FF080410690FFF72FF81A900C99109885
:1011C000FFF724F805900999FFF720F80690079992
:1011D000FEF7CAFF1990904801680068FFF71CF8F5
:1011E00004908E4801680068FFF716F80390049990
:1011F000FEF7BAFF4FF080410590FFF70DF84FF072
:101200007E510690FFF705F8894908608248016819
:1012100080480068FFF700F805907D48006880F07E
:10122000004003907D4801680398FEF7F5FF0490A5
:101230000599FEF799FF4FF080410690FEF7ECFF0D
:101240007B4948607548016872480068FEF7E4FF12
:101250000590714801686E480068FEF7DDFF049054
:101260000599FEF7D3FF4FF080410690FEF7D4FFBB
:101270006F4988606848016866480068FEF7CCFFDF
:1012800005906648016862480068FEF7C5FF049053
:101290000599FEF769FF4FF080410690FEF7BCFF0D
:1012A000644908605B4801680068FEF7B5FF049078
:1012B0005A4801680068FEF7AFFF03900499FEF7F3
:1012C00053FF4FF080410590FEF7A6FF4FF07E518F
:1012D0000690FEF79EFF57494860504801684E4807
:1012E0000068FEF799FF05904948006880F00040CB
:1012F0000390484801680398FEF78EFF0490059913
:10130000FEF732FF4FF080410690FEF785FF494916
:1013100088601A992398FEF77FFF06901999229802
:10132000FEF77AFF05900699FEF770FF189019995D
:101330002098FEF771FF06901B992398FEF76CFF2B
:1013400005900699FEF762FF17901B992298FEF709
:1013500063FF06901A992098FEF75EFF05900699A4
:10136000FEF754FF169000211898FFF7B5F96BD0DF
:1013700000211798FFF7B0F966D000211698FFF703
:10138000ABF97DD02C491898FEF746FF05901599CA
:10139000FEF742FF0690294801680698FEF7E4FE32
:1013A0002649086024491798FEF736FF05901599DD
:1013B000FEF732FF0690224801680698FEF7D4FE39
:1013C0001F4908601C491698FEF726FF05901599DD
:1013D000FEF722FF06901B4801680698FEF7C4FE40
:1013E000184908604FF07C501899FEF715FF0590DA
:1013F0001D99FEF7B9FE0690104801680698FEF7A1
:10140000B3FE1D904FF07C501799FEF705FF1CE0CE
:1014100024000020280000202C00002030000020A4
:1014200064000020400000203C00002000409C465A
:10143000C8000020D40000206F12833A180000205A
:101440001C000020200000201AE005901E99FEF7E5
:101450008BFE0690724801680698FEF785FE1E9086
:101460004FF07C501699FEF7D7FE05901F99FEF7B6
:101470007BFE06906B4801680698FEF775FE1F908C
:1014800069481F990068FEF7C7FE049067481E99D7
:101490000068FEF7C1FE02906548006880F00040D9
:1014A00000901D99FEF7B8FE01900299FEF7AEFE7E
:1014B00003900499FEF7AAFE05901599FEF7ACFE7D
:1014C00006905C4801680698FEF74EFE1490564858
:1014D0001E990068FEF7A0FE049054481F9900680A
:1014E000FEF79AFE0290534801681D98FEF794FE9D
:1014F00001900299FEF738FE03900499FEF786FEEC
:1015000005901599FEF788FE0690494801680698EF
:10151000FEF72AFE1390444801681D98FEF77CFEF2
:10152000049043481F990068FEF776FE02904148F8
:101530001E990068FEF770FE01900299FEF766FEA4
:1015400003900499FEF710FE05901599FEF764FECE
:101550000690364801680698FEF706FE129033485A
:1015600001681D98FEF758FE049031481E990068E6
:10157000FEF752FE02902F481F990068FEF74CFEBE
:1015800001900299FEF7F0FD03900499FEF73EFEEC
:1015900005901599FEF740FE0690234801680698CD
:1015A000FEF7E2FD119011990846FEF735FE059011
:1015B00012990846FEF730FE039013990846FEF78D
:1015C0002BFE019014990846FEF726FE0090019923
:1015D000FEF7CAFD02900399FEF7C6FD0490059937
:1015E000FEF7C2FD069002F033FE1C901C99149881
:1015F000FEF712FE0F4908601C991398FEF70CFEC7
:101600000B4908601C991298FEF706FE074908600E
:101610001C991198FEF700FE0349086021B000BD37
:101620001C00002020000020300000202C000020A2
:1016300028000020240000202DE9F04186B0044657
:10164000224800F051F8214948692149FEF7E4FD9C
:1016500080462049FEF712FE05461C4908691C49D0
:10166000FEF7DAFD80461B49FEF708FE06461749DD
:10167000C8681749FEF7D0FD80461649FEF7FEFD03
:1016800007461248006A1149C969104A92690F4B0E
:101690009B68CDE90132CDE903100C484068009009
:1016A0000A482A46314603683846FFF7B1FC0A4823
:1016B0000068206009480068606009480068A06010
:1016C00008480068E06006B0BDE8F0817C1D00209D
:1016D000DB0F494000003443240000202800002094
:1016E0002C0000203000002010B58CB0044606A964
:1016F00009A802F08BFA2E49099808600A984860F8
:101700000B9888600698C860079808610898486137
:10171000002088616B4603AA642125480C3002F042
:1017200001FB24490398FEF7D7FF1ED221490498F4
:10173000FEF7D2FF19D21F490598FEF7CDFF14D24C
:101740001D480068632810DB1C4900980860019858
:1017500048600298886000201949086019490860AB
:10176000194908601449086008E0134800686428B3
:1017700004DA11480068401C0F490860099820608D
:101780000A9860600B98A0600C4A11680698FEF7F2
:101790003DFDE060094A51680798FEF737FD20617A
:1017A000064A91680898FEF731FD60610CB010BDE3
:1017B000F40000200AD7A33C50000020701D002038
:1017C000180000201C000020200000202DE9F04F10
:1017D0008FB0044600200A90099008900BA8FFF7EC
:1017E0002BFF4FF080400E99FEF716FD00900E99EA
:1017F000FEF712FD83464FF040400D99FEF70CFDB9
:1018000000900D99FEF708FD59460190FEF7FEFC89
:1018100082464FF07E51FEF7A7FC8146FEF72CFF73
:10182000074688464FF080400B99FEF7F5FC019083
:101830000E99FEF7F1FC82464FF080400C99FEF7BE
:10184000EBFC01900D99FEF7E7FC83465146FEF74D
:101850008BFC8146FEF710FF3A464346CDE9020174
:1018600002F056F881F0004105460022494BFEF790
:10187000EAFD4FF0C042484BCDE90401FEF755FEAA
:10188000CDE90601FEF70BFF20604FF080400B9979
:10189000FEF7C2FC03900D99FEF7BEFC82464FF0A6
:1018A00040400C99FEF7B8FC03900E99FEF7B4FC8B
:1018B00083465146FEF758FC8146FEF7DDFECDE932
:1018C000040101F0DDFD81F0004107460022314BAB
:1018D000FEF7B9FD05464FF0C0422F4BFEF725FE3F
:1018E000CDE90601FEF7DBFE60604FF080400D9908
:1018F000FEF792FC83460D99FEF78EFC81464FF071
:1019000040400C99FEF788FC83460C99FEF784FC56
:1019100082464946FEF77AFC06464FF07E51FEF7B6
:1019200023FC0546FEF7A8FECDE902014FF08040FA
:101930000B99FEF771FC82460C99FEF76DFC06468A
:101940004FF080400D99FEF767FC82460E99FEF736
:1019500063FC81463146FEF707FC0546FEF78CFE28
:10196000CDE90001DDE9022301F0D2FF07460022A4
:10197000084BFEF768FD4FF0C042074BCDE904016C
:10198000FEF7D3FDCDE90601FEF789FEA0600FB09A
:10199000BDE8F08F00806640FB21094010B502F0E1
:1019A000DDF8D8B900F03CF84FF07E500E490860E1
:1019B00000200E4908600E4908600E4908600E4973
:1019C00008600E4908600E4908600E4800680E491C
:1019D00008600C4800680D49086010BD0CA001F0BB
:1019E00053F800BFF9E70000240000202800002081
:1019F0002C00002030000020180000201C000020D7
:101A000020000020640000203C0000204000002056
:101A1000494D55204552524F5221210D0A000000D8
:101A20001FB50121042000F007FA184800F0B0FBB0
:101A30006320ADF808004720ADF804000020ADF8A1
:101A40000A00ADF8060001A9104800F099FD012137
:101A50000E4800F07BFB012211460C4800F0C1FC4F
:101A600001210A4800F078FB4FF4C06000F082F8D2
:101A70001E208DF8000001208DF801008DF8020075
:101A80008DF80300684600F03DF81FBD00080040D7
:101A900000BFFEE710B5044624B101210448FFF75A
:101AA00008F903E001210248FFF701F910BD000029
:101AB000000C014038B5044601210D2000F0DCF98E
:101AC00010208DF8030003208DF802003020ADF8BF
:101AD000000069460848FFF756F840F20340ADF8A9
:101AE000000069460548FFF74EF80020FFF7D2FFD7
:101AF000204600F031F938BD00080140000C0140DB
:101B00007047000070B5002100230F22C47804B391
:101B1000154C246804F4E064C4F5E064210AC1F1C2
:101B20000403CA40447804FA03F184781440214342
:101B300009010E4C0678A155047804F01F05012414
:101B4000AC4005786D11AD0005F1E025C5F8004108
:101B500009E0047804F01F050124AC40044D067828
:101B6000761145F8264070BD0CED00E000E400E081
:101B700080E100E002490143024A11607047000021
:101B80000000FA050CED00E02DE9F041044600F0FC
:101B900037F80A48B0F90000FEF736FD0646204641
:101BA000FEF732FD074632463946054800F090F808
:101BB00005462846FEF747FDBDE8F08154000020A9
:101BC000A01D00202DE9F041044600F019F80A4854
:101BD000B0F90000FEF718FD06462046FEF714FD9A
:101BE000074632463946054800F072F80546284651
:101BF000FEF729FDBDE8F08156000020C81D002039
:101C000000B585B01448007808B105B000BD134890
:101C10001349144A144BCDE90132CDE9031013489E
:101C20000023134A13490090134800F037F80B487B
:101C30000B490C4A0C4BCDE90132CDE903100B489E
:101C400000230B4A0B4900900C4800F027F80120B4
:101C50000149087000BFD8E75800002000007A440E
:101C600000007AC400409C4500409CC50AD7233C34
:101C70000AD7A33D0000A040A01D0020C81D0020E1
:101C800010B5FFF7BDFF034800F01EF8024800F052
:101C90001BF810BDA01D0020C81D00202DE9F0413B
:101CA00006AC94E8F010016042608360C4604FF0BD
:101CB0000008C0F8108045618661C0F81C8007628A
:101CC000C0F824C0BDE8F08100210161C161704706
:101CD0002DE9FC5F04460E46174639463046FEF7AE
:101CE00095FA05462846E168FEF796FA824621698C
:101CF000FEF73AFA2061D4E90512206902F06EF984
:101D000020612846E169FEF781FA8246E168FEF724
:101D1000B5FA80464146A068FEF77EFA0190216937
:101D20006068FEF779FA834629462068FEF774FA60
:101D300059460090FEF718FA82460199FEF714FA08
:101D400081464846D4E9081202F048F98146E56127
:101D50004846BDE8FC9F000010B588B0044601214C
:101D600040F6040000F088F84FF44070ADF81C0015
:101D700003208DF81E0018208DF81F0007A92148A8
:101D8000FEF701FF04A800F04DFC4720ADF810005D
:101D90000020ADF81200ADF81440ADF816008DF833
:101DA000180004A9184800F0EBFB684600F0D7FBC8
:101DB0006020ADF800000120ADF802000020ADF871
:101DC0000600ADF8080069460F4800F013FB082133
:101DD0000D4800F05BFB69460B4800F061FB0821F1
:101DE000094800F0AFFB0121074800F0A3F90121E9
:101DF000054800F0B1F90121034800F0B9F908B035
:101E000010BD000000080140002C014010B5044640
:101E10002146024800F0ADFB10BD0000002C01403F
:101E200010B504462146024800F0A5FB10BD000095
:101E3000002C01407047000029B1064AD2690243D4
:101E4000044BDA6104E0034AD2698243014BDA6150
:101E5000704700000010024029B1064A126902438F
:101E6000044B1A6104E0034A12698243014B1A6170
:101E7000704700000010024029B1064A92690243EF
:101E8000044B9A6104E0034A92698243014B9A61D0
:101E9000704700000010024029B1064AD268024390
:101EA000044BDA6004E0034AD2688243014BDA60F3
:101EB000704700000010024030B5002100220024CD
:101EC00000232D4D6D6805F00C0121B1042905D0CA
:101ED000082923D105E0294D056022E0274D056042
:101EE0001FE0254D6D6805F47012234D6D6805F4F3
:101EF0008034022505EB92421CB9214D5543056003
:101F00000BE01D4D6D6805F400351DB11C4D5543AA
:101F1000056002E0194D5543056002E0174D05606C
:101F200000BF00BF144D6D6805F0F0010909154DA3
:101F30006B5C0568DD4045600F4D6D6805F4E06140
:101F4000090A104D6B5C4568DD4085600A4D6D687F
:101F500005F46051C90A0B4D6B5C4568DD40C560F6
:101F6000054D6D6805F44041890B074D6B5CC568F4
:101F7000B5FBF3F5056130BD0010024000127A0098
:101F800000093D008400002094000020704710B537
:101F900000F002F810BD00000CB500200190009088
:101FA0003348006840F480303149086000BF304851
:101FB000006800F4003000900198401C01900098E7
:101FC00018B90198B0F5A06FF1D12948006800F464
:101FD000003010B10120009001E000200090009836
:101FE000012843D12348006840F0100021490860CF
:101FF0000846006820F0030008600846006840F0CA
:10200000020008601A48406819494860084640685C
:1020100048600846406840F4806048600846406870
:1020200020F47C1048600846406840F4E81048609E
:102030000846006840F08070086000BF0C480068E7
:1020400000F000700028F9D00948406820F0030033
:10205000074948600846406840F00200486000BFF9
:102060000348406800F00C000828F9D10CBD0000BE
:102070000010024000200240042808D14FF0E02167
:10208000096941F004014FF0E022116107E04FF0CF
:10209000E021096921F004014FF0E022116170474D
:1020A0007047000010B51348006840F00100114966
:1020B000086008464068104908400E4948600846D4
:1020C00000680E4908400B4908600846006820F483
:1020D000802008600846406820F4FE0048604FF405
:1020E0001F008860FFF753FF4FF00060044908604D
:1020F00010BD0000001002400000FFF8FFFFF6FED8
:1021000008ED00E010B50121084800F059F960B170
:1021100007480068401C064908600121034800F098
:1021200018F80121014800F011F810BD0008004026
:102130006400002021B1028842F08002028004E0A5
:1021400002884FF67F731A4002807047CA430282AA
:102150007047CA430282704721B1028842F00102EF
:10216000028004E002884FF6FE731A400280704736
:1021700031B1B0F8442042F40042A0F8442005E018
:10218000B0F84420C2F30E02A0F8442070470000CB
:1021900010B504466848844208D10121C014FFF7F5
:1021A0007BFE0021E014FFF777FEC4E0B4F1804F1E
:1021B00008D101210846FFF74FFE00210120FFF75B
:1021C0004BFEB8E05D48844208D101210220FFF7B0
:1021D00043FE00210220FFF73FFEACE05848844256
:1021E00008D101210420FFF737FE00210420FFF76A
:1021F00033FEA0E05348844208D101210820FFF7B4
:102200002BFE00210820FFF727FE94E04E48844271
:1022100008D101211020FFF71FFE00211020FFF739
:102220001BFE88E04948844208D101212020FFF7A5
:1022300013FE00212020FFF70FFE7CE0444884427B
:1022400008D101214014FFF727FE00216014FFF799
:1022500023FE70E03F48844209D10121C804FFF702
:102260001BFE00214FF40020FFF716FE63E03A4802
:10227000844209D101210805FFF70EFE00214FF429
:102280008010FFF709FE56E03448844209D101214D
:102290004805FFF701FE00214FF40010FFF7FCFD99
:1022A00049E02F48844208D101214020FFF7D4FDA6
:1022B00000214020FFF7D0FD3DE02A48844208D1AC
:1022C00001218020FFF7C8FD00218020FFF7C4FD19
:1022D00031E02548844208D101218015FFF7BCFD7B
:1022E0000021A015FFF7B8FD25E02048844209D160
:1022F00001210804FFF7D0FD00214FF48030FFF7E3
:10230000CBFD18E01A48844209D101214804FFF7A7
:10231000C3FD00214FF40030FFF7BEFD0BE0154870
:10232000844208D101218804FFF7B6FD00214FF453
:102330008020FFF7B1FD10BD002C014000040040DB
:1023400000080040000C0040001000400014004055
:1023500000340140004C0140005001400054014055
:1023600000180040001C00400020004000400140D8
:102370000044014000480140F0B50C4615461E4699
:102380000021002200230189028B038C4FF6F8778D
:10239000394021434FF6FC473A4040F201173A4397
:1023A0004FF6DD773B404FF6FF7707EA06172F43DE
:1023B0003B43018102830384F0BD0146888C704752
:1023C00030B50246002000230024158A05EA0103E7
:1023D000958905EA010413B10CB1012000E0002049
:1023E00030BD1AB183890B43838102E083898B431B
:1023F0008381704770B5002400220023058C4FF6BE
:10240000FE7635400584028C8388048B4FF68F75E9
:102410002C40B51E2C400D882C43751E2A400D897A
:102420002A434D882A43144DA8420BD0134DA8428D
:1024300008D0134DA84205D0124DA84202D0124D2B
:10244000A84213D14FF6F7752A404D892A434FF61B
:10245000FB752A408D882A434FF6FF652B404FF6C7
:10246000FF552B408D892B43CD892B4383800483DB
:10247000CD888586028470BD002C01400034014067
:102480000040014000440140004801400A4600214C
:10249000018B4FF6F7731940114301837047000019
:1024A00070B5002400220023058C4FF6EF763540EE
:1024B0000584028C8388048B48F6FF752C404FF608
:1024C000FF452C400D884FF6FF7606EA05252C4384
:1024D0004FF6DF752A400D8906EA05152A434D8817
:1024E00006EA05152A43154DA84202D0144DA8420C
:1024F0001DD14FF67F752A404D894FF6FF7606EACB
:1025000005152A434FF6BF752A408D8806EA051542
:102510002A434FF6FF352B404FF2FF752B408D8934
:1025200006EA85052B43CD8906EA85052B43838082
:102530000483CD880587028470BD0000002C014013
:10254000003401400A460021018B4FF2FF7319400D
:102550004FF6FF7303EA02231943018370470021FA
:10256000018041808180C180018141818181C1815F
:1025700070478186704701877047818470470000EB
:10258000002202881D4B98420ED01D4B98420BD062
:10259000B0F1804F08D01B4B984205D01A4B98429F
:1025A00002D01A4B984204D14FF68F731A404B88D1
:1025B0001A43174B984207D0164B984204D04FF657
:1025C000FF431A40CB881A4302808B8883850B888F
:1025D00003850A4B98420BD0094B984208D00E4B0A
:1025E000984205D00D4B984202D00D4B984201D134
:1025F0000B7A03860123838270470000002C014080
:10260000003401400004004000080040000C00407D
:102610000010004000140040004001400044014010
:10262000004801404FF6FF71818000210180C18088
:10263000418001727047000070B540F227714D482B
:1026400000F05AF9F0B14C4800884C49098888429A
:102650000DD04B48484A1288815C464800F00DFA7C
:102660004548008802F07CF84349088005E00022D4
:1026700040F227713F4800F069F940F227713D4868
:1026800000F0D0F840F225513A4800F035F9002822
:102690006FD0384800F0ECF9C4B23A48008802F034
:1026A00033F8054638480088854206D03748354912
:1026B000098844543348058004E035480068401CCC
:1026C00033490860A52C0DD13248007840F08000D5
:1026D0003049087030490878411C2F4A11702F4941
:1026E0000C5437E05A2C1CD12A48007800F08000A6
:1026F00048B10020284908702648007820F04000A2
:102700002449087006E024490878411C224A1170C7
:1027100022490C541F48007820F080001D490870A1
:1027200018E01D490878411C1B4A11701B490C54C4
:102730001848007820F08000164908701748007883
:1027400011460978884205D11248007840F04000CF
:102750001049087010480078642804D10E480078A9
:10276000401E0D49087040F22551024800F05AF809
:1027700000BF70BD004400406E0000206C000020CF
:10278000F01D00207400002076000020F0250020BD
:10279000780000208300002082000020B82700205D
:1027A00070B5044600BFEFF31080064672B60D48C0
:1027B000008801F0D5FF05460B480088854208D007
:1027C0000A480849098844540648058000F020F862
:1027D00004E007480068401C0549086006B962B675
:1027E00070BD00006C0000206E000020F01D002075
:1027F0007000002010B5044604B910BD03E014F8C1
:10280000010BFFF7CDFF20780028F8D100BFF4E7D7
:1028100010B5012240F22771014800F097F810BD71
:102820000044004010B50022002340F66A14A14283
:1028300000D100BF0A1201249440A3B2DC430480FB
:1028400010BD21B1828942F40052828104E0828964
:102850004DF6FF731A4082817047000010B50446A0
:102860002048844209D101218803FFF715FB00218C
:102870004FF48040FFF710FB32E01B48844209D13F
:1028800001214804FFF7E8FA00214FF40030FFF778
:10289000E3FA25E01548844209D101218804FFF7B5
:1028A000DBFA00214FF48020FFF7D6FA18E0104839
:1028B000844209D10121C804FFF7CEFA00214FF468
:1028C0000020FFF7C9FA0BE00A48844208D1012131
:1028D0000805FFF7C1FA00214FF48010FFF7BCFA9A
:1028E00010BD000000380140004400400048004096
:1028F000004C00400050004070B502460024002308
:102900000025002040F66A16B14200D100BFC1F395
:10291000421501F01F03012606FA03F3012D02D12F
:102920009689334006E0022D02D1168A334001E039
:10293000968A33400C12012606FA04F416883440B5
:1029400013B10CB1012000E0002070BDF0B50346CA
:10295000002400260025002040F66A17B94200D165
:1029600000BF1846C1F3421401F01F06012707FA01
:1029700006F5012C01D10C3004E0022C01D11030FD
:1029800000E014301AB107682F43076002E00768BF
:10299000AF430760F0BD00002DE9F04786B0054663
:1029A0000E460024A24600BFA1460027B08900B110
:1029B00000BF2F462C8A4CF6FF700440F088044379
:1029C0002C82AC894EF6F3100440B088318908435C
:1029D000718908430443AC81AC8A4FF6FF40044040
:1029E000B0890443AC8201A8FFF766FA1F4887420A
:1029F00002D1DDF810A001E0DDF80CA0A88900F4F8
:102A0000004040B10AEBCA0000EB0A1031684900EF
:102A1000B0FBF1F807E00AEBCA0000EB0A103168DE
:102A20008900B0FBF1F86420B8FBF0F00401200944
:102A3000642101FB1089A88900F4004040B13220D4
:102A400000EBC900B0FBF1F000F00700044308E020
:102A5000322000EB09106421B0FBF1F000F00F0010
:102A600004432C8106B0BDE8F08700000038014027
:102A700001468888C0F308007047C1F308028280CD
:102A8000704700BFFEE700000FB4054B10B503A967
:102A9000044A029800F05CF910BC5DF814FB0000D9
:102AA000FD4100087C000020490050EAC12018BF09
:102AB00004204A0D18BF40F0010040F2FF72B2EB53
:102AC000515F08BF40F00200012808BF0520704791
:102AD0002DE9F0414F1E00EBC7010446D1E900018A
:102AE00015461E4637F006020DD02A463346FDF73E
:102AF000AAFC7F1E04EBC703D3E90023FDF7FCFB10
:102B000037F00602F1D1022F25D0042F13D0062F63
:102B100018BFBDE8F0812A463346FDF794FCD4E99E
:102B20000A23FDF7E9FB2A463346FDF78CFCD4E97E
:102B30000823FDF7E1FB2A463346FDF784FCD4E980
:102B40000623FDF7D9FB2A463346FDF77CFCD4E982
:102B50000423FDF7D1FB2A463346FDF774FCD4E984
:102B60000223FDF7C9FB2A463346FDF76CFCD4E986
:102B70000023BDE8F041FDF7BFBB0122FDF7CCBE4D
:102B8000FDF7BABB0022134610461146FDF7CDBC37
:102B9000024A00201107FDF7BFBE000001FDFFFF44
:102BA00002E008C8121F08C1002AFAD17047704716
:102BB000002001E001C1121F002AFBD17047000074
:102BC0000149086070470000980000202DE9FF5F70
:102BD00082B00021DDE90430020DDDF840B003438E
:102BE00018D044F61050A2F2FF3242431514119847
:102BF00001281FD0A5EB0B00401C5FEA000A4FF034
:102C000000064E4FDFF83891B046504615D5CAF150
:102C1000000413E0119801244AA3012801D16FEAAE
:102C20000B010298119AC0E90031C0E9024206B0D6
:102C3000BDE8F09FCBF10000DFE704460021404AE9
:102C4000491842EB0450CDE9001012E0E00707D02C
:102C500032463B4640464946FDF7F5FB80468946ED
:102C600032463B4610461946FDF7EDFB06460F4639
:102C70006410002CEAD1DDE90401DDE90023BAF19A
:102C8000000F06DAFDF7DFFB42464B46FDF7DBFBA4
:102C900005E0FDF74AFC42464B46FDF746FC04467C
:102CA0000E460022284BFDF767FE03D84FF0FF3099
:102CB000014607E00022254B20463146FDF71CFB6C
:102CC000FDF741FE102409E0002C0ADB0A22002354
:102CD000FDF72CFD039B30321A55641E50EA0102A9
:102CE000F2D1641C039AC4F111031444119A012A0D
:102CF00003D0012208430DD10AE0084304D000208C
:102D00004FF0110B119072E7A3EB0B056D1E0DE058
:102D10005B4504DD4FF0000205F1010504E003DA34
:102D20004FF00002A5F10105002AECD0029811999C
:102D3000C0E90231C0E9004579E700000000144015
:102D40000000F03F300000000000F0430000E03FD2
:102D50002DE9FF4F95B09B468946064600250FE2B8
:102D6000252877D100242746F84A0121059400E060
:102D7000044316F8013F203B01FA03F01042F7D15B
:102D800030782A2811D06FF02F033078A0F130026C
:102D9000092A16D8059A44F0020402EB820203EBDA
:102DA00042021044761C0590EFE759F8042B059277
:102DB000002A03DA504244F40054059044F002041F
:102DC000761C30782E2816D116F8010F44F0040432
:102DD0002A280DD06FF02F023078A0F13003092B94
:102DE00009D807EB870302EB4303C718761CF3E708
:102DF00059F8047B761C30786C280FD006DC4C2800
:102E000017D068280DD06A2814D104E0742810D097
:102E10007A280FD10DE044F400140AE044F4801441
:102E200001E044F440147278824202D104F5801427
:102E3000761C761C307866280BD013DC582877D0A7
:102E400009DC002875D04528F6D04628F4D047285C
:102E50001AD19DE118E0632835D0642879D065281F
:102E600012D195E1702873D008DC6728F1D0692869
:102E70006FD06E280DD06F2806D1B5E073282CD006
:102E8000752875D0782874D05A46179990476D1CCC
:102E900075E1C4F30250022809D003280DD0D9F8F7
:102EA000001004280DD00D6009F1040967E1D9F87C
:102EB0000010EA17C1E90052F6E7D9F800100D80BA
:102EC000F2E70D70F0E719F8041B8DF800100020F0
:102ED0008DF80100EA46012003E059F804AB4FF0F9
:102EE000FF3061074FF0000102D40DE008F101014D
:102EF0008846B9420FDA8045F8DB1AF80810002935
:102F0000F4D108E008F1010188468142FADB1AF8A1
:102F100008100029F6D105985B46A0EB080721466A
:102F20003846179A00F094FA284400EB080507E0A9
:102F30004DE029E10DE01AF8010B5A461799904728
:102F4000B8F10108F7D25B4621463846179A13E1DB
:102F500042E00A220092C4F302524FF0000A022A11
:102F600008D059F804CB032A4FEAEC710AD00DE0DF
:102F700029E02AE009F1070121F00702F2E802C185
:102F8000914609E00FFA8CFC4FEAEC71042A03D158
:102F90004FFA8CFC4FEAEC71002907DA0A4600214F
:102FA000DCF1000C61EB02012D2202E0220504D5C8
:102FB0002B228DF80420012203E0E20701D0202219
:102FC000F7E7904659E00A2102E010220DE01021B7
:102FD0004FF0000A00910BE010224FF0000A44F07D
:102FE00004040827009203E008224FF0000A009230
:102FF000C4F30252022A05D059F804CB0021032A57
:1030000008D009E009F1070121F00702F2E802C146
:10301000914605E01FFA8CFC042A01D10CF0FF0C4C
:103020004FF00008220728D5702806D0009B83F0B7
:10303000100353EA0A0305D00EE040228DF8042065
:10304000012208E05CEA010206D030228DF804205B
:103050008DF8050002229046009B83F0080353EA96
:103060000A030AD15CEA010201D1620705D53022C8
:103070008DF804204FF001087F1E582804D034A09A
:1030800003900EA802900DE036A0F9E75346604683
:10309000009AFDF74BFB84460398825C0298401E21
:1030A000029002705CEA0100F0D1029806A9081AA9
:1030B00000F1200A600702D524F4803400E00127E3
:1030C000574502DDA7EB0A0000E0002000EB0A01F3
:1030D000009005984144401A0590E00306D45B46F1
:1030E0002146179A059800F0B3F90544002706E039
:1030F00001A85A46C05D179990476D1C7F1C474533
:10310000F6DBE0030CD55B462146179A059800F0E4
:103110009FF9054404E030205A46179990476D1CEA
:103120000099481E00900029F5DC08E002980299F9
:103130005A460078491C0291179990476D1CBAF1C4
:103140000001AAF1010AF1DC65E100000928010093
:10315000303132333435363738396162636465660D
:1031600000000000303132333435363738394142CF
:10317000434445460000000000F058F90544761C21
:10318000307800287FF4ECAD19B02846BDE8F08F08
:10319000620700D4062709F1070222F0070CFCE8B9
:1031A0000223E14603F000485FEA080C02D00FF268
:1031B000702C0DE05FEA045C02D50FF2682C07E08A
:1031C0005FEAC47C02D00FF2602C01E0AFF2700C19
:1031D0004FF0FF3823F00043CDF850C065280CD0E5
:1031E00006DC452809D046281DD047283DD13DE0C2
:1031F000662818D067287ED138E00021112F01DB26
:10320000112000E0781CCDE9000106A90EA8FFF707
:10321000DDFCDDE90F010E9A03910021009207F118
:10322000010A04914DE04FF000400097CDE90110F4
:1032300006A90EA8FFF7CAFCDDE90F0203920E9B58
:1032400011990022DDF80CA00093049211B9791CA9
:1032500000EB010AB7EB0A0004D4C0F1FF3007F11C
:10326000010A0490AAEB0700019044E0012F00DA64
:1032700001270021112F01DD112000E03846CDE9A2
:10328000000106A90EA8FFF7A1FCDDE90F010E9AC7
:103290000391002104910092BA4621070CD40399AE
:1032A000514500DA8A46BAF1010F05DD009AAAF10C
:1032B0000101515C302908D0B84202DA10F1040F44
:1032C00006DA0121CDE9011015E0AAF10101E9E7D3
:1032D000002805DC049901440491AAEB000102E0F6
:1032E000411C514500DD8A460499401A401C01905A
:1032F0004FF000400290200704D40198504501DBB4
:10330000CDF8048000208DF84F0002980DF14F0792
:10331000B0F1004F25D02B200E9002984FF00208FC
:1033200000280CDA404202902D200E9007E00A217E
:103330000298FDF7E5F93031029007F8011DB8F168
:103340000001A8F10108F2DC02980028EFD1791EF3
:103350000E980870307800F0200040F0450007F823
:10336000020D12A8C01B00F107081498007800B1E4
:10337000012000EB0A01019801EBE071059841443E
:10338000401A401E0590E00306D45B462146179A7A
:10339000059800F05DF805441498007818B15A4675
:1033A000179990476D1CE00324D55B462146179A78
:1033B000059800F04DF805441CE00498002807DB50
:1033C000DDE90301884203DD0098405C179901E0C4
:1033D000179930205A469047049805F10105401C82
:1033E00004900198401E019004D12E205A4617994E
:1033F00090476D1CBAF10001AAF1010ADDDC05E07D
:1034000017F8010B5A46179990476D1CB8F1000147
:10341000A8F10108F4DC5B462146179A0598ABE653
:103420002D0000002B000000200000002DE9F041DD
:10343000044600251E461746880404D405E0394694
:103440002020B0476D1C641EF9D52846BDE8F081E8
:103450002DE9F041044600251E469046C80301D5DB
:10346000302700E02027880404D505E0414638468F
:10347000B0476D1C641EF9D52846BDE8F0810000F8
:103480002DE9F04D8D4F21F0004A86B005460C46DF
:10349000BA452ADBAAEB070028430AD088488245B0
:1034A00001DC1AD1CDB106B02846BDE8F04DFFF7DA
:1034B00064BB844A844B2846FCF7C5FF07460E468A
:1034C000824A834B28462146FCF7BDFF06B03A46A8
:1034D0003346BDE8F04DFCF70FBF0120FFF770FB4E
:1034E00006B0BDE8F04DFFF74DBB7A48824542DAA1
:1034F000BAF1795F0BDA2846FFF7D6FA042808BF3D
:10350000FFF746FB284606B02146BDE8F08D2A4667
:103510000B461046FCF797FF834602466E480E4660
:103520000B4606217844FFF7D3FA5A463346FCF798
:103530008AFF804669488A465A46334604217844C1
:10354000FFF7C6FA5A463346FCF77DFF00223B469A
:10355000FCF7D2FE02460B4640465146FCF7E5FF1B
:103560002A462346FCF76FFF06B02A462346BDE8ED
:10357000F04DFCF7C1BE284624F0004100223D4634
:103580003B46FCF75DFF4FF0FF32FDF7C5F90646FD
:10359000024653480F460B4606217844FFF798FA37
:1035A00032463B46FCF74FFFCDE900014D4832461D
:1035B0003B4604217844FFF78BFA32463B46FCF742
:1035C00042FF00222B46FCF797FE834602913046CD
:1035D000394601F09FF8804643480D46504517DCB8
:1035E000DDE900015A46029BFCF79FFF42462B464D
:1035F000FCF729FF42462B46FCF77EFE0122FDF731
:103600008BF9304A304BFCF718FF304A304B4CE016
:103610004FF0000A52460B464046FCF76DFECDE9DE
:10362000031052462B4610461946FCF70CFF324653
:103630003B46FCF705FFDDE90332FCF776FF064663
:103640000F46DDE900015A46029BFCF76EFF8346F8
:103650000091012230463946FDF75EF9194A1A4BAE
:10366000FCF7EEFE06460F46012240462946FDF7CE
:1036700053F95A46009BFCF7E6FE32463B46FCF700
:10368000DCFE06460F46012250462946FDF744F966
:103690000E4DDFF858802A464346FCF7D1FE3246ED
:1036A0003B46FCF7CDFE2A464346FCF7C9FE002CFC
:1036B000D8BF81F0004106B0BDE8F08D0000F03FBA
:1036C0000000F07F075C143326A6913C182D44546B
:1036D000FB21F93F0000E03F3013000046130000DB
:1036E000BA120000D01200003333EF3FFB21E93F54
:1036F0002DE9F84F04460D4621F000400091734932
:10370000814211DC7249884201DC06D12CB120468D
:103710002946BDE8F84FFFF730BA6E48002DCCBF00
:103720006D496E49BDE8F88F6D49814211DD6D49E3
:103730008142D8BF4FF0FF366DDD20462946FFF7A6
:10374000B3F9042808BFFFF723FA20462946BDE84D
:10375000F88F6549654F25F00045814233DD6449A6
:10376000814219DD002632464FF08043204629462B
:10377000FCF7C2FD80468A46012220462946FDF715
:10378000CBF800223B46FCF758FE42465346FCF776
:10379000CCFE04460D463EE001260022BA463B46DA
:1037A00020462946FCF7A8FD80460F4600225346D6
:1037B00020462946FCF741FE42463B46FCF7B5FE53
:1037C00004460D4627E04B4981421BDDDFF828A166
:1037D00002260022534620462946FCF734FE0022EA
:1037E0003B46FCF789FD80460F46002253462046A3
:1037F0002946FCF722FE42463B46FCF796FE04466D
:103800000D4608E0032622462B4600203B49FCF7E4
:103810008CFE04460D4622462B4610461946FCF700
:1038200012FE8B46824602460B46FCF70CFE07460C
:103830000246334888460B4606217844FFF748F98C
:1038400052465B46FCF7FFFD82462E488B463A46C1
:10385000434605217844FFF73BF93A464346FCF7D7
:10386000F2FD02460B46002E504659460CDAFCF794
:1038700043FD22462B46FCF7E6FD01B022462B46CF
:10388000BDE8F04FFCF7DCBDFCF736FD22462B46C9
:10389000FCF7D9FD1C4A7A4402EBC603D3E90023A6
:1038A000FCF7CBFD22462B46FCF7C7FD174A7A44AE
:1038B00002EBC603D3E90023FCF7C2FD009A002AFD
:1038C000B8BF81F00041BDE8F88F0000000010444F
:1038D0000000F07F182D4454FB21F93FFB21F9BF74
:1038E0000000DC3F0000203E0000F33F0000F03FFE
:1038F0000000E63F008003400000F83F0000F0BFFA
:10390000D2100000901000002E100000F60F0000F2
:103910002DE9F04D9446CCF1000423F000464CEA2A
:103920000404524F46EAD4749A46884621F0004275
:10393000BC4206D8454240EA050442EAD474BC427F
:1039400004D9BDE8F04D6246FFF71AB9AAF1405517
:10395000A5F17F6555EA0C040BD0022404EAAA7491
:10396000434DDFF810E144EAD87452EA000B04D06A
:103970000CE0BDE8F04DFFF7BBBE002C14BF012CDE
:10398000BDE8F08D022C30D0032C32D056EA0C0B5F
:103990000AD0BE4220D1BA4209D126F0804622F098
:1039A00080423346114617E000291ADB25E0DFF894
:1039B000C8B0FB44002C04BFDBE90001BDE8F08D7A
:1039C000012C02BFDBE9000181F00041BDE8F08D70
:1039D000022C0AD0032C0CD0BA4212D1B8F1000F3D
:1039E0000BDA23482549BDE8F08D28462449BDE877
:1039F000F08D28467146BDE8F08D1D482149BDE88F
:103A0000F08D921B12153C2AC4BF19481D490EDCCB
:103A1000BAF1000FBEBF12F13C0F0020014606DBD9
:103A20006246FCF782FD21F00041FFF761FE002CA9
:103A300008BFBDE8F08D012C04BF81F00041BDE856
:103A4000F08D114A114B022C07D0FCF7F6FC2A46E8
:103A5000BDE8F04D0A4BFCF7F0BCFCF7EEFC2A4643
:103A6000BDE8F04D064BFCF7EBBC00000000F07F1A
:103A7000182D4454FB2109C08A0F0000FB21F9BF17
:103A8000FB210940FB21F93F075C143326A6A13C2A
:103A9000014689B101290BD0022905D003290FD194
:103AA00009480A4A10600BE00948084A106007E01C
:103AB0000848064A106003E00748044A106000BF47
:103AC00000BF02480068704700007A3D5C0000209B
:103AD0000000FA3D00007A3E0000FA3E0146082947
:103AE00025D2DFE801F0201C1814100C080412483D
:103AF000124A10601BE01248104A106017E011488B
:103B00000E4A106013E010480C4A10600FE00F4896
:103B10000A4A10600BE00E48084A106007E00D48A2
:103B2000064A106003E00C48044A106000BF00BF62
:103B300002480068704700000000F2396000002071
:103B400000007A3A0000FA3A00007A3B0000FA3BA3
:103B500000007A3C0000FA3C00007A3D10B500F00D
:103B600001F810BD10B50024752000F04FFB04468D
:103B7000214623A0FEF788FF0021762000F05EFB9F
:103B80000121112000F05AFB642000F071FA472C4B
:103B900032D10220FFF77CFF0021762000F04EFB9F
:103BA000402444F008042146502000F047FB012047
:103BB000FFF794FF0021762000F040FB202444F022
:103BC000080421464F2000F039FB0021762000F048
:103BD00035FB4E2000F01AFB044624F0200444F08C
:103BE0000C0444F0030421464E2000F027FB012082
:103BF00000F03EFA002010BD4FF0FF30FBE7000060
:103C00007265675F76616C3A25640A0070B588B0AA
:103C100004460D4600200590069007900C2205A949
:103C20001F2000F000FB9DF815009DF8141040EADD
:103C3000012000B2ADF80C009DF817009DF8161099
:103C400040EA012000B2ADF80E009DF819009DF881
:103C5000181040EA012000B2ADF810009DF81B00DA
:103C60009DF81A1040EA012000B2ADF804009DF85A
:103C70001D009DF81C1040EA012000B2ADF80600BE
:103C80009DF81F009DF81E1040EA012000B2ADF81B
:103C90000800BDF90C00FCF7B7FC06461F48016898
:103CA0003046FCF7B9FA2060BDF90E00FCF7ACFC19
:103CB00006461A4801683046FCF7AEFA6060BDF966
:103CC0001000FCF7A1FC0646144801683046FCF7DA
:103CD000A3FAA060BDF90400FCF796FC0646104864
:103CE00001683046FCF798FA2860BDF90600FCF739
:103CF0008BFC06460A4801683046FCF78DFA68607E
:103D0000BDF90800FCF780FC06460548016830460E
:103D1000FCF782FAA860002008B070BD5C000020AB
:103D2000600000202DE9F04F8BB005468846914693
:103D30009A46A4480068002846D1002441E055F87E
:103D40002400FCF799FCC4EB041202EB82029E4BA8
:103D500003EB42129D4B1B6802EBC30203C255F8F2
:103D60002400FCF789FCCDE90801994800EBC40068
:103D7000D0E900B35A460898FCF7BEFA944A02EB21
:103D8000C40203C255F8241055F82400FCF744FA85
:103D90008346FCF771FCCDE908018E4800EBC400B6
:103DA000D0E900B35A460898FCF7A6FA894A02EB14
:103DB000C40203C2884849F8240000204AF82400BD
:103DC000641C032CBBDBA3E000249EE0C4EB0410C6
:103DD00000EB80007C4901EB40107C49096800EB56
:103DE000C100D0E900B37A4800EBC40003C85A46CA
:103DF000CDE90801FCF721FB754A02EBC40203C2BE
:103E0000C4EB041000EB80016F4800EB41116F48D8
:103E1000006801EBC000D0E900B3C4EB041000EB74
:103E20008000694901EB40106849096800EBC10155
:103E300003C95A46CDE90601FCF705FBCDE90801A7
:103E4000644800EBC400D0E900B35A460898FCF778
:103E5000F7FA604A02EBC40203C255F82400FCF7EB
:103E60000BFCC4EB041202EB8202574B03EB421231
:103E7000564B1B6802EBC30203C2C4EB041000EBF9
:103E80008000514901EB40105049096800EBC10026
:103E9000D0E900B34E4800EBC40003C85A46CDE950
:103EA0000801FCF729FA4A4A02EBC40203C2C4EB38
:103EB000041000EB8000444901EB401043490968BD
:103EC00000EBC101C4EB041000EB8000D1E900B3AA
:103ED0003D4901EB40113D48006801EBC00103C9B9
:103EE0005A46CDE90601FCF7AEFACDE9080139489A
:103EF00000EBC400D0E900B35A460898FCF7FCF97F
:103F0000344A02EBC40203C2641C032CFFF65EAF0A
:103F10002E480068401C2D4908600846006840454E
:103F200004DB00200860012026490860254800685D
:103F300010B90BB0BDE8F08F4046FCF773FB0646A6
:103F40000F4600243AE0224800EBC401D1E900B159
:103F500032463B465846FCF7E8FACDE90801FCF743
:103F60009EFB4AF824001A4800EBC401D1E900B3D3
:103F700000EBC40103C95A46CDE90001FCF763FA1E
:103F800032463B46CDE90201FCF7CFFACDE9040108
:103F9000104800EBC400D0E900B35A460498FCF77F
:103FA0004FFA32463B46CDE90601FCF7BEFACDE9B1
:103FB0000801FCF774FB49F82400641C032CC2DBE5
:103FC00000BFB6E748000020200100204C00002080
:103FD000401D0020581D00200000C84270B5064654
:103FE0000D46144629463046FCF776FB01D228469A
:103FF00070BD21463046FCF779FB01D22046F7E739
:104000003046F5E770B506460D461446294630465B
:10401000FCF762FB01D2284670BD21463046FCF712
:1040200065FB01D22046F7E73046F5E710B56FF0A3
:104030000400FEF721F80A4800680A49B0FBF1F0D5
:10404000094908700846007800EB4001C1EBC01038
:104050004FF6FF7101EAC0000449088010BD00005E
:104060000400002000127A00680000206A0000208E
:104070000146114A12884A434FF0E0235A61002258
:104080009A611A46126942F001021A6100BF4FF0AC
:10409000E022106900F001021AB100F48032002A17
:1040A000F5D04FF0E022126922F001024FF0E02338
:1040B0001A6100229A6170476A0000200146114A85
:1040C00012784A434FF0E0235A6100229A611A465F
:1040D000126942F001021A6100BF4FF0E02210693C
:1040E00000F001021AB100F48032002AF5D04FF03E
:1040F000E022126922F001024FF0E0231A6100224F
:104100009A6170476800002002460B88D31A18B2E3
:104110000A8070471FB501210420FDF7ADFE012183
:104120000846FDF789FE0320ADF80C008DF80E005F
:1041300004208DF80F0003A91248FCF724FD6846FF
:10414000FEF770FA0020ADF80000ADF802004FF65F
:10415000FF70ADF8040069464FF08040FEF710FA9A
:1041600000231A4603214FF08040FEF705F9002195
:104170004FF08040FEF701FA01218807FDF7ECFFC0
:104180001FBD0000000801401FB501210420FDF7FC
:1041900073FE01210220FDF74FFEC020ADF80C0098
:1041A00003208DF80E0004208DF80F0003A911489C
:1041B000FCF7E9FC6846FEF735FA0020ADF8000090
:1041C000ADF802004FF6FF70ADF8040069460A48EA
:1041D000FEF7D6F900231A4603210748FEF7CCF86C
:1041E00000210548FEF7C9F901210348FDF7B4FF96
:1041F0001FBD0000000801400004004070B50446E7
:104200000D46E0B2FEF7CCFA204670BD38B5044644
:10421000002000906B4601222146D020FCF7A0FE32
:104220009DF8000038BD70B504460D461646F2B242
:104230002B462146D020FCF793FE70BD13B50446F3
:1042400001AB01222146D020FCF7BEFE00201CBDA0
:104250002DE9F04704464FF07C512046FBF7DCFF88
:10426000814625462E460C48A0EB66063546294673
:104270004846FBF7D1FF82462946FBF7CDFF804633
:104280004FF07F51FBF7C5FF07462946FBF7C4FFF8
:1042900005462846BDE8F087DF59375F08B501219C
:1042A0000820FDF7E9FD2020ADF8000003208DF87F
:1042B000020048208DF8030069460248FCF763FCC1
:1042C00008BD0000000C014010B520210348FCF798
:1042D000E5FC08B1012010BD0020FCE7000C014006
:1042E00010B510210348FCF7E2FC20210148FCF73F
:1042F000E0FC10BD0008014010B510210348FCF798
:10430000D8FC20210148FCF7D2FC10BD0008014078
:1043100010B50446B4F57A7F02DD4FF47A7403E0F9
:1043200014F57A7F00DA0B4C002C05DDFFF7E4FF73
:10433000A0B2FDF76BFD0BE0002C06DAFFF7D0FF13
:10434000614288B2FDF762FD02E00020FDF75EFDEC
:1043500010BD000018FCFFFFAEB0FDF7A3FEFFF795
:1043600065FE4FF4E13000F003FA9CA0FEF78CFBF1
:104370009CA0FEF73FFAFCF7C9FCFDF70FFBFFF727
:104380008DFF4FF47A702C902C98FDF793FBFFF77C
:10439000C1FEFFF7F9FE0020FFF7BAFF002000F092
:1043A0008FF900202B902A909248D0F800A09248D4
:1043B000299092482890924823904FF07E50229066
:1043C000192021901E20209000254FF0010B4FF066
:1043D000010801201F904FF000090020FDF75AFB53
:1043E00000201E90299816902898179023981890CE
:1043F000229819902098ADF868002198ADF86A00CD
:1044000016A8FCF73AFB6420FFF732FEE4E0794897
:104410000468A4EB0A0080B2642870DBA2461E98F0
:10442000201A41F28831884205D31E942A4621463B
:1044300074A0FEF729FBFFF747FF8346C34502D16F
:104440004FF000090CE0B9F1030F03DA09F10100A4
:1044500000F0FF09B9F1030F02DBD8464FF0000965
:104460001F98012817D1B8F1000F14D105B900E049
:10447000002005464DB90020FFF74AFF002000F05C
:104480001FF90020FDF706FB05E00120FDF702FB08
:1044900016A8FCF7F2FACDF87C80002D30D15F48E9
:1044A000FDF794F94FF08040FDF787FF27905C48B7
:1044B000FDF783FF26902BA92798FFF725FE0646D8
:1044C0002AA92698FFF720FE07461C98FCF7D4F887
:1044D000CDE9120151490868FCF7CEF8CDE9100189
:1044E000B81BCDE9026704A931C1DDE91201CDE9AC
:1044F00000014CA0DDE91023FEF7C6FA6CE06AE08B
:104500004648FDF763F94FF08040FDF756FF2790CE
:104510004348FDF752FF26902BA92798FFF7F4FD9B
:1045200006462AA92698FFF7EFFD07462998169018
:104530002898179023981890229819902098ADF8F1
:1045400068002198ADF86A0024A825A914AA15AB23
:10455000CDE90032CDE9021030483B4632460168D1
:1045600016A8FCF795FABDF95400FFF7D1FEBDF986
:10457000500000F0A5F82498FCF77EF8CDE9120170
:104580002598FCF779F8CDE910011C98FCF774F830
:10459000CDE90E0121490868FCF76EF8CDE90C0160
:1045A000B81BCDE9066708A931C1DDE91201CDE9E3
:1045B0000401DDE91001CDE90201DDE90E01CDE9DB
:1045C00000012648DDE90C23FEF75EFA2448006866
:1045D000401C2349086000BF19E700004F4B0D0A3B
:1045E00000000000564F46415F52454144590D0AB4
:1045F00000000000640000200000A0429A99193FCA
:104600000000C841484232207469636B3D256C75D7
:104610002072756E3D25750D0A000000B80000205F
:1046200000040040793D252E36662074793D252E04
:10463000366620646C3D256C642064723D256C6494
:1046400020646966663D256C64207469636B3D2552
:104650006C752072756E3D25750D0A00484900087D
:104660000000002010B502210448FCF720FB4FF4A5
:1046700080610248FCF71DFB10BD0000000C0140EA
:1046800010B502210448FCF714FB4FF48061024886
:10469000FCF70DFB10BD0000000C014010B50346F7
:1046A000581A04B2944202DD881800B210BD50427C
:1046B000844202DA881A00B2F8E71846F6E70000EA
:1046C00010B50446B4F57A7F02DD4FF47A7403E046
:1046D00014F57A7F00DA0B4C002C05DDFFF7D0FFD4
:1046E000A0B2FDF79DFB0BE0002C06DAFFF7BAFF46
:1046F000614288B2FDF794FB02E00020FDF790FBD9
:1047000010BD000018FCFFFF411C88B2FF2800DD2F
:10471000002070472DE9F04106460F46FCF756F998
:10472000041E0D4618BF0120284320F00040C0F1B0
:104730007F6000F1E040C00F0ED0301C18BF012098
:10474000384320F00040C0F17F6000F1E040C00F2E
:1047500004BF0120FEF734FA20462946BDE8F08167
:10476000411C88B2B0F5006F00DB002070470000EC
:1047700010B586B0044601210420FDF77DFB012120
:104780004804FDF759FB2248FEF768F80420ADF80D
:10479000140003208DF8160018208DF8170005A9C5
:1047A0001C48FCF7F0F90820ADF8140004208DF83F
:1047B000170005A91748FCF7E6F926208DF8000038
:1047C00003208DF801008DF8020001208DF8030010
:1047D0006846FDF797F901940020ADF80800ADF8A0
:1047E0000A00ADF80C00ADF810000C20ADF80E007A
:1047F00001A90748FEF7D0F8012240F225510448EC
:10480000FEF7A4F801210248FEF71BF806B010BD20
:10481000004400400008014010B5044604E00B4984
:104820002046FBF7F3FC044609492046FBF75EFFF0
:10483000F5D304E005492046FBF796FC04460549FC
:104840002046FBF749FFF5D3204610BD0000B443D6
:1048500000003443000034C3555555555555C53FE8
:104860007D6FEB0312D6D4BF5544880E55C1C93FA6
:104870003B8F68B52882A4BF88B20175E0EF493F3D
:1048800009F7FD0DE13D023F4B2D8A1C273A03C07D
:10489000C88A599CE52A004059018D1B6C06E6BF69
:1048A00082922EB1C5B8B33F4FBB610567ACDD3F07
:1048B000182D4454FB21E93F9BF681D20B73EF3F47
:1048C000182D4454FB21F93FE2652F227F2B7A3CBF
:1048D000075C143326A6813CBDCBF07A8807703C78
:1048E000075C143326A6913CC4EB98999999C9BFEB
:1048F000711623FEC671BCBF6D9A74AFF2B0B3BF20
:104900009AFDDE522DDEADBF2F6C6A2C44B4A2BFDF
:104910000D5555555555D53FFF8300922449C23F4B
:104920006E204CC5CD45B73F513DD0A0660DB13F7F
:10493000EB0D76244B7BA93F11DA22E33AAD903F91
:104940000000000000000000793D252E366620742E
:10495000793D252E3666207961775F653D252E36B7
:104960006620636F72723D252E366620646C3D258D
:104970006C642064723D256C6420646966663D2524
:104980006C64207469636B3D256C752072756E3D97
:1049900025750D0A00000000B8490008000000203D
:1049A0009C000000A02B0008544A00089C00002036
:1049B000842B0000B02B00080000000000A24A0475
:1049C00000000000000000000102030406070809BF
:1049D00000000000000000000000000000000000D7
:1049E00000000000000000000000000000000000C7
:1049F00000000000000000000000000000000000B7
:104A000000000000000000000000000000000000A6
:104A10000000000023DB793E333303420000000036
:104A20000000000000000000000000000000000086
:104A30000000000000000000000000000000000076
:104A40000102030401020304060708090204060820
:044A50000000000062
:0400000508000131BD
:00000001FF
