:020000040800F2
:10000000580700208901000811080008770500083A
:100010000F07000891020008A71500080000000063
:10002000000000000000000000000000F90C0008C3
:10003000A502000800000000B50C000879100008B7
:10004000A3010008A3010008A3010008A301000800
:10005000A3010008A3010008A3010008A3010008F0
:10006000A3010008A3010008A3010008A3010008E0
:10007000A3010008A3010008A3010008A3010008D0
:10008000A3010008A3010008A3010008A3010008C0
:10009000A3010008A3010008A3010008A3010008B0
:1000A000A3010008A3010008A3010008A3010008A0
:1000B000A3010008A3010008DD100008A301000847
:1000C000A3010008A3010008A3010008A301000880
:1000D000A3010008C1140008A3010008A30100083F
:1000E000A3010008A3010008A301000800F002F822
:1000F00000F03AF80AA090E8000C82448344AAF188
:100100000107DA4501D100F02FF8AFF2090EBAE885
:100110000F0013F0010F18BFFB1A43F0010318473B
:10012000E4290000042A0000103A24BF78C878C1EE
:10013000FAD8520724BF30C830C144BF04680C60ED
:10014000704700000023002400250026103A28BF35
:1001500078C1FBD8520728BF30C148BF0B60704739
:100160001FB51FBD10B510BD00F033F81146FFF7E5
:10017000F7FF01F01DFA00F051F803B4FFF7F2FFAA
:1001800003BC01F012FA0000094880470948004703
:10019000FEE7FEE7FEE7FEE7FEE7FEE7FEE7FEE737
:1001A000FEE7FEE704480549054A064B7047000094
:1001B0007D100008ED0000085801002058070020BD
:1001C000580300205803002070477047704770475D
:1001D0007047754600F02CF8AE4605006946534658
:1001E00020F00700854618B020B5FFF7DBFFBDE81B
:1001F00020404FF000064FF000074FF000084FF08E
:10020000000B21F00701AC46ACE8C009ACE8C0091E
:10021000ACE8C009ACE8C0098D46704710B504468B
:10022000AFF300802046BDE81040FFF7A6BF0000F6
:1002300000487047F40000202DE9F04104460D46C7
:1002400029464FF0804001F0F1FF07460D49204656
:1002500001F0ECFF8046394601F050FE06460A499F
:10026000304602F0AFF800D2074E0849304601F0A0
:10027000A9FF00D2054E304601F070FF00B2BDE884
:10028000F0810000000020410000A0410000A0C15A
:1002900000BFFEE710B5024613B20C881C1B20B24B
:1002A0000B8010BD704700B5034603E04FF47A7031
:1002B00000F005F8181EA3F10103F7D100BD00EB13
:1002C000C001C9004FF0E022516100219161052178
:1002D000116100BF4FF0E021096901F4803100296C
:1002E000F8D004214FF0E0221161704770B54FF053
:1002F000804000F0CCFF05460249FFF7CBFF0446E3
:10030000204670BD0600002070B5064800F0BFFF13
:1003100005460549FFF7BEFF0446604204B2204689
:1003200070BD0000000400400800002010B500F07F
:1003300017F800F04BF84FF0804000F0A8FF00B233
:1003400004490880044800F0A2FF00B20349088075
:1003500010BD00000600002000040040080000203E
:100360001FB50121084600F0A7FC0121042000F080
:10037000B3FC04208DF80F0003208DF80E00ADF8BB
:100380000C0003A9104800F059F80020ADF8060051
:10039000ADF802004FF6FF70ADF804000020ADF894
:1003A00000008DF8080069464FF0804001F036F8F3
:1003B00000231A4603214FF0804000F047FF01213F
:1003C000880700F028FF1FBD000801401FB501216C
:1003D000022000F071FC0121042000F07DFC0420CB
:1003E0008DF80F0003208DF80E00C020ADF80C0032
:1003F00003A9104800F022F80020ADF80600ADF87F
:1004000002004FF6FF70ADF804000020ADF80000C8
:100410008DF808006946084801F000F800231A46E4
:100420000321054800F012FF0121034800F0F3FE0C
:100430001FBD000000080140000400402DE9F0410C
:10044000024600250026002000230024002791F802
:1004500003C00CF00F0591F803C00CF0100CBCF1B8
:10046000000F03D091F802C04CEA050591F800C0D6
:10047000BCF1000F31D0146800202BE04FF0010CCC
:100480000CFA00F3B1F800C00CEA03069E4220D13A
:1004900083004FF00F0C0CFA03F7BC4305FA03FC82
:1004A0004CEA040491F803C0BCF1280F06D14FF0C8
:1004B000010C0CFA00FCC2F814C00AE091F803C069
:1004C000BCF1480F05D14FF0010C0CFA00FCC2F84A
:1004D00010C0401C0828D1D31460B1F800C0BCF192
:1004E000FF0F34DD546800202EE000F1080C4FF0BF
:1004F000010808FA0CF3B1F800C00CEA03069E42AA
:1005000021D183004FF00F0C0CFA03F7BC4305FA1E
:1005100003FC4CEA040491F803C0BCF1280F05D198
:1005200000F1080C08FA0CF8C2F8148091F803C026
:10053000BCF1480F07D100F1080C4FF0010808FA90
:100540000CF8C2F81080401C0828CED35460BDE8D7
:10055000F0810246002093680B400BB1012000E0BF
:100560000020704741617047016170470AB1016125
:1005700000E04161704700BFFEE710B500F040FCAD
:1005800000216B2000F0B2F80A20FFF78CFE072153
:10059000192000F0ABF806211A2000F0A7F8182166
:1005A0001B2000F0A3F800211C2000F09FF8002180
:1005B000382000F09BF810BD2DE9F04107460E46AB
:1005C000154600F0BDFCD02000F0E1FC384600F0FC
:1005D000DEFC00F0B5FCD12000F0D9FC00240BE0DB
:1005E000611CA94201DA012100E00021084600F067
:1005F0002BFC3055601CC4B2AC42F1DB00F0B6FC01
:10060000BDE8F0811FB5684600F014F8BDF90C0094
:1006100004B010BD1FB5684600F00CF8BDF90C0021
:1006200001F0B8FD0446024901F0D6FC04B010BD4B
:10063000333383411FB504460E2269463B20FFF742
:10064000BBFF9DF801009DF8001040EA012000B2B8
:1006500020809DF803009DF8021040EA012000B2BE
:1006600060809DF805009DF8041040EA012000B26A
:10067000A0809DF807009DF8061040EA012000B216
:10068000E0809DF809009DF8081040EA012000B2C2
:1006900020819DF80B009DF80A1040EA012000B26D
:1006A00060819DF80D009DF80C1040EA012000B219
:1006B000A0811FBD70B5044600F042FCD02000F0C0
:1006C00066FC204600F063FC00F03AFCD12000F00C
:1006D0005EFC002000F0B8FB054600F047FC284611
:1006E00070BD10B57520FFF7E5FF10BD70B505466C
:1006F0000C4600F025FCD02000F049FC284600F014
:1007000046FC204600F043FC00F030FC70BD00BF0A
:10071000FEE7000010B5044644B910210848FFF771
:1007200023FF20210648FFF71DFF07E010210448A2
:10073000FFF718FF20210248FFF716FF10BD000049
:100740000008014010B50446204600F09FFA10BD95
:1007500010B504460CB9012000E0002004464CB955
:1007600002210948FFF700FF4FF480610648FFF7B8
:10077000F9FE08E002210448FFF7F4FE4FF480611F
:100780000148FFF7F1FE10BD000C014010B5044612
:10079000204600F085FA10BD10B501210148FFF791
:1007A000E1FE10BD000C014008B501210C2000F055
:1007B00093FA10208DF8030003208DF802003020FA
:1007C000ADF8000069460648FFF738FE40F20340E6
:1007D000ADF8000069460348FFF730FE08BD000091
:1007E00000080140000C014010B5FFF7DDFF00F0EC
:1007F000FBF9FFF7D1FF0020FFF78CFF0020FFF788
:10080000A7FF0020FFF79EFF0020FFF7BFFF10BDEE
:10081000704770B500240EE00021204600F007F973
:10082000002504E0002000F0CEF9681CC5B2802D40
:10083000F8DB601CC4B2082CEEDB70BD08B50121EA
:10084000082000F049FA10208DF8030003208DF8ED
:1008500002008020ADF8000069460D48FFF7EEFD6C
:100860004FF48070ADF8000069460948FFF7E6FDD7
:100870004FF4C0710648FFF777FE0122802104483B
:10088000FFF774FE012211020148FFF76FFE08BD59
:10089000000C014070B50546002424E08020204172
:1008A000284008B1012000E0002002464FF480718A
:1008B0001648FFF75BFE002001E0411CC8B20A2881
:1008C000FBDB012280211148FFF750FE002001E0F0
:1008D000411CC8B20A28FBDB002280210B48FFF72D
:1008E00045FE601CC4B2082CD8DB012280210748D9
:1008F000FFF73CFE002001E0411CC8B20A28FBDBE8
:10090000002280210148FFF731FE70BD000C01403C
:1009100010B5012211020A48FFF728FE01228021AA
:100920000748FFF723FE00224FF480710448FFF7C9
:100930001DFE002280210248FFF718FE10BD0000B6
:10094000000C014010B500224FF480710648FFF7FB
:100950000DFE012280210448FFF708FE012211024A
:100960000148FFF703FE10BD000C014070B50024E4
:1009700006E0002500E06D1CB5F57A7FFBD3641C12
:10098000B4F57A7FF5D3FFF759FFAE2000F00BF9ED
:10099000D52000F008F9802000F005F9A82000F02B
:1009A00002F93F2000F0FFF8D32000F0FCF800200F
:1009B00000F0F9F8402000F0F6F8A12000F0F3F87C
:1009C000C82000F0F0F8DA2000F0EDF8122000F076
:1009D000EAF8812000F0E7F8CF2000F0E4F8D92011
:1009E00000F0E1F8F12000F0DEF8DB2000F0DBF8A9
:1009F000302000F0D8F8A42000F0D5F8A62000F0B0
:100A0000D2F88D2000F0CFF8142000F0CCF8AF2001
:100A100000F0C9F8FFF7FDFE70BD10B502460120D9
:100A200000E050430B1EA1F10101FAD110BD70B5D9
:100A300005460C4645F0B00000F0B5F8102141EA3B
:100A4000141000F0B0F804F00F0000F0ACF870BD26
:100A50002DE9F04105460E461746721ED206110ECC
:100A60006A1E5206100EFFF7E2FF002409E0A7F10C
:100A70002001134A02EB0111085D00F0A4F8601C8C
:100A8000C4B2082CF3DB721ED206110E6A1E0123BB
:100A900003EB4202D0B2FFF7CAFF00240BE0A7F13C
:100AA0002001074A02EB011204F10801505C00F03A
:100AB0008AF8601CC4B2082CF1DBBDE8F0810000AC
:100AC000122500082DE9F04781460E4690461F4644
:100AD00000241DE0381B411E1020FFF79EFFB8FBCD
:100AE000F0F000F00F050A2D08DA05F13000C2B26F
:100AF0003019C1B24846FFF7ABFF07E005F13700F8
:100B0000C2B23019C1B24846FFF7A2FF601CC4B29E
:100B1000BC42DFDBBDE8F0872DE9F047814688461F
:100B200015461E46002D06DB2B2241464846FFF7A0
:100B30008FFF2F4605E02D2241464846FFF788FFEC
:100B40006F42002417E0301B411E0A20FFF765FFAB
:100B5000B7FBF0F00A21B0FBF1F201FB120000F14B
:100B6000300A08EB0400401CC1B252464846FFF769
:100B70006FFF601CC4B2B442E5DBBDE8F0872DE92D
:100B8000F04107460E461546002407E02A5D30195D
:100B9000C1B23846FFF75CFF601CC4B2285D002874
:100BA000F4D1BDE8F08110B50446FFF7B1FE78201E
:100BB000FFF770FE0020FFF76DFE2046FFF76AFE8C
:100BC000FFF7C0FE10BD10B50446FFF7A1FE782068
:100BD000FFF760FE4020FFF75DFE2046FFF75AFE5C
:100BE000FFF7B0FE10BD000000B589B00121C802BA
:100BF00000F072F80121042000F06EF818208DF842
:100C000023004001ADF8200003208DF8220008A940
:100C10001C48FFF713FC1C4800F04DFB0020ADF80A
:100C20001A00ADF816006320ADF8180040F2CF208E
:100C3000ADF8140000208DF81C0005A9124800F042
:100C4000EDFB01A800F0DCFB6020ADF80400002003
:100C5000ADF80C000120ADF806000020ADF80A0048
:100C600001A9094800F02EFB01A9074800F076FB16
:100C70000121054800F0CFFA0121034800F0D7FA1E
:100C800009B000BD00080140002C014010B5044629
:100C90002146024800F0BEFB10BD0000002C0140C0
:100CA00010B504462146024800F0B6FB10BD000016
:100CB000002C01407047000029B1064AD269024366
:100CC000044BDA6104E0034AD2698243014BDA61E2
:100CD000704700000010024029B1064A92690243A1
:100CE000044B9A6104E0034A92698243014B9A6182
:100CF0007047000000100240704710B500F002F885
:100D000010BD00000CB50020019000903348006831
:100D100040F480303149086000BF3048006800F47A
:100D2000003000900198401C0190009818B901987B
:100D3000B0F5A06FF1D12948006800F4003010B17F
:100D40000120009001E0002000900098012843D18C
:100D50002348006840F010002149086008460068F8
:100D600020F0030008600846006840F002000860B8
:100D70001A48406819494860084640684860084673
:100D8000406840F4806048600846406820F47C1069
:100D900048600846406840F4E8104860084600682B
:100DA00040F08070086000BF0C48006800F00070E0
:100DB0000028F9D00948406820F00300074948603E
:100DC0000846406840F00200486000BF03484068A1
:100DD00000F00C000828F9D10CBD00000010024002
:100DE0000020024008B50020009004E09DF80000BB
:100DF000401CC0B200909DF800001428F6DB08BD2E
:100E000008B501210820FFF767FF14208DF80300C3
:100E100003208DF802004FF48050ADF800006946C1
:100E20000848FFF70BFB4FF40050ADF8000069468F
:100E30000448FFF703FB012000F03CF8012000F01C
:100E400045F808BD000C014070B50546002400F0CF
:100E500049F8002612E0012000F02CF8FFF7C2FF4D
:100E60006006040E00F062F808B144F001040020AE
:100E700000F020F8FFF7B6FF701CC6B2082EEADBC0
:100E800000F042F80DB9012100E00021084600F011
:100E90001DF8FFF7A7FF012000F00CF8FFF7A2FFF5
:100EA000002000F007F8FFF79DFF012000F00EF88A
:100EB000204670BD10B5044622464FF480510248CA
:100EC000FFF754FB10BD0000000C014010B50446B4
:100ED00022464FF400510248FFF748FB10BD0000C6
:100EE000000C014008B548208DF803004FF4005075
:100EF000ADF8000003208DF8020069460148FFF7B5
:100F00009DFA08BD000C014008B514208DF80300BF
:100F10004FF40050ADF8000003208DF80200694640
:100F20000148FFF78BFA08BD000C014010B54FF4E3
:100F300000510248FFF70DFB10BD0000000C0140FE
:100F400010B5FFF7E1FF0120FFF7C0FF0120FFF719
:100F5000B1FFFFF747FF0020FFF7B8FFFFF742FFA1
:100F60000020FFF7A7FFFFF73DFF10BD10B5FFF70B
:100F7000CBFF0020FFF7AAFF0120FFF79BFFFFF741
:100F800031FF0120FFF7A2FFFFF72CFF10BD70B566
:100F90000446FFF7B9FF002613E0C4F3C010FFF7C3
:100FA00095FFFFF71FFF0120FFF784FFFFF71AFFF0
:100FB0000020FFF77FFFFFF715FF6006040E701C8F
:100FC000C6B2082EE9DBFFF78DFFFFF70BFF01200C
:100FD000FFF770FFFFF706FFFFF7A8FF05460020A9
:100FE000FFF768FFFFF7FEFEFFF78EFF0DB9012048
:100FF00070BD0020FCE700002DE9F84F05460E46C5
:1010000014461F46A81B0FFA80F8404601F0C2F8AC
:101010008246216800F072FF20601449206801F0C8
:10102000D1F901D2114820601149206801F0CAF8B5
:1010300001D20F4820600F48216801F0F7F80090B6
:10104000404601F0A7F883464FF0804101F0EEF8EA
:101050008246009900F052FF8146A7F8008048467A
:1010600001F07CF800B2BDE8F88F00000000C84233
:101070000000C8C29A99993E7047000010B5134805
:10108000006840F0010011490860084640681049B6
:1010900008400E494860084600680E4908400B4960
:1010A00008600846006820F4802008600846406810
:1010B00020F4FE0048604FF41F008860FFF71DFE1B
:1010C0004FF000600449086010BD000000100240AD
:1010D0000000FFF8FFFFF6FE08ED00E02DE9F84FF5
:1010E00001213C4800F0D6F8012871D1012139488E
:1010F00000F08EF83848007808B9BDE8F88FFFF79F
:10110000F5F88246FFF700F98346FFF783FA00906F
:1011100032480168009801F087F90746304938469F
:1011200001F084F800902F480168009800F0E6FE76
:101130002C4908602C492B48006801F043F902D281
:1011400029482849086029492648006801F03AF8EA
:1011500002D2264823490860394622480068FFF732
:101160006BF8064606F11E000FFA80F8C6F11E0065
:101170000FFA80F91E4B1F4A51464046FFF73CFFCD
:1011800005461D4B1D4A59464846FFF735FF0446A4
:101190000A2D00DA0A25322D00DD32250A2C00DA6C
:1011A0000A24322C00DD3224E8B2FFF7CBFAE0B299
:1011B000FFF7ECFA0B48006800F0D0FF00B21049CE
:1011C000088010480680104805801048048000BF41
:1011D00000BF92E70008004014000020100000202B
:1011E0000AD7233C0C00002000007042000070C2AF
:1011F0002000002018000020220000201C000020F9
:101200002400002026000020280000202A000020C2
:10121000CA430282704721B1028842F00102028073
:1012200004E002884FF6FE731A400280704731B125
:10123000B0F8442042F40042A0F8442005E0B0F8A1
:101240004420C2F30E02A0F844207047F0B50C46CB
:1012500015461E460021002200230189028B038CC3
:101260004FF6F877394021434FF6FC473A4040F2B9
:1012700001173A434FF6DD773B404FF6FF7707EA19
:1012800006172F433B43018102830384F0BD0146CF
:10129000888C704730B50246002000230024158A50
:1012A00005EA0103958905EA010413B10CB1012097
:1012B00000E0002030BD01894FF6F8721140018135
:1012C0007047000070B5002400220023058C4FF603
:1012D000FE7635400584028C8388048B4FF68F752B
:1012E0002C40B51E2C400D882C43751E2A400D89BC
:1012F0002A434D882A43144DA8420BD0134DA842CF
:1013000008D0134DA84205D0124DA84202D0124D6C
:10131000A84213D14FF6F7752A404D892A434FF65C
:10132000FB752A408D882A434FF6FF652B404FF608
:10133000FF552B408D892B43CD892B43838004831C
:10134000CD888586028470BD002C014000340140A8
:1013500000400140004401400048014070B50024B5
:1013600000220023058C4FF6EF7635400584028C71
:101370008388048B48F6FF752C404FF6FF452C40C0
:101380000D884FF6FF7606EA05252C434FF6DF75EC
:101390002A400D8906EA05152A434D8806EA0515F7
:1013A0002A43154DA84202D0144DA8421DD14FF634
:1013B0007F752A404D894FF6FF7606EA05152A43C8
:1013C0004FF6BF752A408D8806EA05152A434FF669
:1013D000FF352B404FF2FF752B408D8906EA8505BE
:1013E0002B43CD8906EA85052B4383800483CD8872
:1013F0000587028470BD0000002C014000340140CC
:101400000021018041808180C180018141818181F1
:10141000C18170478186704701877047002202882A
:101420001D4B98420ED01D4B98420BD0B0F1804F0F
:1014300008D01B4B984205D01A4B984202D01A4B49
:10144000984204D14FF68F731A404B881A43174BBA
:10145000984207D0164B984204D04FF6FF431A40EB
:10146000CB881A4302808B8883850B8803850A4BBF
:1014700098420BD0094B984208D00E4B984205D0A9
:101480000D4B984202D00D4B984201D10B7A038646
:101490000123838270470000002C0140003401408A
:1014A0000004004000080040000C00400010004014
:1014B0000014004000400140004401400048014049
:1014C00010B540F225511D4800F03EF810B31B48FE
:1014D00000F064F8C4B21A48008800F40040C8B9AB
:1014E0001748008800F4804060B10A2C03D0002027
:1014F0001349088020E01248008840F40040104959
:10150000088019E00D2C06D10D48008840F4804079
:101510000B49088010E00A480088C0F30D00094913
:101520000C5407480088401C05490880084600887C
:10153000C72801DD0020088010BD000000380140F0
:10154000040000202C00002070B502460024002377
:101550000025002040F66A16B14200D100BFC1F359
:10156000421501F01F03012606FA03F3012D02D1F3
:101570009689334006E0022D02D1168A334001E0FD
:10158000968A33400C12012606FA04F41688344079
:1015900013B10CB1012000E0002070BD0146888825
:1015A000C0F30800704700BFFEE7014600BF704768
:1015B000FFF7DCF964A201210846FFF7E0FA64A214
:1015C00001210220FFF7DBFAFFF70EF9FEF7AEFE6E
:1015D000FEF7D3FF60A201210320FFF7D0FAFFF747
:1015E00080F804460223224605210320FFF76AFA09
:1015F0005BA201210420FFF7C2FA00210D460E462E
:1016000000240FE0FFF706F8814600F04BFC074688
:101610002A46334600F008F905460E460520FEF737
:1016200042FE641CB4F5FA7FECDB00224F4B2846E7
:10163000314600F0A1F9074600F0C4F84C490860B3
:101640004CA201210420FFF79AFA002418E0FEF7CB
:10165000E1FF804646480168404600F0E5FE074647
:101660004749384600F0E2FD80464648016840465A
:1016700000F044FC434908600A20FEF714FE641C95
:10168000C82CE4DB00203F4908603FA20121042070
:10169000FFF775FA4FF49670FEF705FEFFF7B9F8FD
:1016A0003CA201210846FFF76AFA3DA2012102206F
:1016B000FFF765FA3DA201210320FFF760FA3DA282
:1016C00001210420FFF75BFA3DE0FEF79BFF074690
:1016D000FEF7A0FF804626480168404600F0A4FEC1
:1016E00081462749484600F0A1FD04462548016887
:1016F000204600F003FC2349086030492148006877
:1017000000F060FE02D22D481E4908602C491D4899
:10171000006800F057FD02D229481A4908600623E4
:101720003A4605210320FFF7F7F9404600F016FD81
:1017300004B20423224605211846FFF7EDF9642080
:10174000FEF7B1FD00BFC0E74361736361646500EC
:1017500050494420563100004D50553A00000000D9
:101760005A65726F2043616C2E2E2E0000407F4020
:10177000100000205761726D696E672E2E2E2000BA
:101780000AD7233C0C000020526561647920202098
:10179000202020004445425547204D505500000070
:1017A0004E4F204D4F544F52000000005241573AC7
:1017B000000000004450533A000000000000704256
:1017C000000070C221F00042A2F16052B2F5801F09
:1017D00001F0004328BFD2F17F6C0BD95FEA001CF7
:1017E00043EAC20242EB507018BF704728BF20F096
:1017F00001007047B2F5801FBCBF184670474FEA22
:10180000410C1CF5001F02D2084600F0D6BD70B591
:1018100000F00AFA00000089FFF7F6BF4FF0004021
:10182000A0F580007047000010B591EA030F48BF93
:1018300083F0004300F15482841A71EB030C05D24B
:10184000121943EB0C03001B61EB0C01DFF824E1E0
:101850004FEA1154A4EB135C1EEA430F18BF9EEA33
:10186000445F73D023EA0E03DCF1200E21EA045119
:1018700043F4801332D322FA0CFE10EB0E0023FA4D
:101880000CFE41EB0E01CCF1200E03FA0EFE10EB24
:101890000E0051F10001B1F5801FCCF1200E32D2C3
:1018A00001EB045112FA0EF2BDE8104058BF704728
:1018B000401C38BF5FEA420218BF7047002814BFBF
:1018C00020F0010041F100014FEA410313F5001F30
:1018D00038BF7047A1F1C04100F0F4B9012A43EBD1
:1018E0000302ACF1200CDCF11F0E32BF4FF0000EF2
:1018F00023FA0CF310EB030041EB0451B4EB115F3E
:10190000D0D0A1EB045101F5801149085FEA300005
:1019100001EB04510ED350F1000038BF12FA0EFE55
:1019200008D1BDE81040C9E7401C38BF5FEA420259
:10193000CAD1C3E7BDE810404FEA410313F5001FC9
:1019400038BF7047A1F1C04100F0BCB99EEA445FC6
:1019500008D011EA5E0FBDE8104004BF01F000415D
:1019600000207047BDE8104070B500F05DF900BF81
:1019700064FBBE3E0000E0FF2DE9C04130B4DFF85B
:10198000A0C23CEA111418BF3CEA131400F0EC802A
:1019900081EA03051CEA111444EAD57418BF1CEA55
:1019A000131500F0C780A4EB05044FF0004545EA8D
:1019B000C12145EAC32341EA505143EA525304F19D
:1019C0007F74994204F500344FEAC0204FEAC222E6
:1019D00008BF904200F09C804FEA13650FF240165A
:1019E000765D4FEA134506FB05F7C7F1807706FBE6
:1019F00007F74FEAD737A7FB03687642C8F5803868
:101A0000A7FB06CE38BFA8F1010807FB08E64FF098
:101A1000000EA6FB028CE6FB03CEDCF1000CCEF13F
:101A2000004E38BFAEF1010EA6FB0C584FF0000778
:101A30004FF00005E6FB0E87A1FB08C6A0FB07CE12
:101A400016EB0E0645F10005E1FB076515F1E04ECA
:101A50007EBFA4F580345FEA46066D4116F180072B
:101A600045F100054FEA17274FEA066647EA056782
:101A7000A6F1DE46B6F1805F4FEA15251FD938463C
:101A800024F0010C05EBC471BCF1FE6F01EB0C11ED
:101A900002D8F0BCBDE8008124425CBF01F5801E85
:101AA0009EEAC47F02D4F0BCBDE80081244238D451
:101AB000F0BCA1F1C041BDE8004100F003B94FEA1C
:101AC000D22242EA43524FEAD323A7FB02864FEACF
:101AD000D02040EA415007FB03661EEA0E0F4FEA92
:101AE000D12105FB026658BFA6EB0056B6EB0056A7
:101AF0004FEA520E4EEAC37E18EB0E0E56EB530E13
:101B0000BDD518EB02085E417F1C55F10005B6E714
:101B10004FF480154FF000074FF000064FF000081B
:101B2000ADE7F0BC4FF0000001F1C04101F0004111
:101B3000BDE8008111EA0C1F0CEA131500D00CE07F
:101B400013EA0C1F00F025804FF00000F0BC81EA82
:101B5000030101F00041BDE80081F0BCBDE8004197
:101B600081EA030100F0AEB8F0BCBDE8004170B5F9
:101B700000F05AF8097EFC3E00F007B881EA030144
:101B80004FF0000001F00041704781EA030100F0CE
:101B900099B8F0BCBDE800414FF000002149704702
:101BA000FFFDFBF9F7F5F4F2F0EEEDEBE9E8E6E422
:101BB000E3E1E0DEDDDBDAD8D7D5D4D3D1D0CFCDA9
:101BC000CCCBCAC8C7C6C5C4C2C1C0BFBEBDBCBBE2
:101BD000BAB9B8B7B6B5B4B3B2B1B0AFAEADACABDD
:101BE000AAA9A8A8A7A6A5A4A3A3A2A1A09F9F9EB7
:101BF0009D9C9C9B9A999998979796959594939369
:101C0000929191908F8F8E8E8D8C8C8B8B8A8989FF
:101C10008888878786858584848383828281818082
:101C20000000FF070000F87F0EF1020E2EF0030EF9
:101C30005EF8046B364205D4012A43EB030515F523
:101C4000001F12D8012841EB010C1CF5001F0CD815
:101C50000ED14FEAD17C15F5001F0CEB4C0C0CF1AA
:101C6000020C08BF4CEBD37C04E04FF0080C01E001
:101C70004FEAD37C0CEB4C0526FA05F606F0070676
:101C8000B6F1040C06D20EEB860CBDE870404CF0A9
:101C9000010C6047DFE80CF0090B02024FF0004135
:101CA0004FF00000A1F5002170BD19461046012833
:101CB00051EB010418BFD4F5001484BF002001F0DB
:101CC000004170BD0808A0F500114FEA31017047CE
:101CD00010B591EA030F48BF83F000433FF5ACAD68
:101CE000841A71EB030C07D212198CF0004C43EBF1
:101CF0000C03001B61EB0C01DFF8A4E14FEA115467
:101D0000A4EB135C1EEA430F18BF9EEA445F00F089
:101D1000B08023EA6E03524221EA0451C3EB6E0302
:101D200038BF5B1EDCF1200E25D322FA0CFE10EB2F
:101D30000E0043FA0CFE41EB0E01CCF1200E03FA2B
:101D40000EFE10EB0E0051F10001CCF1200E29D453
:101D500012FA0EF201EB0451BDE8104058BF704773
:101D6000401C1CBFB2F1004F704700280CBF491C3B
:101D700020F00100704712EB020E43EB030218BF84
:101D80004FF0010E4EEA4202ACF1200CDCF11E0EC7
:101D900054D943FA0CFE10EB0E0051F1FF31CCF197
:101DA0001E0ED5D50EF1010E12FA0EFE404141EB8A
:101DB000010101EB445C5FEA5C5C10D910EBDE7062
:101DC00001EB045138BFBEF1004FBDE8104018BF11
:101DD000704700280CBF491C20F00100704730D22A
:101DE0004FEAD42C11F5001124F400641BD0B1FA91
:101DF00081F20B3AA41AA41ED2F12003914030FACA
:101E000003F31943904001EBCC71002C01EB04511A
:101E1000BDE81040A8BF704701F1C0414FF000007D
:101E200001F000417047B0FA80F310FA03F100D1DD
:101E300010BDE41A173C4805C90AE4E701EB045158
:101E400010BD491001EB0451BDE810404FEA3000CD
:101E500002E04FF0000170474A0008BF0042F8D08E
:101E6000B2F5001F28BF704701F000414FF000009D
:101E700070479EEA445F07D011EA5E0FBDE810404C
:101E800004BF002100207047BDE8104070B5FFF787
:101E9000CBFE00BF40DFF63E83F0004110467047A6
:101EA0000000E0FF43004FEAD30C4FEA3C0C4340F4
:101EB0001FBF40070CF1605113F0FE4F70471CF03C
:101EC000006F03D100200CF0004170470CF000437C
:101ED00043EA507010B540EACC0000F028FA00BF89
:101EE000000000924FEA0001FFF7ECBE4FF0004106
:101EF0004FF00000A1F500217047000090EA010FAB
:101F000048BF81F0004100F19682421A3CBF801A1E
:101F100089184FEAD0524FF07F4C1CEA410FA2EBD8
:101F2000D15318BF9CEA026F00F03B804FF0004C89
:101F30004CEA00204CEA012121FA03FC10EB0C0CC6
:101F40001ED202F1FF325FEA1C2040EBC25038BFC4
:101F500070471CF07F0F4FEA400C18BFBCF17F4F59
:101F600038BF7047C3F12003994008BF20F001003B
:101F7000BCF17F4F38BF7047A0F1C04000F01DBAE0
:101F80004FEA3C00000A40EBC25028BF1CF0FF0F94
:101F90004FEA400CE6D018BFBCF17F4F38BF704706
:101FA000EAE79CEA026F05D010EA5C0F08BF00F078
:101FB0000040704710B500F0BAF900BF64FBBE3EA8
:101FC000401058BFC0F14040491058BFC1F14041D6
:101FD0008142EFF3008070474FF47F0C1CEAD0126F
:101FE0001EBF1CEAD11392EA0C0F93EA0C0F00F00B
:101FF000858090EA010F48BF42F4807240F4000CE3
:1020000041F400002CF07F4120F07F4000B5814278
:10201000A2EB03020FF2081CACEB504EC0F1000023
:102020009EF800E04FEA4E0E00FB0EFC38BF490060
:102030004FEA2C1C02F5FA020CFB0EF34FEACE1EFF
:102040004FEA112C4FEAC1210EEB635E42EB2242B4
:102050000EFB0CFC4FEA1C5300FB03114FEA112C42
:102060004FEA01310EFB0CFC4FEADC4C00FB0C117B
:10207000C14228BF09184CEB03335DF804EB10EBA9
:10208000410143EBC250B2F57C0F38BF704729D5F0
:1020900012F0F00F1CBF00F1C04000F0004070478C
:1020A000008182838485868788898B8C8D8E8F9131
:1020B0009293959697999A9C9D9FA0A2A3A5A7A855
:1020C000AAACAEB0B2B3B5B7B9BCBEC0C2C5C7C981
:1020D000CCCED1D4D7D9DCDFE2E6E9ECF0F3F7FAE5
:1020E000FE0000004FEA400C0CF1807CBCF17E4FFA
:1020F00028BF7047B0F1C04000F05FB990EA010F0F
:102100000CEAD11348BF42F48072624538BF634580
:1021100007D213F47F0F16D080EA010000F00040D0
:10212000704710B500F003F9097EFC3E00F005B8D9
:1021300080EA010000F00040704780EA010000F0F2
:10214000004000F03AB912F47F0F04BF0248704714
:1021500080EA010000F031B90000C07F41000B0EA1
:10216000D3F19E0208D950F400034FEA032323FA67
:1021700002F048BF4042704710B500F0D8F800BFE9
:1021800049922480002070476FF0004282EA2000CC
:102190007047000010F0004148BF4042B0FA80F3A1
:1021A00010FA03F2C3F19D030BD051EAC35101EBC6
:1021B0001220530638BF704700F1010008BF20F01D
:1021C0000100704750EA010C00F113801CF5000F6C
:1021D00058BFBCF5000F01D48842704707D710F5EF
:1021E000000F58BF11F5000F15D48842704789427F
:1021F00070471CF5000F04D5BCF5000FF7D58142E0
:1022000070474FF0807C1CEB400F38BF1CEB410F38
:1022100001D28142704710B500F089F8922449003C
:102220004FF000504FF08051FFF7CABE4FF47F0CC3
:102230001CEAD0121EBF1CEAD11392EA0C0F93EADB
:102240000C0F00F0478090EA010F48BF42F4807203
:102250004FF0004C4CEA00204CEA012102EB030253
:10226000A0FB0113A2F50002002918BF43F00103EF
:102270005B0028BF4FEA330342EB22425FEA132C94
:102280004CEBC2502EBFBCEB436FB2F57C0F7047D6
:102290004FEA036CBCF1004F08BF20F00100B2F51B
:1022A0007C0F38BF70470BD582F0FF0212F5803FDC
:1022B000C8BF704700F1C040D8BF00F00040704771
:1022C00000F5000C5FEA4C0C48BF7047B0F1C0400D
:1022D00000F073B890EA010F0CEAD11348BF42F442
:1022E0008072624538BF634504D280EA010000F085
:1022F0000040704710B500F01AF800BF8900013E99
:1023000000F007B800F009B85FEA410C5FEA1C6C06
:1023100008D080EA010000F050B85FEA400C5FEAA4
:102320001C6CF6D14FF00040A0F5800070470EF114
:10233000020E2EF0030E5EF8044B244204D44FEA42
:102340004102B2F17F4F11D84FEA4003B3F17F4F02
:102350000CD80ED14FEAD07CB2F17F4F0CEB4C0C75
:102360000CF1020C08BF4CEBD17C04E04FF0080CE0
:1023700001E04FEAD17C0CEB4C0324FA03F404F0A7
:102380000704B4F1040C06D20EEB840CBDE8104037
:102390004CF0010C6047DFE80CF0070802024FF038
:1023A0000040A0F5800010BD0846420018BFD2F1E1
:1023B000807288BF00F0004010BDFF2141EAD0507C
:1023C000C005704751EA000C00F113801CF5000FA6
:1023D00058BFBCF5000F01D48142704707D711F5F3
:1023E000000F58BF10F5000F15D481427047894285
:1023F00070471CF5000F04D5BCF5000FF7D58842D7
:1024000070474FF0807C1CEB410F38BF1CEB400F36
:1024100001D28842704780EA010081EA000180EA27
:102420000100FFF7F8BE000090EA010F48BF81F0FD
:1024300000413FF56AAD421A04D882F00042A0EB99
:10244000020011444FEAD0524FF07F4C1CEA410F7A
:10245000A2EBD15318BF9CEA026F4AD04FF0004C58
:102460004CEA00204CEA012121FA03FCB0EB0C0CF1
:102470000FD412F0FE0F36D05FEA4C001DD50012CB
:1024800040EBC25038BF70471CF03F0F18BF704779
:102490000BE0A2F101025FEA1C2040EBC25038BF02
:1024A00070471CF07F0F18BF7047C3F1200399409D
:1024B00014BF401E20F00100704780084FEA12232D
:1024C00008BF7047B0FA80FCA2EB0C02CCF1280CDC
:1024D00060FA0CF093EA122F04BF00EBC250704771
:1024E0004FEAC3707047130A5FEADC1008BF7047F9
:1024F000F6E79CEA026F04D010EA5C0F08BF0020E8
:10250000704710B5FFF713FF40DFF63E81F0004043
:102510007047000000000000000000000000000004
:102520000000000000F80000000000000033300050
:10253000000000100C06100C060000000000000057
:10254000000040C07840C0784000043F04043F04CD
:102550000400007088FC08300000001820FF211ED5
:102560000000F008F000E018000000211C031E210C
:102570001E0000F00888700000001E212324192787
:10258000211010160E0000000000000000000000E6
:102590000000000000E018040200000000071820FE
:1025A000400000020418E00000000040201807006E
:1025B0000000404080F0804040000202010F010214
:1025C0000200000000F0000000000101011F0101F5
:1025D0000100000000000000000080B0700000005A
:1025E00000000000000000000000000101010101E6
:1025F0000101000000000000000000303000000079
:10260000000000000000806018040060180601004F
:10261000000000E010080810E000000F102020105B
:102620000F00001010F8000000000020203F2020C4
:10263000000000700808088870000030282422215B
:102640003000003008888848300000182020201111
:102650000E000000C02010F8000000070424243FF2
:10266000240000F80888880808000019212020119B
:102670000E0000E0108888180000000F11202011C3
:102680000E0000380808C83808000000003F0000AD
:1026900000000070880808887000001C2221212298
:1026A0001C0000E010080810E00000003122221198
:1026B0000F00000000C0C00000000000003030002B
:1026C00000000000008000000000000080600000AA
:1026D00000000000804020100800000102040810E3
:1026E00020004040404040404000040404040404F2
:1026F00004000008102040800000002010080402A0
:102700000100007048080808F000000000303601A1
:102710000000C030C828E810E00007182724231460
:102720000B000000C038E0000000203C230202271C
:10273000382008F8888888700000203F2020201169
:102740000E00C030080808083800071820202010A4
:10275000080008F808080810E000203F202020109A
:102760000F0008F88888E8081000203F2020232068
:10277000180008F88888E8081000203F20000300AF
:102780000000C03008080838000007182020221E6A
:10279000020008F808000008F808203F2101012184
:1027A0003F20000808F8080800000020203F2020F3
:1027B000000000000808F8080800C08080807F0042
:1027C000000008F888C028180800203F200126389B
:1027D000200008F8080000000000203F20202020F2
:1027E000300008F8F800F8F80800203F003F003FEC
:1027F000200008F830C00008F808203F2000071823
:102800003F00E01008080810E0000F102020201002
:102810000F0008F808080808F000203F2101010116
:102820000000E01008080810E0000F1824243850B9
:102830004F0008F8888888887000203F2000030C2B
:102840003020007088080808380000382021212234
:102850001C00180808F8080818000000203F200095
:10286000000008F808000008F808001F20202020B9
:102870001F000878880000C83808000007380E01DB
:102880000000F80800F80008F800033C0700073CC7
:102890000300081868808068180820302C03032C77
:1028A00030200838C800C83808000000203F200049
:1028B000000010080808C838080020382621202009
:1028C0001800000000FE020202000000007F4040ED
:1028D0004000000C30C0000000000000000106387D
:1028E000C00000020202FE000000004040407F00E5
:1028F00000000000040202020400000000000000CA
:1029000000000000000000000000808080808080C7
:1029100080800002020400000000000000000000AF
:102920000000000080808080000000192422222204
:102930003F2008F8008080000000003F1120201197
:102940000E000000008080800000000E112020207A
:102950001100000000808088F800000E1120201077
:102960003F200000808080800000001F2222222261
:102970001300008080F0888888180020203F2020E5
:1029800000000000808080808000006B949494930D
:10299000600008F8008080800000203F21000020B7
:1029A0003F2000809898000000000020203F202059
:1029B0000000000000809898000000C08080807FA8
:1029C000000008F8000080808000203F24022D30A5
:1029D0002000000808F8000000000020203F202010
:1029E00000008080808080808000203F20003F2089
:1029F000003F8080008080800000203F2100002078
:102A00003F200000808080800000001F20202020C8
:102A10001F00808000808000000080FFA120201126
:102A20000E000000008080808000000E112020A099
:102A3000FF80808080008080800020203F21200057
:102A40000100000080808080800000332424242442
:102A50001900008080E0808000000000001F20201E
:102A600000008080000000808000001F20202010D7
:102A70003F20808080000080808000010E300806AA
:102A8000010080800080008080800F300C030C30BB
:102A90000F0000808000808080000020312E0E31E9
:102AA0002000808080000080808080818E701806E9
:102AB000010000808080808080000021302C222155
:102AC000300000000000807C020200000000003F97
:102AD000404000000000FF00000000000000FF0078
:102AE00000000002027C800000000040403F000027
:102AF00000000006010102020404000000000000C2
:102B000000000000242B0008000000202C00000022
:102B100028010008502B00082C0000202C07000082
:102B20004401000800000000000000000000000058
:102B30000000000000000000000000000000000095
:102B40000000000000000000000000000000000085
:04000005080000ED02
:00000001FF
