:020000040800F2
:10000000D8060020890100088D0700089D0400081B
:10001000B50500084302000839130008000000007D
:10002000000000000000000000000000850A000839
:100030004702000800000000410A0008710B000898
:10004000A3010008A3010008A3010008A301000800
:10005000A3010008A3010008A3010008A3010008F0
:10006000A3010008A3010008A3010008A3010008E0
:10007000A3010008A3010008A3010008A3010008D0
:10008000A3010008A3010008A3010008A3010008C0
:10009000A3010008A3010008A3010008A3010008B0
:1000A000A3010008A3010008A3010008A3010008A0
:1000B000A3010008A3010008D50B0008A301000854
:1000C000A3010008A3010008A3010008A301000880
:1000D000A3010008A3010008A3010008A301000870
:1000E000A3010008A3010008A301000800F002F822
:1000F00000F03AF80AA090E8000C82448344AAF188
:100100000107DA4501D100F02FF8AFF2090EBAE885
:100110000F0013F0010F18BFFB1A43F0010318473B
:100120006C1800008C180000103A24BF78C878C101
:10013000FAD8520724BF30C830C144BF04680C60ED
:10014000704700000023002400250026103A28BF35
:1001500078C1FBD8520728BF30C148BF0B60704739
:100160001FB51FBD10B510BD00F031F81146FFF7E7
:10017000F7FF01F0E3F800F04FF803B4FFF7F2FFE8
:1001800003BC00F057F800000948804709480047C1
:10019000FEE7FEE7FEE7FEE7FEE7FEE7FEE7FEE737
:1001A000FEE7FEE704480549054A064B7047000094
:1001B000750B0008ED000008D8000020D8060020CC
:1001C000D8020020D802002070477047704775465B
:1001D00000F02CF8AE4605006946534620F00700B3
:1001E000854618B020B5FFF7DDFFBDE820404FF091
:1001F00000064FF000074FF000084FF0000B21F011
:100200000701AC46ACE8C009ACE8C009ACE8C009DD
:10021000ACE8C0098D46704710B50446AFF30080C6
:100220002046BDE81040FFF7A8BF00000048704717
:100230007800002001491820ABBEFEE7260002002E
:10024000704700BFFEE7704700204FF0E0210861D3
:10025000401E48610020886105200861704710B584
:10026000044603E04FF47A7000F006F8201EA4F173
:100270000104F7D110BD000010B54FF0E0239969DB
:10028000074B1B68074CB3FBF4F303FB00F200BF02
:100290004FF0E0239B695B1A9342F9D310BD000035
:1002A0000000002040420F001FB50121042000F093
:1002B000D9FB0121084600F0C5FB0121022000F016
:1002C000C1FB0320ADF80C0004208DF80F000320C3
:1002D0008DF80E0003A9234800F048F800231A46C1
:1002E00003214FF0804000F0D5FC4FF6FF70ADF8D1
:1002F00004000020ADF80000ADF80600ADF80200E3
:1003000069464FF0804000F0A5FDC020ADF80C001C
:1003100004208DF80F0003A9124800F027F80023ED
:100320001A460321104800F0B5FC4FF6FF70ADF8F7
:1003300004000020ADF8000069460B4800F08AFD7B
:100340000121880700F08BFC0121074800F087FCA1
:1003500000214FF0804000F07BFD0021024800F0BA
:1003600077FD1FBD00080140000400402DE9F04169
:10037000024600250026002000230024002791F8D3
:1003800003C00CF00F0591F803C00CF0100CBCF189
:10039000000F03D091F802C04CEA050591F800C0A7
:1003A000BCF1000F31D0146800202BE04FF0010C9D
:1003B0000CFA00F3B1F800C00CEA03069E4220D10B
:1003C00083004FF00F0C0CFA03F7BC4305FA03FC53
:1003D0004CEA040491F803C0BCF1280F06D14FF099
:1003E000010C0CFA00FCC2F814C00AE091F803C03A
:1003F000BCF1480F05D14FF0010C0CFA00FCC2F81B
:1004000010C0401C0828D1D31460B1F800C0BCF162
:10041000FF0F34DD546800202EE000F1080C4FF08F
:10042000010808FA0CF3B1F800C00CEA03069E427A
:1004300021D183004FF00F0C0CFA03F7BC4305FAEF
:1004400003FC4CEA040491F803C0BCF1280F05D169
:1004500000F1080C08FA0CF8C2F8148091F803C0F7
:10046000BCF1480F07D100F1080C4FF0010808FA61
:100470000CF8C2F81080401C0828CED35460BDE8A8
:10048000F0810246002093680B400BB1012000E090
:1004900000207047416170470161704700BFFEE76F
:1004A00070B50446002511E0C4F3C0100F49086080
:1004B00001200F49C1F89C01FFF7DEFE00200B4927
:1004C000091F08606006040E681CC5B2082DEBDB2E
:1004D0000120064908600649C1F89C01FFF7CCFEDF
:1004E00000200249091F086070BD0000A081214260
:1004F0000080214210B50120084908600849C1F870
:100500009C01FFF7B9FE0020044908600120FFF7B5
:10051000B3FE00200249C1F89C0110BDA081214218
:100520000080214210B500200649086001200649DC
:10053000C1F89C01FFF7A0FE012002490860FFF707
:100540009BFE10BDA08121420080214208B50121FF
:10055000082000F087FA2020ADF8000048208DF830
:10056000030069460148FFF701FF08BD000C014088
:1005700010B520210C48FFF784FF80B91420FFF745
:100580006EFE20210848FFF77CFF58B90748007825
:1005900040B90120054908700549087002E00020B3
:1005A0000249087010BD0000000C01401600002038
:1005B0001500002000BFFEE700B589B001210C2026
:1005C00000F050FA0121C80200F04CFA0120ADF809
:1005D000200010208DF8230003208DF8220008A9A8
:1005E0002F48FFF7C3FE3020ADF8200010208DF813
:1005F000230003208DF8220008A92A48FFF7B6FE41
:1006000040F20240ADF8200010208DF823000320B6
:100610008DF8220008A92248FFF7A8FE4FF4407089
:10062000ADF8200018208DF8230003208DF822005B
:1006300008A91C48FFF79AFE40F2E730ADF8180011
:100640000020ADF81400ADF81A00ADF816008DF8D2
:100650001C0005A9144800F0FDFB6020ADF8040063
:100660000120ADF806000020ADF80A00ADF80C003E
:1006700001A90D4800F04AFB01A90B4800F092FBCC
:100680000121094800F0EBFA0121074800F0F3FAD4
:1006900001210348FFF700FF00F05EF809B000BD3C
:1006A000000C014000080140002C014070B50446D8
:1006B0000D46002C08DD10212348FFF7EDFE202118
:1006C0002148FFF7E7FE0BE0002C09DA10211E4855
:1006D000FFF7E0FE20211C48FFF7DEFE604204B277
:1006E000002D09DD02211948FFF7D6FE4FF4806185
:1006F0001648FFF7CFFE0CE0002D0ADA022113485E
:10070000FFF7C8FE4FF480611048FFF7C5FE68424E
:1007100005B2B4F57A7F01DB40F2E73414F57A7F55
:1007200000DC0B4CB5F57A7F01DB40F2E73515F5BF
:100730007A7F00DC064DA1B2064800F085FBA9B225
:10074000044800F083FB70BD00080140000C01402C
:1007500019FCFFFF002C014010B50021084800F0F3
:1007600073FB0021064800F071FB30210548FFF7BC
:1007700091FE40F202410448FFF78CFE10BD0000DC
:10078000002C014000080140000C014070470000AF
:1007900070B5002100230F22C47804B3154C2468DF
:1007A00004F4E064C4F5E064210AC1F10403CA4022
:1007B000447804FA03F184781440214309010E4C73
:1007C0000678A155047804F01F050124AC40057893
:1007D0006D11AD0005F1E025C5F8004109E0047890
:1007E00004F01F050124AC40044D0678761145F84D
:1007F000264070BD0CED00E000E400E080E100E088
:1008000070B5002415E004F1B001C8B200F0D4F8CE
:10081000002000F0D1F8102000F0CEF8002504E010
:10082000002000F0D9F8681CC5B2802DF8DB601CF0
:10083000C4B2082CE7DB70BD08B50121082000F028
:1008400011F94FF46070ADF8000010208DF803002E
:1008500003208DF8020069462748FFF787FD002036
:10086000264908606420FFF7FAFC01202449C1F8FA
:10087000A401AE2000F0A0F8D52000F09DF8802063
:1008800000F09AF8A82000F097F83F2000F094F8C4
:10089000D32000F091F8002000F08EF8402000F006
:1008A0008BF8A12000F088F8C82000F085F8DA2045
:1008B00000F082F8122000F07FF8812000F07CF830
:1008C000CF2000F079F8D92000F076F8F12000F080
:1008D00073F8DB2000F070F8402000F06DF8A420E1
:1008E00000F06AF8A62000F067F8AF2000F064F886
:1008F000FFF786FF08BD0000000C0140A4812142E3
:100900000080214270B504460D4605F1B001C8B221
:1009100000F052F804F00F0000F04EF8102101EB47
:10092000241000F049F870BD2DE9F04107460E464D
:100930001546A5F12000C5B231463846FFF7E2FF63
:10094000002407E00E4901EB0511085D00F044F8B2
:10095000601CC4B2082CF5DB701CC1B23846FFF72E
:10096000D1FF082407E0064901EB0511085D00F0FE
:1009700033F8601CC4B2102CF5DBBDE8F081000038
:10098000CC1500082DE9F04105460E4614461F46D9
:100990000DE0227831462846FFF7C6FF05F1080032
:1009A000C5B2782D02DD0025B01CC6B2641C2078CB
:1009B0000028EED1BDE8F08110B50446FFF79AFD9E
:1009C0007820FFF76DFD0020FFF76AFD2046FFF756
:1009D00067FDFFF7A7FD10BD10B50446FFF78AFDC0
:1009E0007820FFF75DFD4020FFF75AFD2046FFF716
:1009F00057FDFFF797FD10BD4FF07E500C49086082
:100A00000C4848600C4888600020C8600861486154
:100A100088614FF07E5009490860064848600648E2
:100A200088600020C86008614861886170470000E4
:100A3000240000200AD7A33DCDCC4C3D4800002027
:100A40007047000029B1064AD2690243044BDA61BB
:100A500004E0034AD2698243014BDA617047000027
:100A60000010024029B1064A92690243044B9A6180
:100A700004E0034A92698243014B9A617047000087
:100A800000100240704710B500F002F810BD0000E1
:100A90000CB50020019000903348006840F480308D
:100AA0003149086000BF3048006800F40030009011
:100AB0000198401C0190009818B90198B0F5A06FFA
:100AC000F1D12948006800F4003010B101200090F5
:100AD00001E0002000900098012843D123480068DD
:100AE00040F01000214908600846006820F003002B
:100AF00008600846006840F0020008601A48406834
:100B0000194948600846406848600846406840F413
:100B1000806048600846406820F47C1048600846C1
:100B2000406840F4E81048600846006840F0807073
:100B3000086000BF0C48006800F000700028F9D081
:100B40000948406820F003000749486008464068AB
:100B500040F00200486000BF0348406800F00C000D
:100B60000828F9D10CBD000000100240002002400E
:100B70007047000010B51348006840F001001149AB
:100B8000086008464068104908400E494860084619
:100B900000680E4908400B4908600846006820F4C8
:100BA000802008600846406820F4FE0048604FF44A
:100BB0001F008860FFF767FF4FF00060044908607E
:100BC00010BD0000001002400000FFF8FFFFF6FE1D
:100BD00008ED00E010B50121054800F07CF830B1C7
:100BE0000120044908700121014800F035F810BDCA
:100BF00000080040140000201FB501210420FFF769
:100C000021FF42F20F70ADF808004720ADF8040054
:100C10000020ADF80A00ADF8060001A90D4800F06B
:100C200019F9012211460B4800F066F81E208DF8D4
:100C3000000001208DF8010000208DF80200012045
:100C40008DF803006846FFF7A3FD0121014800F07D
:100C500006F81FBD00080040CA430282704721B158
:100C6000028842F00102028004E002884FF6FE731F
:100C70001A400280704731B1B0F8442042F400427B
:100C8000A0F8442005E0B0F84420C2F30E02A0F81A
:100C900044207047F0B50C4615461E460021002240
:100CA00000230189028B038C4FF6F87739402143EA
:100CB0004FF6FC473A4040F201173A434FF6DD77D2
:100CC0003B404FF6FF7707EA06172F433B4301816E
:100CD00002830384F0BD30B50246002000230024C7
:100CE000158A05EA0103958905EA010413B10CB1DF
:100CF000012000E0002030BD1AB183890B438381BD
:100D000002E083898B4383817047000070B5002423
:100D100000220023058C4FF6FE7635400584028CB8
:100D20008388048B4FF68F752C40B51E2C400D88A0
:100D30002C43751E2A400D892A434D882A43144DA1
:100D4000A8420BD0134DA84208D0134DA84205D09D
:100D5000124DA84202D0124DA84213D14FF6F7759A
:100D60002A404D892A434FF6FB752A408D882A4335
:100D70004FF6FF652B404FF6FF552B408D892B43D7
:100D8000CD892B4383800483CD888586028470BD02
:100D9000002C01400034014000400140004401406B
:100DA0000048014070B5002400220023058C4FF656
:100DB000EF7635400584028C8388048B48F6FF75F6
:100DC0002C404FF6FF452C400D884FF6FF7606EA83
:100DD00005252C434FF6DF752A400D8906EA0515D7
:100DE0002A434D8806EA05152A43154DA84202D02C
:100DF000144DA8421DD14FF67F752A404D894FF6FC
:100E0000FF7606EA05152A434FF6BF752A408D88FE
:100E100006EA05152A434FF6FF352B404FF2FF75C2
:100E20002B408D8906EA85052B43CD8906EA850589
:100E30002B4383800483CD880587028470BD000026
:100E4000002C0140003401408186704701877047C3
:100E500081847047002202881D4B98420ED01D4BA2
:100E600098420BD0B0F1804F08D01B4B984205D070
:100E70001A4B984202D01A4B984204D14FF68F7306
:100E80001A404B881A43174B984207D0164B98428A
:100E900004D04FF6FF431A40CB881A4302808B8858
:100EA00083850B8803850A4B98420BD0094B9842E7
:100EB00008D00E4B984205D00D4B984202D00D4BF6
:100EC000984201D10B7A0386012383827047000088
:100ED000002C0140003401400004004000080040A4
:100EE000000C004000100040001400400040014091
:100EF00000440140004801400146002901DB08464A
:100F000000E0484200B270470023002200210AE0BE
:100F10000A48405C28B10A4830F911000344501CCB
:100F200002B2481CC1B20829F2DB1AB90548B0F96F
:100F30000000704793FBF2F000B2FAE76D0000206A
:100F40007C1900081E00002003468B4201DA084687
:100F50007047934201DD1046FAE71846F8E70000B3
:100F60000146082901DB002070470148405CFBE78F
:100F70006D00002008B501210420FFF773FD40F645
:100F80000440ADF8000010208DF8030003208DF818
:100F9000020069461448FFF7E9F904211248FFF7F7
:100FA00079FA4FF400611048FFF774FA4FF480614A
:100FB0000D48FFF76FFA0820ADF8000048208DF8C3
:100FC000030069460848FFF7D1F900200749087077
:100FD00000BF05E000220549491C0A54411CC8B263
:100FE0000828F7DB08BD0000000801406C00002065
:100FF00070B50446DDE90456002C09DD012B03D051
:10100000012D01D0012E01D1012070BD0020FCE78F
:10101000012B03D0012A01D0012901D10120F4E7DD
:101020000020F2E7F0B5044605AD95E8E01054B9AC
:1010300049B942B93BB935B92EB927B9BCF1000F4E
:1010400001D10120F0BD0020FCE72DE9F04304466A
:1010500007AD95E8E0106018104418442844304467
:101060003844604400F0FF08012C03D0012A03D16A
:10107000012B01D1012000E0002081466DB966B945
:101080005FB9BCF1000F08D1B9F1000F05D0B8F17C
:10109000030F02DC0120BDE8F0830020FBE72DE90F
:1010A000F043044607AD95E8E0106018104418447A
:1010B000284430443844604400F0FF08BCF1010F7C
:1010C00003D0012F03D1012E01D1012000E0002027
:1010D000814665B95BB952B949B944B9B9F1000F54
:1010E00005D0B8F1030F02DC0120BDE8F083002039
:1010F000FBE7000005490870054908701221054A00
:1011000011700021044A117070470000180000207F
:10111000190000201A0000201B0000202DE9F047D4
:10112000FFF7F2FE07463849B1F9001001EB410123
:10113000C819C11700EB9171891009B2324A1180A8
:101140001046008831490988401A0FFA80F8104685
:10115000B0F9000000EB4000C00008EB880101EB93
:10116000C80100EB8100642190FBF1F004B2F02291
:1011700051422046FFF7E8FE0446E6252248B0F932
:101180000000FFF7B9FEB0F5E17F01DDB42507E00F
:101190001D48B0F90000FFF7AFFEDC2800DDCD25CB
:1011A00028190FFA80F9281B06B24FF4D2725A217F
:1011B0004846FFF7C9FE81464FF4D2725A213046A5
:1011C000FFF7C2FE064631464846FFF76FFA0E4863
:1011D000B0F90000282803DD01200D4908700CE05B
:1011E0000948B0F9000010F1280F03DAFF20084980
:1011F000087002E00020064908700348B0F90000BA
:1012000002490880BDE8F087200000201E00002071
:101210001800002070B504460E461546002C04DD6B
:1012200029463046FFF742FA0AE0002C04DA31463C
:101230002846FFF73BFA03E0E6210846FFF736FAB7
:1012400070BD000070B500200D490870002413E047
:10125000204600F019F808210A48FFF712F9054660
:101260000748401C0555401E007805FA04F1084364
:1012700003490870601CC4B2082CE9DB70BD000093
:101280006C0000200008014010B50446072C00DD6A
:1012900010BD4FF480611448FFF7FCF84FF4006173
:1012A0001148FFF7F7F804210F48FFF7F3F804F0AF
:1012B000040020B14FF480610B48FFF7EDF804F013
:1012C000020020B14FF400610748FFF7E5F804F091
:1012D000010018B104210448FFF7DEF8142000F0E3
:1012E0008BF800BFD4E700000008014060B1104A4D
:1012F0001278FF2A04DA0E4A1278521C0C4B1A702C
:1013000000220C4B1A7012E061B10A4A1278FF2ACF
:1013100004DA084A1278521C064B1A700022044B59
:101320001A7004E00022024B1A70024B1A707047C8
:101330001C0000201D00002000BFFEE7FFF71AFC84
:10134000FEF782FFFFF738F9FEF7AEFFFFF774FAFA
:10135000FFF7FCF8FFF70EFEFFF74EFBFFF74CFC24
:1013600003201D490870FFF74BFA10231BA2002130
:101370000846FFF707FB10231BA202210020FFF7FE
:1013800001FB27E0FFF7F4F81948007801280FD196
:1013900000201749087010480078032803D1012065
:1013A0000D49087004E003200B490870FFF7D4F9D9
:1013B00009480078012808D10E48007850B1002073
:1013C0000C49087000F020F804E00020094908707A
:1013D000FFF7C2F9D6E700001700002053544D3341
:1013E00032204361720000005265616479000000A0
:1013F0001500002014000020C10000BF0A1EA1F14A
:101400000101FBD1704700002DE9F04F87B0FFF7D5
:1014100019FF0020FFF7A4FD06900120FFF7A0FDB3
:1014200005900220FFF79CFD83460320FFF798FDFF
:1014300004900420FFF794FD04460520FFF790FD7B
:1014400005460620FFF78CFD06460720FFF788FDBE
:1014500007468DE8F0005A46DDE904310698FFF7AB
:101460001EFE80468DE8F0005A46DDE904310698FC
:10147000FFF7EBFD81464F480078002838D04E48F2
:1014800000780B2801DC012000E000208246BAF140
:10149000000F14D02346CDE900565946454890F92F
:1014A0000000049AFFF7A4FD48B1002041490870EC
:1014B00041490870414908704149087017E03E48A9
:1014C0000078002810DD3C480078401E3A4908703A
:1014D0006FF095024FF4B471364890F90000FFF7B1
:1014E00099FE07B0BDE8F08F00203249087000BFB8
:1014F0008DE8F0005A46DDE904310698FFF792FDC9
:1015000068B330480078401C2E4908702E48007897
:1015100000B308460078082808DC14224FF48271D2
:10152000294890F90000FFF775FE17E0254800787C
:101530000C2805DC6FF06D010846FFF7B7F80DE0E9
:101540006FF027024FF48C711F4890F90000FFF7ED
:1015500061FE03E08C210846FFF7A8F8C1E70020F0
:101560001849087049464046FFF7C0FE1348007806
:1015700002280ADB0120FFF7BDFD6FF095024FF452
:10158000B4710120FFF746FEABE70D480078022852
:101590000BDB4FF0FF30FFF7ADFD6FF095024FF41E
:1015A000B4711012FFF736FE9BE7FFF7B7FD00BFDF
:1015B00097E70000190000201A0000201C000020FE
:1015C0001D0000201B00002018000020000000006B
:1015D000000000000000000000000000000000000B
:1015E000001F1F00000000000000000000000303B7
:1015F0000300030303000303030000000000001FB7
:101600001F1F1F7F7F7F1F1F1F00000000000E0E87
:101610001F1F3F3F3F1F1F0E0E00000000003E3EF9
:10162000636303030C0C30307E7E00000000001C5E
:101630003E767F6B6331183C7600000000000000AE
:10164000000000070700000000000000000000008C
:10165000003C7EFFFF7E3C00000000000000000018
:1016600000FFFF7E3C18000000000000000018187A
:101670003C3C7E7E7E7E3C3C181800000000000052
:101680003030307E7E30303000000000000000003E
:10169000000000000000606000000000000000008A
:1016A00000007E7E0000000000000000000000003E
:1016B0000000000000006060000000000000000367
:1016C000060C18306030180C0603000000003C7E49
:1016D000FFFFFFE7C3C33C180000000000000C0C34
:1016E0000C0C0C0C0C0C0C0C0C0C000000003C7EC8
:1016F000FFFF03033F7FFFFF0000000000003C7E70
:10170000FFFF033C03FFFF7E3C00000000000307D7
:101710000F1F3F7FFFFF0303030300000000FFFFD5
:10172000FFFF3C3C03FFFF7E3C00000000003C7ECE
:10173000FFFF3C3C3FFFFF7E3C0000000000FFFF3E
:1017400003030303030303030303000000003C7EC1
:10175000FFFF3C3C3CFFFF7E3C00000000003C7E65
:10176000FFFF3C3C03FFFF7E3C0000000000000048
:1017700066660000006666000000000000000000D1
:101780006666000000666660000000000000001849
:101790003C7EFFFF7E3C18000000000000000000BF
:1017A0007E7E7E7E7E7E7E7E000000000000000049
:1017B0007E3C180C183C7E000000000000003C7EBF
:1017C000FF030303030303030000000000003C7E4B
:1017D000DBFFFFFF7E3C180000000000000000005F
:1017E0001F3F7FFFFF7F3F1F0000000000003F7F83
:1017F000FFFF7F7F7F7F7F3F0000000000001E3FD4
:101800007FFFFFFFFFFF3F1E0000000000003F7F43
:10181000FFFFFFFFFFFF7F3F0000000000007FFF92
:10182000FFFFFFFFFFFFFF7F0000000000007FFFC2
:10183000FFFF0F0F0F0F0F0F000000000000000050
:101840003F7FFFFFFFFF7F3F1F0F000000000000F2
:10185000FFFFFF7F7F7FFFFF000000000000000010
:101860003F3F3F3F3F3F3F3F000000000000000080
:101870001F1F1F1F1F1F1F1F3F3F000000000000F2
:101880007FFFFF7F7F3F3F1F000000000000000040
:101890003F3F3F3F3F3F3F3F000000000000000050
:1018A000FFFFFF7FFF7FFFFF000000000000000040
:1018B000FFFF7F7F3F3F1F1F000000000000000070
:1018C0007FFFFFFFFFFFFF7F000000000000000020
:1018D000FFFFFFFF0F0F0F0F0000000000000000D0
:1018E0007FFFFFFFFFFFFF7F1F0F000000000000D2
:1018F000FFFFFFFF3F3F1F1F000000000000000030
:101900003F7FFF3F3FFF7F3F0000000000000000DF
:101910007F7F7F7F7F7F7F7F0000000000000000CF
:101920007F7F7F7F7F7F7F7F0000000000000000BF
:101930003F3F7F7F7F7F3F3F0000000000000000AF
:101940007F7F7F3F7F7F7F7F0000000000000000DF
:101950001F3F7FFFFF7F3F1F0000000000000000CF
:101960000F1F3F7F7F3F1F0F00000000000000009F
:101970007FFFFF3F1F0F03000000000044FD20FE1B
:10198000FCFE88FF000078002C01BC02AC190008A6
:10199000000000202400000028010008D0190008E1
:1019A00024000020B40600004401000800A24A04FC
:1019B00000000000000000000102030406070809FF
:1019C0000000000300000000000000000000000014
:04000005080000ED02
:00000001FF
